{
	"remix/social.sol": {
		"PollHub": {
			"abi": [
				{
					"inputs": [],
					"stateMutability": "nonpayable",
					"type": "constructor"
				},
				{
					"inputs": [],
					"name": "AlreadyClaimed",
					"type": "error"
				},
				{
					"inputs": [],
					"name": "AlreadyVoted",
					"type": "error"
				},
				{
					"inputs": [],
					"name": "BadPoll",
					"type": "error"
				},
				{
					"inputs": [],
					"name": "BelowMinVotes",
					"type": "error"
				},
				{
					"inputs": [],
					"name": "NotCreator",
					"type": "error"
				},
				{
					"inputs": [],
					"name": "NotGovernment",
					"type": "error"
				},
				{
					"inputs": [],
					"name": "PollNotWon",
					"type": "error"
				},
				{
					"anonymous": false,
					"inputs": [
						{
							"indexed": true,
							"internalType": "uint256",
							"name": "id",
							"type": "uint256"
						},
						{
							"indexed": true,
							"internalType": "address",
							"name": "creator",
							"type": "address"
						},
						{
							"indexed": false,
							"internalType": "string",
							"name": "title",
							"type": "string"
						},
						{
							"indexed": false,
							"internalType": "uint128",
							"name": "stake",
							"type": "uint128"
						}
					],
					"name": "PetitionCreated",
					"type": "event"
				},
				{
					"anonymous": false,
					"inputs": [
						{
							"indexed": true,
							"internalType": "uint256",
							"name": "id",
							"type": "uint256"
						},
						{
							"indexed": true,
							"internalType": "address",
							"name": "government",
							"type": "address"
						},
						{
							"indexed": false,
							"internalType": "bool",
							"name": "approved",
							"type": "bool"
						}
					],
					"name": "PetitionDecided",
					"type": "event"
				},
				{
					"anonymous": false,
					"inputs": [
						{
							"indexed": true,
							"internalType": "uint256",
							"name": "id",
							"type": "uint256"
						},
						{
							"indexed": true,
							"internalType": "address",
							"name": "signer",
							"type": "address"
						},
						{
							"indexed": false,
							"internalType": "uint64",
							"name": "totalSignatures",
							"type": "uint64"
						}
					],
					"name": "Signed",
					"type": "event"
				},
				{
					"anonymous": false,
					"inputs": [
						{
							"indexed": true,
							"internalType": "uint256",
							"name": "id",
							"type": "uint256"
						},
						{
							"indexed": true,
							"internalType": "address",
							"name": "creator",
							"type": "address"
						},
						{
							"indexed": false,
							"internalType": "uint128",
							"name": "amount",
							"type": "uint128"
						}
					],
					"name": "StakeClaimed",
					"type": "event"
				},
				{
					"inputs": [],
					"name": "MIN_SIGNATURES",
					"outputs": [
						{
							"internalType": "uint64",
							"name": "",
							"type": "uint64"
						}
					],
					"stateMutability": "view",
					"type": "function"
				},
				{
					"inputs": [
						{
							"internalType": "uint256",
							"name": "id",
							"type": "uint256"
						}
					],
					"name": "claim",
					"outputs": [],
					"stateMutability": "nonpayable",
					"type": "function"
				},
				{
					"inputs": [
						{
							"internalType": "string",
							"name": "title",
							"type": "string"
						},
						{
							"internalType": "string",
							"name": "description",
							"type": "string"
						}
					],
					"name": "createPetition",
					"outputs": [
						{
							"internalType": "uint256",
							"name": "id",
							"type": "uint256"
						}
					],
					"stateMutability": "payable",
					"type": "function"
				},
				{
					"inputs": [
						{
							"internalType": "uint256",
							"name": "id",
							"type": "uint256"
						},
						{
							"internalType": "bool",
							"name": "approve",
							"type": "bool"
						}
					],
					"name": "decide",
					"outputs": [],
					"stateMutability": "nonpayable",
					"type": "function"
				},
				{
					"inputs": [
						{
							"internalType": "uint256",
							"name": "id",
							"type": "uint256"
						}
					],
					"name": "decision",
					"outputs": [
						{
							"internalType": "bool",
							"name": "decided",
							"type": "bool"
						},
						{
							"internalType": "bool",
							"name": "approved",
							"type": "bool"
						},
						{
							"internalType": "address",
							"name": "by",
							"type": "address"
						}
					],
					"stateMutability": "view",
					"type": "function"
				},
				{
					"inputs": [
						{
							"internalType": "uint256",
							"name": "id",
							"type": "uint256"
						}
					],
					"name": "getPetition",
					"outputs": [
						{
							"internalType": "address",
							"name": "creator",
							"type": "address"
						},
						{
							"internalType": "string",
							"name": "title",
							"type": "string"
						},
						{
							"internalType": "string",
							"name": "description",
							"type": "string"
						},
						{
							"internalType": "uint128",
							"name": "stake",
							"type": "uint128"
						},
						{
							"internalType": "uint64",
							"name": "signatureCount",
							"type": "uint64"
						},
						{
							"internalType": "bool",
							"name": "approved",
							"type": "bool"
						},
						{
							"internalType": "bool",
							"name": "decided",
							"type": "bool"
						},
						{
							"internalType": "bool",
							"name": "claimed",
							"type": "bool"
						}
					],
					"stateMutability": "view",
					"type": "function"
				},
				{
					"inputs": [],
					"name": "government",
					"outputs": [
						{
							"internalType": "address",
							"name": "",
							"type": "address"
						}
					],
					"stateMutability": "view",
					"type": "function"
				},
				{
					"inputs": [
						{
							"internalType": "uint256",
							"name": "",
							"type": "uint256"
						},
						{
							"internalType": "address",
							"name": "",
							"type": "address"
						}
					],
					"name": "hasSigned",
					"outputs": [
						{
							"internalType": "bool",
							"name": "",
							"type": "bool"
						}
					],
					"stateMutability": "view",
					"type": "function"
				},
				{
					"inputs": [
						{
							"internalType": "uint256",
							"name": "id",
							"type": "uint256"
						},
						{
							"internalType": "address",
							"name": "signer",
							"type": "address"
						}
					],
					"name": "hasSignedPetition",
					"outputs": [
						{
							"internalType": "bool",
							"name": "",
							"type": "bool"
						}
					],
					"stateMutability": "view",
					"type": "function"
				},
				{
					"inputs": [],
					"name": "petitionsCount",
					"outputs": [
						{
							"internalType": "uint256",
							"name": "",
							"type": "uint256"
						}
					],
					"stateMutability": "view",
					"type": "function"
				},
				{
					"inputs": [
						{
							"internalType": "uint256",
							"name": "id",
							"type": "uint256"
						}
					],
					"name": "sign",
					"outputs": [],
					"stateMutability": "nonpayable",
					"type": "function"
				}
			],
			"devdoc": {
				"kind": "dev",
				"methods": {},
				"version": 1
			},
			"evm": {
				"assembly": "    /* \"remix/social.sol\":775:5703  contract PollHub {... */\n  mstore(0x40, 0xa0)\n    /* \"remix/social.sol\":2139:2193  constructor() {... */\n  callvalue\n  dup1\n  iszero\n  tag_1\n  jumpi\n  revert(0x00, 0x00)\ntag_1:\n  pop\n    /* \"remix/social.sol\":2176:2186  msg.sender */\n  caller\n    /* \"remix/social.sol\":2163:2186  government = msg.sender */\n  0xffffffffffffffffffffffffffffffffffffffff\n  and\n  0x80\n  dup2\n  0xffffffffffffffffffffffffffffffffffffffff\n  and\n  dup2\n  mstore\n  pop\n  pop\n    /* \"remix/social.sol\":775:5703  contract PollHub {... */\n  mload(0x80)\n  codecopy(0x00, dataOffset(sub_0), dataSize(sub_0))\n  0x00\n  assignImmutable(\"0x731dc163f73d31d8c68f9917ce4ff967753939f70432973c04fd2c2a48148607\")\n  return(0x00, dataSize(sub_0))\nstop\n\nsub_0: assembly {\n        /* \"remix/social.sol\":775:5703  contract PollHub {... */\n      mstore(0x40, 0x80)\n      jumpi(tag_1, lt(calldatasize, 0x04))\n      shr(0xe0, calldataload(0x00))\n      dup1\n      0x35f75e16\n      gt\n      tag_13\n      jumpi\n      dup1\n      0x35f75e16\n      eq\n      tag_7\n      jumpi\n      dup1\n      0x379607f5\n      eq\n      tag_8\n      jumpi\n      dup1\n      0x41a51d13\n      eq\n      tag_9\n      jumpi\n      dup1\n      0x709df8d9\n      eq\n      tag_10\n      jumpi\n      dup1\n      0xa83a475c\n      eq\n      tag_11\n      jumpi\n      dup1\n      0xbe7af16b\n      eq\n      tag_12\n      jumpi\n      jump(tag_1)\n    tag_13:\n      dup1\n      0x0c90ce42\n      eq\n      tag_2\n      jumpi\n      dup1\n      0x1a179692\n      eq\n      tag_3\n      jumpi\n      dup1\n      0x224f3d1a\n      eq\n      tag_4\n      jumpi\n      dup1\n      0x2672f526\n      eq\n      tag_5\n      jumpi\n      dup1\n      0x2fb1b25f\n      eq\n      tag_6\n      jumpi\n    tag_1:\n      revert(0x00, 0x00)\n        /* \"remix/social.sol\":5065:5566  function getPetition(uint256 id)... */\n    tag_2:\n      callvalue\n      dup1\n      iszero\n      tag_14\n      jumpi\n      revert(0x00, 0x00)\n    tag_14:\n      pop\n      tag_15\n      0x04\n      dup1\n      calldatasize\n      sub\n      dup2\n      add\n      swap1\n      tag_16\n      swap2\n      swap1\n      tag_17\n      jump\t// in\n    tag_16:\n      tag_18\n      jump\t// in\n    tag_15:\n      mload(0x40)\n      tag_19\n      swap9\n      swap8\n      swap7\n      swap6\n      swap5\n      swap4\n      swap3\n      swap2\n      swap1\n      tag_20\n      jump\t// in\n    tag_19:\n      mload(0x40)\n      dup1\n      swap2\n      sub\n      swap1\n      return\n        /* \"remix/social.sol\":798:839  uint64 public constant MIN_SIGNATURES = 5 */\n    tag_3:\n      callvalue\n      dup1\n      iszero\n      tag_21\n      jumpi\n      revert(0x00, 0x00)\n    tag_21:\n      pop\n      tag_22\n      tag_23\n      jump\t// in\n    tag_22:\n      mload(0x40)\n      tag_24\n      swap2\n      swap1\n      tag_25\n      jump\t// in\n    tag_24:\n      mload(0x40)\n      dup1\n      swap2\n      sub\n      swap1\n      return\n        /* \"remix/social.sol\":2475:2891  function decide(uint256 id, bool approve) external onlyGov {... */\n    tag_4:\n      callvalue\n      dup1\n      iszero\n      tag_26\n      jumpi\n      revert(0x00, 0x00)\n    tag_26:\n      pop\n      tag_27\n      0x04\n      dup1\n      calldatasize\n      sub\n      dup2\n      add\n      swap1\n      tag_28\n      swap2\n      swap1\n      tag_29\n      jump\t// in\n    tag_28:\n      tag_30\n      jump\t// in\n    tag_27:\n      stop\n        /* \"remix/social.sol\":898:933  address public immutable government */\n    tag_5:\n      callvalue\n      dup1\n      iszero\n      tag_31\n      jumpi\n      revert(0x00, 0x00)\n    tag_31:\n      pop\n      tag_32\n      tag_33\n      jump\t// in\n    tag_32:\n      mload(0x40)\n      tag_34\n      swap2\n      swap1\n      tag_35\n      jump\t// in\n    tag_34:\n      mload(0x40)\n      dup1\n      swap2\n      sub\n      swap1\n      return\n        /* \"remix/social.sol\":3849:4259  function sign(uint256 id) external {... */\n    tag_6:\n      callvalue\n      dup1\n      iszero\n      tag_36\n      jumpi\n      revert(0x00, 0x00)\n    tag_36:\n      pop\n      tag_37\n      0x04\n      dup1\n      calldatasize\n      sub\n      dup2\n      add\n      swap1\n      tag_38\n      swap2\n      swap1\n      tag_17\n      jump\t// in\n    tag_38:\n      tag_39\n      jump\t// in\n    tag_37:\n      stop\n        /* \"remix/social.sol\":4960:5059  function petitionsCount() external view returns (uint256) {... */\n    tag_7:\n      callvalue\n      dup1\n      iszero\n      tag_40\n      jumpi\n      revert(0x00, 0x00)\n    tag_40:\n      pop\n      tag_41\n      tag_42\n      jump\t// in\n    tag_41:\n      mload(0x40)\n      tag_43\n      swap2\n      swap1\n      tag_44\n      jump\t// in\n    tag_43:\n      mload(0x40)\n      dup1\n      swap2\n      sub\n      swap1\n      return\n        /* \"remix/social.sol\":4340:4860  function claim(uint256 id) external {... */\n    tag_8:\n      callvalue\n      dup1\n      iszero\n      tag_45\n      jumpi\n      revert(0x00, 0x00)\n    tag_45:\n      pop\n      tag_46\n      0x04\n      dup1\n      calldatasize\n      sub\n      dup2\n      add\n      swap1\n      tag_47\n      swap2\n      swap1\n      tag_17\n      jump\t// in\n    tag_47:\n      tag_48\n      jump\t// in\n    tag_46:\n      stop\n        /* \"remix/social.sol\":3273:3776  function createPetition(string calldata title, string calldata description) external payable returns (uint256 id) {... */\n    tag_9:\n      tag_49\n      0x04\n      dup1\n      calldatasize\n      sub\n      dup2\n      add\n      swap1\n      tag_50\n      swap2\n      swap1\n      tag_51\n      jump\t// in\n    tag_50:\n      tag_52\n      jump\t// in\n    tag_49:\n      mload(0x40)\n      tag_53\n      swap2\n      swap1\n      tag_44\n      jump\t// in\n    tag_53:\n      mload(0x40)\n      dup1\n      swap2\n      sub\n      swap1\n      return\n        /* \"remix/social.sol\":1489:1550  mapping(uint256 => mapping(address => bool)) public hasSigned */\n    tag_10:\n      callvalue\n      dup1\n      iszero\n      tag_54\n      jumpi\n      revert(0x00, 0x00)\n    tag_54:\n      pop\n      tag_55\n      0x04\n      dup1\n      calldatasize\n      sub\n      dup2\n      add\n      swap1\n      tag_56\n      swap2\n      swap1\n      tag_57\n      jump\t// in\n    tag_56:\n      tag_58\n      jump\t// in\n    tag_55:\n      mload(0x40)\n      tag_59\n      swap2\n      swap1\n      tag_60\n      jump\t// in\n    tag_59:\n      mload(0x40)\n      dup1\n      swap2\n      sub\n      swap1\n      return\n        /* \"remix/social.sol\":2897:3095  function decision(uint256 id) external view returns (bool decided, bool approved, address by) {... */\n    tag_11:\n      callvalue\n      dup1\n      iszero\n      tag_61\n      jumpi\n      revert(0x00, 0x00)\n    tag_61:\n      pop\n      tag_62\n      0x04\n      dup1\n      calldatasize\n      sub\n      dup2\n      add\n      swap1\n      tag_63\n      swap2\n      swap1\n      tag_17\n      jump\t// in\n    tag_63:\n      tag_64\n      jump\t// in\n    tag_62:\n      mload(0x40)\n      tag_65\n      swap4\n      swap3\n      swap2\n      swap1\n      tag_66\n      jump\t// in\n    tag_65:\n      mload(0x40)\n      dup1\n      swap2\n      sub\n      swap1\n      return\n        /* \"remix/social.sol\":5572:5701  function hasSignedPetition(uint256 id, address signer) external view returns (bool) {... */\n    tag_12:\n      callvalue\n      dup1\n      iszero\n      tag_67\n      jumpi\n      revert(0x00, 0x00)\n    tag_67:\n      pop\n      tag_68\n      0x04\n      dup1\n      calldatasize\n      sub\n      dup2\n      add\n      swap1\n      tag_69\n      swap2\n      swap1\n      tag_57\n      jump\t// in\n    tag_69:\n      tag_70\n      jump\t// in\n    tag_68:\n      mload(0x40)\n      tag_71\n      swap2\n      swap1\n      tag_60\n      jump\t// in\n    tag_71:\n      mload(0x40)\n      dup1\n      swap2\n      sub\n      swap1\n      return\n        /* \"remix/social.sol\":5065:5566  function getPetition(uint256 id)... */\n    tag_18:\n        /* \"remix/social.sol\":5158:5173  address creator */\n      0x00\n        /* \"remix/social.sol\":5187:5206  string memory title */\n      0x60\n        /* \"remix/social.sol\":5220:5245  string memory description */\n      dup1\n        /* \"remix/social.sol\":5259:5272  uint128 stake */\n      0x00\n        /* \"remix/social.sol\":5286:5307  uint64 signatureCount */\n      0x00\n        /* \"remix/social.sol\":5321:5334  bool approved */\n      0x00\n        /* \"remix/social.sol\":5348:5360  bool decided */\n      0x00\n        /* \"remix/social.sol\":5374:5386  bool claimed */\n      0x00\n        /* \"remix/social.sol\":5411:5429  Petition storage p */\n      0x00\n        /* \"remix/social.sol\":5432:5442  _petitions */\n      0x00\n        /* \"remix/social.sol\":5443:5445  id */\n      dup11\n        /* \"remix/social.sol\":5432:5446  _petitions[id] */\n      dup2\n      sload\n      dup2\n      lt\n      tag_73\n      jumpi\n      tag_74\n      tag_75\n      jump\t// in\n    tag_74:\n    tag_73:\n      swap1\n      0x00\n      mstore\n      keccak256(0x00, 0x20)\n      swap1\n      0x04\n      mul\n      add\n        /* \"remix/social.sol\":5411:5446  Petition storage p = _petitions[id] */\n      swap1\n      pop\n        /* \"remix/social.sol\":5464:5465  p */\n      dup1\n        /* \"remix/social.sol\":5464:5473  p.creator */\n      0x00\n      add\n      0x00\n      swap1\n      sload\n      swap1\n      0x0100\n      exp\n      swap1\n      div\n      0xffffffffffffffffffffffffffffffffffffffff\n      and\n        /* \"remix/social.sol\":5475:5476  p */\n      dup2\n        /* \"remix/social.sol\":5475:5482  p.title */\n      0x01\n      add\n        /* \"remix/social.sol\":5484:5485  p */\n      dup3\n        /* \"remix/social.sol\":5484:5497  p.description */\n      0x02\n      add\n        /* \"remix/social.sol\":5499:5500  p */\n      dup4\n        /* \"remix/social.sol\":5499:5506  p.stake */\n      0x03\n      add\n      0x00\n      swap1\n      sload\n      swap1\n      0x0100\n      exp\n      swap1\n      div\n      0xffffffffffffffffffffffffffffffff\n      and\n        /* \"remix/social.sol\":5508:5509  p */\n      dup5\n        /* \"remix/social.sol\":5508:5524  p.signatureCount */\n      0x03\n      add\n      0x10\n      swap1\n      sload\n      swap1\n      0x0100\n      exp\n      swap1\n      div\n      0xffffffffffffffff\n      and\n        /* \"remix/social.sol\":5526:5527  p */\n      dup6\n        /* \"remix/social.sol\":5526:5536  p.approved */\n      0x03\n      add\n      0x18\n      swap1\n      sload\n      swap1\n      0x0100\n      exp\n      swap1\n      div\n      0xff\n      and\n        /* \"remix/social.sol\":5538:5539  p */\n      dup7\n        /* \"remix/social.sol\":5538:5547  p.decided */\n      0x03\n      add\n      0x19\n      swap1\n      sload\n      swap1\n      0x0100\n      exp\n      swap1\n      div\n      0xff\n      and\n        /* \"remix/social.sol\":5549:5550  p */\n      dup8\n        /* \"remix/social.sol\":5549:5558  p.claimed */\n      0x03\n      add\n      0x1a\n      swap1\n      sload\n      swap1\n      0x0100\n      exp\n      swap1\n      div\n      0xff\n      and\n        /* \"remix/social.sol\":5456:5559  return (p.creator, p.title, p.description, p.stake, p.signatureCount, p.approved, p.decided, p.claimed) */\n      dup7\n      dup1\n      sload\n      tag_77\n      swap1\n      tag_78\n      jump\t// in\n    tag_77:\n      dup1\n      0x1f\n      add\n      0x20\n      dup1\n      swap2\n      div\n      mul\n      0x20\n      add\n      mload(0x40)\n      swap1\n      dup2\n      add\n      0x40\n      mstore\n      dup1\n      swap3\n      swap2\n      swap1\n      dup2\n      dup2\n      mstore\n      0x20\n      add\n      dup3\n      dup1\n      sload\n      tag_79\n      swap1\n      tag_78\n      jump\t// in\n    tag_79:\n      dup1\n      iszero\n      tag_80\n      jumpi\n      dup1\n      0x1f\n      lt\n      tag_81\n      jumpi\n      0x0100\n      dup1\n      dup4\n      sload\n      div\n      mul\n      dup4\n      mstore\n      swap2\n      0x20\n      add\n      swap2\n      jump(tag_80)\n    tag_81:\n      dup3\n      add\n      swap2\n      swap1\n      0x00\n      mstore\n      keccak256(0x00, 0x20)\n      swap1\n    tag_82:\n      dup2\n      sload\n      dup2\n      mstore\n      swap1\n      0x01\n      add\n      swap1\n      0x20\n      add\n      dup1\n      dup4\n      gt\n      tag_82\n      jumpi\n      dup3\n      swap1\n      sub\n      0x1f\n      and\n      dup3\n      add\n      swap2\n    tag_80:\n      pop\n      pop\n      pop\n      pop\n      pop\n      swap7\n      pop\n      dup6\n      dup1\n      sload\n      tag_83\n      swap1\n      tag_78\n      jump\t// in\n    tag_83:\n      dup1\n      0x1f\n      add\n      0x20\n      dup1\n      swap2\n      div\n      mul\n      0x20\n      add\n      mload(0x40)\n      swap1\n      dup2\n      add\n      0x40\n      mstore\n      dup1\n      swap3\n      swap2\n      swap1\n      dup2\n      dup2\n      mstore\n      0x20\n      add\n      dup3\n      dup1\n      sload\n      tag_84\n      swap1\n      tag_78\n      jump\t// in\n    tag_84:\n      dup1\n      iszero\n      tag_85\n      jumpi\n      dup1\n      0x1f\n      lt\n      tag_86\n      jumpi\n      0x0100\n      dup1\n      dup4\n      sload\n      div\n      mul\n      dup4\n      mstore\n      swap2\n      0x20\n      add\n      swap2\n      jump(tag_85)\n    tag_86:\n      dup3\n      add\n      swap2\n      swap1\n      0x00\n      mstore\n      keccak256(0x00, 0x20)\n      swap1\n    tag_87:\n      dup2\n      sload\n      dup2\n      mstore\n      swap1\n      0x01\n      add\n      swap1\n      0x20\n      add\n      dup1\n      dup4\n      gt\n      tag_87\n      jumpi\n      dup3\n      swap1\n      sub\n      0x1f\n      and\n      dup3\n      add\n      swap2\n    tag_85:\n      pop\n      pop\n      pop\n      pop\n      pop\n      swap6\n      pop\n      swap9\n      pop\n      swap9\n      pop\n      swap9\n      pop\n      swap9\n      pop\n      swap9\n      pop\n      swap9\n      pop\n      swap9\n      pop\n      swap9\n      pop\n      pop\n        /* \"remix/social.sol\":5065:5566  function getPetition(uint256 id)... */\n      swap2\n      swap4\n      swap6\n      swap8\n      pop\n      swap2\n      swap4\n      swap6\n      swap8\n      jump\t// out\n        /* \"remix/social.sol\":798:839  uint64 public constant MIN_SIGNATURES = 5 */\n    tag_23:\n        /* \"remix/social.sol\":838:839  5 */\n      0x05\n        /* \"remix/social.sol\":798:839  uint64 public constant MIN_SIGNATURES = 5 */\n      dup2\n      jump\t// out\n        /* \"remix/social.sol\":2475:2891  function decide(uint256 id, bool approve) external onlyGov {... */\n    tag_30:\n        /* \"remix/social.sol\":2081:2091  government */\n      immutable(\"0x731dc163f73d31d8c68f9917ce4ff967753939f70432973c04fd2c2a48148607\")\n        /* \"remix/social.sol\":2067:2091  msg.sender != government */\n      0xffffffffffffffffffffffffffffffffffffffff\n      and\n        /* \"remix/social.sol\":2067:2077  msg.sender */\n      caller\n        /* \"remix/social.sol\":2067:2091  msg.sender != government */\n      0xffffffffffffffffffffffffffffffffffffffff\n      and\n      eq\n        /* \"remix/social.sol\":2063:2115  if (msg.sender != government) revert NotGovernment() */\n      tag_89\n      jumpi\n        /* \"remix/social.sol\":2100:2115  NotGovernment() */\n      mload(0x40)\n      0x1ccc6f2700000000000000000000000000000000000000000000000000000000\n      dup2\n      mstore\n      0x04\n      add\n      mload(0x40)\n      dup1\n      swap2\n      sub\n      swap1\n      revert\n        /* \"remix/social.sol\":2063:2115  if (msg.sender != government) revert NotGovernment() */\n    tag_89:\n        /* \"remix/social.sol\":2544:2562  Petition storage p */\n      0x00\n        /* \"remix/social.sol\":2565:2575  _petitions */\n      0x00\n        /* \"remix/social.sol\":2576:2578  id */\n      dup4\n        /* \"remix/social.sol\":2565:2579  _petitions[id] */\n      dup2\n      sload\n      dup2\n      lt\n      tag_91\n      jumpi\n      tag_92\n      tag_75\n      jump\t// in\n    tag_92:\n    tag_91:\n      swap1\n      0x00\n      mstore\n      keccak256(0x00, 0x20)\n      swap1\n      0x04\n      mul\n      add\n        /* \"remix/social.sol\":2544:2579  Petition storage p = _petitions[id] */\n      swap1\n      pop\n        /* \"remix/social.sol\":2614:2615  0 */\n      0x00\n        /* \"remix/social.sol\":2593:2616  p.creator == address(0) */\n      0xffffffffffffffffffffffffffffffffffffffff\n      and\n        /* \"remix/social.sol\":2593:2594  p */\n      dup2\n        /* \"remix/social.sol\":2593:2602  p.creator */\n      0x00\n      add\n      0x00\n      swap1\n      sload\n      swap1\n      0x0100\n      exp\n      swap1\n      div\n      0xffffffffffffffffffffffffffffffffffffffff\n      and\n        /* \"remix/social.sol\":2593:2616  p.creator == address(0) */\n      0xffffffffffffffffffffffffffffffffffffffff\n      and\n      sub\n        /* \"remix/social.sol\":2589:2634  if (p.creator == address(0)) revert BadPoll() */\n      tag_94\n      jumpi\n        /* \"remix/social.sol\":2625:2634  BadPoll() */\n      mload(0x40)\n      0xda5d547300000000000000000000000000000000000000000000000000000000\n      dup2\n      mstore\n      0x04\n      add\n      mload(0x40)\n      dup1\n      swap2\n      sub\n      swap1\n      revert\n        /* \"remix/social.sol\":2589:2634  if (p.creator == address(0)) revert BadPoll() */\n    tag_94:\n        /* \"remix/social.sol\":838:839  5 */\n      0x05\n        /* \"remix/social.sol\":2648:2681  p.signatureCount < MIN_SIGNATURES */\n      0xffffffffffffffff\n      and\n        /* \"remix/social.sol\":2648:2649  p */\n      dup2\n        /* \"remix/social.sol\":2648:2664  p.signatureCount */\n      0x03\n      add\n      0x10\n      swap1\n      sload\n      swap1\n      0x0100\n      exp\n      swap1\n      div\n      0xffffffffffffffff\n      and\n        /* \"remix/social.sol\":2648:2681  p.signatureCount < MIN_SIGNATURES */\n      0xffffffffffffffff\n      and\n      lt\n        /* \"remix/social.sol\":2644:2705  if (p.signatureCount < MIN_SIGNATURES) revert BelowMinVotes() */\n      iszero\n      tag_95\n      jumpi\n        /* \"remix/social.sol\":2690:2705  BelowMinVotes() */\n      mload(0x40)\n      0xd79fa57000000000000000000000000000000000000000000000000000000000\n      dup2\n      mstore\n      0x04\n      add\n      mload(0x40)\n      dup1\n      swap2\n      sub\n      swap1\n      revert\n        /* \"remix/social.sol\":2644:2705  if (p.signatureCount < MIN_SIGNATURES) revert BelowMinVotes() */\n    tag_95:\n        /* \"remix/social.sol\":2735:2773  GovDecision(true, approve, msg.sender) */\n      mload(0x40)\n      dup1\n      0x60\n      add\n      0x40\n      mstore\n      dup1\n        /* \"remix/social.sol\":2747:2751  true */\n      0x01\n        /* \"remix/social.sol\":2735:2773  GovDecision(true, approve, msg.sender) */\n      iszero\n      iszero\n      dup2\n      mstore\n      0x20\n      add\n        /* \"remix/social.sol\":2753:2760  approve */\n      dup4\n        /* \"remix/social.sol\":2735:2773  GovDecision(true, approve, msg.sender) */\n      iszero\n      iszero\n      dup2\n      mstore\n      0x20\n      add\n        /* \"remix/social.sol\":2762:2772  msg.sender */\n      caller\n        /* \"remix/social.sol\":2735:2773  GovDecision(true, approve, msg.sender) */\n      0xffffffffffffffffffffffffffffffffffffffff\n      and\n      dup2\n      mstore\n      pop\n        /* \"remix/social.sol\":2715:2728  _govDecisions */\n      0x02\n        /* \"remix/social.sol\":2715:2732  _govDecisions[id] */\n      0x00\n        /* \"remix/social.sol\":2729:2731  id */\n      dup6\n        /* \"remix/social.sol\":2715:2732  _govDecisions[id] */\n      dup2\n      mstore\n      0x20\n      add\n      swap1\n      dup2\n      mstore\n      0x20\n      add\n      0x00\n      keccak256\n        /* \"remix/social.sol\":2715:2773  _govDecisions[id] = GovDecision(true, approve, msg.sender) */\n      0x00\n      dup3\n      add\n      mload\n      dup2\n      0x00\n      add\n      exp(0x0100, 0x00)\n      dup2\n      sload\n      dup2\n      0xff\n      mul\n      not\n      and\n      swap1\n      dup4\n      iszero\n      iszero\n      mul\n      or\n      swap1\n      sstore\n      pop\n      0x20\n      dup3\n      add\n      mload\n      dup2\n      0x00\n      add\n      exp(0x0100, 0x01)\n      dup2\n      sload\n      dup2\n      0xff\n      mul\n      not\n      and\n      swap1\n      dup4\n      iszero\n      iszero\n      mul\n      or\n      swap1\n      sstore\n      pop\n      0x40\n      dup3\n      add\n      mload\n      dup2\n      0x00\n      add\n      exp(0x0100, 0x02)\n      dup2\n      sload\n      dup2\n      0xffffffffffffffffffffffffffffffffffffffff\n      mul\n      not\n      and\n      swap1\n      dup4\n      0xffffffffffffffffffffffffffffffffffffffff\n      and\n      mul\n      or\n      swap1\n      sstore\n      pop\n      swap1\n      pop\n      pop\n        /* \"remix/social.sol\":2796:2803  approve */\n      dup2\n        /* \"remix/social.sol\":2783:2784  p */\n      dup2\n        /* \"remix/social.sol\":2783:2793  p.approved */\n      0x03\n      add\n      0x18\n        /* \"remix/social.sol\":2783:2803  p.approved = approve */\n      0x0100\n      exp\n      dup2\n      sload\n      dup2\n      0xff\n      mul\n      not\n      and\n      swap1\n      dup4\n      iszero\n      iszero\n      mul\n      or\n      swap1\n      sstore\n      pop\n        /* \"remix/social.sol\":2825:2829  true */\n      0x01\n        /* \"remix/social.sol\":2813:2814  p */\n      dup2\n        /* \"remix/social.sol\":2813:2822  p.decided */\n      0x03\n      add\n      0x19\n        /* \"remix/social.sol\":2813:2829  p.decided = true */\n      0x0100\n      exp\n      dup2\n      sload\n      dup2\n      0xff\n      mul\n      not\n      and\n      swap1\n      dup4\n      iszero\n      iszero\n      mul\n      or\n      swap1\n      sstore\n      pop\n        /* \"remix/social.sol\":2864:2874  msg.sender */\n      caller\n        /* \"remix/social.sol\":2844:2884  PetitionDecided(id, msg.sender, approve) */\n      0xffffffffffffffffffffffffffffffffffffffff\n      and\n        /* \"remix/social.sol\":2860:2862  id */\n      dup4\n        /* \"remix/social.sol\":2844:2884  PetitionDecided(id, msg.sender, approve) */\n      0x0df24a5307d7ec9d0633724bd1e25ae3961a90c907f6d4dd48967bde0118a578\n        /* \"remix/social.sol\":2876:2883  approve */\n      dup5\n        /* \"remix/social.sol\":2844:2884  PetitionDecided(id, msg.sender, approve) */\n      mload(0x40)\n      tag_96\n      swap2\n      swap1\n      tag_60\n      jump\t// in\n    tag_96:\n      mload(0x40)\n      dup1\n      swap2\n      sub\n      swap1\n      log3\n        /* \"remix/social.sol\":2534:2891  {... */\n      pop\n        /* \"remix/social.sol\":2475:2891  function decide(uint256 id, bool approve) external onlyGov {... */\n      pop\n      pop\n      jump\t// out\n        /* \"remix/social.sol\":898:933  address public immutable government */\n    tag_33:\n      immutable(\"0x731dc163f73d31d8c68f9917ce4ff967753939f70432973c04fd2c2a48148607\")\n      dup2\n      jump\t// out\n        /* \"remix/social.sol\":3849:4259  function sign(uint256 id) external {... */\n    tag_39:\n        /* \"remix/social.sol\":3894:3912  Petition storage p */\n      0x00\n        /* \"remix/social.sol\":3915:3925  _petitions */\n      0x00\n        /* \"remix/social.sol\":3926:3928  id */\n      dup3\n        /* \"remix/social.sol\":3915:3929  _petitions[id] */\n      dup2\n      sload\n      dup2\n      lt\n      tag_98\n      jumpi\n      tag_99\n      tag_75\n      jump\t// in\n    tag_99:\n    tag_98:\n      swap1\n      0x00\n      mstore\n      keccak256(0x00, 0x20)\n      swap1\n      0x04\n      mul\n      add\n        /* \"remix/social.sol\":3894:3929  Petition storage p = _petitions[id] */\n      swap1\n      pop\n        /* \"remix/social.sol\":3964:3965  0 */\n      0x00\n        /* \"remix/social.sol\":3943:3966  p.creator == address(0) */\n      0xffffffffffffffffffffffffffffffffffffffff\n      and\n        /* \"remix/social.sol\":3943:3944  p */\n      dup2\n        /* \"remix/social.sol\":3943:3952  p.creator */\n      0x00\n      add\n      0x00\n      swap1\n      sload\n      swap1\n      0x0100\n      exp\n      swap1\n      div\n      0xffffffffffffffffffffffffffffffffffffffff\n      and\n        /* \"remix/social.sol\":3943:3966  p.creator == address(0) */\n      0xffffffffffffffffffffffffffffffffffffffff\n      and\n      sub\n        /* \"remix/social.sol\":3939:3984  if (p.creator == address(0)) revert BadPoll() */\n      tag_101\n      jumpi\n        /* \"remix/social.sol\":3975:3984  BadPoll() */\n      mload(0x40)\n      0xda5d547300000000000000000000000000000000000000000000000000000000\n      dup2\n      mstore\n      0x04\n      add\n      mload(0x40)\n      dup1\n      swap2\n      sub\n      swap1\n      revert\n        /* \"remix/social.sol\":3939:3984  if (p.creator == address(0)) revert BadPoll() */\n    tag_101:\n        /* \"remix/social.sol\":3998:4007  hasSigned */\n      0x01\n        /* \"remix/social.sol\":3998:4011  hasSigned[id] */\n      0x00\n        /* \"remix/social.sol\":4008:4010  id */\n      dup4\n        /* \"remix/social.sol\":3998:4011  hasSigned[id] */\n      dup2\n      mstore\n      0x20\n      add\n      swap1\n      dup2\n      mstore\n      0x20\n      add\n      0x00\n      keccak256\n        /* \"remix/social.sol\":3998:4023  hasSigned[id][msg.sender] */\n      0x00\n        /* \"remix/social.sol\":4012:4022  msg.sender */\n      caller\n        /* \"remix/social.sol\":3998:4023  hasSigned[id][msg.sender] */\n      0xffffffffffffffffffffffffffffffffffffffff\n      and\n      0xffffffffffffffffffffffffffffffffffffffff\n      and\n      dup2\n      mstore\n      0x20\n      add\n      swap1\n      dup2\n      mstore\n      0x20\n      add\n      0x00\n      keccak256\n      0x00\n      swap1\n      sload\n      swap1\n      0x0100\n      exp\n      swap1\n      div\n      0xff\n      and\n        /* \"remix/social.sol\":3994:4046  if (hasSigned[id][msg.sender]) revert AlreadyVoted() */\n      iszero\n      tag_102\n      jumpi\n        /* \"remix/social.sol\":4032:4046  AlreadyVoted() */\n      mload(0x40)\n      0x7c9a1cf900000000000000000000000000000000000000000000000000000000\n      dup2\n      mstore\n      0x04\n      add\n      mload(0x40)\n      dup1\n      swap2\n      sub\n      swap1\n      revert\n        /* \"remix/social.sol\":3994:4046  if (hasSigned[id][msg.sender]) revert AlreadyVoted() */\n    tag_102:\n        /* \"remix/social.sol\":4060:4061  p */\n      dup1\n        /* \"remix/social.sol\":4060:4069  p.decided */\n      0x03\n      add\n      0x19\n      swap1\n      sload\n      swap1\n      0x0100\n      exp\n      swap1\n      div\n      0xff\n      and\n        /* \"remix/social.sol\":4056:4090  if (p.decided) revert PollNotWon() */\n      iszero\n      tag_103\n      jumpi\n        /* \"remix/social.sol\":4078:4090  PollNotWon() */\n      mload(0x40)\n      0xc906a36e00000000000000000000000000000000000000000000000000000000\n      dup2\n      mstore\n      0x04\n      add\n      mload(0x40)\n      dup1\n      swap2\n      sub\n      swap1\n      revert\n        /* \"remix/social.sol\":4056:4090  if (p.decided) revert PollNotWon() */\n    tag_103:\n        /* \"remix/social.sol\":4162:4166  true */\n      0x01\n        /* \"remix/social.sol\":4134:4143  hasSigned */\n      dup1\n        /* \"remix/social.sol\":4134:4147  hasSigned[id] */\n      0x00\n        /* \"remix/social.sol\":4144:4146  id */\n      dup5\n        /* \"remix/social.sol\":4134:4147  hasSigned[id] */\n      dup2\n      mstore\n      0x20\n      add\n      swap1\n      dup2\n      mstore\n      0x20\n      add\n      0x00\n      keccak256\n        /* \"remix/social.sol\":4134:4159  hasSigned[id][msg.sender] */\n      0x00\n        /* \"remix/social.sol\":4148:4158  msg.sender */\n      caller\n        /* \"remix/social.sol\":4134:4159  hasSigned[id][msg.sender] */\n      0xffffffffffffffffffffffffffffffffffffffff\n      and\n      0xffffffffffffffffffffffffffffffffffffffff\n      and\n      dup2\n      mstore\n      0x20\n      add\n      swap1\n      dup2\n      mstore\n      0x20\n      add\n      0x00\n      keccak256\n      0x00\n        /* \"remix/social.sol\":4134:4166  hasSigned[id][msg.sender] = true */\n      0x0100\n      exp\n      dup2\n      sload\n      dup2\n      0xff\n      mul\n      not\n      and\n      swap1\n      dup4\n      iszero\n      iszero\n      mul\n      or\n      swap1\n      sstore\n      pop\n        /* \"remix/social.sol\":4196:4197  1 */\n      0x01\n        /* \"remix/social.sol\":4176:4177  p */\n      dup2\n        /* \"remix/social.sol\":4176:4192  p.signatureCount */\n      0x03\n      add\n      0x10\n        /* \"remix/social.sol\":4176:4197  p.signatureCount += 1 */\n      dup3\n      dup3\n      dup3\n      swap1\n      sload\n      swap1\n      0x0100\n      exp\n      swap1\n      div\n      0xffffffffffffffff\n      and\n      tag_104\n      swap2\n      swap1\n      tag_105\n      jump\t// in\n    tag_104:\n      swap3\n      pop\n      0x0100\n      exp\n      dup2\n      sload\n      dup2\n      0xffffffffffffffff\n      mul\n      not\n      and\n      swap1\n      dup4\n      0xffffffffffffffff\n      and\n      mul\n      or\n      swap1\n      sstore\n      pop\n        /* \"remix/social.sol\":4223:4233  msg.sender */\n      caller\n        /* \"remix/social.sol\":4212:4252  Signed(id, msg.sender, p.signatureCount) */\n      0xffffffffffffffffffffffffffffffffffffffff\n      and\n        /* \"remix/social.sol\":4219:4221  id */\n      dup3\n        /* \"remix/social.sol\":4212:4252  Signed(id, msg.sender, p.signatureCount) */\n      0x2ca60a2f068001bd115ebe115640860fb468ea80f162e5460874ba7c022c9e15\n        /* \"remix/social.sol\":4235:4236  p */\n      dup4\n        /* \"remix/social.sol\":4235:4251  p.signatureCount */\n      0x03\n      add\n      0x10\n      swap1\n      sload\n      swap1\n      0x0100\n      exp\n      swap1\n      div\n      0xffffffffffffffff\n      and\n        /* \"remix/social.sol\":4212:4252  Signed(id, msg.sender, p.signatureCount) */\n      mload(0x40)\n      tag_106\n      swap2\n      swap1\n      tag_25\n      jump\t// in\n    tag_106:\n      mload(0x40)\n      dup1\n      swap2\n      sub\n      swap1\n      log3\n        /* \"remix/social.sol\":3884:4259  {... */\n      pop\n        /* \"remix/social.sol\":3849:4259  function sign(uint256 id) external {... */\n      pop\n      jump\t// out\n        /* \"remix/social.sol\":4960:5059  function petitionsCount() external view returns (uint256) {... */\n    tag_42:\n        /* \"remix/social.sol\":5009:5016  uint256 */\n      0x00\n        /* \"remix/social.sol\":5035:5045  _petitions */\n      0x00\n        /* \"remix/social.sol\":5035:5052  _petitions.length */\n      dup1\n      sload\n      swap1\n      pop\n        /* \"remix/social.sol\":5028:5052  return _petitions.length */\n      swap1\n      pop\n        /* \"remix/social.sol\":4960:5059  function petitionsCount() external view returns (uint256) {... */\n      swap1\n      jump\t// out\n        /* \"remix/social.sol\":4340:4860  function claim(uint256 id) external {... */\n    tag_48:\n        /* \"remix/social.sol\":4386:4404  Petition storage p */\n      0x00\n        /* \"remix/social.sol\":4407:4417  _petitions */\n      0x00\n        /* \"remix/social.sol\":4418:4420  id */\n      dup3\n        /* \"remix/social.sol\":4407:4421  _petitions[id] */\n      dup2\n      sload\n      dup2\n      lt\n      tag_109\n      jumpi\n      tag_110\n      tag_75\n      jump\t// in\n    tag_110:\n    tag_109:\n      swap1\n      0x00\n      mstore\n      keccak256(0x00, 0x20)\n      swap1\n      0x04\n      mul\n      add\n        /* \"remix/social.sol\":4386:4421  Petition storage p = _petitions[id] */\n      swap1\n      pop\n        /* \"remix/social.sol\":4449:4450  p */\n      dup1\n        /* \"remix/social.sol\":4449:4458  p.creator */\n      0x00\n      add\n      0x00\n      swap1\n      sload\n      swap1\n      0x0100\n      exp\n      swap1\n      div\n      0xffffffffffffffffffffffffffffffffffffffff\n      and\n        /* \"remix/social.sol\":4435:4458  msg.sender != p.creator */\n      0xffffffffffffffffffffffffffffffffffffffff\n      and\n        /* \"remix/social.sol\":4435:4445  msg.sender */\n      caller\n        /* \"remix/social.sol\":4435:4458  msg.sender != p.creator */\n      0xffffffffffffffffffffffffffffffffffffffff\n      and\n      eq\n        /* \"remix/social.sol\":4431:4479  if (msg.sender != p.creator) revert NotCreator() */\n      tag_112\n      jumpi\n        /* \"remix/social.sol\":4467:4479  NotCreator() */\n      mload(0x40)\n      0x93687c0b00000000000000000000000000000000000000000000000000000000\n      dup2\n      mstore\n      0x04\n      add\n      mload(0x40)\n      dup1\n      swap2\n      sub\n      swap1\n      revert\n        /* \"remix/social.sol\":4431:4479  if (msg.sender != p.creator) revert NotCreator() */\n    tag_112:\n        /* \"remix/social.sol\":4494:4495  p */\n      dup1\n        /* \"remix/social.sol\":4494:4503  p.decided */\n      0x03\n      add\n      0x19\n      swap1\n      sload\n      swap1\n      0x0100\n      exp\n      swap1\n      div\n      0xff\n      and\n        /* \"remix/social.sol\":4489:4524  if (!p.decided) revert PollNotWon() */\n      tag_113\n      jumpi\n        /* \"remix/social.sol\":4512:4524  PollNotWon() */\n      mload(0x40)\n      0xc906a36e00000000000000000000000000000000000000000000000000000000\n      dup2\n      mstore\n      0x04\n      add\n      mload(0x40)\n      dup1\n      swap2\n      sub\n      swap1\n      revert\n        /* \"remix/social.sol\":4489:4524  if (!p.decided) revert PollNotWon() */\n    tag_113:\n        /* \"remix/social.sol\":4539:4540  p */\n      dup1\n        /* \"remix/social.sol\":4539:4549  p.approved */\n      0x03\n      add\n      0x18\n      swap1\n      sload\n      swap1\n      0x0100\n      exp\n      swap1\n      div\n      0xff\n      and\n        /* \"remix/social.sol\":4534:4570  if (!p.approved) revert PollNotWon() */\n      tag_114\n      jumpi\n        /* \"remix/social.sol\":4558:4570  PollNotWon() */\n      mload(0x40)\n      0xc906a36e00000000000000000000000000000000000000000000000000000000\n      dup2\n      mstore\n      0x04\n      add\n      mload(0x40)\n      dup1\n      swap2\n      sub\n      swap1\n      revert\n        /* \"remix/social.sol\":4534:4570  if (!p.approved) revert PollNotWon() */\n    tag_114:\n        /* \"remix/social.sol\":4584:4585  p */\n      dup1\n        /* \"remix/social.sol\":4584:4593  p.claimed */\n      0x03\n      add\n      0x1a\n      swap1\n      sload\n      swap1\n      0x0100\n      exp\n      swap1\n      div\n      0xff\n      and\n        /* \"remix/social.sol\":4580:4618  if (p.claimed) revert AlreadyClaimed() */\n      iszero\n      tag_115\n      jumpi\n        /* \"remix/social.sol\":4602:4618  AlreadyClaimed() */\n      mload(0x40)\n      0x646cf55800000000000000000000000000000000000000000000000000000000\n      dup2\n      mstore\n      0x04\n      add\n      mload(0x40)\n      dup1\n      swap2\n      sub\n      swap1\n      revert\n        /* \"remix/social.sol\":4580:4618  if (p.claimed) revert AlreadyClaimed() */\n    tag_115:\n        /* \"remix/social.sol\":4640:4644  true */\n      0x01\n        /* \"remix/social.sol\":4628:4629  p */\n      dup2\n        /* \"remix/social.sol\":4628:4637  p.claimed */\n      0x03\n      add\n      0x1a\n        /* \"remix/social.sol\":4628:4644  p.claimed = true */\n      0x0100\n      exp\n      dup2\n      sload\n      dup2\n      0xff\n      mul\n      not\n      and\n      swap1\n      dup4\n      iszero\n      iszero\n      mul\n      or\n      swap1\n      sstore\n      pop\n        /* \"remix/social.sol\":4685:4696  uint128 amt */\n      0x00\n        /* \"remix/social.sol\":4699:4700  p */\n      dup2\n        /* \"remix/social.sol\":4699:4706  p.stake */\n      0x03\n      add\n      0x00\n      swap1\n      sload\n      swap1\n      0x0100\n      exp\n      swap1\n      div\n      0xffffffffffffffffffffffffffffffff\n      and\n        /* \"remix/social.sol\":4685:4706  uint128 amt = p.stake */\n      swap1\n      pop\n        /* \"remix/social.sol\":4717:4724  bool ok */\n      0x00\n        /* \"remix/social.sol\":4737:4738  p */\n      dup3\n        /* \"remix/social.sol\":4737:4746  p.creator */\n      0x00\n      add\n      0x00\n      swap1\n      sload\n      swap1\n      0x0100\n      exp\n      swap1\n      div\n      0xffffffffffffffffffffffffffffffffffffffff\n      and\n        /* \"remix/social.sol\":4729:4752  payable(p.creator).call */\n      0xffffffffffffffffffffffffffffffffffffffff\n      and\n        /* \"remix/social.sol\":4760:4763  amt */\n      dup3\n        /* \"remix/social.sol\":4729:4768  payable(p.creator).call{value: amt}(\"\") */\n      0xffffffffffffffffffffffffffffffff\n      and\n      mload(0x40)\n      tag_116\n      swap1\n      tag_117\n      jump\t// in\n    tag_116:\n      0x00\n      mload(0x40)\n      dup1\n      dup4\n      sub\n      dup2\n      dup6\n      dup8\n      gas\n      call\n      swap3\n      pop\n      pop\n      pop\n      returndatasize\n      dup1\n      0x00\n      dup2\n      eq\n      tag_120\n      jumpi\n      mload(0x40)\n      swap2\n      pop\n      and(add(returndatasize, 0x3f), not(0x1f))\n      dup3\n      add\n      0x40\n      mstore\n      returndatasize\n      dup3\n      mstore\n      returndatasize\n      0x00\n      0x20\n      dup5\n      add\n      returndatacopy\n      jump(tag_119)\n    tag_120:\n      0x60\n      swap2\n      pop\n    tag_119:\n      pop\n        /* \"remix/social.sol\":4716:4768  (bool ok,) = payable(p.creator).call{value: amt}(\"\") */\n      pop\n      swap1\n      pop\n        /* \"remix/social.sol\":4786:4788  ok */\n      dup1\n        /* \"remix/social.sol\":4778:4806  require(ok, \"refund failed\") */\n      tag_121\n      jumpi\n      mload(0x40)\n      0x08c379a000000000000000000000000000000000000000000000000000000000\n      dup2\n      mstore\n      0x04\n      add\n      tag_122\n      swap1\n      tag_123\n      jump\t// in\n    tag_122:\n      mload(0x40)\n      dup1\n      swap2\n      sub\n      swap1\n      revert\n    tag_121:\n        /* \"remix/social.sol\":4838:4839  p */\n      dup3\n        /* \"remix/social.sol\":4838:4847  p.creator */\n      0x00\n      add\n      0x00\n      swap1\n      sload\n      swap1\n      0x0100\n      exp\n      swap1\n      div\n      0xffffffffffffffffffffffffffffffffffffffff\n      and\n        /* \"remix/social.sol\":4821:4853  StakeClaimed(id, p.creator, amt) */\n      0xffffffffffffffffffffffffffffffffffffffff\n      and\n        /* \"remix/social.sol\":4834:4836  id */\n      dup5\n        /* \"remix/social.sol\":4821:4853  StakeClaimed(id, p.creator, amt) */\n      0x3852d5ee76f8c7d023121d4b3993eed708ed188b4fef90d13a41b4674d83afb8\n        /* \"remix/social.sol\":4849:4852  amt */\n      dup5\n        /* \"remix/social.sol\":4821:4853  StakeClaimed(id, p.creator, amt) */\n      mload(0x40)\n      tag_124\n      swap2\n      swap1\n      tag_125\n      jump\t// in\n    tag_124:\n      mload(0x40)\n      dup1\n      swap2\n      sub\n      swap1\n      log3\n        /* \"remix/social.sol\":4376:4860  {... */\n      pop\n      pop\n      pop\n        /* \"remix/social.sol\":4340:4860  function claim(uint256 id) external {... */\n      pop\n      jump\t// out\n        /* \"remix/social.sol\":3273:3776  function createPetition(string calldata title, string calldata description) external payable returns (uint256 id) {... */\n    tag_52:\n        /* \"remix/social.sol\":3375:3385  uint256 id */\n      0x00\n        /* \"remix/social.sol\":3424:3425  0 */\n      0x00\n        /* \"remix/social.sol\":3407:3412  title */\n      dup6\n      dup6\n        /* \"remix/social.sol\":3401:3420  bytes(title).length */\n      swap1\n      pop\n        /* \"remix/social.sol\":3401:3425  bytes(title).length == 0 */\n      eq\n        /* \"remix/social.sol\":3401:3459  bytes(title).length == 0 || bytes(description).length == 0 */\n      dup1\n      tag_127\n      jumpi\n      pop\n        /* \"remix/social.sol\":3458:3459  0 */\n      0x00\n        /* \"remix/social.sol\":3435:3446  description */\n      dup4\n      dup4\n        /* \"remix/social.sol\":3429:3454  bytes(description).length */\n      swap1\n      pop\n        /* \"remix/social.sol\":3429:3459  bytes(description).length == 0 */\n      eq\n        /* \"remix/social.sol\":3401:3459  bytes(title).length == 0 || bytes(description).length == 0 */\n    tag_127:\n        /* \"remix/social.sol\":3401:3477  bytes(title).length == 0 || bytes(description).length == 0 || msg.value == 0 */\n      dup1\n      tag_128\n      jumpi\n      pop\n        /* \"remix/social.sol\":3476:3477  0 */\n      0x00\n        /* \"remix/social.sol\":3463:3472  msg.value */\n      callvalue\n        /* \"remix/social.sol\":3463:3477  msg.value == 0 */\n      eq\n        /* \"remix/social.sol\":3401:3477  bytes(title).length == 0 || bytes(description).length == 0 || msg.value == 0 */\n    tag_128:\n        /* \"remix/social.sol\":3397:3495  if (bytes(title).length == 0 || bytes(description).length == 0 || msg.value == 0) revert BadPoll() */\n      iszero\n      tag_129\n      jumpi\n        /* \"remix/social.sol\":3486:3495  BadPoll() */\n      mload(0x40)\n      0xda5d547300000000000000000000000000000000000000000000000000000000\n      dup2\n      mstore\n      0x04\n      add\n      mload(0x40)\n      dup1\n      swap2\n      sub\n      swap1\n      revert\n        /* \"remix/social.sol\":3397:3495  if (bytes(title).length == 0 || bytes(description).length == 0 || msg.value == 0) revert BadPoll() */\n    tag_129:\n        /* \"remix/social.sol\":3510:3520  _petitions */\n      0x00\n        /* \"remix/social.sol\":3510:3527  _petitions.length */\n      dup1\n      sload\n      swap1\n      pop\n        /* \"remix/social.sol\":3505:3527  id = _petitions.length */\n      swap1\n      pop\n        /* \"remix/social.sol\":3537:3555  Petition storage p */\n      0x00\n        /* \"remix/social.sol\":3558:3568  _petitions */\n      0x00\n        /* \"remix/social.sol\":3558:3575  _petitions.push() */\n      0x01\n      dup2\n      0x01\n      dup2\n      sload\n      add\n      dup1\n      dup3\n      sstore\n      dup1\n      swap2\n      pop\n      pop\n      sub\n      swap1\n      0x00\n      mstore\n      keccak256(0x00, 0x20)\n      swap1\n      0x04\n      mul\n      add\n        /* \"remix/social.sol\":3537:3575  Petition storage p = _petitions.push() */\n      swap1\n      pop\n        /* \"remix/social.sol\":3597:3607  msg.sender */\n      caller\n        /* \"remix/social.sol\":3585:3586  p */\n      dup2\n        /* \"remix/social.sol\":3585:3594  p.creator */\n      0x00\n      add\n      0x00\n        /* \"remix/social.sol\":3585:3607  p.creator = msg.sender */\n      0x0100\n      exp\n      dup2\n      sload\n      dup2\n      0xffffffffffffffffffffffffffffffffffffffff\n      mul\n      not\n      and\n      swap1\n      dup4\n      0xffffffffffffffffffffffffffffffffffffffff\n      and\n      mul\n      or\n      swap1\n      sstore\n      pop\n        /* \"remix/social.sol\":3627:3632  title */\n      dup6\n      dup6\n        /* \"remix/social.sol\":3617:3618  p */\n      dup3\n        /* \"remix/social.sol\":3617:3624  p.title */\n      0x01\n      add\n        /* \"remix/social.sol\":3617:3632  p.title = title */\n      swap2\n      dup3\n      tag_131\n      swap3\n      swap2\n      swap1\n      tag_132\n      jump\t// in\n    tag_131:\n      pop\n        /* \"remix/social.sol\":3658:3669  description */\n      dup4\n      dup4\n        /* \"remix/social.sol\":3642:3643  p */\n      dup3\n        /* \"remix/social.sol\":3642:3655  p.description */\n      0x02\n      add\n        /* \"remix/social.sol\":3642:3669  p.description = description */\n      swap2\n      dup3\n      tag_133\n      swap3\n      swap2\n      swap1\n      tag_132\n      jump\t// in\n    tag_133:\n      pop\n        /* \"remix/social.sol\":3697:3706  msg.value */\n      callvalue\n        /* \"remix/social.sol\":3679:3680  p */\n      dup2\n        /* \"remix/social.sol\":3679:3686  p.stake */\n      0x03\n      add\n      0x00\n        /* \"remix/social.sol\":3679:3707  p.stake = uint128(msg.value) */\n      0x0100\n      exp\n      dup2\n      sload\n      dup2\n      0xffffffffffffffffffffffffffffffff\n      mul\n      not\n      and\n      swap1\n      dup4\n      0xffffffffffffffffffffffffffffffff\n      and\n      mul\n      or\n      swap1\n      sstore\n      pop\n        /* \"remix/social.sol\":3742:3752  msg.sender */\n      caller\n        /* \"remix/social.sol\":3722:3769  PetitionCreated(id, msg.sender, title, p.stake) */\n      0xffffffffffffffffffffffffffffffffffffffff\n      and\n        /* \"remix/social.sol\":3738:3740  id */\n      dup3\n        /* \"remix/social.sol\":3722:3769  PetitionCreated(id, msg.sender, title, p.stake) */\n      0xc74b3803df7be5418e64a332bbf85ddedb2acbe729eac5097345e28c5e25c091\n        /* \"remix/social.sol\":3754:3759  title */\n      dup9\n      dup9\n        /* \"remix/social.sol\":3761:3762  p */\n      dup6\n        /* \"remix/social.sol\":3761:3768  p.stake */\n      0x03\n      add\n      0x00\n      swap1\n      sload\n      swap1\n      0x0100\n      exp\n      swap1\n      div\n      0xffffffffffffffffffffffffffffffff\n      and\n        /* \"remix/social.sol\":3722:3769  PetitionCreated(id, msg.sender, title, p.stake) */\n      mload(0x40)\n      tag_134\n      swap4\n      swap3\n      swap2\n      swap1\n      tag_135\n      jump\t// in\n    tag_134:\n      mload(0x40)\n      dup1\n      swap2\n      sub\n      swap1\n      log3\n        /* \"remix/social.sol\":3387:3776  {... */\n      pop\n        /* \"remix/social.sol\":3273:3776  function createPetition(string calldata title, string calldata description) external payable returns (uint256 id) {... */\n      swap5\n      swap4\n      pop\n      pop\n      pop\n      pop\n      jump\t// out\n        /* \"remix/social.sol\":1489:1550  mapping(uint256 => mapping(address => bool)) public hasSigned */\n    tag_58:\n      mstore(0x20, 0x01)\n      dup2\n      0x00\n      mstore\n      mstore(0x20, keccak256(0x00, 0x40))\n      dup1\n      0x00\n      mstore\n      keccak256(0x00, 0x40)\n      0x00\n      swap2\n      pop\n      swap2\n      pop\n      swap1\n      sload\n      swap1\n      0x0100\n      exp\n      swap1\n      div\n      0xff\n      and\n      dup2\n      jump\t// out\n        /* \"remix/social.sol\":2897:3095  function decision(uint256 id) external view returns (bool decided, bool approved, address by) {... */\n    tag_64:\n        /* \"remix/social.sol\":2950:2962  bool decided */\n      0x00\n        /* \"remix/social.sol\":2964:2977  bool approved */\n      0x00\n        /* \"remix/social.sol\":2979:2989  address by */\n      0x00\n        /* \"remix/social.sol\":3001:3022  GovDecision storage g */\n      0x00\n        /* \"remix/social.sol\":3025:3038  _govDecisions */\n      0x02\n        /* \"remix/social.sol\":3025:3042  _govDecisions[id] */\n      0x00\n        /* \"remix/social.sol\":3039:3041  id */\n      dup7\n        /* \"remix/social.sol\":3025:3042  _govDecisions[id] */\n      dup2\n      mstore\n      0x20\n      add\n      swap1\n      dup2\n      mstore\n      0x20\n      add\n      0x00\n      keccak256\n        /* \"remix/social.sol\":3001:3042  GovDecision storage g = _govDecisions[id] */\n      swap1\n      pop\n        /* \"remix/social.sol\":3060:3061  g */\n      dup1\n        /* \"remix/social.sol\":3060:3069  g.decided */\n      0x00\n      add\n      0x00\n      swap1\n      sload\n      swap1\n      0x0100\n      exp\n      swap1\n      div\n      0xff\n      and\n        /* \"remix/social.sol\":3071:3072  g */\n      dup2\n        /* \"remix/social.sol\":3071:3081  g.approved */\n      0x00\n      add\n      0x01\n      swap1\n      sload\n      swap1\n      0x0100\n      exp\n      swap1\n      div\n      0xff\n      and\n        /* \"remix/social.sol\":3083:3084  g */\n      dup3\n        /* \"remix/social.sol\":3083:3087  g.by */\n      0x00\n      add\n      0x02\n      swap1\n      sload\n      swap1\n      0x0100\n      exp\n      swap1\n      div\n      0xffffffffffffffffffffffffffffffffffffffff\n      and\n        /* \"remix/social.sol\":3052:3088  return (g.decided, g.approved, g.by) */\n      swap4\n      pop\n      swap4\n      pop\n      swap4\n      pop\n      pop\n        /* \"remix/social.sol\":2897:3095  function decision(uint256 id) external view returns (bool decided, bool approved, address by) {... */\n      swap2\n      swap4\n      swap1\n      swap3\n      pop\n      jump\t// out\n        /* \"remix/social.sol\":5572:5701  function hasSignedPetition(uint256 id, address signer) external view returns (bool) {... */\n    tag_70:\n        /* \"remix/social.sol\":5650:5654  bool */\n      0x00\n        /* \"remix/social.sol\":5673:5682  hasSigned */\n      0x01\n        /* \"remix/social.sol\":5673:5686  hasSigned[id] */\n      0x00\n        /* \"remix/social.sol\":5683:5685  id */\n      dup5\n        /* \"remix/social.sol\":5673:5686  hasSigned[id] */\n      dup2\n      mstore\n      0x20\n      add\n      swap1\n      dup2\n      mstore\n      0x20\n      add\n      0x00\n      keccak256\n        /* \"remix/social.sol\":5673:5694  hasSigned[id][signer] */\n      0x00\n        /* \"remix/social.sol\":5687:5693  signer */\n      dup4\n        /* \"remix/social.sol\":5673:5694  hasSigned[id][signer] */\n      0xffffffffffffffffffffffffffffffffffffffff\n      and\n      0xffffffffffffffffffffffffffffffffffffffff\n      and\n      dup2\n      mstore\n      0x20\n      add\n      swap1\n      dup2\n      mstore\n      0x20\n      add\n      0x00\n      keccak256\n      0x00\n      swap1\n      sload\n      swap1\n      0x0100\n      exp\n      swap1\n      div\n      0xff\n      and\n        /* \"remix/social.sol\":5666:5694  return hasSigned[id][signer] */\n      swap1\n      pop\n        /* \"remix/social.sol\":5572:5701  function hasSignedPetition(uint256 id, address signer) external view returns (bool) {... */\n      swap3\n      swap2\n      pop\n      pop\n      jump\t// out\n        /* \"#utility.yul\":88:205   */\n    tag_139:\n        /* \"#utility.yul\":197:198   */\n      0x00\n        /* \"#utility.yul\":194:195   */\n      0x00\n        /* \"#utility.yul\":187:199   */\n      revert\n        /* \"#utility.yul\":211:328   */\n    tag_140:\n        /* \"#utility.yul\":320:321   */\n      0x00\n        /* \"#utility.yul\":317:318   */\n      0x00\n        /* \"#utility.yul\":310:322   */\n      revert\n        /* \"#utility.yul\":334:411   */\n    tag_141:\n        /* \"#utility.yul\":371:378   */\n      0x00\n        /* \"#utility.yul\":400:405   */\n      dup2\n        /* \"#utility.yul\":389:405   */\n      swap1\n      pop\n        /* \"#utility.yul\":334:411   */\n      swap2\n      swap1\n      pop\n      jump\t// out\n        /* \"#utility.yul\":417:539   */\n    tag_142:\n        /* \"#utility.yul\":490:514   */\n      tag_199\n        /* \"#utility.yul\":508:513   */\n      dup2\n        /* \"#utility.yul\":490:514   */\n      tag_141\n      jump\t// in\n    tag_199:\n        /* \"#utility.yul\":483:488   */\n      dup2\n        /* \"#utility.yul\":480:515   */\n      eq\n        /* \"#utility.yul\":470:533   */\n      tag_200\n      jumpi\n        /* \"#utility.yul\":529:530   */\n      0x00\n        /* \"#utility.yul\":526:527   */\n      0x00\n        /* \"#utility.yul\":519:531   */\n      revert\n        /* \"#utility.yul\":470:533   */\n    tag_200:\n        /* \"#utility.yul\":417:539   */\n      pop\n      jump\t// out\n        /* \"#utility.yul\":545:684   */\n    tag_143:\n        /* \"#utility.yul\":591:596   */\n      0x00\n        /* \"#utility.yul\":629:635   */\n      dup2\n        /* \"#utility.yul\":616:636   */\n      calldataload\n        /* \"#utility.yul\":607:636   */\n      swap1\n      pop\n        /* \"#utility.yul\":645:678   */\n      tag_202\n        /* \"#utility.yul\":672:677   */\n      dup2\n        /* \"#utility.yul\":645:678   */\n      tag_142\n      jump\t// in\n    tag_202:\n        /* \"#utility.yul\":545:684   */\n      swap3\n      swap2\n      pop\n      pop\n      jump\t// out\n        /* \"#utility.yul\":690:1019   */\n    tag_17:\n        /* \"#utility.yul\":749:755   */\n      0x00\n        /* \"#utility.yul\":798:800   */\n      0x20\n        /* \"#utility.yul\":786:795   */\n      dup3\n        /* \"#utility.yul\":777:784   */\n      dup5\n        /* \"#utility.yul\":773:796   */\n      sub\n        /* \"#utility.yul\":769:801   */\n      slt\n        /* \"#utility.yul\":766:885   */\n      iszero\n      tag_204\n      jumpi\n        /* \"#utility.yul\":804:883   */\n      tag_205\n      tag_139\n      jump\t// in\n    tag_205:\n        /* \"#utility.yul\":766:885   */\n    tag_204:\n        /* \"#utility.yul\":924:925   */\n      0x00\n        /* \"#utility.yul\":949:1002   */\n      tag_206\n        /* \"#utility.yul\":994:1001   */\n      dup5\n        /* \"#utility.yul\":985:991   */\n      dup3\n        /* \"#utility.yul\":974:983   */\n      dup6\n        /* \"#utility.yul\":970:992   */\n      add\n        /* \"#utility.yul\":949:1002   */\n      tag_143\n      jump\t// in\n    tag_206:\n        /* \"#utility.yul\":939:1002   */\n      swap2\n      pop\n        /* \"#utility.yul\":895:1012   */\n      pop\n        /* \"#utility.yul\":690:1019   */\n      swap3\n      swap2\n      pop\n      pop\n      jump\t// out\n        /* \"#utility.yul\":1025:1151   */\n    tag_144:\n        /* \"#utility.yul\":1062:1069   */\n      0x00\n        /* \"#utility.yul\":1102:1144   */\n      0xffffffffffffffffffffffffffffffffffffffff\n        /* \"#utility.yul\":1095:1100   */\n      dup3\n        /* \"#utility.yul\":1091:1145   */\n      and\n        /* \"#utility.yul\":1080:1145   */\n      swap1\n      pop\n        /* \"#utility.yul\":1025:1151   */\n      swap2\n      swap1\n      pop\n      jump\t// out\n        /* \"#utility.yul\":1157:1253   */\n    tag_145:\n        /* \"#utility.yul\":1194:1201   */\n      0x00\n        /* \"#utility.yul\":1223:1247   */\n      tag_209\n        /* \"#utility.yul\":1241:1246   */\n      dup3\n        /* \"#utility.yul\":1223:1247   */\n      tag_144\n      jump\t// in\n    tag_209:\n        /* \"#utility.yul\":1212:1247   */\n      swap1\n      pop\n        /* \"#utility.yul\":1157:1253   */\n      swap2\n      swap1\n      pop\n      jump\t// out\n        /* \"#utility.yul\":1259:1377   */\n    tag_146:\n        /* \"#utility.yul\":1346:1370   */\n      tag_211\n        /* \"#utility.yul\":1364:1369   */\n      dup2\n        /* \"#utility.yul\":1346:1370   */\n      tag_145\n      jump\t// in\n    tag_211:\n        /* \"#utility.yul\":1341:1344   */\n      dup3\n        /* \"#utility.yul\":1334:1371   */\n      mstore\n        /* \"#utility.yul\":1259:1377   */\n      pop\n      pop\n      jump\t// out\n        /* \"#utility.yul\":1383:1482   */\n    tag_147:\n        /* \"#utility.yul\":1435:1441   */\n      0x00\n        /* \"#utility.yul\":1469:1474   */\n      dup2\n        /* \"#utility.yul\":1463:1475   */\n      mload\n        /* \"#utility.yul\":1453:1475   */\n      swap1\n      pop\n        /* \"#utility.yul\":1383:1482   */\n      swap2\n      swap1\n      pop\n      jump\t// out\n        /* \"#utility.yul\":1488:1657   */\n    tag_148:\n        /* \"#utility.yul\":1572:1583   */\n      0x00\n        /* \"#utility.yul\":1606:1612   */\n      dup3\n        /* \"#utility.yul\":1601:1604   */\n      dup3\n        /* \"#utility.yul\":1594:1613   */\n      mstore\n        /* \"#utility.yul\":1646:1650   */\n      0x20\n        /* \"#utility.yul\":1641:1644   */\n      dup3\n        /* \"#utility.yul\":1637:1651   */\n      add\n        /* \"#utility.yul\":1622:1651   */\n      swap1\n      pop\n        /* \"#utility.yul\":1488:1657   */\n      swap3\n      swap2\n      pop\n      pop\n      jump\t// out\n        /* \"#utility.yul\":1663:1802   */\n    tag_149:\n        /* \"#utility.yul\":1752:1758   */\n      dup3\n        /* \"#utility.yul\":1747:1750   */\n      dup2\n        /* \"#utility.yul\":1742:1745   */\n      dup4\n        /* \"#utility.yul\":1736:1759   */\n      mcopy\n        /* \"#utility.yul\":1793:1794   */\n      0x00\n        /* \"#utility.yul\":1784:1790   */\n      dup4\n        /* \"#utility.yul\":1779:1782   */\n      dup4\n        /* \"#utility.yul\":1775:1791   */\n      add\n        /* \"#utility.yul\":1768:1795   */\n      mstore\n        /* \"#utility.yul\":1663:1802   */\n      pop\n      pop\n      pop\n      jump\t// out\n        /* \"#utility.yul\":1808:1910   */\n    tag_150:\n        /* \"#utility.yul\":1849:1855   */\n      0x00\n        /* \"#utility.yul\":1900:1902   */\n      0x1f\n        /* \"#utility.yul\":1896:1903   */\n      not\n        /* \"#utility.yul\":1891:1893   */\n      0x1f\n        /* \"#utility.yul\":1884:1889   */\n      dup4\n        /* \"#utility.yul\":1880:1894   */\n      add\n        /* \"#utility.yul\":1876:1904   */\n      and\n        /* \"#utility.yul\":1866:1904   */\n      swap1\n      pop\n        /* \"#utility.yul\":1808:1910   */\n      swap2\n      swap1\n      pop\n      jump\t// out\n        /* \"#utility.yul\":1916:2293   */\n    tag_151:\n        /* \"#utility.yul\":2004:2007   */\n      0x00\n        /* \"#utility.yul\":2032:2071   */\n      tag_217\n        /* \"#utility.yul\":2065:2070   */\n      dup3\n        /* \"#utility.yul\":2032:2071   */\n      tag_147\n      jump\t// in\n    tag_217:\n        /* \"#utility.yul\":2087:2158   */\n      tag_218\n        /* \"#utility.yul\":2151:2157   */\n      dup2\n        /* \"#utility.yul\":2146:2149   */\n      dup6\n        /* \"#utility.yul\":2087:2158   */\n      tag_148\n      jump\t// in\n    tag_218:\n        /* \"#utility.yul\":2080:2158   */\n      swap4\n      pop\n        /* \"#utility.yul\":2167:2232   */\n      tag_219\n        /* \"#utility.yul\":2225:2231   */\n      dup2\n        /* \"#utility.yul\":2220:2223   */\n      dup6\n        /* \"#utility.yul\":2213:2217   */\n      0x20\n        /* \"#utility.yul\":2206:2211   */\n      dup7\n        /* \"#utility.yul\":2202:2218   */\n      add\n        /* \"#utility.yul\":2167:2232   */\n      tag_149\n      jump\t// in\n    tag_219:\n        /* \"#utility.yul\":2257:2286   */\n      tag_220\n        /* \"#utility.yul\":2279:2285   */\n      dup2\n        /* \"#utility.yul\":2257:2286   */\n      tag_150\n      jump\t// in\n    tag_220:\n        /* \"#utility.yul\":2252:2255   */\n      dup5\n        /* \"#utility.yul\":2248:2287   */\n      add\n        /* \"#utility.yul\":2241:2287   */\n      swap2\n      pop\n        /* \"#utility.yul\":2008:2293   */\n      pop\n        /* \"#utility.yul\":1916:2293   */\n      swap3\n      swap2\n      pop\n      pop\n      jump\t// out\n        /* \"#utility.yul\":2299:2417   */\n    tag_152:\n        /* \"#utility.yul\":2336:2343   */\n      0x00\n        /* \"#utility.yul\":2376:2410   */\n      0xffffffffffffffffffffffffffffffff\n        /* \"#utility.yul\":2369:2374   */\n      dup3\n        /* \"#utility.yul\":2365:2411   */\n      and\n        /* \"#utility.yul\":2354:2411   */\n      swap1\n      pop\n        /* \"#utility.yul\":2299:2417   */\n      swap2\n      swap1\n      pop\n      jump\t// out\n        /* \"#utility.yul\":2423:2541   */\n    tag_153:\n        /* \"#utility.yul\":2510:2534   */\n      tag_223\n        /* \"#utility.yul\":2528:2533   */\n      dup2\n        /* \"#utility.yul\":2510:2534   */\n      tag_152\n      jump\t// in\n    tag_223:\n        /* \"#utility.yul\":2505:2508   */\n      dup3\n        /* \"#utility.yul\":2498:2535   */\n      mstore\n        /* \"#utility.yul\":2423:2541   */\n      pop\n      pop\n      jump\t// out\n        /* \"#utility.yul\":2547:2648   */\n    tag_154:\n        /* \"#utility.yul\":2583:2590   */\n      0x00\n        /* \"#utility.yul\":2623:2641   */\n      0xffffffffffffffff\n        /* \"#utility.yul\":2616:2621   */\n      dup3\n        /* \"#utility.yul\":2612:2642   */\n      and\n        /* \"#utility.yul\":2601:2642   */\n      swap1\n      pop\n        /* \"#utility.yul\":2547:2648   */\n      swap2\n      swap1\n      pop\n      jump\t// out\n        /* \"#utility.yul\":2654:2769   */\n    tag_155:\n        /* \"#utility.yul\":2739:2762   */\n      tag_226\n        /* \"#utility.yul\":2756:2761   */\n      dup2\n        /* \"#utility.yul\":2739:2762   */\n      tag_154\n      jump\t// in\n    tag_226:\n        /* \"#utility.yul\":2734:2737   */\n      dup3\n        /* \"#utility.yul\":2727:2763   */\n      mstore\n        /* \"#utility.yul\":2654:2769   */\n      pop\n      pop\n      jump\t// out\n        /* \"#utility.yul\":2775:2865   */\n    tag_156:\n        /* \"#utility.yul\":2809:2816   */\n      0x00\n        /* \"#utility.yul\":2852:2857   */\n      dup2\n        /* \"#utility.yul\":2845:2858   */\n      iszero\n        /* \"#utility.yul\":2838:2859   */\n      iszero\n        /* \"#utility.yul\":2827:2859   */\n      swap1\n      pop\n        /* \"#utility.yul\":2775:2865   */\n      swap2\n      swap1\n      pop\n      jump\t// out\n        /* \"#utility.yul\":2871:2980   */\n    tag_157:\n        /* \"#utility.yul\":2952:2973   */\n      tag_229\n        /* \"#utility.yul\":2967:2972   */\n      dup2\n        /* \"#utility.yul\":2952:2973   */\n      tag_156\n      jump\t// in\n    tag_229:\n        /* \"#utility.yul\":2947:2950   */\n      dup3\n        /* \"#utility.yul\":2940:2974   */\n      mstore\n        /* \"#utility.yul\":2871:2980   */\n      pop\n      pop\n      jump\t// out\n        /* \"#utility.yul\":2986:4125   */\n    tag_20:\n        /* \"#utility.yul\":3295:3299   */\n      0x00\n        /* \"#utility.yul\":3333:3336   */\n      0x0100\n        /* \"#utility.yul\":3322:3331   */\n      dup3\n        /* \"#utility.yul\":3318:3337   */\n      add\n        /* \"#utility.yul\":3310:3337   */\n      swap1\n      pop\n        /* \"#utility.yul\":3347:3418   */\n      tag_231\n        /* \"#utility.yul\":3415:3416   */\n      0x00\n        /* \"#utility.yul\":3404:3413   */\n      dup4\n        /* \"#utility.yul\":3400:3417   */\n      add\n        /* \"#utility.yul\":3391:3397   */\n      dup12\n        /* \"#utility.yul\":3347:3418   */\n      tag_146\n      jump\t// in\n    tag_231:\n        /* \"#utility.yul\":3465:3474   */\n      dup2\n        /* \"#utility.yul\":3459:3463   */\n      dup2\n        /* \"#utility.yul\":3455:3475   */\n      sub\n        /* \"#utility.yul\":3450:3452   */\n      0x20\n        /* \"#utility.yul\":3439:3448   */\n      dup4\n        /* \"#utility.yul\":3435:3453   */\n      add\n        /* \"#utility.yul\":3428:3476   */\n      mstore\n        /* \"#utility.yul\":3493:3571   */\n      tag_232\n        /* \"#utility.yul\":3566:3570   */\n      dup2\n        /* \"#utility.yul\":3557:3563   */\n      dup11\n        /* \"#utility.yul\":3493:3571   */\n      tag_151\n      jump\t// in\n    tag_232:\n        /* \"#utility.yul\":3485:3571   */\n      swap1\n      pop\n        /* \"#utility.yul\":3618:3627   */\n      dup2\n        /* \"#utility.yul\":3612:3616   */\n      dup2\n        /* \"#utility.yul\":3608:3628   */\n      sub\n        /* \"#utility.yul\":3603:3605   */\n      0x40\n        /* \"#utility.yul\":3592:3601   */\n      dup4\n        /* \"#utility.yul\":3588:3606   */\n      add\n        /* \"#utility.yul\":3581:3629   */\n      mstore\n        /* \"#utility.yul\":3646:3724   */\n      tag_233\n        /* \"#utility.yul\":3719:3723   */\n      dup2\n        /* \"#utility.yul\":3710:3716   */\n      dup10\n        /* \"#utility.yul\":3646:3724   */\n      tag_151\n      jump\t// in\n    tag_233:\n        /* \"#utility.yul\":3638:3724   */\n      swap1\n      pop\n        /* \"#utility.yul\":3734:3806   */\n      tag_234\n        /* \"#utility.yul\":3802:3804   */\n      0x60\n        /* \"#utility.yul\":3791:3800   */\n      dup4\n        /* \"#utility.yul\":3787:3805   */\n      add\n        /* \"#utility.yul\":3778:3784   */\n      dup9\n        /* \"#utility.yul\":3734:3806   */\n      tag_153\n      jump\t// in\n    tag_234:\n        /* \"#utility.yul\":3816:3887   */\n      tag_235\n        /* \"#utility.yul\":3882:3885   */\n      0x80\n        /* \"#utility.yul\":3871:3880   */\n      dup4\n        /* \"#utility.yul\":3867:3886   */\n      add\n        /* \"#utility.yul\":3858:3864   */\n      dup8\n        /* \"#utility.yul\":3816:3887   */\n      tag_155\n      jump\t// in\n    tag_235:\n        /* \"#utility.yul\":3897:3964   */\n      tag_236\n        /* \"#utility.yul\":3959:3962   */\n      0xa0\n        /* \"#utility.yul\":3948:3957   */\n      dup4\n        /* \"#utility.yul\":3944:3963   */\n      add\n        /* \"#utility.yul\":3935:3941   */\n      dup7\n        /* \"#utility.yul\":3897:3964   */\n      tag_157\n      jump\t// in\n    tag_236:\n        /* \"#utility.yul\":3974:4041   */\n      tag_237\n        /* \"#utility.yul\":4036:4039   */\n      0xc0\n        /* \"#utility.yul\":4025:4034   */\n      dup4\n        /* \"#utility.yul\":4021:4040   */\n      add\n        /* \"#utility.yul\":4012:4018   */\n      dup6\n        /* \"#utility.yul\":3974:4041   */\n      tag_157\n      jump\t// in\n    tag_237:\n        /* \"#utility.yul\":4051:4118   */\n      tag_238\n        /* \"#utility.yul\":4113:4116   */\n      0xe0\n        /* \"#utility.yul\":4102:4111   */\n      dup4\n        /* \"#utility.yul\":4098:4117   */\n      add\n        /* \"#utility.yul\":4089:4095   */\n      dup5\n        /* \"#utility.yul\":4051:4118   */\n      tag_157\n      jump\t// in\n    tag_238:\n        /* \"#utility.yul\":2986:4125   */\n      swap10\n      swap9\n      pop\n      pop\n      pop\n      pop\n      pop\n      pop\n      pop\n      pop\n      pop\n      jump\t// out\n        /* \"#utility.yul\":4131:4349   */\n    tag_25:\n        /* \"#utility.yul\":4222:4226   */\n      0x00\n        /* \"#utility.yul\":4260:4262   */\n      0x20\n        /* \"#utility.yul\":4249:4258   */\n      dup3\n        /* \"#utility.yul\":4245:4263   */\n      add\n        /* \"#utility.yul\":4237:4263   */\n      swap1\n      pop\n        /* \"#utility.yul\":4273:4342   */\n      tag_240\n        /* \"#utility.yul\":4339:4340   */\n      0x00\n        /* \"#utility.yul\":4328:4337   */\n      dup4\n        /* \"#utility.yul\":4324:4341   */\n      add\n        /* \"#utility.yul\":4315:4321   */\n      dup5\n        /* \"#utility.yul\":4273:4342   */\n      tag_155\n      jump\t// in\n    tag_240:\n        /* \"#utility.yul\":4131:4349   */\n      swap3\n      swap2\n      pop\n      pop\n      jump\t// out\n        /* \"#utility.yul\":4355:4471   */\n    tag_158:\n        /* \"#utility.yul\":4425:4446   */\n      tag_242\n        /* \"#utility.yul\":4440:4445   */\n      dup2\n        /* \"#utility.yul\":4425:4446   */\n      tag_156\n      jump\t// in\n    tag_242:\n        /* \"#utility.yul\":4418:4423   */\n      dup2\n        /* \"#utility.yul\":4415:4447   */\n      eq\n        /* \"#utility.yul\":4405:4465   */\n      tag_243\n      jumpi\n        /* \"#utility.yul\":4461:4462   */\n      0x00\n        /* \"#utility.yul\":4458:4459   */\n      0x00\n        /* \"#utility.yul\":4451:4463   */\n      revert\n        /* \"#utility.yul\":4405:4465   */\n    tag_243:\n        /* \"#utility.yul\":4355:4471   */\n      pop\n      jump\t// out\n        /* \"#utility.yul\":4477:4610   */\n    tag_159:\n        /* \"#utility.yul\":4520:4525   */\n      0x00\n        /* \"#utility.yul\":4558:4564   */\n      dup2\n        /* \"#utility.yul\":4545:4565   */\n      calldataload\n        /* \"#utility.yul\":4536:4565   */\n      swap1\n      pop\n        /* \"#utility.yul\":4574:4604   */\n      tag_245\n        /* \"#utility.yul\":4598:4603   */\n      dup2\n        /* \"#utility.yul\":4574:4604   */\n      tag_158\n      jump\t// in\n    tag_245:\n        /* \"#utility.yul\":4477:4610   */\n      swap3\n      swap2\n      pop\n      pop\n      jump\t// out\n        /* \"#utility.yul\":4616:5084   */\n    tag_29:\n        /* \"#utility.yul\":4681:4687   */\n      0x00\n        /* \"#utility.yul\":4689:4695   */\n      0x00\n        /* \"#utility.yul\":4738:4740   */\n      0x40\n        /* \"#utility.yul\":4726:4735   */\n      dup4\n        /* \"#utility.yul\":4717:4724   */\n      dup6\n        /* \"#utility.yul\":4713:4736   */\n      sub\n        /* \"#utility.yul\":4709:4741   */\n      slt\n        /* \"#utility.yul\":4706:4825   */\n      iszero\n      tag_247\n      jumpi\n        /* \"#utility.yul\":4744:4823   */\n      tag_248\n      tag_139\n      jump\t// in\n    tag_248:\n        /* \"#utility.yul\":4706:4825   */\n    tag_247:\n        /* \"#utility.yul\":4864:4865   */\n      0x00\n        /* \"#utility.yul\":4889:4942   */\n      tag_249\n        /* \"#utility.yul\":4934:4941   */\n      dup6\n        /* \"#utility.yul\":4925:4931   */\n      dup3\n        /* \"#utility.yul\":4914:4923   */\n      dup7\n        /* \"#utility.yul\":4910:4932   */\n      add\n        /* \"#utility.yul\":4889:4942   */\n      tag_143\n      jump\t// in\n    tag_249:\n        /* \"#utility.yul\":4879:4942   */\n      swap3\n      pop\n        /* \"#utility.yul\":4835:4952   */\n      pop\n        /* \"#utility.yul\":4991:4993   */\n      0x20\n        /* \"#utility.yul\":5017:5067   */\n      tag_250\n        /* \"#utility.yul\":5059:5066   */\n      dup6\n        /* \"#utility.yul\":5050:5056   */\n      dup3\n        /* \"#utility.yul\":5039:5048   */\n      dup7\n        /* \"#utility.yul\":5035:5057   */\n      add\n        /* \"#utility.yul\":5017:5067   */\n      tag_159\n      jump\t// in\n    tag_250:\n        /* \"#utility.yul\":5007:5067   */\n      swap2\n      pop\n        /* \"#utility.yul\":4962:5077   */\n      pop\n        /* \"#utility.yul\":4616:5084   */\n      swap3\n      pop\n      swap3\n      swap1\n      pop\n      jump\t// out\n        /* \"#utility.yul\":5090:5312   */\n    tag_35:\n        /* \"#utility.yul\":5183:5187   */\n      0x00\n        /* \"#utility.yul\":5221:5223   */\n      0x20\n        /* \"#utility.yul\":5210:5219   */\n      dup3\n        /* \"#utility.yul\":5206:5224   */\n      add\n        /* \"#utility.yul\":5198:5224   */\n      swap1\n      pop\n        /* \"#utility.yul\":5234:5305   */\n      tag_252\n        /* \"#utility.yul\":5302:5303   */\n      0x00\n        /* \"#utility.yul\":5291:5300   */\n      dup4\n        /* \"#utility.yul\":5287:5304   */\n      add\n        /* \"#utility.yul\":5278:5284   */\n      dup5\n        /* \"#utility.yul\":5234:5305   */\n      tag_146\n      jump\t// in\n    tag_252:\n        /* \"#utility.yul\":5090:5312   */\n      swap3\n      swap2\n      pop\n      pop\n      jump\t// out\n        /* \"#utility.yul\":5318:5436   */\n    tag_160:\n        /* \"#utility.yul\":5405:5429   */\n      tag_254\n        /* \"#utility.yul\":5423:5428   */\n      dup2\n        /* \"#utility.yul\":5405:5429   */\n      tag_141\n      jump\t// in\n    tag_254:\n        /* \"#utility.yul\":5400:5403   */\n      dup3\n        /* \"#utility.yul\":5393:5430   */\n      mstore\n        /* \"#utility.yul\":5318:5436   */\n      pop\n      pop\n      jump\t// out\n        /* \"#utility.yul\":5442:5664   */\n    tag_44:\n        /* \"#utility.yul\":5535:5539   */\n      0x00\n        /* \"#utility.yul\":5573:5575   */\n      0x20\n        /* \"#utility.yul\":5562:5571   */\n      dup3\n        /* \"#utility.yul\":5558:5576   */\n      add\n        /* \"#utility.yul\":5550:5576   */\n      swap1\n      pop\n        /* \"#utility.yul\":5586:5657   */\n      tag_256\n        /* \"#utility.yul\":5654:5655   */\n      0x00\n        /* \"#utility.yul\":5643:5652   */\n      dup4\n        /* \"#utility.yul\":5639:5656   */\n      add\n        /* \"#utility.yul\":5630:5636   */\n      dup5\n        /* \"#utility.yul\":5586:5657   */\n      tag_160\n      jump\t// in\n    tag_256:\n        /* \"#utility.yul\":5442:5664   */\n      swap3\n      swap2\n      pop\n      pop\n      jump\t// out\n        /* \"#utility.yul\":5670:5787   */\n    tag_161:\n        /* \"#utility.yul\":5779:5780   */\n      0x00\n        /* \"#utility.yul\":5776:5777   */\n      0x00\n        /* \"#utility.yul\":5769:5781   */\n      revert\n        /* \"#utility.yul\":5793:5910   */\n    tag_162:\n        /* \"#utility.yul\":5902:5903   */\n      0x00\n        /* \"#utility.yul\":5899:5900   */\n      0x00\n        /* \"#utility.yul\":5892:5904   */\n      revert\n        /* \"#utility.yul\":5916:6033   */\n    tag_163:\n        /* \"#utility.yul\":6025:6026   */\n      0x00\n        /* \"#utility.yul\":6022:6023   */\n      0x00\n        /* \"#utility.yul\":6015:6027   */\n      revert\n        /* \"#utility.yul\":6053:6606   */\n    tag_164:\n        /* \"#utility.yul\":6111:6119   */\n      0x00\n        /* \"#utility.yul\":6121:6127   */\n      0x00\n        /* \"#utility.yul\":6171:6174   */\n      dup4\n        /* \"#utility.yul\":6164:6168   */\n      0x1f\n        /* \"#utility.yul\":6156:6162   */\n      dup5\n        /* \"#utility.yul\":6152:6169   */\n      add\n        /* \"#utility.yul\":6148:6175   */\n      slt\n        /* \"#utility.yul\":6138:6260   */\n      tag_261\n      jumpi\n        /* \"#utility.yul\":6179:6258   */\n      tag_262\n      tag_161\n      jump\t// in\n    tag_262:\n        /* \"#utility.yul\":6138:6260   */\n    tag_261:\n        /* \"#utility.yul\":6292:6298   */\n      dup3\n        /* \"#utility.yul\":6279:6299   */\n      calldataload\n        /* \"#utility.yul\":6269:6299   */\n      swap1\n      pop\n        /* \"#utility.yul\":6322:6340   */\n      0xffffffffffffffff\n        /* \"#utility.yul\":6314:6320   */\n      dup2\n        /* \"#utility.yul\":6311:6341   */\n      gt\n        /* \"#utility.yul\":6308:6425   */\n      iszero\n      tag_263\n      jumpi\n        /* \"#utility.yul\":6344:6423   */\n      tag_264\n      tag_162\n      jump\t// in\n    tag_264:\n        /* \"#utility.yul\":6308:6425   */\n    tag_263:\n        /* \"#utility.yul\":6458:6462   */\n      0x20\n        /* \"#utility.yul\":6450:6456   */\n      dup4\n        /* \"#utility.yul\":6446:6463   */\n      add\n        /* \"#utility.yul\":6434:6463   */\n      swap2\n      pop\n        /* \"#utility.yul\":6512:6515   */\n      dup4\n        /* \"#utility.yul\":6504:6508   */\n      0x01\n        /* \"#utility.yul\":6496:6502   */\n      dup3\n        /* \"#utility.yul\":6492:6509   */\n      mul\n        /* \"#utility.yul\":6482:6490   */\n      dup4\n        /* \"#utility.yul\":6478:6510   */\n      add\n        /* \"#utility.yul\":6475:6516   */\n      gt\n        /* \"#utility.yul\":6472:6600   */\n      iszero\n      tag_265\n      jumpi\n        /* \"#utility.yul\":6519:6598   */\n      tag_266\n      tag_163\n      jump\t// in\n    tag_266:\n        /* \"#utility.yul\":6472:6600   */\n    tag_265:\n        /* \"#utility.yul\":6053:6606   */\n      swap3\n      pop\n      swap3\n      swap1\n      pop\n      jump\t// out\n        /* \"#utility.yul\":6612:7486   */\n    tag_51:\n        /* \"#utility.yul\":6704:6710   */\n      0x00\n        /* \"#utility.yul\":6712:6718   */\n      0x00\n        /* \"#utility.yul\":6720:6726   */\n      0x00\n        /* \"#utility.yul\":6728:6734   */\n      0x00\n        /* \"#utility.yul\":6777:6779   */\n      0x40\n        /* \"#utility.yul\":6765:6774   */\n      dup6\n        /* \"#utility.yul\":6756:6763   */\n      dup8\n        /* \"#utility.yul\":6752:6775   */\n      sub\n        /* \"#utility.yul\":6748:6780   */\n      slt\n        /* \"#utility.yul\":6745:6864   */\n      iszero\n      tag_268\n      jumpi\n        /* \"#utility.yul\":6783:6862   */\n      tag_269\n      tag_139\n      jump\t// in\n    tag_269:\n        /* \"#utility.yul\":6745:6864   */\n    tag_268:\n        /* \"#utility.yul\":6931:6932   */\n      0x00\n        /* \"#utility.yul\":6920:6929   */\n      dup6\n        /* \"#utility.yul\":6916:6933   */\n      add\n        /* \"#utility.yul\":6903:6934   */\n      calldataload\n        /* \"#utility.yul\":6961:6979   */\n      0xffffffffffffffff\n        /* \"#utility.yul\":6953:6959   */\n      dup2\n        /* \"#utility.yul\":6950:6980   */\n      gt\n        /* \"#utility.yul\":6947:7064   */\n      iszero\n      tag_270\n      jumpi\n        /* \"#utility.yul\":6983:7062   */\n      tag_271\n      tag_140\n      jump\t// in\n    tag_271:\n        /* \"#utility.yul\":6947:7064   */\n    tag_270:\n        /* \"#utility.yul\":7096:7161   */\n      tag_272\n        /* \"#utility.yul\":7153:7160   */\n      dup8\n        /* \"#utility.yul\":7144:7150   */\n      dup3\n        /* \"#utility.yul\":7133:7142   */\n      dup9\n        /* \"#utility.yul\":7129:7151   */\n      add\n        /* \"#utility.yul\":7096:7161   */\n      tag_164\n      jump\t// in\n    tag_272:\n        /* \"#utility.yul\":7078:7161   */\n      swap5\n      pop\n      swap5\n      pop\n        /* \"#utility.yul\":6874:7171   */\n      pop\n        /* \"#utility.yul\":7238:7240   */\n      0x20\n        /* \"#utility.yul\":7227:7236   */\n      dup6\n        /* \"#utility.yul\":7223:7241   */\n      add\n        /* \"#utility.yul\":7210:7242   */\n      calldataload\n        /* \"#utility.yul\":7269:7287   */\n      0xffffffffffffffff\n        /* \"#utility.yul\":7261:7267   */\n      dup2\n        /* \"#utility.yul\":7258:7288   */\n      gt\n        /* \"#utility.yul\":7255:7372   */\n      iszero\n      tag_273\n      jumpi\n        /* \"#utility.yul\":7291:7370   */\n      tag_274\n      tag_140\n      jump\t// in\n    tag_274:\n        /* \"#utility.yul\":7255:7372   */\n    tag_273:\n        /* \"#utility.yul\":7404:7469   */\n      tag_275\n        /* \"#utility.yul\":7461:7468   */\n      dup8\n        /* \"#utility.yul\":7452:7458   */\n      dup3\n        /* \"#utility.yul\":7441:7450   */\n      dup9\n        /* \"#utility.yul\":7437:7459   */\n      add\n        /* \"#utility.yul\":7404:7469   */\n      tag_164\n      jump\t// in\n    tag_275:\n        /* \"#utility.yul\":7386:7469   */\n      swap3\n      pop\n      swap3\n      pop\n        /* \"#utility.yul\":7181:7479   */\n      pop\n        /* \"#utility.yul\":6612:7486   */\n      swap3\n      swap6\n      swap2\n      swap5\n      pop\n      swap3\n      pop\n      jump\t// out\n        /* \"#utility.yul\":7492:7614   */\n    tag_165:\n        /* \"#utility.yul\":7565:7589   */\n      tag_277\n        /* \"#utility.yul\":7583:7588   */\n      dup2\n        /* \"#utility.yul\":7565:7589   */\n      tag_145\n      jump\t// in\n    tag_277:\n        /* \"#utility.yul\":7558:7563   */\n      dup2\n        /* \"#utility.yul\":7555:7590   */\n      eq\n        /* \"#utility.yul\":7545:7608   */\n      tag_278\n      jumpi\n        /* \"#utility.yul\":7604:7605   */\n      0x00\n        /* \"#utility.yul\":7601:7602   */\n      0x00\n        /* \"#utility.yul\":7594:7606   */\n      revert\n        /* \"#utility.yul\":7545:7608   */\n    tag_278:\n        /* \"#utility.yul\":7492:7614   */\n      pop\n      jump\t// out\n        /* \"#utility.yul\":7620:7759   */\n    tag_166:\n        /* \"#utility.yul\":7666:7671   */\n      0x00\n        /* \"#utility.yul\":7704:7710   */\n      dup2\n        /* \"#utility.yul\":7691:7711   */\n      calldataload\n        /* \"#utility.yul\":7682:7711   */\n      swap1\n      pop\n        /* \"#utility.yul\":7720:7753   */\n      tag_280\n        /* \"#utility.yul\":7747:7752   */\n      dup2\n        /* \"#utility.yul\":7720:7753   */\n      tag_165\n      jump\t// in\n    tag_280:\n        /* \"#utility.yul\":7620:7759   */\n      swap3\n      swap2\n      pop\n      pop\n      jump\t// out\n        /* \"#utility.yul\":7765:8239   */\n    tag_57:\n        /* \"#utility.yul\":7833:7839   */\n      0x00\n        /* \"#utility.yul\":7841:7847   */\n      0x00\n        /* \"#utility.yul\":7890:7892   */\n      0x40\n        /* \"#utility.yul\":7878:7887   */\n      dup4\n        /* \"#utility.yul\":7869:7876   */\n      dup6\n        /* \"#utility.yul\":7865:7888   */\n      sub\n        /* \"#utility.yul\":7861:7893   */\n      slt\n        /* \"#utility.yul\":7858:7977   */\n      iszero\n      tag_282\n      jumpi\n        /* \"#utility.yul\":7896:7975   */\n      tag_283\n      tag_139\n      jump\t// in\n    tag_283:\n        /* \"#utility.yul\":7858:7977   */\n    tag_282:\n        /* \"#utility.yul\":8016:8017   */\n      0x00\n        /* \"#utility.yul\":8041:8094   */\n      tag_284\n        /* \"#utility.yul\":8086:8093   */\n      dup6\n        /* \"#utility.yul\":8077:8083   */\n      dup3\n        /* \"#utility.yul\":8066:8075   */\n      dup7\n        /* \"#utility.yul\":8062:8084   */\n      add\n        /* \"#utility.yul\":8041:8094   */\n      tag_143\n      jump\t// in\n    tag_284:\n        /* \"#utility.yul\":8031:8094   */\n      swap3\n      pop\n        /* \"#utility.yul\":7987:8104   */\n      pop\n        /* \"#utility.yul\":8143:8145   */\n      0x20\n        /* \"#utility.yul\":8169:8222   */\n      tag_285\n        /* \"#utility.yul\":8214:8221   */\n      dup6\n        /* \"#utility.yul\":8205:8211   */\n      dup3\n        /* \"#utility.yul\":8194:8203   */\n      dup7\n        /* \"#utility.yul\":8190:8212   */\n      add\n        /* \"#utility.yul\":8169:8222   */\n      tag_166\n      jump\t// in\n    tag_285:\n        /* \"#utility.yul\":8159:8222   */\n      swap2\n      pop\n        /* \"#utility.yul\":8114:8232   */\n      pop\n        /* \"#utility.yul\":7765:8239   */\n      swap3\n      pop\n      swap3\n      swap1\n      pop\n      jump\t// out\n        /* \"#utility.yul\":8245:8455   */\n    tag_60:\n        /* \"#utility.yul\":8332:8336   */\n      0x00\n        /* \"#utility.yul\":8370:8372   */\n      0x20\n        /* \"#utility.yul\":8359:8368   */\n      dup3\n        /* \"#utility.yul\":8355:8373   */\n      add\n        /* \"#utility.yul\":8347:8373   */\n      swap1\n      pop\n        /* \"#utility.yul\":8383:8448   */\n      tag_287\n        /* \"#utility.yul\":8445:8446   */\n      0x00\n        /* \"#utility.yul\":8434:8443   */\n      dup4\n        /* \"#utility.yul\":8430:8447   */\n      add\n        /* \"#utility.yul\":8421:8427   */\n      dup5\n        /* \"#utility.yul\":8383:8448   */\n      tag_157\n      jump\t// in\n    tag_287:\n        /* \"#utility.yul\":8245:8455   */\n      swap3\n      swap2\n      pop\n      pop\n      jump\t// out\n        /* \"#utility.yul\":8461:8879   */\n    tag_66:\n        /* \"#utility.yul\":8598:8602   */\n      0x00\n        /* \"#utility.yul\":8636:8638   */\n      0x60\n        /* \"#utility.yul\":8625:8634   */\n      dup3\n        /* \"#utility.yul\":8621:8639   */\n      add\n        /* \"#utility.yul\":8613:8639   */\n      swap1\n      pop\n        /* \"#utility.yul\":8649:8714   */\n      tag_289\n        /* \"#utility.yul\":8711:8712   */\n      0x00\n        /* \"#utility.yul\":8700:8709   */\n      dup4\n        /* \"#utility.yul\":8696:8713   */\n      add\n        /* \"#utility.yul\":8687:8693   */\n      dup7\n        /* \"#utility.yul\":8649:8714   */\n      tag_157\n      jump\t// in\n    tag_289:\n        /* \"#utility.yul\":8724:8790   */\n      tag_290\n        /* \"#utility.yul\":8786:8788   */\n      0x20\n        /* \"#utility.yul\":8775:8784   */\n      dup4\n        /* \"#utility.yul\":8771:8789   */\n      add\n        /* \"#utility.yul\":8762:8768   */\n      dup6\n        /* \"#utility.yul\":8724:8790   */\n      tag_157\n      jump\t// in\n    tag_290:\n        /* \"#utility.yul\":8800:8872   */\n      tag_291\n        /* \"#utility.yul\":8868:8870   */\n      0x40\n        /* \"#utility.yul\":8857:8866   */\n      dup4\n        /* \"#utility.yul\":8853:8871   */\n      add\n        /* \"#utility.yul\":8844:8850   */\n      dup5\n        /* \"#utility.yul\":8800:8872   */\n      tag_146\n      jump\t// in\n    tag_291:\n        /* \"#utility.yul\":8461:8879   */\n      swap5\n      swap4\n      pop\n      pop\n      pop\n      pop\n      jump\t// out\n        /* \"#utility.yul\":8885:9065   */\n    tag_75:\n        /* \"#utility.yul\":8933:9010   */\n      0x4e487b7100000000000000000000000000000000000000000000000000000000\n        /* \"#utility.yul\":8930:8931   */\n      0x00\n        /* \"#utility.yul\":8923:9011   */\n      mstore\n        /* \"#utility.yul\":9030:9034   */\n      0x32\n        /* \"#utility.yul\":9027:9028   */\n      0x04\n        /* \"#utility.yul\":9020:9035   */\n      mstore\n        /* \"#utility.yul\":9054:9058   */\n      0x24\n        /* \"#utility.yul\":9051:9052   */\n      0x00\n        /* \"#utility.yul\":9044:9059   */\n      revert\n        /* \"#utility.yul\":9071:9251   */\n    tag_167:\n        /* \"#utility.yul\":9119:9196   */\n      0x4e487b7100000000000000000000000000000000000000000000000000000000\n        /* \"#utility.yul\":9116:9117   */\n      0x00\n        /* \"#utility.yul\":9109:9197   */\n      mstore\n        /* \"#utility.yul\":9216:9220   */\n      0x22\n        /* \"#utility.yul\":9213:9214   */\n      0x04\n        /* \"#utility.yul\":9206:9221   */\n      mstore\n        /* \"#utility.yul\":9240:9244   */\n      0x24\n        /* \"#utility.yul\":9237:9238   */\n      0x00\n        /* \"#utility.yul\":9230:9245   */\n      revert\n        /* \"#utility.yul\":9257:9577   */\n    tag_78:\n        /* \"#utility.yul\":9301:9307   */\n      0x00\n        /* \"#utility.yul\":9338:9339   */\n      0x02\n        /* \"#utility.yul\":9332:9336   */\n      dup3\n        /* \"#utility.yul\":9328:9340   */\n      div\n        /* \"#utility.yul\":9318:9340   */\n      swap1\n      pop\n        /* \"#utility.yul\":9385:9386   */\n      0x01\n        /* \"#utility.yul\":9379:9383   */\n      dup3\n        /* \"#utility.yul\":9375:9387   */\n      and\n        /* \"#utility.yul\":9406:9424   */\n      dup1\n        /* \"#utility.yul\":9396:9477   */\n      tag_295\n      jumpi\n        /* \"#utility.yul\":9462:9466   */\n      0x7f\n        /* \"#utility.yul\":9454:9460   */\n      dup3\n        /* \"#utility.yul\":9450:9467   */\n      and\n        /* \"#utility.yul\":9440:9467   */\n      swap2\n      pop\n        /* \"#utility.yul\":9396:9477   */\n    tag_295:\n        /* \"#utility.yul\":9524:9526   */\n      0x20\n        /* \"#utility.yul\":9516:9522   */\n      dup3\n        /* \"#utility.yul\":9513:9527   */\n      lt\n        /* \"#utility.yul\":9493:9511   */\n      dup2\n        /* \"#utility.yul\":9490:9528   */\n      sub\n        /* \"#utility.yul\":9487:9571   */\n      tag_296\n      jumpi\n        /* \"#utility.yul\":9543:9561   */\n      tag_297\n      tag_167\n      jump\t// in\n    tag_297:\n        /* \"#utility.yul\":9487:9571   */\n    tag_296:\n        /* \"#utility.yul\":9308:9577   */\n      pop\n        /* \"#utility.yul\":9257:9577   */\n      swap2\n      swap1\n      pop\n      jump\t// out\n        /* \"#utility.yul\":9583:9763   */\n    tag_168:\n        /* \"#utility.yul\":9631:9708   */\n      0x4e487b7100000000000000000000000000000000000000000000000000000000\n        /* \"#utility.yul\":9628:9629   */\n      0x00\n        /* \"#utility.yul\":9621:9709   */\n      mstore\n        /* \"#utility.yul\":9728:9732   */\n      0x11\n        /* \"#utility.yul\":9725:9726   */\n      0x04\n        /* \"#utility.yul\":9718:9733   */\n      mstore\n        /* \"#utility.yul\":9752:9756   */\n      0x24\n        /* \"#utility.yul\":9749:9750   */\n      0x00\n        /* \"#utility.yul\":9742:9757   */\n      revert\n        /* \"#utility.yul\":9769:9974   */\n    tag_105:\n        /* \"#utility.yul\":9808:9811   */\n      0x00\n        /* \"#utility.yul\":9827:9846   */\n      tag_300\n        /* \"#utility.yul\":9844:9845   */\n      dup3\n        /* \"#utility.yul\":9827:9846   */\n      tag_154\n      jump\t// in\n    tag_300:\n        /* \"#utility.yul\":9822:9846   */\n      swap2\n      pop\n        /* \"#utility.yul\":9860:9879   */\n      tag_301\n        /* \"#utility.yul\":9877:9878   */\n      dup4\n        /* \"#utility.yul\":9860:9879   */\n      tag_154\n      jump\t// in\n    tag_301:\n        /* \"#utility.yul\":9855:9879   */\n      swap3\n      pop\n        /* \"#utility.yul\":9902:9903   */\n      dup3\n        /* \"#utility.yul\":9899:9900   */\n      dup3\n        /* \"#utility.yul\":9895:9904   */\n      add\n        /* \"#utility.yul\":9888:9904   */\n      swap1\n      pop\n        /* \"#utility.yul\":9925:9943   */\n      0xffffffffffffffff\n        /* \"#utility.yul\":9920:9923   */\n      dup2\n        /* \"#utility.yul\":9917:9944   */\n      gt\n        /* \"#utility.yul\":9914:9967   */\n      iszero\n      tag_302\n      jumpi\n        /* \"#utility.yul\":9947:9965   */\n      tag_303\n      tag_168\n      jump\t// in\n    tag_303:\n        /* \"#utility.yul\":9914:9967   */\n    tag_302:\n        /* \"#utility.yul\":9769:9974   */\n      swap3\n      swap2\n      pop\n      pop\n      jump\t// out\n        /* \"#utility.yul\":9980:10127   */\n    tag_169:\n        /* \"#utility.yul\":10081:10092   */\n      0x00\n        /* \"#utility.yul\":10118:10121   */\n      dup2\n        /* \"#utility.yul\":10103:10121   */\n      swap1\n      pop\n        /* \"#utility.yul\":9980:10127   */\n      swap3\n      swap2\n      pop\n      pop\n      jump\t// out\n        /* \"#utility.yul\":10133:10247   */\n    tag_170:\n      pop\n      jump\t// out\n        /* \"#utility.yul\":10253:10651   */\n    tag_171:\n        /* \"#utility.yul\":10412:10415   */\n      0x00\n        /* \"#utility.yul\":10433:10516   */\n      tag_307\n        /* \"#utility.yul\":10514:10515   */\n      0x00\n        /* \"#utility.yul\":10509:10512   */\n      dup4\n        /* \"#utility.yul\":10433:10516   */\n      tag_169\n      jump\t// in\n    tag_307:\n        /* \"#utility.yul\":10426:10516   */\n      swap2\n      pop\n        /* \"#utility.yul\":10525:10618   */\n      tag_308\n        /* \"#utility.yul\":10614:10617   */\n      dup3\n        /* \"#utility.yul\":10525:10618   */\n      tag_170\n      jump\t// in\n    tag_308:\n        /* \"#utility.yul\":10643:10644   */\n      0x00\n        /* \"#utility.yul\":10638:10641   */\n      dup3\n        /* \"#utility.yul\":10634:10645   */\n      add\n        /* \"#utility.yul\":10627:10645   */\n      swap1\n      pop\n        /* \"#utility.yul\":10253:10651   */\n      swap2\n      swap1\n      pop\n      jump\t// out\n        /* \"#utility.yul\":10657:11036   */\n    tag_117:\n        /* \"#utility.yul\":10841:10844   */\n      0x00\n        /* \"#utility.yul\":10863:11010   */\n      tag_310\n        /* \"#utility.yul\":11006:11009   */\n      dup3\n        /* \"#utility.yul\":10863:11010   */\n      tag_171\n      jump\t// in\n    tag_310:\n        /* \"#utility.yul\":10856:11010   */\n      swap2\n      pop\n        /* \"#utility.yul\":11027:11030   */\n      dup2\n        /* \"#utility.yul\":11020:11030   */\n      swap1\n      pop\n        /* \"#utility.yul\":10657:11036   */\n      swap2\n      swap1\n      pop\n      jump\t// out\n        /* \"#utility.yul\":11042:11205   */\n    tag_172:\n        /* \"#utility.yul\":11182:11197   */\n      0x726566756e64206661696c656400000000000000000000000000000000000000\n        /* \"#utility.yul\":11178:11179   */\n      0x00\n        /* \"#utility.yul\":11170:11176   */\n      dup3\n        /* \"#utility.yul\":11166:11180   */\n      add\n        /* \"#utility.yul\":11159:11198   */\n      mstore\n        /* \"#utility.yul\":11042:11205   */\n      pop\n      jump\t// out\n        /* \"#utility.yul\":11211:11577   */\n    tag_173:\n        /* \"#utility.yul\":11353:11356   */\n      0x00\n        /* \"#utility.yul\":11374:11441   */\n      tag_313\n        /* \"#utility.yul\":11438:11440   */\n      0x0d\n        /* \"#utility.yul\":11433:11436   */\n      dup4\n        /* \"#utility.yul\":11374:11441   */\n      tag_148\n      jump\t// in\n    tag_313:\n        /* \"#utility.yul\":11367:11441   */\n      swap2\n      pop\n        /* \"#utility.yul\":11450:11543   */\n      tag_314\n        /* \"#utility.yul\":11539:11542   */\n      dup3\n        /* \"#utility.yul\":11450:11543   */\n      tag_172\n      jump\t// in\n    tag_314:\n        /* \"#utility.yul\":11568:11570   */\n      0x20\n        /* \"#utility.yul\":11563:11566   */\n      dup3\n        /* \"#utility.yul\":11559:11571   */\n      add\n        /* \"#utility.yul\":11552:11571   */\n      swap1\n      pop\n        /* \"#utility.yul\":11211:11577   */\n      swap2\n      swap1\n      pop\n      jump\t// out\n        /* \"#utility.yul\":11583:12002   */\n    tag_123:\n        /* \"#utility.yul\":11749:11753   */\n      0x00\n        /* \"#utility.yul\":11787:11789   */\n      0x20\n        /* \"#utility.yul\":11776:11785   */\n      dup3\n        /* \"#utility.yul\":11772:11790   */\n      add\n        /* \"#utility.yul\":11764:11790   */\n      swap1\n      pop\n        /* \"#utility.yul\":11836:11845   */\n      dup2\n        /* \"#utility.yul\":11830:11834   */\n      dup2\n        /* \"#utility.yul\":11826:11846   */\n      sub\n        /* \"#utility.yul\":11822:11823   */\n      0x00\n        /* \"#utility.yul\":11811:11820   */\n      dup4\n        /* \"#utility.yul\":11807:11824   */\n      add\n        /* \"#utility.yul\":11800:11847   */\n      mstore\n        /* \"#utility.yul\":11864:11995   */\n      tag_316\n        /* \"#utility.yul\":11990:11994   */\n      dup2\n        /* \"#utility.yul\":11864:11995   */\n      tag_173\n      jump\t// in\n    tag_316:\n        /* \"#utility.yul\":11856:11995   */\n      swap1\n      pop\n        /* \"#utility.yul\":11583:12002   */\n      swap2\n      swap1\n      pop\n      jump\t// out\n        /* \"#utility.yul\":12008:12230   */\n    tag_125:\n        /* \"#utility.yul\":12101:12105   */\n      0x00\n        /* \"#utility.yul\":12139:12141   */\n      0x20\n        /* \"#utility.yul\":12128:12137   */\n      dup3\n        /* \"#utility.yul\":12124:12142   */\n      add\n        /* \"#utility.yul\":12116:12142   */\n      swap1\n      pop\n        /* \"#utility.yul\":12152:12223   */\n      tag_318\n        /* \"#utility.yul\":12220:12221   */\n      0x00\n        /* \"#utility.yul\":12209:12218   */\n      dup4\n        /* \"#utility.yul\":12205:12222   */\n      add\n        /* \"#utility.yul\":12196:12202   */\n      dup5\n        /* \"#utility.yul\":12152:12223   */\n      tag_153\n      jump\t// in\n    tag_318:\n        /* \"#utility.yul\":12008:12230   */\n      swap3\n      swap2\n      pop\n      pop\n      jump\t// out\n        /* \"#utility.yul\":12236:12333   */\n    tag_174:\n        /* \"#utility.yul\":12295:12301   */\n      0x00\n        /* \"#utility.yul\":12323:12326   */\n      dup3\n        /* \"#utility.yul\":12313:12326   */\n      swap1\n      pop\n        /* \"#utility.yul\":12236:12333   */\n      swap3\n      swap2\n      pop\n      pop\n      jump\t// out\n        /* \"#utility.yul\":12339:12519   */\n    tag_175:\n        /* \"#utility.yul\":12387:12464   */\n      0x4e487b7100000000000000000000000000000000000000000000000000000000\n        /* \"#utility.yul\":12384:12385   */\n      0x00\n        /* \"#utility.yul\":12377:12465   */\n      mstore\n        /* \"#utility.yul\":12484:12488   */\n      0x41\n        /* \"#utility.yul\":12481:12482   */\n      0x04\n        /* \"#utility.yul\":12474:12489   */\n      mstore\n        /* \"#utility.yul\":12508:12512   */\n      0x24\n        /* \"#utility.yul\":12505:12506   */\n      0x00\n        /* \"#utility.yul\":12498:12513   */\n      revert\n        /* \"#utility.yul\":12525:12666   */\n    tag_176:\n        /* \"#utility.yul\":12574:12578   */\n      0x00\n        /* \"#utility.yul\":12597:12600   */\n      dup2\n        /* \"#utility.yul\":12589:12600   */\n      swap1\n      pop\n        /* \"#utility.yul\":12620:12623   */\n      dup2\n        /* \"#utility.yul\":12617:12618   */\n      0x00\n        /* \"#utility.yul\":12610:12624   */\n      mstore\n        /* \"#utility.yul\":12654:12658   */\n      0x20\n        /* \"#utility.yul\":12651:12652   */\n      0x00\n        /* \"#utility.yul\":12641:12659   */\n      keccak256\n        /* \"#utility.yul\":12633:12659   */\n      swap1\n      pop\n        /* \"#utility.yul\":12525:12666   */\n      swap2\n      swap1\n      pop\n      jump\t// out\n        /* \"#utility.yul\":12672:12765   */\n    tag_177:\n        /* \"#utility.yul\":12709:12715   */\n      0x00\n        /* \"#utility.yul\":12756:12758   */\n      0x20\n        /* \"#utility.yul\":12751:12753   */\n      0x1f\n        /* \"#utility.yul\":12744:12749   */\n      dup4\n        /* \"#utility.yul\":12740:12754   */\n      add\n        /* \"#utility.yul\":12736:12759   */\n      div\n        /* \"#utility.yul\":12726:12759   */\n      swap1\n      pop\n        /* \"#utility.yul\":12672:12765   */\n      swap2\n      swap1\n      pop\n      jump\t// out\n        /* \"#utility.yul\":12771:12878   */\n    tag_178:\n        /* \"#utility.yul\":12815:12823   */\n      0x00\n        /* \"#utility.yul\":12865:12870   */\n      dup3\n        /* \"#utility.yul\":12859:12863   */\n      dup3\n        /* \"#utility.yul\":12855:12871   */\n      shl\n        /* \"#utility.yul\":12834:12871   */\n      swap1\n      pop\n        /* \"#utility.yul\":12771:12878   */\n      swap3\n      swap2\n      pop\n      pop\n      jump\t// out\n        /* \"#utility.yul\":12884:13277   */\n    tag_179:\n        /* \"#utility.yul\":12953:12959   */\n      0x00\n        /* \"#utility.yul\":13003:13004   */\n      0x08\n        /* \"#utility.yul\":12991:13001   */\n      dup4\n        /* \"#utility.yul\":12987:13005   */\n      mul\n        /* \"#utility.yul\":13026:13123   */\n      tag_325\n        /* \"#utility.yul\":13056:13122   */\n      0xffffffffffffffffffffffffffffffffffffffffffffffffffffffffffffffff\n        /* \"#utility.yul\":13045:13054   */\n      dup3\n        /* \"#utility.yul\":13026:13123   */\n      tag_178\n      jump\t// in\n    tag_325:\n        /* \"#utility.yul\":13144:13183   */\n      tag_326\n        /* \"#utility.yul\":13174:13182   */\n      dup7\n        /* \"#utility.yul\":13163:13172   */\n      dup4\n        /* \"#utility.yul\":13144:13183   */\n      tag_178\n      jump\t// in\n    tag_326:\n        /* \"#utility.yul\":13132:13183   */\n      swap6\n      pop\n        /* \"#utility.yul\":13216:13220   */\n      dup1\n        /* \"#utility.yul\":13212:13221   */\n      not\n        /* \"#utility.yul\":13205:13210   */\n      dup5\n        /* \"#utility.yul\":13201:13222   */\n      and\n        /* \"#utility.yul\":13192:13222   */\n      swap4\n      pop\n        /* \"#utility.yul\":13265:13269   */\n      dup1\n        /* \"#utility.yul\":13255:13263   */\n      dup7\n        /* \"#utility.yul\":13251:13270   */\n      and\n        /* \"#utility.yul\":13244:13249   */\n      dup5\n        /* \"#utility.yul\":13241:13271   */\n      or\n        /* \"#utility.yul\":13231:13271   */\n      swap3\n      pop\n        /* \"#utility.yul\":12960:13277   */\n      pop\n      pop\n        /* \"#utility.yul\":12884:13277   */\n      swap4\n      swap3\n      pop\n      pop\n      pop\n      jump\t// out\n        /* \"#utility.yul\":13283:13343   */\n    tag_180:\n        /* \"#utility.yul\":13311:13314   */\n      0x00\n        /* \"#utility.yul\":13332:13337   */\n      dup2\n        /* \"#utility.yul\":13325:13337   */\n      swap1\n      pop\n        /* \"#utility.yul\":13283:13343   */\n      swap2\n      swap1\n      pop\n      jump\t// out\n        /* \"#utility.yul\":13349:13491   */\n    tag_181:\n        /* \"#utility.yul\":13399:13408   */\n      0x00\n        /* \"#utility.yul\":13432:13485   */\n      tag_329\n        /* \"#utility.yul\":13450:13484   */\n      tag_330\n        /* \"#utility.yul\":13459:13483   */\n      tag_331\n        /* \"#utility.yul\":13477:13482   */\n      dup5\n        /* \"#utility.yul\":13459:13483   */\n      tag_141\n      jump\t// in\n    tag_331:\n        /* \"#utility.yul\":13450:13484   */\n      tag_180\n      jump\t// in\n    tag_330:\n        /* \"#utility.yul\":13432:13485   */\n      tag_141\n      jump\t// in\n    tag_329:\n        /* \"#utility.yul\":13419:13485   */\n      swap1\n      pop\n        /* \"#utility.yul\":13349:13491   */\n      swap2\n      swap1\n      pop\n      jump\t// out\n        /* \"#utility.yul\":13497:13572   */\n    tag_182:\n        /* \"#utility.yul\":13540:13543   */\n      0x00\n        /* \"#utility.yul\":13561:13566   */\n      dup2\n        /* \"#utility.yul\":13554:13566   */\n      swap1\n      pop\n        /* \"#utility.yul\":13497:13572   */\n      swap2\n      swap1\n      pop\n      jump\t// out\n        /* \"#utility.yul\":13578:13847   */\n    tag_183:\n        /* \"#utility.yul\":13688:13727   */\n      tag_334\n        /* \"#utility.yul\":13719:13726   */\n      dup4\n        /* \"#utility.yul\":13688:13727   */\n      tag_181\n      jump\t// in\n    tag_334:\n        /* \"#utility.yul\":13749:13840   */\n      tag_335\n        /* \"#utility.yul\":13798:13839   */\n      tag_336\n        /* \"#utility.yul\":13822:13838   */\n      dup3\n        /* \"#utility.yul\":13798:13839   */\n      tag_182\n      jump\t// in\n    tag_336:\n        /* \"#utility.yul\":13790:13796   */\n      dup5\n        /* \"#utility.yul\":13783:13787   */\n      dup5\n        /* \"#utility.yul\":13777:13788   */\n      sload\n        /* \"#utility.yul\":13749:13840   */\n      tag_179\n      jump\t// in\n    tag_335:\n        /* \"#utility.yul\":13743:13747   */\n      dup3\n        /* \"#utility.yul\":13736:13841   */\n      sstore\n        /* \"#utility.yul\":13654:13847   */\n      pop\n        /* \"#utility.yul\":13578:13847   */\n      pop\n      pop\n      pop\n      jump\t// out\n        /* \"#utility.yul\":13853:13926   */\n    tag_184:\n        /* \"#utility.yul\":13898:13901   */\n      0x00\n        /* \"#utility.yul\":13919:13920   */\n      0x00\n        /* \"#utility.yul\":13912:13920   */\n      swap1\n      pop\n        /* \"#utility.yul\":13853:13926   */\n      swap1\n      jump\t// out\n        /* \"#utility.yul\":13932:14121   */\n    tag_185:\n        /* \"#utility.yul\":14009:14041   */\n      tag_339\n      tag_184\n      jump\t// in\n    tag_339:\n        /* \"#utility.yul\":14050:14115   */\n      tag_340\n        /* \"#utility.yul\":14108:14114   */\n      dup2\n        /* \"#utility.yul\":14100:14106   */\n      dup5\n        /* \"#utility.yul\":14094:14098   */\n      dup5\n        /* \"#utility.yul\":14050:14115   */\n      tag_183\n      jump\t// in\n    tag_340:\n        /* \"#utility.yul\":13985:14121   */\n      pop\n        /* \"#utility.yul\":13932:14121   */\n      pop\n      pop\n      jump\t// out\n        /* \"#utility.yul\":14127:14313   */\n    tag_186:\n        /* \"#utility.yul\":14187:14307   */\n    tag_342:\n        /* \"#utility.yul\":14204:14207   */\n      dup2\n        /* \"#utility.yul\":14197:14202   */\n      dup2\n        /* \"#utility.yul\":14194:14208   */\n      lt\n        /* \"#utility.yul\":14187:14307   */\n      iszero\n      tag_344\n      jumpi\n        /* \"#utility.yul\":14258:14297   */\n      tag_345\n        /* \"#utility.yul\":14295:14296   */\n      0x00\n        /* \"#utility.yul\":14288:14293   */\n      dup3\n        /* \"#utility.yul\":14258:14297   */\n      tag_185\n      jump\t// in\n    tag_345:\n        /* \"#utility.yul\":14231:14232   */\n      0x01\n        /* \"#utility.yul\":14224:14229   */\n      dup2\n        /* \"#utility.yul\":14220:14233   */\n      add\n        /* \"#utility.yul\":14211:14233   */\n      swap1\n      pop\n        /* \"#utility.yul\":14187:14307   */\n      jump(tag_342)\n    tag_344:\n        /* \"#utility.yul\":14127:14313   */\n      pop\n      pop\n      jump\t// out\n        /* \"#utility.yul\":14319:14862   */\n    tag_187:\n        /* \"#utility.yul\":14420:14422   */\n      0x1f\n        /* \"#utility.yul\":14415:14418   */\n      dup3\n        /* \"#utility.yul\":14412:14423   */\n      gt\n        /* \"#utility.yul\":14409:14855   */\n      iszero\n      tag_347\n      jumpi\n        /* \"#utility.yul\":14454:14492   */\n      tag_348\n        /* \"#utility.yul\":14486:14491   */\n      dup2\n        /* \"#utility.yul\":14454:14492   */\n      tag_176\n      jump\t// in\n    tag_348:\n        /* \"#utility.yul\":14538:14567   */\n      tag_349\n        /* \"#utility.yul\":14556:14566   */\n      dup5\n        /* \"#utility.yul\":14538:14567   */\n      tag_177\n      jump\t// in\n    tag_349:\n        /* \"#utility.yul\":14528:14536   */\n      dup2\n        /* \"#utility.yul\":14524:14568   */\n      add\n        /* \"#utility.yul\":14721:14723   */\n      0x20\n        /* \"#utility.yul\":14709:14719   */\n      dup6\n        /* \"#utility.yul\":14706:14724   */\n      lt\n        /* \"#utility.yul\":14703:14752   */\n      iszero\n      tag_350\n      jumpi\n        /* \"#utility.yul\":14742:14750   */\n      dup2\n        /* \"#utility.yul\":14727:14750   */\n      swap1\n      pop\n        /* \"#utility.yul\":14703:14752   */\n    tag_350:\n        /* \"#utility.yul\":14765:14845   */\n      tag_351\n        /* \"#utility.yul\":14821:14843   */\n      tag_352\n        /* \"#utility.yul\":14839:14842   */\n      dup6\n        /* \"#utility.yul\":14821:14843   */\n      tag_177\n      jump\t// in\n    tag_352:\n        /* \"#utility.yul\":14811:14819   */\n      dup4\n        /* \"#utility.yul\":14807:14844   */\n      add\n        /* \"#utility.yul\":14794:14805   */\n      dup3\n        /* \"#utility.yul\":14765:14845   */\n      tag_186\n      jump\t// in\n    tag_351:\n        /* \"#utility.yul\":14424:14855   */\n      pop\n      pop\n        /* \"#utility.yul\":14409:14855   */\n    tag_347:\n        /* \"#utility.yul\":14319:14862   */\n      pop\n      pop\n      pop\n      jump\t// out\n        /* \"#utility.yul\":14868:14985   */\n    tag_188:\n        /* \"#utility.yul\":14922:14930   */\n      0x00\n        /* \"#utility.yul\":14972:14977   */\n      dup3\n        /* \"#utility.yul\":14966:14970   */\n      dup3\n        /* \"#utility.yul\":14962:14978   */\n      shr\n        /* \"#utility.yul\":14941:14978   */\n      swap1\n      pop\n        /* \"#utility.yul\":14868:14985   */\n      swap3\n      swap2\n      pop\n      pop\n      jump\t// out\n        /* \"#utility.yul\":14991:15160   */\n    tag_189:\n        /* \"#utility.yul\":15035:15041   */\n      0x00\n        /* \"#utility.yul\":15068:15119   */\n      tag_355\n        /* \"#utility.yul\":15116:15117   */\n      0x00\n        /* \"#utility.yul\":15112:15118   */\n      not\n        /* \"#utility.yul\":15104:15109   */\n      dup5\n        /* \"#utility.yul\":15101:15102   */\n      0x08\n        /* \"#utility.yul\":15097:15110   */\n      mul\n        /* \"#utility.yul\":15068:15119   */\n      tag_188\n      jump\t// in\n    tag_355:\n        /* \"#utility.yul\":15064:15120   */\n      not\n        /* \"#utility.yul\":15149:15153   */\n      dup1\n        /* \"#utility.yul\":15143:15147   */\n      dup4\n        /* \"#utility.yul\":15139:15154   */\n      and\n        /* \"#utility.yul\":15129:15154   */\n      swap2\n      pop\n        /* \"#utility.yul\":15042:15160   */\n      pop\n        /* \"#utility.yul\":14991:15160   */\n      swap3\n      swap2\n      pop\n      pop\n      jump\t// out\n        /* \"#utility.yul\":15165:15460   */\n    tag_190:\n        /* \"#utility.yul\":15241:15245   */\n      0x00\n        /* \"#utility.yul\":15387:15416   */\n      tag_357\n        /* \"#utility.yul\":15412:15415   */\n      dup4\n        /* \"#utility.yul\":15406:15410   */\n      dup4\n        /* \"#utility.yul\":15387:15416   */\n      tag_189\n      jump\t// in\n    tag_357:\n        /* \"#utility.yul\":15379:15416   */\n      swap2\n      pop\n        /* \"#utility.yul\":15449:15452   */\n      dup3\n        /* \"#utility.yul\":15446:15447   */\n      0x02\n        /* \"#utility.yul\":15442:15453   */\n      mul\n        /* \"#utility.yul\":15436:15440   */\n      dup3\n        /* \"#utility.yul\":15433:15454   */\n      or\n        /* \"#utility.yul\":15425:15454   */\n      swap1\n      pop\n        /* \"#utility.yul\":15165:15460   */\n      swap3\n      swap2\n      pop\n      pop\n      jump\t// out\n        /* \"#utility.yul\":15465:16868   */\n    tag_132:\n        /* \"#utility.yul\":15589:15633   */\n      tag_359\n        /* \"#utility.yul\":15629:15632   */\n      dup4\n        /* \"#utility.yul\":15624:15627   */\n      dup4\n        /* \"#utility.yul\":15589:15633   */\n      tag_174\n      jump\t// in\n    tag_359:\n        /* \"#utility.yul\":15698:15716   */\n      0xffffffffffffffff\n        /* \"#utility.yul\":15690:15696   */\n      dup2\n        /* \"#utility.yul\":15687:15717   */\n      gt\n        /* \"#utility.yul\":15684:15740   */\n      iszero\n      tag_360\n      jumpi\n        /* \"#utility.yul\":15720:15738   */\n      tag_361\n      tag_175\n      jump\t// in\n    tag_361:\n        /* \"#utility.yul\":15684:15740   */\n    tag_360:\n        /* \"#utility.yul\":15764:15802   */\n      tag_362\n        /* \"#utility.yul\":15796:15800   */\n      dup3\n        /* \"#utility.yul\":15790:15801   */\n      sload\n        /* \"#utility.yul\":15764:15802   */\n      tag_78\n      jump\t// in\n    tag_362:\n        /* \"#utility.yul\":15849:15916   */\n      tag_363\n        /* \"#utility.yul\":15909:15915   */\n      dup3\n        /* \"#utility.yul\":15901:15907   */\n      dup3\n        /* \"#utility.yul\":15895:15899   */\n      dup6\n        /* \"#utility.yul\":15849:15916   */\n      tag_187\n      jump\t// in\n    tag_363:\n        /* \"#utility.yul\":15943:15944   */\n      0x00\n        /* \"#utility.yul\":15972:15974   */\n      0x1f\n        /* \"#utility.yul\":15964:15970   */\n      dup4\n        /* \"#utility.yul\":15961:15975   */\n      gt\n        /* \"#utility.yul\":15989:15990   */\n      0x01\n        /* \"#utility.yul\":15984:16616   */\n      dup2\n      eq\n      tag_365\n      jumpi\n        /* \"#utility.yul\":16660:16661   */\n      0x00\n        /* \"#utility.yul\":16677:16683   */\n      dup5\n        /* \"#utility.yul\":16674:16758   */\n      iszero\n      tag_366\n      jumpi\n        /* \"#utility.yul\":16733:16742   */\n      dup3\n        /* \"#utility.yul\":16728:16731   */\n      dup8\n        /* \"#utility.yul\":16724:16743   */\n      add\n        /* \"#utility.yul\":16711:16744   */\n      calldataload\n        /* \"#utility.yul\":16702:16744   */\n      swap1\n      pop\n        /* \"#utility.yul\":16674:16758   */\n    tag_366:\n        /* \"#utility.yul\":16784:16851   */\n      tag_367\n        /* \"#utility.yul\":16844:16850   */\n      dup6\n        /* \"#utility.yul\":16837:16842   */\n      dup3\n        /* \"#utility.yul\":16784:16851   */\n      tag_190\n      jump\t// in\n    tag_367:\n        /* \"#utility.yul\":16778:16782   */\n      dup7\n        /* \"#utility.yul\":16771:16852   */\n      sstore\n        /* \"#utility.yul\":16633:16862   */\n      pop\n        /* \"#utility.yul\":15954:16862   */\n      jump(tag_364)\n        /* \"#utility.yul\":15984:16616   */\n    tag_365:\n        /* \"#utility.yul\":16036:16040   */\n      0x1f\n        /* \"#utility.yul\":16032:16041   */\n      not\n        /* \"#utility.yul\":16024:16030   */\n      dup5\n        /* \"#utility.yul\":16020:16042   */\n      and\n        /* \"#utility.yul\":16070:16107   */\n      tag_368\n        /* \"#utility.yul\":16102:16106   */\n      dup7\n        /* \"#utility.yul\":16070:16107   */\n      tag_176\n      jump\t// in\n    tag_368:\n        /* \"#utility.yul\":16129:16130   */\n      0x00\n        /* \"#utility.yul\":16143:16358   */\n    tag_369:\n        /* \"#utility.yul\":16157:16164   */\n      dup3\n        /* \"#utility.yul\":16154:16155   */\n      dup2\n        /* \"#utility.yul\":16151:16165   */\n      lt\n        /* \"#utility.yul\":16143:16358   */\n      iszero\n      tag_371\n      jumpi\n        /* \"#utility.yul\":16243:16252   */\n      dup5\n        /* \"#utility.yul\":16238:16241   */\n      dup10\n        /* \"#utility.yul\":16234:16253   */\n      add\n        /* \"#utility.yul\":16221:16254   */\n      calldataload\n        /* \"#utility.yul\":16213:16219   */\n      dup3\n        /* \"#utility.yul\":16206:16255   */\n      sstore\n        /* \"#utility.yul\":16294:16295   */\n      0x01\n        /* \"#utility.yul\":16286:16292   */\n      dup3\n        /* \"#utility.yul\":16282:16296   */\n      add\n        /* \"#utility.yul\":16272:16296   */\n      swap2\n      pop\n        /* \"#utility.yul\":16341:16343   */\n      0x20\n        /* \"#utility.yul\":16330:16339   */\n      dup6\n        /* \"#utility.yul\":16326:16344   */\n      add\n        /* \"#utility.yul\":16313:16344   */\n      swap5\n      pop\n        /* \"#utility.yul\":16180:16184   */\n      0x20\n        /* \"#utility.yul\":16177:16178   */\n      dup2\n        /* \"#utility.yul\":16173:16185   */\n      add\n        /* \"#utility.yul\":16168:16185   */\n      swap1\n      pop\n        /* \"#utility.yul\":16143:16358   */\n      jump(tag_369)\n    tag_371:\n        /* \"#utility.yul\":16386:16392   */\n      dup7\n        /* \"#utility.yul\":16377:16384   */\n      dup4\n        /* \"#utility.yul\":16374:16393   */\n      lt\n        /* \"#utility.yul\":16371:16557   */\n      iszero\n      tag_372\n      jumpi\n        /* \"#utility.yul\":16451:16460   */\n      dup5\n        /* \"#utility.yul\":16446:16449   */\n      dup10\n        /* \"#utility.yul\":16442:16461   */\n      add\n        /* \"#utility.yul\":16429:16462   */\n      calldataload\n        /* \"#utility.yul\":16494:16542   */\n      tag_373\n        /* \"#utility.yul\":16536:16540   */\n      0x1f\n        /* \"#utility.yul\":16528:16534   */\n      dup10\n        /* \"#utility.yul\":16524:16541   */\n      and\n        /* \"#utility.yul\":16513:16522   */\n      dup3\n        /* \"#utility.yul\":16494:16542   */\n      tag_189\n      jump\t// in\n    tag_373:\n        /* \"#utility.yul\":16486:16492   */\n      dup4\n        /* \"#utility.yul\":16479:16543   */\n      sstore\n        /* \"#utility.yul\":16394:16557   */\n      pop\n        /* \"#utility.yul\":16371:16557   */\n    tag_372:\n        /* \"#utility.yul\":16603:16604   */\n      0x01\n        /* \"#utility.yul\":16599:16600   */\n      0x02\n        /* \"#utility.yul\":16591:16597   */\n      dup9\n        /* \"#utility.yul\":16587:16601   */\n      mul\n        /* \"#utility.yul\":16583:16605   */\n      add\n        /* \"#utility.yul\":16577:16581   */\n      dup9\n        /* \"#utility.yul\":16570:16606   */\n      sstore\n        /* \"#utility.yul\":15991:16616   */\n      pop\n      pop\n      pop\n        /* \"#utility.yul\":15954:16862   */\n    tag_364:\n      pop\n        /* \"#utility.yul\":15564:16868   */\n      pop\n      pop\n      pop\n        /* \"#utility.yul\":15465:16868   */\n      pop\n      pop\n      pop\n      jump\t// out\n        /* \"#utility.yul\":16874:17022   */\n    tag_191:\n        /* \"#utility.yul\":16972:16978   */\n      dup3\n        /* \"#utility.yul\":16967:16970   */\n      dup2\n        /* \"#utility.yul\":16962:16965   */\n      dup4\n        /* \"#utility.yul\":16949:16979   */\n      calldatacopy\n        /* \"#utility.yul\":17013:17014   */\n      0x00\n        /* \"#utility.yul\":17004:17010   */\n      dup4\n        /* \"#utility.yul\":16999:17002   */\n      dup4\n        /* \"#utility.yul\":16995:17011   */\n      add\n        /* \"#utility.yul\":16988:17015   */\n      mstore\n        /* \"#utility.yul\":16874:17022   */\n      pop\n      pop\n      pop\n      jump\t// out\n        /* \"#utility.yul\":17052:17369   */\n    tag_192:\n        /* \"#utility.yul\":17150:17153   */\n      0x00\n        /* \"#utility.yul\":17171:17242   */\n      tag_376\n        /* \"#utility.yul\":17235:17241   */\n      dup4\n        /* \"#utility.yul\":17230:17233   */\n      dup6\n        /* \"#utility.yul\":17171:17242   */\n      tag_148\n      jump\t// in\n    tag_376:\n        /* \"#utility.yul\":17164:17242   */\n      swap4\n      pop\n        /* \"#utility.yul\":17252:17308   */\n      tag_377\n        /* \"#utility.yul\":17301:17307   */\n      dup4\n        /* \"#utility.yul\":17296:17299   */\n      dup6\n        /* \"#utility.yul\":17289:17294   */\n      dup5\n        /* \"#utility.yul\":17252:17308   */\n      tag_191\n      jump\t// in\n    tag_377:\n        /* \"#utility.yul\":17333:17362   */\n      tag_378\n        /* \"#utility.yul\":17355:17361   */\n      dup4\n        /* \"#utility.yul\":17333:17362   */\n      tag_150\n      jump\t// in\n    tag_378:\n        /* \"#utility.yul\":17328:17331   */\n      dup5\n        /* \"#utility.yul\":17324:17363   */\n      add\n        /* \"#utility.yul\":17317:17363   */\n      swap1\n      pop\n        /* \"#utility.yul\":17052:17369   */\n      swap4\n      swap3\n      pop\n      pop\n      pop\n      jump\t// out\n        /* \"#utility.yul\":17375:17818   */\n    tag_135:\n        /* \"#utility.yul\":17526:17530   */\n      0x00\n        /* \"#utility.yul\":17564:17566   */\n      0x40\n        /* \"#utility.yul\":17553:17562   */\n      dup3\n        /* \"#utility.yul\":17549:17567   */\n      add\n        /* \"#utility.yul\":17541:17567   */\n      swap1\n      pop\n        /* \"#utility.yul\":17613:17622   */\n      dup2\n        /* \"#utility.yul\":17607:17611   */\n      dup2\n        /* \"#utility.yul\":17603:17623   */\n      sub\n        /* \"#utility.yul\":17599:17600   */\n      0x00\n        /* \"#utility.yul\":17588:17597   */\n      dup4\n        /* \"#utility.yul\":17584:17601   */\n      add\n        /* \"#utility.yul\":17577:17624   */\n      mstore\n        /* \"#utility.yul\":17641:17729   */\n      tag_380\n        /* \"#utility.yul\":17724:17728   */\n      dup2\n        /* \"#utility.yul\":17715:17721   */\n      dup6\n        /* \"#utility.yul\":17707:17713   */\n      dup8\n        /* \"#utility.yul\":17641:17729   */\n      tag_192\n      jump\t// in\n    tag_380:\n        /* \"#utility.yul\":17633:17729   */\n      swap1\n      pop\n        /* \"#utility.yul\":17739:17811   */\n      tag_381\n        /* \"#utility.yul\":17807:17809   */\n      0x20\n        /* \"#utility.yul\":17796:17805   */\n      dup4\n        /* \"#utility.yul\":17792:17810   */\n      add\n        /* \"#utility.yul\":17783:17789   */\n      dup5\n        /* \"#utility.yul\":17739:17811   */\n      tag_153\n      jump\t// in\n    tag_381:\n        /* \"#utility.yul\":17375:17818   */\n      swap5\n      swap4\n      pop\n      pop\n      pop\n      pop\n      jump\t// out\n\n    auxdata: 0xa26469706673582212200fa92cd3d4817832e7cb6107fb22deee1ad3f922777aa4bc91aebf82990ba93564736f6c634300081e0033\n}\n",
				"bytecode": {
					"linkReferences": {},
					"object": "60a0604052348015600e575f5ffd5b503373ffffffffffffffffffffffffffffffffffffffff1660808173ffffffffffffffffffffffffffffffffffffffff168152505060805161196c6100625f395f81816104ba01526107a8015261196c5ff3fe60806040526004361061009b575f3560e01c806335f75e161161006357806335f75e1614610186578063379607f5146101b057806341a51d13146101d8578063709df8d914610208578063a83a475c14610244578063be7af16b146102825761009b565b80630c90ce421461009f5780631a179692146100e2578063224f3d1a1461010c5780632672f526146101345780632fb1b25f1461015e575b5f5ffd5b3480156100aa575f5ffd5b506100c560048036038101906100c09190611053565b6102be565b6040516100d9989796959493929190611193565b60405180910390f35b3480156100ed575f5ffd5b506100f66104b3565b604051610103919061121d565b60405180910390f35b348015610117575f5ffd5b50610132600480360381019061012d9190611260565b6104b8565b005b34801561013f575f5ffd5b506101486107a6565b604051610155919061129e565b60405180910390f35b348015610169575f5ffd5b50610184600480360381019061017f9190611053565b6107ca565b005b348015610191575f5ffd5b5061019a610a68565b6040516101a791906112c6565b60405180910390f35b3480156101bb575f5ffd5b506101d660048036038101906101d19190611053565b610a73565b005b6101f260048036038101906101ed9190611340565b610d88565b6040516101ff91906112c6565b60405180910390f35b348015610213575f5ffd5b5061022e600480360381019061022991906113e8565b610f22565b60405161023b9190611426565b60405180910390f35b34801561024f575f5ffd5b5061026a60048036038101906102659190611053565b610f4c565b6040516102799392919061143f565b60405180910390f35b34801561028d575f5ffd5b506102a860048036038101906102a391906113e8565b610fb6565b6040516102b59190611426565b60405180910390f35b5f6060805f5f5f5f5f5f5f8a815481106102db576102da611474565b5b905f5260205f2090600402019050805f015f9054906101000a900473ffffffffffffffffffffffffffffffffffffffff168160010182600201836003015f9054906101000a90046fffffffffffffffffffffffffffffffff168460030160109054906101000a900467ffffffffffffffff168560030160189054906101000a900460ff168660030160199054906101000a900460ff1687600301601a9054906101000a900460ff1686805461038f906114ce565b80601f01602080910402602001604051908101604052809291908181526020018280546103bb906114ce565b80156104065780601f106103dd57610100808354040283529160200191610406565b820191905f5260205f20905b8154815290600101906020018083116103e957829003601f168201915b50505050509650858054610419906114ce565b80601f0160208091040260200160405190810160405280929190818152602001828054610445906114ce565b80156104905780601f1061046757610100808354040283529160200191610490565b820191905f5260205f20905b81548152906001019060200180831161047357829003601f168201915b505050505095509850985098509850985098509850985050919395975091939597565b600581565b7f000000000000000000000000000000000000000000000000000000000000000073ffffffffffffffffffffffffffffffffffffffff163373ffffffffffffffffffffffffffffffffffffffff161461053d576040517f1ccc6f2700000000000000000000000000000000000000000000000000000000815260040160405180910390fd5b5f5f838154811061055157610550611474565b5b905f5260205f20906004020190505f73ffffffffffffffffffffffffffffffffffffffff16815f015f9054906101000a900473ffffffffffffffffffffffffffffffffffffffff1673ffffffffffffffffffffffffffffffffffffffff16036105e6576040517fda5d547300000000000000000000000000000000000000000000000000000000815260040160405180910390fd5b600567ffffffffffffffff168160030160109054906101000a900467ffffffffffffffff1667ffffffffffffffff16101561064d576040517fd79fa57000000000000000000000000000000000000000000000000000000000815260040160405180910390fd5b604051806060016040528060011515815260200183151581526020013373ffffffffffffffffffffffffffffffffffffffff1681525060025f8581526020019081526020015f205f820151815f015f6101000a81548160ff0219169083151502179055506020820151815f0160016101000a81548160ff0219169083151502179055506040820151815f0160026101000a81548173ffffffffffffffffffffffffffffffffffffffff021916908373ffffffffffffffffffffffffffffffffffffffff160217905550905050818160030160186101000a81548160ff02191690831515021790555060018160030160196101000a81548160ff0219169083151502179055503373ffffffffffffffffffffffffffffffffffffffff16837f0df24a5307d7ec9d0633724bd1e25ae3961a90c907f6d4dd48967bde0118a578846040516107999190611426565b60405180910390a3505050565b7f000000000000000000000000000000000000000000000000000000000000000081565b5f5f82815481106107de576107dd611474565b5b905f5260205f20906004020190505f73ffffffffffffffffffffffffffffffffffffffff16815f015f9054906101000a900473ffffffffffffffffffffffffffffffffffffffff1673ffffffffffffffffffffffffffffffffffffffff1603610873576040517fda5d547300000000000000000000000000000000000000000000000000000000815260040160405180910390fd5b60015f8381526020019081526020015f205f3373ffffffffffffffffffffffffffffffffffffffff1673ffffffffffffffffffffffffffffffffffffffff1681526020019081526020015f205f9054906101000a900460ff1615610903576040517f7c9a1cf900000000000000000000000000000000000000000000000000000000815260040160405180910390fd5b8060030160199054906101000a900460ff161561094c576040517fc906a36e00000000000000000000000000000000000000000000000000000000815260040160405180910390fd5b6001805f8481526020019081526020015f205f3373ffffffffffffffffffffffffffffffffffffffff1673ffffffffffffffffffffffffffffffffffffffff1681526020019081526020015f205f6101000a81548160ff02191690831515021790555060018160030160108282829054906101000a900467ffffffffffffffff166109d7919061152b565b92506101000a81548167ffffffffffffffff021916908367ffffffffffffffff1602179055503373ffffffffffffffffffffffffffffffffffffffff16827f2ca60a2f068001bd115ebe115640860fb468ea80f162e5460874ba7c022c9e158360030160109054906101000a900467ffffffffffffffff16604051610a5c919061121d565b60405180910390a35050565b5f5f80549050905090565b5f5f8281548110610a8757610a86611474565b5b905f5260205f2090600402019050805f015f9054906101000a900473ffffffffffffffffffffffffffffffffffffffff1673ffffffffffffffffffffffffffffffffffffffff163373ffffffffffffffffffffffffffffffffffffffff1614610b1c576040517f93687c0b00000000000000000000000000000000000000000000000000000000815260040160405180910390fd5b8060030160199054906101000a900460ff16610b64576040517fc906a36e00000000000000000000000000000000000000000000000000000000815260040160405180910390fd5b8060030160189054906101000a900460ff16610bac576040517fc906a36e00000000000000000000000000000000000000000000000000000000815260040160405180910390fd5b80600301601a9054906101000a900460ff1615610bf5576040517f646cf55800000000000000000000000000000000000000000000000000000000815260040160405180910390fd5b600181600301601a6101000a81548160ff0219169083151502179055505f816003015f9054906101000a90046fffffffffffffffffffffffffffffffff1690505f825f015f9054906101000a900473ffffffffffffffffffffffffffffffffffffffff1673ffffffffffffffffffffffffffffffffffffffff16826fffffffffffffffffffffffffffffffff16604051610c8e90611593565b5f6040518083038185875af1925050503d805f8114610cc8576040519150601f19603f3d011682016040523d82523d5f602084013e610ccd565b606091505b5050905080610d11576040517f08c379a0000000000000000000000000000000000000000000000000000000008152600401610d08906115f1565b60405180910390fd5b825f015f9054906101000a900473ffffffffffffffffffffffffffffffffffffffff1673ffffffffffffffffffffffffffffffffffffffff16847f3852d5ee76f8c7d023121d4b3993eed708ed188b4fef90d13a41b4674d83afb884604051610d7a919061160f565b60405180910390a350505050565b5f5f858590501480610d9c57505f83839050145b80610da657505f34145b15610ddd576040517fda5d547300000000000000000000000000000000000000000000000000000000815260040160405180910390fd5b5f8054905090505f5f60018160018154018082558091505003905f5260205f209060040201905033815f015f6101000a81548173ffffffffffffffffffffffffffffffffffffffff021916908373ffffffffffffffffffffffffffffffffffffffff1602179055508585826001019182610e589291906117ff565b508383826002019182610e6c9291906117ff565b5034816003015f6101000a8154816fffffffffffffffffffffffffffffffff02191690836fffffffffffffffffffffffffffffffff1602179055503373ffffffffffffffffffffffffffffffffffffffff16827fc74b3803df7be5418e64a332bbf85ddedb2acbe729eac5097345e28c5e25c0918888856003015f9054906101000a90046fffffffffffffffffffffffffffffffff16604051610f1193929190611906565b60405180910390a350949350505050565b6001602052815f5260405f20602052805f5260405f205f915091509054906101000a900460ff1681565b5f5f5f5f60025f8681526020019081526020015f209050805f015f9054906101000a900460ff16815f0160019054906101000a900460ff16825f0160029054906101000a900473ffffffffffffffffffffffffffffffffffffffff16935093509350509193909250565b5f60015f8481526020019081526020015f205f8373ffffffffffffffffffffffffffffffffffffffff1673ffffffffffffffffffffffffffffffffffffffff1681526020019081526020015f205f9054906101000a900460ff16905092915050565b5f5ffd5b5f5ffd5b5f819050919050565b61103281611020565b811461103c575f5ffd5b50565b5f8135905061104d81611029565b92915050565b5f6020828403121561106857611067611018565b5b5f6110758482850161103f565b91505092915050565b5f73ffffffffffffffffffffffffffffffffffffffff82169050919050565b5f6110a78261107e565b9050919050565b6110b78161109d565b82525050565b5f81519050919050565b5f82825260208201905092915050565b8281835e5f83830152505050565b5f601f19601f8301169050919050565b5f6110ff826110bd565b61110981856110c7565b93506111198185602086016110d7565b611122816110e5565b840191505092915050565b5f6fffffffffffffffffffffffffffffffff82169050919050565b6111518161112d565b82525050565b5f67ffffffffffffffff82169050919050565b61117381611157565b82525050565b5f8115159050919050565b61118d81611179565b82525050565b5f610100820190506111a75f83018b6110ae565b81810360208301526111b9818a6110f5565b905081810360408301526111cd81896110f5565b90506111dc6060830188611148565b6111e9608083018761116a565b6111f660a0830186611184565b61120360c0830185611184565b61121060e0830184611184565b9998505050505050505050565b5f6020820190506112305f83018461116a565b92915050565b61123f81611179565b8114611249575f5ffd5b50565b5f8135905061125a81611236565b92915050565b5f5f6040838503121561127657611275611018565b5b5f6112838582860161103f565b92505060206112948582860161124c565b9150509250929050565b5f6020820190506112b15f8301846110ae565b92915050565b6112c081611020565b82525050565b5f6020820190506112d95f8301846112b7565b92915050565b5f5ffd5b5f5ffd5b5f5ffd5b5f5f83601f840112611300576112ff6112df565b5b8235905067ffffffffffffffff81111561131d5761131c6112e3565b5b602083019150836001820283011115611339576113386112e7565b5b9250929050565b5f5f5f5f6040858703121561135857611357611018565b5b5f85013567ffffffffffffffff8111156113755761137461101c565b5b611381878288016112eb565b9450945050602085013567ffffffffffffffff8111156113a4576113a361101c565b5b6113b0878288016112eb565b925092505092959194509250565b6113c78161109d565b81146113d1575f5ffd5b50565b5f813590506113e2816113be565b92915050565b5f5f604083850312156113fe576113fd611018565b5b5f61140b8582860161103f565b925050602061141c858286016113d4565b9150509250929050565b5f6020820190506114395f830184611184565b92915050565b5f6060820190506114525f830186611184565b61145f6020830185611184565b61146c60408301846110ae565b949350505050565b7f4e487b71000000000000000000000000000000000000000000000000000000005f52603260045260245ffd5b7f4e487b71000000000000000000000000000000000000000000000000000000005f52602260045260245ffd5b5f60028204905060018216806114e557607f821691505b6020821081036114f8576114f76114a1565b5b50919050565b7f4e487b71000000000000000000000000000000000000000000000000000000005f52601160045260245ffd5b5f61153582611157565b915061154083611157565b9250828201905067ffffffffffffffff8111156115605761155f6114fe565b5b92915050565b5f81905092915050565b50565b5f61157e5f83611566565b915061158982611570565b5f82019050919050565b5f61159d82611573565b9150819050919050565b7f726566756e64206661696c6564000000000000000000000000000000000000005f82015250565b5f6115db600d836110c7565b91506115e6826115a7565b602082019050919050565b5f6020820190508181035f830152611608816115cf565b9050919050565b5f6020820190506116225f830184611148565b92915050565b5f82905092915050565b7f4e487b71000000000000000000000000000000000000000000000000000000005f52604160045260245ffd5b5f819050815f5260205f209050919050565b5f6020601f8301049050919050565b5f82821b905092915050565b5f600883026116bb7fffffffffffffffffffffffffffffffffffffffffffffffffffffffffffffffff82611680565b6116c58683611680565b95508019841693508086168417925050509392505050565b5f819050919050565b5f6117006116fb6116f684611020565b6116dd565b611020565b9050919050565b5f819050919050565b611719836116e6565b61172d61172582611707565b84845461168c565b825550505050565b5f5f905090565b611744611735565b61174f818484611710565b505050565b5b81811015611772576117675f8261173c565b600181019050611755565b5050565b601f8211156117b7576117888161165f565b61179184611671565b810160208510156117a0578190505b6117b46117ac85611671565b830182611754565b50505b505050565b5f82821c905092915050565b5f6117d75f19846008026117bc565b1980831691505092915050565b5f6117ef83836117c8565b9150826002028217905092915050565b6118098383611628565b67ffffffffffffffff81111561182257611821611632565b5b61182c82546114ce565b611837828285611776565b5f601f831160018114611864575f8415611852578287013590505b61185c85826117e4565b8655506118c3565b601f1984166118728661165f565b5f5b8281101561189957848901358255600182019150602085019450602081019050611874565b868310156118b657848901356118b2601f8916826117c8565b8355505b6001600288020188555050505b50505050505050565b828183375f83830152505050565b5f6118e583856110c7565b93506118f28385846118cc565b6118fb836110e5565b840190509392505050565b5f6040820190508181035f83015261191f8185876118da565b905061192e6020830184611148565b94935050505056fea26469706673582212200fa92cd3d4817832e7cb6107fb22deee1ad3f922777aa4bc91aebf82990ba93564736f6c634300081e0033",
					"opcodes": "PUSH1 0xA0 PUSH1 0x40 MSTORE CALLVALUE DUP1 ISZERO PUSH1 0xE JUMPI PUSH0 PUSH0 REVERT JUMPDEST POP CALLER PUSH20 0xFFFFFFFFFFFFFFFFFFFFFFFFFFFFFFFFFFFFFFFF AND PUSH1 0x80 DUP2 PUSH20 0xFFFFFFFFFFFFFFFFFFFFFFFFFFFFFFFFFFFFFFFF AND DUP2 MSTORE POP POP PUSH1 0x80 MLOAD PUSH2 0x196C PUSH2 0x62 PUSH0 CODECOPY PUSH0 DUP2 DUP2 PUSH2 0x4BA ADD MSTORE PUSH2 0x7A8 ADD MSTORE PUSH2 0x196C PUSH0 RETURN INVALID PUSH1 0x80 PUSH1 0x40 MSTORE PUSH1 0x4 CALLDATASIZE LT PUSH2 0x9B JUMPI PUSH0 CALLDATALOAD PUSH1 0xE0 SHR DUP1 PUSH4 0x35F75E16 GT PUSH2 0x63 JUMPI DUP1 PUSH4 0x35F75E16 EQ PUSH2 0x186 JUMPI DUP1 PUSH4 0x379607F5 EQ PUSH2 0x1B0 JUMPI DUP1 PUSH4 0x41A51D13 EQ PUSH2 0x1D8 JUMPI DUP1 PUSH4 0x709DF8D9 EQ PUSH2 0x208 JUMPI DUP1 PUSH4 0xA83A475C EQ PUSH2 0x244 JUMPI DUP1 PUSH4 0xBE7AF16B EQ PUSH2 0x282 JUMPI PUSH2 0x9B JUMP JUMPDEST DUP1 PUSH4 0xC90CE42 EQ PUSH2 0x9F JUMPI DUP1 PUSH4 0x1A179692 EQ PUSH2 0xE2 JUMPI DUP1 PUSH4 0x224F3D1A EQ PUSH2 0x10C JUMPI DUP1 PUSH4 0x2672F526 EQ PUSH2 0x134 JUMPI DUP1 PUSH4 0x2FB1B25F EQ PUSH2 0x15E JUMPI JUMPDEST PUSH0 PUSH0 REVERT JUMPDEST CALLVALUE DUP1 ISZERO PUSH2 0xAA JUMPI PUSH0 PUSH0 REVERT JUMPDEST POP PUSH2 0xC5 PUSH1 0x4 DUP1 CALLDATASIZE SUB DUP2 ADD SWAP1 PUSH2 0xC0 SWAP2 SWAP1 PUSH2 0x1053 JUMP JUMPDEST PUSH2 0x2BE JUMP JUMPDEST PUSH1 0x40 MLOAD PUSH2 0xD9 SWAP9 SWAP8 SWAP7 SWAP6 SWAP5 SWAP4 SWAP3 SWAP2 SWAP1 PUSH2 0x1193 JUMP JUMPDEST PUSH1 0x40 MLOAD DUP1 SWAP2 SUB SWAP1 RETURN JUMPDEST CALLVALUE DUP1 ISZERO PUSH2 0xED JUMPI PUSH0 PUSH0 REVERT JUMPDEST POP PUSH2 0xF6 PUSH2 0x4B3 JUMP JUMPDEST PUSH1 0x40 MLOAD PUSH2 0x103 SWAP2 SWAP1 PUSH2 0x121D JUMP JUMPDEST PUSH1 0x40 MLOAD DUP1 SWAP2 SUB SWAP1 RETURN JUMPDEST CALLVALUE DUP1 ISZERO PUSH2 0x117 JUMPI PUSH0 PUSH0 REVERT JUMPDEST POP PUSH2 0x132 PUSH1 0x4 DUP1 CALLDATASIZE SUB DUP2 ADD SWAP1 PUSH2 0x12D SWAP2 SWAP1 PUSH2 0x1260 JUMP JUMPDEST PUSH2 0x4B8 JUMP JUMPDEST STOP JUMPDEST CALLVALUE DUP1 ISZERO PUSH2 0x13F JUMPI PUSH0 PUSH0 REVERT JUMPDEST POP PUSH2 0x148 PUSH2 0x7A6 JUMP JUMPDEST PUSH1 0x40 MLOAD PUSH2 0x155 SWAP2 SWAP1 PUSH2 0x129E JUMP JUMPDEST PUSH1 0x40 MLOAD DUP1 SWAP2 SUB SWAP1 RETURN JUMPDEST CALLVALUE DUP1 ISZERO PUSH2 0x169 JUMPI PUSH0 PUSH0 REVERT JUMPDEST POP PUSH2 0x184 PUSH1 0x4 DUP1 CALLDATASIZE SUB DUP2 ADD SWAP1 PUSH2 0x17F SWAP2 SWAP1 PUSH2 0x1053 JUMP JUMPDEST PUSH2 0x7CA JUMP JUMPDEST STOP JUMPDEST CALLVALUE DUP1 ISZERO PUSH2 0x191 JUMPI PUSH0 PUSH0 REVERT JUMPDEST POP PUSH2 0x19A PUSH2 0xA68 JUMP JUMPDEST PUSH1 0x40 MLOAD PUSH2 0x1A7 SWAP2 SWAP1 PUSH2 0x12C6 JUMP JUMPDEST PUSH1 0x40 MLOAD DUP1 SWAP2 SUB SWAP1 RETURN JUMPDEST CALLVALUE DUP1 ISZERO PUSH2 0x1BB JUMPI PUSH0 PUSH0 REVERT JUMPDEST POP PUSH2 0x1D6 PUSH1 0x4 DUP1 CALLDATASIZE SUB DUP2 ADD SWAP1 PUSH2 0x1D1 SWAP2 SWAP1 PUSH2 0x1053 JUMP JUMPDEST PUSH2 0xA73 JUMP JUMPDEST STOP JUMPDEST PUSH2 0x1F2 PUSH1 0x4 DUP1 CALLDATASIZE SUB DUP2 ADD SWAP1 PUSH2 0x1ED SWAP2 SWAP1 PUSH2 0x1340 JUMP JUMPDEST PUSH2 0xD88 JUMP JUMPDEST PUSH1 0x40 MLOAD PUSH2 0x1FF SWAP2 SWAP1 PUSH2 0x12C6 JUMP JUMPDEST PUSH1 0x40 MLOAD DUP1 SWAP2 SUB SWAP1 RETURN JUMPDEST CALLVALUE DUP1 ISZERO PUSH2 0x213 JUMPI PUSH0 PUSH0 REVERT JUMPDEST POP PUSH2 0x22E PUSH1 0x4 DUP1 CALLDATASIZE SUB DUP2 ADD SWAP1 PUSH2 0x229 SWAP2 SWAP1 PUSH2 0x13E8 JUMP JUMPDEST PUSH2 0xF22 JUMP JUMPDEST PUSH1 0x40 MLOAD PUSH2 0x23B SWAP2 SWAP1 PUSH2 0x1426 JUMP JUMPDEST PUSH1 0x40 MLOAD DUP1 SWAP2 SUB SWAP1 RETURN JUMPDEST CALLVALUE DUP1 ISZERO PUSH2 0x24F JUMPI PUSH0 PUSH0 REVERT JUMPDEST POP PUSH2 0x26A PUSH1 0x4 DUP1 CALLDATASIZE SUB DUP2 ADD SWAP1 PUSH2 0x265 SWAP2 SWAP1 PUSH2 0x1053 JUMP JUMPDEST PUSH2 0xF4C JUMP JUMPDEST PUSH1 0x40 MLOAD PUSH2 0x279 SWAP4 SWAP3 SWAP2 SWAP1 PUSH2 0x143F JUMP JUMPDEST PUSH1 0x40 MLOAD DUP1 SWAP2 SUB SWAP1 RETURN JUMPDEST CALLVALUE DUP1 ISZERO PUSH2 0x28D JUMPI PUSH0 PUSH0 REVERT JUMPDEST POP PUSH2 0x2A8 PUSH1 0x4 DUP1 CALLDATASIZE SUB DUP2 ADD SWAP1 PUSH2 0x2A3 SWAP2 SWAP1 PUSH2 0x13E8 JUMP JUMPDEST PUSH2 0xFB6 JUMP JUMPDEST PUSH1 0x40 MLOAD PUSH2 0x2B5 SWAP2 SWAP1 PUSH2 0x1426 JUMP JUMPDEST PUSH1 0x40 MLOAD DUP1 SWAP2 SUB SWAP1 RETURN JUMPDEST PUSH0 PUSH1 0x60 DUP1 PUSH0 PUSH0 PUSH0 PUSH0 PUSH0 PUSH0 PUSH0 DUP11 DUP2 SLOAD DUP2 LT PUSH2 0x2DB JUMPI PUSH2 0x2DA PUSH2 0x1474 JUMP JUMPDEST JUMPDEST SWAP1 PUSH0 MSTORE PUSH1 0x20 PUSH0 KECCAK256 SWAP1 PUSH1 0x4 MUL ADD SWAP1 POP DUP1 PUSH0 ADD PUSH0 SWAP1 SLOAD SWAP1 PUSH2 0x100 EXP SWAP1 DIV PUSH20 0xFFFFFFFFFFFFFFFFFFFFFFFFFFFFFFFFFFFFFFFF AND DUP2 PUSH1 0x1 ADD DUP3 PUSH1 0x2 ADD DUP4 PUSH1 0x3 ADD PUSH0 SWAP1 SLOAD SWAP1 PUSH2 0x100 EXP SWAP1 DIV PUSH16 0xFFFFFFFFFFFFFFFFFFFFFFFFFFFFFFFF AND DUP5 PUSH1 0x3 ADD PUSH1 0x10 SWAP1 SLOAD SWAP1 PUSH2 0x100 EXP SWAP1 DIV PUSH8 0xFFFFFFFFFFFFFFFF AND DUP6 PUSH1 0x3 ADD PUSH1 0x18 SWAP1 SLOAD SWAP1 PUSH2 0x100 EXP SWAP1 DIV PUSH1 0xFF AND DUP7 PUSH1 0x3 ADD PUSH1 0x19 SWAP1 SLOAD SWAP1 PUSH2 0x100 EXP SWAP1 DIV PUSH1 0xFF AND DUP8 PUSH1 0x3 ADD PUSH1 0x1A SWAP1 SLOAD SWAP1 PUSH2 0x100 EXP SWAP1 DIV PUSH1 0xFF AND DUP7 DUP1 SLOAD PUSH2 0x38F SWAP1 PUSH2 0x14CE JUMP JUMPDEST DUP1 PUSH1 0x1F ADD PUSH1 0x20 DUP1 SWAP2 DIV MUL PUSH1 0x20 ADD PUSH1 0x40 MLOAD SWAP1 DUP2 ADD PUSH1 0x40 MSTORE DUP1 SWAP3 SWAP2 SWAP1 DUP2 DUP2 MSTORE PUSH1 0x20 ADD DUP3 DUP1 SLOAD PUSH2 0x3BB SWAP1 PUSH2 0x14CE JUMP JUMPDEST DUP1 ISZERO PUSH2 0x406 JUMPI DUP1 PUSH1 0x1F LT PUSH2 0x3DD JUMPI PUSH2 0x100 DUP1 DUP4 SLOAD DIV MUL DUP4 MSTORE SWAP2 PUSH1 0x20 ADD SWAP2 PUSH2 0x406 JUMP JUMPDEST DUP3 ADD SWAP2 SWAP1 PUSH0 MSTORE PUSH1 0x20 PUSH0 KECCAK256 SWAP1 JUMPDEST DUP2 SLOAD DUP2 MSTORE SWAP1 PUSH1 0x1 ADD SWAP1 PUSH1 0x20 ADD DUP1 DUP4 GT PUSH2 0x3E9 JUMPI DUP3 SWAP1 SUB PUSH1 0x1F AND DUP3 ADD SWAP2 JUMPDEST POP POP POP POP POP SWAP7 POP DUP6 DUP1 SLOAD PUSH2 0x419 SWAP1 PUSH2 0x14CE JUMP JUMPDEST DUP1 PUSH1 0x1F ADD PUSH1 0x20 DUP1 SWAP2 DIV MUL PUSH1 0x20 ADD PUSH1 0x40 MLOAD SWAP1 DUP2 ADD PUSH1 0x40 MSTORE DUP1 SWAP3 SWAP2 SWAP1 DUP2 DUP2 MSTORE PUSH1 0x20 ADD DUP3 DUP1 SLOAD PUSH2 0x445 SWAP1 PUSH2 0x14CE JUMP JUMPDEST DUP1 ISZERO PUSH2 0x490 JUMPI DUP1 PUSH1 0x1F LT PUSH2 0x467 JUMPI PUSH2 0x100 DUP1 DUP4 SLOAD DIV MUL DUP4 MSTORE SWAP2 PUSH1 0x20 ADD SWAP2 PUSH2 0x490 JUMP JUMPDEST DUP3 ADD SWAP2 SWAP1 PUSH0 MSTORE PUSH1 0x20 PUSH0 KECCAK256 SWAP1 JUMPDEST DUP2 SLOAD DUP2 MSTORE SWAP1 PUSH1 0x1 ADD SWAP1 PUSH1 0x20 ADD DUP1 DUP4 GT PUSH2 0x473 JUMPI DUP3 SWAP1 SUB PUSH1 0x1F AND DUP3 ADD SWAP2 JUMPDEST POP POP POP POP POP SWAP6 POP SWAP9 POP SWAP9 POP SWAP9 POP SWAP9 POP SWAP9 POP SWAP9 POP SWAP9 POP SWAP9 POP POP SWAP2 SWAP4 SWAP6 SWAP8 POP SWAP2 SWAP4 SWAP6 SWAP8 JUMP JUMPDEST PUSH1 0x5 DUP2 JUMP JUMPDEST PUSH32 0x0 PUSH20 0xFFFFFFFFFFFFFFFFFFFFFFFFFFFFFFFFFFFFFFFF AND CALLER PUSH20 0xFFFFFFFFFFFFFFFFFFFFFFFFFFFFFFFFFFFFFFFF AND EQ PUSH2 0x53D JUMPI PUSH1 0x40 MLOAD PUSH32 0x1CCC6F2700000000000000000000000000000000000000000000000000000000 DUP2 MSTORE PUSH1 0x4 ADD PUSH1 0x40 MLOAD DUP1 SWAP2 SUB SWAP1 REVERT JUMPDEST PUSH0 PUSH0 DUP4 DUP2 SLOAD DUP2 LT PUSH2 0x551 JUMPI PUSH2 0x550 PUSH2 0x1474 JUMP JUMPDEST JUMPDEST SWAP1 PUSH0 MSTORE PUSH1 0x20 PUSH0 KECCAK256 SWAP1 PUSH1 0x4 MUL ADD SWAP1 POP PUSH0 PUSH20 0xFFFFFFFFFFFFFFFFFFFFFFFFFFFFFFFFFFFFFFFF AND DUP2 PUSH0 ADD PUSH0 SWAP1 SLOAD SWAP1 PUSH2 0x100 EXP SWAP1 DIV PUSH20 0xFFFFFFFFFFFFFFFFFFFFFFFFFFFFFFFFFFFFFFFF AND PUSH20 0xFFFFFFFFFFFFFFFFFFFFFFFFFFFFFFFFFFFFFFFF AND SUB PUSH2 0x5E6 JUMPI PUSH1 0x40 MLOAD PUSH32 0xDA5D547300000000000000000000000000000000000000000000000000000000 DUP2 MSTORE PUSH1 0x4 ADD PUSH1 0x40 MLOAD DUP1 SWAP2 SUB SWAP1 REVERT JUMPDEST PUSH1 0x5 PUSH8 0xFFFFFFFFFFFFFFFF AND DUP2 PUSH1 0x3 ADD PUSH1 0x10 SWAP1 SLOAD SWAP1 PUSH2 0x100 EXP SWAP1 DIV PUSH8 0xFFFFFFFFFFFFFFFF AND PUSH8 0xFFFFFFFFFFFFFFFF AND LT ISZERO PUSH2 0x64D JUMPI PUSH1 0x40 MLOAD PUSH32 0xD79FA57000000000000000000000000000000000000000000000000000000000 DUP2 MSTORE PUSH1 0x4 ADD PUSH1 0x40 MLOAD DUP1 SWAP2 SUB SWAP1 REVERT JUMPDEST PUSH1 0x40 MLOAD DUP1 PUSH1 0x60 ADD PUSH1 0x40 MSTORE DUP1 PUSH1 0x1 ISZERO ISZERO DUP2 MSTORE PUSH1 0x20 ADD DUP4 ISZERO ISZERO DUP2 MSTORE PUSH1 0x20 ADD CALLER PUSH20 0xFFFFFFFFFFFFFFFFFFFFFFFFFFFFFFFFFFFFFFFF AND DUP2 MSTORE POP PUSH1 0x2 PUSH0 DUP6 DUP2 MSTORE PUSH1 0x20 ADD SWAP1 DUP2 MSTORE PUSH1 0x20 ADD PUSH0 KECCAK256 PUSH0 DUP3 ADD MLOAD DUP2 PUSH0 ADD PUSH0 PUSH2 0x100 EXP DUP2 SLOAD DUP2 PUSH1 0xFF MUL NOT AND SWAP1 DUP4 ISZERO ISZERO MUL OR SWAP1 SSTORE POP PUSH1 0x20 DUP3 ADD MLOAD DUP2 PUSH0 ADD PUSH1 0x1 PUSH2 0x100 EXP DUP2 SLOAD DUP2 PUSH1 0xFF MUL NOT AND SWAP1 DUP4 ISZERO ISZERO MUL OR SWAP1 SSTORE POP PUSH1 0x40 DUP3 ADD MLOAD DUP2 PUSH0 ADD PUSH1 0x2 PUSH2 0x100 EXP DUP2 SLOAD DUP2 PUSH20 0xFFFFFFFFFFFFFFFFFFFFFFFFFFFFFFFFFFFFFFFF MUL NOT AND SWAP1 DUP4 PUSH20 0xFFFFFFFFFFFFFFFFFFFFFFFFFFFFFFFFFFFFFFFF AND MUL OR SWAP1 SSTORE POP SWAP1 POP POP DUP2 DUP2 PUSH1 0x3 ADD PUSH1 0x18 PUSH2 0x100 EXP DUP2 SLOAD DUP2 PUSH1 0xFF MUL NOT AND SWAP1 DUP4 ISZERO ISZERO MUL OR SWAP1 SSTORE POP PUSH1 0x1 DUP2 PUSH1 0x3 ADD PUSH1 0x19 PUSH2 0x100 EXP DUP2 SLOAD DUP2 PUSH1 0xFF MUL NOT AND SWAP1 DUP4 ISZERO ISZERO MUL OR SWAP1 SSTORE POP CALLER PUSH20 0xFFFFFFFFFFFFFFFFFFFFFFFFFFFFFFFFFFFFFFFF AND DUP4 PUSH32 0xDF24A5307D7EC9D0633724BD1E25AE3961A90C907F6D4DD48967BDE0118A578 DUP5 PUSH1 0x40 MLOAD PUSH2 0x799 SWAP2 SWAP1 PUSH2 0x1426 JUMP JUMPDEST PUSH1 0x40 MLOAD DUP1 SWAP2 SUB SWAP1 LOG3 POP POP POP JUMP JUMPDEST PUSH32 0x0 DUP2 JUMP JUMPDEST PUSH0 PUSH0 DUP3 DUP2 SLOAD DUP2 LT PUSH2 0x7DE JUMPI PUSH2 0x7DD PUSH2 0x1474 JUMP JUMPDEST JUMPDEST SWAP1 PUSH0 MSTORE PUSH1 0x20 PUSH0 KECCAK256 SWAP1 PUSH1 0x4 MUL ADD SWAP1 POP PUSH0 PUSH20 0xFFFFFFFFFFFFFFFFFFFFFFFFFFFFFFFFFFFFFFFF AND DUP2 PUSH0 ADD PUSH0 SWAP1 SLOAD SWAP1 PUSH2 0x100 EXP SWAP1 DIV PUSH20 0xFFFFFFFFFFFFFFFFFFFFFFFFFFFFFFFFFFFFFFFF AND PUSH20 0xFFFFFFFFFFFFFFFFFFFFFFFFFFFFFFFFFFFFFFFF AND SUB PUSH2 0x873 JUMPI PUSH1 0x40 MLOAD PUSH32 0xDA5D547300000000000000000000000000000000000000000000000000000000 DUP2 MSTORE PUSH1 0x4 ADD PUSH1 0x40 MLOAD DUP1 SWAP2 SUB SWAP1 REVERT JUMPDEST PUSH1 0x1 PUSH0 DUP4 DUP2 MSTORE PUSH1 0x20 ADD SWAP1 DUP2 MSTORE PUSH1 0x20 ADD PUSH0 KECCAK256 PUSH0 CALLER PUSH20 0xFFFFFFFFFFFFFFFFFFFFFFFFFFFFFFFFFFFFFFFF AND PUSH20 0xFFFFFFFFFFFFFFFFFFFFFFFFFFFFFFFFFFFFFFFF AND DUP2 MSTORE PUSH1 0x20 ADD SWAP1 DUP2 MSTORE PUSH1 0x20 ADD PUSH0 KECCAK256 PUSH0 SWAP1 SLOAD SWAP1 PUSH2 0x100 EXP SWAP1 DIV PUSH1 0xFF AND ISZERO PUSH2 0x903 JUMPI PUSH1 0x40 MLOAD PUSH32 0x7C9A1CF900000000000000000000000000000000000000000000000000000000 DUP2 MSTORE PUSH1 0x4 ADD PUSH1 0x40 MLOAD DUP1 SWAP2 SUB SWAP1 REVERT JUMPDEST DUP1 PUSH1 0x3 ADD PUSH1 0x19 SWAP1 SLOAD SWAP1 PUSH2 0x100 EXP SWAP1 DIV PUSH1 0xFF AND ISZERO PUSH2 0x94C JUMPI PUSH1 0x40 MLOAD PUSH32 0xC906A36E00000000000000000000000000000000000000000000000000000000 DUP2 MSTORE PUSH1 0x4 ADD PUSH1 0x40 MLOAD DUP1 SWAP2 SUB SWAP1 REVERT JUMPDEST PUSH1 0x1 DUP1 PUSH0 DUP5 DUP2 MSTORE PUSH1 0x20 ADD SWAP1 DUP2 MSTORE PUSH1 0x20 ADD PUSH0 KECCAK256 PUSH0 CALLER PUSH20 0xFFFFFFFFFFFFFFFFFFFFFFFFFFFFFFFFFFFFFFFF AND PUSH20 0xFFFFFFFFFFFFFFFFFFFFFFFFFFFFFFFFFFFFFFFF AND DUP2 MSTORE PUSH1 0x20 ADD SWAP1 DUP2 MSTORE PUSH1 0x20 ADD PUSH0 KECCAK256 PUSH0 PUSH2 0x100 EXP DUP2 SLOAD DUP2 PUSH1 0xFF MUL NOT AND SWAP1 DUP4 ISZERO ISZERO MUL OR SWAP1 SSTORE POP PUSH1 0x1 DUP2 PUSH1 0x3 ADD PUSH1 0x10 DUP3 DUP3 DUP3 SWAP1 SLOAD SWAP1 PUSH2 0x100 EXP SWAP1 DIV PUSH8 0xFFFFFFFFFFFFFFFF AND PUSH2 0x9D7 SWAP2 SWAP1 PUSH2 0x152B JUMP JUMPDEST SWAP3 POP PUSH2 0x100 EXP DUP2 SLOAD DUP2 PUSH8 0xFFFFFFFFFFFFFFFF MUL NOT AND SWAP1 DUP4 PUSH8 0xFFFFFFFFFFFFFFFF AND MUL OR SWAP1 SSTORE POP CALLER PUSH20 0xFFFFFFFFFFFFFFFFFFFFFFFFFFFFFFFFFFFFFFFF AND DUP3 PUSH32 0x2CA60A2F068001BD115EBE115640860FB468EA80F162E5460874BA7C022C9E15 DUP4 PUSH1 0x3 ADD PUSH1 0x10 SWAP1 SLOAD SWAP1 PUSH2 0x100 EXP SWAP1 DIV PUSH8 0xFFFFFFFFFFFFFFFF AND PUSH1 0x40 MLOAD PUSH2 0xA5C SWAP2 SWAP1 PUSH2 0x121D JUMP JUMPDEST PUSH1 0x40 MLOAD DUP1 SWAP2 SUB SWAP1 LOG3 POP POP JUMP JUMPDEST PUSH0 PUSH0 DUP1 SLOAD SWAP1 POP SWAP1 POP SWAP1 JUMP JUMPDEST PUSH0 PUSH0 DUP3 DUP2 SLOAD DUP2 LT PUSH2 0xA87 JUMPI PUSH2 0xA86 PUSH2 0x1474 JUMP JUMPDEST JUMPDEST SWAP1 PUSH0 MSTORE PUSH1 0x20 PUSH0 KECCAK256 SWAP1 PUSH1 0x4 MUL ADD SWAP1 POP DUP1 PUSH0 ADD PUSH0 SWAP1 SLOAD SWAP1 PUSH2 0x100 EXP SWAP1 DIV PUSH20 0xFFFFFFFFFFFFFFFFFFFFFFFFFFFFFFFFFFFFFFFF AND PUSH20 0xFFFFFFFFFFFFFFFFFFFFFFFFFFFFFFFFFFFFFFFF AND CALLER PUSH20 0xFFFFFFFFFFFFFFFFFFFFFFFFFFFFFFFFFFFFFFFF AND EQ PUSH2 0xB1C JUMPI PUSH1 0x40 MLOAD PUSH32 0x93687C0B00000000000000000000000000000000000000000000000000000000 DUP2 MSTORE PUSH1 0x4 ADD PUSH1 0x40 MLOAD DUP1 SWAP2 SUB SWAP1 REVERT JUMPDEST DUP1 PUSH1 0x3 ADD PUSH1 0x19 SWAP1 SLOAD SWAP1 PUSH2 0x100 EXP SWAP1 DIV PUSH1 0xFF AND PUSH2 0xB64 JUMPI PUSH1 0x40 MLOAD PUSH32 0xC906A36E00000000000000000000000000000000000000000000000000000000 DUP2 MSTORE PUSH1 0x4 ADD PUSH1 0x40 MLOAD DUP1 SWAP2 SUB SWAP1 REVERT JUMPDEST DUP1 PUSH1 0x3 ADD PUSH1 0x18 SWAP1 SLOAD SWAP1 PUSH2 0x100 EXP SWAP1 DIV PUSH1 0xFF AND PUSH2 0xBAC JUMPI PUSH1 0x40 MLOAD PUSH32 0xC906A36E00000000000000000000000000000000000000000000000000000000 DUP2 MSTORE PUSH1 0x4 ADD PUSH1 0x40 MLOAD DUP1 SWAP2 SUB SWAP1 REVERT JUMPDEST DUP1 PUSH1 0x3 ADD PUSH1 0x1A SWAP1 SLOAD SWAP1 PUSH2 0x100 EXP SWAP1 DIV PUSH1 0xFF AND ISZERO PUSH2 0xBF5 JUMPI PUSH1 0x40 MLOAD PUSH32 0x646CF55800000000000000000000000000000000000000000000000000000000 DUP2 MSTORE PUSH1 0x4 ADD PUSH1 0x40 MLOAD DUP1 SWAP2 SUB SWAP1 REVERT JUMPDEST PUSH1 0x1 DUP2 PUSH1 0x3 ADD PUSH1 0x1A PUSH2 0x100 EXP DUP2 SLOAD DUP2 PUSH1 0xFF MUL NOT AND SWAP1 DUP4 ISZERO ISZERO MUL OR SWAP1 SSTORE POP PUSH0 DUP2 PUSH1 0x3 ADD PUSH0 SWAP1 SLOAD SWAP1 PUSH2 0x100 EXP SWAP1 DIV PUSH16 0xFFFFFFFFFFFFFFFFFFFFFFFFFFFFFFFF AND SWAP1 POP PUSH0 DUP3 PUSH0 ADD PUSH0 SWAP1 SLOAD SWAP1 PUSH2 0x100 EXP SWAP1 DIV PUSH20 0xFFFFFFFFFFFFFFFFFFFFFFFFFFFFFFFFFFFFFFFF AND PUSH20 0xFFFFFFFFFFFFFFFFFFFFFFFFFFFFFFFFFFFFFFFF AND DUP3 PUSH16 0xFFFFFFFFFFFFFFFFFFFFFFFFFFFFFFFF AND PUSH1 0x40 MLOAD PUSH2 0xC8E SWAP1 PUSH2 0x1593 JUMP JUMPDEST PUSH0 PUSH1 0x40 MLOAD DUP1 DUP4 SUB DUP2 DUP6 DUP8 GAS CALL SWAP3 POP POP POP RETURNDATASIZE DUP1 PUSH0 DUP2 EQ PUSH2 0xCC8 JUMPI PUSH1 0x40 MLOAD SWAP2 POP PUSH1 0x1F NOT PUSH1 0x3F RETURNDATASIZE ADD AND DUP3 ADD PUSH1 0x40 MSTORE RETURNDATASIZE DUP3 MSTORE RETURNDATASIZE PUSH0 PUSH1 0x20 DUP5 ADD RETURNDATACOPY PUSH2 0xCCD JUMP JUMPDEST PUSH1 0x60 SWAP2 POP JUMPDEST POP POP SWAP1 POP DUP1 PUSH2 0xD11 JUMPI PUSH1 0x40 MLOAD PUSH32 0x8C379A000000000000000000000000000000000000000000000000000000000 DUP2 MSTORE PUSH1 0x4 ADD PUSH2 0xD08 SWAP1 PUSH2 0x15F1 JUMP JUMPDEST PUSH1 0x40 MLOAD DUP1 SWAP2 SUB SWAP1 REVERT JUMPDEST DUP3 PUSH0 ADD PUSH0 SWAP1 SLOAD SWAP1 PUSH2 0x100 EXP SWAP1 DIV PUSH20 0xFFFFFFFFFFFFFFFFFFFFFFFFFFFFFFFFFFFFFFFF AND PUSH20 0xFFFFFFFFFFFFFFFFFFFFFFFFFFFFFFFFFFFFFFFF AND DUP5 PUSH32 0x3852D5EE76F8C7D023121D4B3993EED708ED188B4FEF90D13A41B4674D83AFB8 DUP5 PUSH1 0x40 MLOAD PUSH2 0xD7A SWAP2 SWAP1 PUSH2 0x160F JUMP JUMPDEST PUSH1 0x40 MLOAD DUP1 SWAP2 SUB SWAP1 LOG3 POP POP POP POP JUMP JUMPDEST PUSH0 PUSH0 DUP6 DUP6 SWAP1 POP EQ DUP1 PUSH2 0xD9C JUMPI POP PUSH0 DUP4 DUP4 SWAP1 POP EQ JUMPDEST DUP1 PUSH2 0xDA6 JUMPI POP PUSH0 CALLVALUE EQ JUMPDEST ISZERO PUSH2 0xDDD JUMPI PUSH1 0x40 MLOAD PUSH32 0xDA5D547300000000000000000000000000000000000000000000000000000000 DUP2 MSTORE PUSH1 0x4 ADD PUSH1 0x40 MLOAD DUP1 SWAP2 SUB SWAP1 REVERT JUMPDEST PUSH0 DUP1 SLOAD SWAP1 POP SWAP1 POP PUSH0 PUSH0 PUSH1 0x1 DUP2 PUSH1 0x1 DUP2 SLOAD ADD DUP1 DUP3 SSTORE DUP1 SWAP2 POP POP SUB SWAP1 PUSH0 MSTORE PUSH1 0x20 PUSH0 KECCAK256 SWAP1 PUSH1 0x4 MUL ADD SWAP1 POP CALLER DUP2 PUSH0 ADD PUSH0 PUSH2 0x100 EXP DUP2 SLOAD DUP2 PUSH20 0xFFFFFFFFFFFFFFFFFFFFFFFFFFFFFFFFFFFFFFFF MUL NOT AND SWAP1 DUP4 PUSH20 0xFFFFFFFFFFFFFFFFFFFFFFFFFFFFFFFFFFFFFFFF AND MUL OR SWAP1 SSTORE POP DUP6 DUP6 DUP3 PUSH1 0x1 ADD SWAP2 DUP3 PUSH2 0xE58 SWAP3 SWAP2 SWAP1 PUSH2 0x17FF JUMP JUMPDEST POP DUP4 DUP4 DUP3 PUSH1 0x2 ADD SWAP2 DUP3 PUSH2 0xE6C SWAP3 SWAP2 SWAP1 PUSH2 0x17FF JUMP JUMPDEST POP CALLVALUE DUP2 PUSH1 0x3 ADD PUSH0 PUSH2 0x100 EXP DUP2 SLOAD DUP2 PUSH16 0xFFFFFFFFFFFFFFFFFFFFFFFFFFFFFFFF MUL NOT AND SWAP1 DUP4 PUSH16 0xFFFFFFFFFFFFFFFFFFFFFFFFFFFFFFFF AND MUL OR SWAP1 SSTORE POP CALLER PUSH20 0xFFFFFFFFFFFFFFFFFFFFFFFFFFFFFFFFFFFFFFFF AND DUP3 PUSH32 0xC74B3803DF7BE5418E64A332BBF85DDEDB2ACBE729EAC5097345E28C5E25C091 DUP9 DUP9 DUP6 PUSH1 0x3 ADD PUSH0 SWAP1 SLOAD SWAP1 PUSH2 0x100 EXP SWAP1 DIV PUSH16 0xFFFFFFFFFFFFFFFFFFFFFFFFFFFFFFFF AND PUSH1 0x40 MLOAD PUSH2 0xF11 SWAP4 SWAP3 SWAP2 SWAP1 PUSH2 0x1906 JUMP JUMPDEST PUSH1 0x40 MLOAD DUP1 SWAP2 SUB SWAP1 LOG3 POP SWAP5 SWAP4 POP POP POP POP JUMP JUMPDEST PUSH1 0x1 PUSH1 0x20 MSTORE DUP2 PUSH0 MSTORE PUSH1 0x40 PUSH0 KECCAK256 PUSH1 0x20 MSTORE DUP1 PUSH0 MSTORE PUSH1 0x40 PUSH0 KECCAK256 PUSH0 SWAP2 POP SWAP2 POP SWAP1 SLOAD SWAP1 PUSH2 0x100 EXP SWAP1 DIV PUSH1 0xFF AND DUP2 JUMP JUMPDEST PUSH0 PUSH0 PUSH0 PUSH0 PUSH1 0x2 PUSH0 DUP7 DUP2 MSTORE PUSH1 0x20 ADD SWAP1 DUP2 MSTORE PUSH1 0x20 ADD PUSH0 KECCAK256 SWAP1 POP DUP1 PUSH0 ADD PUSH0 SWAP1 SLOAD SWAP1 PUSH2 0x100 EXP SWAP1 DIV PUSH1 0xFF AND DUP2 PUSH0 ADD PUSH1 0x1 SWAP1 SLOAD SWAP1 PUSH2 0x100 EXP SWAP1 DIV PUSH1 0xFF AND DUP3 PUSH0 ADD PUSH1 0x2 SWAP1 SLOAD SWAP1 PUSH2 0x100 EXP SWAP1 DIV PUSH20 0xFFFFFFFFFFFFFFFFFFFFFFFFFFFFFFFFFFFFFFFF AND SWAP4 POP SWAP4 POP SWAP4 POP POP SWAP2 SWAP4 SWAP1 SWAP3 POP JUMP JUMPDEST PUSH0 PUSH1 0x1 PUSH0 DUP5 DUP2 MSTORE PUSH1 0x20 ADD SWAP1 DUP2 MSTORE PUSH1 0x20 ADD PUSH0 KECCAK256 PUSH0 DUP4 PUSH20 0xFFFFFFFFFFFFFFFFFFFFFFFFFFFFFFFFFFFFFFFF AND PUSH20 0xFFFFFFFFFFFFFFFFFFFFFFFFFFFFFFFFFFFFFFFF AND DUP2 MSTORE PUSH1 0x20 ADD SWAP1 DUP2 MSTORE PUSH1 0x20 ADD PUSH0 KECCAK256 PUSH0 SWAP1 SLOAD SWAP1 PUSH2 0x100 EXP SWAP1 DIV PUSH1 0xFF AND SWAP1 POP SWAP3 SWAP2 POP POP JUMP JUMPDEST PUSH0 PUSH0 REVERT JUMPDEST PUSH0 PUSH0 REVERT JUMPDEST PUSH0 DUP2 SWAP1 POP SWAP2 SWAP1 POP JUMP JUMPDEST PUSH2 0x1032 DUP2 PUSH2 0x1020 JUMP JUMPDEST DUP2 EQ PUSH2 0x103C JUMPI PUSH0 PUSH0 REVERT JUMPDEST POP JUMP JUMPDEST PUSH0 DUP2 CALLDATALOAD SWAP1 POP PUSH2 0x104D DUP2 PUSH2 0x1029 JUMP JUMPDEST SWAP3 SWAP2 POP POP JUMP JUMPDEST PUSH0 PUSH1 0x20 DUP3 DUP5 SUB SLT ISZERO PUSH2 0x1068 JUMPI PUSH2 0x1067 PUSH2 0x1018 JUMP JUMPDEST JUMPDEST PUSH0 PUSH2 0x1075 DUP5 DUP3 DUP6 ADD PUSH2 0x103F JUMP JUMPDEST SWAP2 POP POP SWAP3 SWAP2 POP POP JUMP JUMPDEST PUSH0 PUSH20 0xFFFFFFFFFFFFFFFFFFFFFFFFFFFFFFFFFFFFFFFF DUP3 AND SWAP1 POP SWAP2 SWAP1 POP JUMP JUMPDEST PUSH0 PUSH2 0x10A7 DUP3 PUSH2 0x107E JUMP JUMPDEST SWAP1 POP SWAP2 SWAP1 POP JUMP JUMPDEST PUSH2 0x10B7 DUP2 PUSH2 0x109D JUMP JUMPDEST DUP3 MSTORE POP POP JUMP JUMPDEST PUSH0 DUP2 MLOAD SWAP1 POP SWAP2 SWAP1 POP JUMP JUMPDEST PUSH0 DUP3 DUP3 MSTORE PUSH1 0x20 DUP3 ADD SWAP1 POP SWAP3 SWAP2 POP POP JUMP JUMPDEST DUP3 DUP2 DUP4 MCOPY PUSH0 DUP4 DUP4 ADD MSTORE POP POP POP JUMP JUMPDEST PUSH0 PUSH1 0x1F NOT PUSH1 0x1F DUP4 ADD AND SWAP1 POP SWAP2 SWAP1 POP JUMP JUMPDEST PUSH0 PUSH2 0x10FF DUP3 PUSH2 0x10BD JUMP JUMPDEST PUSH2 0x1109 DUP2 DUP6 PUSH2 0x10C7 JUMP JUMPDEST SWAP4 POP PUSH2 0x1119 DUP2 DUP6 PUSH1 0x20 DUP7 ADD PUSH2 0x10D7 JUMP JUMPDEST PUSH2 0x1122 DUP2 PUSH2 0x10E5 JUMP JUMPDEST DUP5 ADD SWAP2 POP POP SWAP3 SWAP2 POP POP JUMP JUMPDEST PUSH0 PUSH16 0xFFFFFFFFFFFFFFFFFFFFFFFFFFFFFFFF DUP3 AND SWAP1 POP SWAP2 SWAP1 POP JUMP JUMPDEST PUSH2 0x1151 DUP2 PUSH2 0x112D JUMP JUMPDEST DUP3 MSTORE POP POP JUMP JUMPDEST PUSH0 PUSH8 0xFFFFFFFFFFFFFFFF DUP3 AND SWAP1 POP SWAP2 SWAP1 POP JUMP JUMPDEST PUSH2 0x1173 DUP2 PUSH2 0x1157 JUMP JUMPDEST DUP3 MSTORE POP POP JUMP JUMPDEST PUSH0 DUP2 ISZERO ISZERO SWAP1 POP SWAP2 SWAP1 POP JUMP JUMPDEST PUSH2 0x118D DUP2 PUSH2 0x1179 JUMP JUMPDEST DUP3 MSTORE POP POP JUMP JUMPDEST PUSH0 PUSH2 0x100 DUP3 ADD SWAP1 POP PUSH2 0x11A7 PUSH0 DUP4 ADD DUP12 PUSH2 0x10AE JUMP JUMPDEST DUP2 DUP2 SUB PUSH1 0x20 DUP4 ADD MSTORE PUSH2 0x11B9 DUP2 DUP11 PUSH2 0x10F5 JUMP JUMPDEST SWAP1 POP DUP2 DUP2 SUB PUSH1 0x40 DUP4 ADD MSTORE PUSH2 0x11CD DUP2 DUP10 PUSH2 0x10F5 JUMP JUMPDEST SWAP1 POP PUSH2 0x11DC PUSH1 0x60 DUP4 ADD DUP9 PUSH2 0x1148 JUMP JUMPDEST PUSH2 0x11E9 PUSH1 0x80 DUP4 ADD DUP8 PUSH2 0x116A JUMP JUMPDEST PUSH2 0x11F6 PUSH1 0xA0 DUP4 ADD DUP7 PUSH2 0x1184 JUMP JUMPDEST PUSH2 0x1203 PUSH1 0xC0 DUP4 ADD DUP6 PUSH2 0x1184 JUMP JUMPDEST PUSH2 0x1210 PUSH1 0xE0 DUP4 ADD DUP5 PUSH2 0x1184 JUMP JUMPDEST SWAP10 SWAP9 POP POP POP POP POP POP POP POP POP JUMP JUMPDEST PUSH0 PUSH1 0x20 DUP3 ADD SWAP1 POP PUSH2 0x1230 PUSH0 DUP4 ADD DUP5 PUSH2 0x116A JUMP JUMPDEST SWAP3 SWAP2 POP POP JUMP JUMPDEST PUSH2 0x123F DUP2 PUSH2 0x1179 JUMP JUMPDEST DUP2 EQ PUSH2 0x1249 JUMPI PUSH0 PUSH0 REVERT JUMPDEST POP JUMP JUMPDEST PUSH0 DUP2 CALLDATALOAD SWAP1 POP PUSH2 0x125A DUP2 PUSH2 0x1236 JUMP JUMPDEST SWAP3 SWAP2 POP POP JUMP JUMPDEST PUSH0 PUSH0 PUSH1 0x40 DUP4 DUP6 SUB SLT ISZERO PUSH2 0x1276 JUMPI PUSH2 0x1275 PUSH2 0x1018 JUMP JUMPDEST JUMPDEST PUSH0 PUSH2 0x1283 DUP6 DUP3 DUP7 ADD PUSH2 0x103F JUMP JUMPDEST SWAP3 POP POP PUSH1 0x20 PUSH2 0x1294 DUP6 DUP3 DUP7 ADD PUSH2 0x124C JUMP JUMPDEST SWAP2 POP POP SWAP3 POP SWAP3 SWAP1 POP JUMP JUMPDEST PUSH0 PUSH1 0x20 DUP3 ADD SWAP1 POP PUSH2 0x12B1 PUSH0 DUP4 ADD DUP5 PUSH2 0x10AE JUMP JUMPDEST SWAP3 SWAP2 POP POP JUMP JUMPDEST PUSH2 0x12C0 DUP2 PUSH2 0x1020 JUMP JUMPDEST DUP3 MSTORE POP POP JUMP JUMPDEST PUSH0 PUSH1 0x20 DUP3 ADD SWAP1 POP PUSH2 0x12D9 PUSH0 DUP4 ADD DUP5 PUSH2 0x12B7 JUMP JUMPDEST SWAP3 SWAP2 POP POP JUMP JUMPDEST PUSH0 PUSH0 REVERT JUMPDEST PUSH0 PUSH0 REVERT JUMPDEST PUSH0 PUSH0 REVERT JUMPDEST PUSH0 PUSH0 DUP4 PUSH1 0x1F DUP5 ADD SLT PUSH2 0x1300 JUMPI PUSH2 0x12FF PUSH2 0x12DF JUMP JUMPDEST JUMPDEST DUP3 CALLDATALOAD SWAP1 POP PUSH8 0xFFFFFFFFFFFFFFFF DUP2 GT ISZERO PUSH2 0x131D JUMPI PUSH2 0x131C PUSH2 0x12E3 JUMP JUMPDEST JUMPDEST PUSH1 0x20 DUP4 ADD SWAP2 POP DUP4 PUSH1 0x1 DUP3 MUL DUP4 ADD GT ISZERO PUSH2 0x1339 JUMPI PUSH2 0x1338 PUSH2 0x12E7 JUMP JUMPDEST JUMPDEST SWAP3 POP SWAP3 SWAP1 POP JUMP JUMPDEST PUSH0 PUSH0 PUSH0 PUSH0 PUSH1 0x40 DUP6 DUP8 SUB SLT ISZERO PUSH2 0x1358 JUMPI PUSH2 0x1357 PUSH2 0x1018 JUMP JUMPDEST JUMPDEST PUSH0 DUP6 ADD CALLDATALOAD PUSH8 0xFFFFFFFFFFFFFFFF DUP2 GT ISZERO PUSH2 0x1375 JUMPI PUSH2 0x1374 PUSH2 0x101C JUMP JUMPDEST JUMPDEST PUSH2 0x1381 DUP8 DUP3 DUP9 ADD PUSH2 0x12EB JUMP JUMPDEST SWAP5 POP SWAP5 POP POP PUSH1 0x20 DUP6 ADD CALLDATALOAD PUSH8 0xFFFFFFFFFFFFFFFF DUP2 GT ISZERO PUSH2 0x13A4 JUMPI PUSH2 0x13A3 PUSH2 0x101C JUMP JUMPDEST JUMPDEST PUSH2 0x13B0 DUP8 DUP3 DUP9 ADD PUSH2 0x12EB JUMP JUMPDEST SWAP3 POP SWAP3 POP POP SWAP3 SWAP6 SWAP2 SWAP5 POP SWAP3 POP JUMP JUMPDEST PUSH2 0x13C7 DUP2 PUSH2 0x109D JUMP JUMPDEST DUP2 EQ PUSH2 0x13D1 JUMPI PUSH0 PUSH0 REVERT JUMPDEST POP JUMP JUMPDEST PUSH0 DUP2 CALLDATALOAD SWAP1 POP PUSH2 0x13E2 DUP2 PUSH2 0x13BE JUMP JUMPDEST SWAP3 SWAP2 POP POP JUMP JUMPDEST PUSH0 PUSH0 PUSH1 0x40 DUP4 DUP6 SUB SLT ISZERO PUSH2 0x13FE JUMPI PUSH2 0x13FD PUSH2 0x1018 JUMP JUMPDEST JUMPDEST PUSH0 PUSH2 0x140B DUP6 DUP3 DUP7 ADD PUSH2 0x103F JUMP JUMPDEST SWAP3 POP POP PUSH1 0x20 PUSH2 0x141C DUP6 DUP3 DUP7 ADD PUSH2 0x13D4 JUMP JUMPDEST SWAP2 POP POP SWAP3 POP SWAP3 SWAP1 POP JUMP JUMPDEST PUSH0 PUSH1 0x20 DUP3 ADD SWAP1 POP PUSH2 0x1439 PUSH0 DUP4 ADD DUP5 PUSH2 0x1184 JUMP JUMPDEST SWAP3 SWAP2 POP POP JUMP JUMPDEST PUSH0 PUSH1 0x60 DUP3 ADD SWAP1 POP PUSH2 0x1452 PUSH0 DUP4 ADD DUP7 PUSH2 0x1184 JUMP JUMPDEST PUSH2 0x145F PUSH1 0x20 DUP4 ADD DUP6 PUSH2 0x1184 JUMP JUMPDEST PUSH2 0x146C PUSH1 0x40 DUP4 ADD DUP5 PUSH2 0x10AE JUMP JUMPDEST SWAP5 SWAP4 POP POP POP POP JUMP JUMPDEST PUSH32 0x4E487B7100000000000000000000000000000000000000000000000000000000 PUSH0 MSTORE PUSH1 0x32 PUSH1 0x4 MSTORE PUSH1 0x24 PUSH0 REVERT JUMPDEST PUSH32 0x4E487B7100000000000000000000000000000000000000000000000000000000 PUSH0 MSTORE PUSH1 0x22 PUSH1 0x4 MSTORE PUSH1 0x24 PUSH0 REVERT JUMPDEST PUSH0 PUSH1 0x2 DUP3 DIV SWAP1 POP PUSH1 0x1 DUP3 AND DUP1 PUSH2 0x14E5 JUMPI PUSH1 0x7F DUP3 AND SWAP2 POP JUMPDEST PUSH1 0x20 DUP3 LT DUP2 SUB PUSH2 0x14F8 JUMPI PUSH2 0x14F7 PUSH2 0x14A1 JUMP JUMPDEST JUMPDEST POP SWAP2 SWAP1 POP JUMP JUMPDEST PUSH32 0x4E487B7100000000000000000000000000000000000000000000000000000000 PUSH0 MSTORE PUSH1 0x11 PUSH1 0x4 MSTORE PUSH1 0x24 PUSH0 REVERT JUMPDEST PUSH0 PUSH2 0x1535 DUP3 PUSH2 0x1157 JUMP JUMPDEST SWAP2 POP PUSH2 0x1540 DUP4 PUSH2 0x1157 JUMP JUMPDEST SWAP3 POP DUP3 DUP3 ADD SWAP1 POP PUSH8 0xFFFFFFFFFFFFFFFF DUP2 GT ISZERO PUSH2 0x1560 JUMPI PUSH2 0x155F PUSH2 0x14FE JUMP JUMPDEST JUMPDEST SWAP3 SWAP2 POP POP JUMP JUMPDEST PUSH0 DUP2 SWAP1 POP SWAP3 SWAP2 POP POP JUMP JUMPDEST POP JUMP JUMPDEST PUSH0 PUSH2 0x157E PUSH0 DUP4 PUSH2 0x1566 JUMP JUMPDEST SWAP2 POP PUSH2 0x1589 DUP3 PUSH2 0x1570 JUMP JUMPDEST PUSH0 DUP3 ADD SWAP1 POP SWAP2 SWAP1 POP JUMP JUMPDEST PUSH0 PUSH2 0x159D DUP3 PUSH2 0x1573 JUMP JUMPDEST SWAP2 POP DUP2 SWAP1 POP SWAP2 SWAP1 POP JUMP JUMPDEST PUSH32 0x726566756E64206661696C656400000000000000000000000000000000000000 PUSH0 DUP3 ADD MSTORE POP JUMP JUMPDEST PUSH0 PUSH2 0x15DB PUSH1 0xD DUP4 PUSH2 0x10C7 JUMP JUMPDEST SWAP2 POP PUSH2 0x15E6 DUP3 PUSH2 0x15A7 JUMP JUMPDEST PUSH1 0x20 DUP3 ADD SWAP1 POP SWAP2 SWAP1 POP JUMP JUMPDEST PUSH0 PUSH1 0x20 DUP3 ADD SWAP1 POP DUP2 DUP2 SUB PUSH0 DUP4 ADD MSTORE PUSH2 0x1608 DUP2 PUSH2 0x15CF JUMP JUMPDEST SWAP1 POP SWAP2 SWAP1 POP JUMP JUMPDEST PUSH0 PUSH1 0x20 DUP3 ADD SWAP1 POP PUSH2 0x1622 PUSH0 DUP4 ADD DUP5 PUSH2 0x1148 JUMP JUMPDEST SWAP3 SWAP2 POP POP JUMP JUMPDEST PUSH0 DUP3 SWAP1 POP SWAP3 SWAP2 POP POP JUMP JUMPDEST PUSH32 0x4E487B7100000000000000000000000000000000000000000000000000000000 PUSH0 MSTORE PUSH1 0x41 PUSH1 0x4 MSTORE PUSH1 0x24 PUSH0 REVERT JUMPDEST PUSH0 DUP2 SWAP1 POP DUP2 PUSH0 MSTORE PUSH1 0x20 PUSH0 KECCAK256 SWAP1 POP SWAP2 SWAP1 POP JUMP JUMPDEST PUSH0 PUSH1 0x20 PUSH1 0x1F DUP4 ADD DIV SWAP1 POP SWAP2 SWAP1 POP JUMP JUMPDEST PUSH0 DUP3 DUP3 SHL SWAP1 POP SWAP3 SWAP2 POP POP JUMP JUMPDEST PUSH0 PUSH1 0x8 DUP4 MUL PUSH2 0x16BB PUSH32 0xFFFFFFFFFFFFFFFFFFFFFFFFFFFFFFFFFFFFFFFFFFFFFFFFFFFFFFFFFFFFFFFF DUP3 PUSH2 0x1680 JUMP JUMPDEST PUSH2 0x16C5 DUP7 DUP4 PUSH2 0x1680 JUMP JUMPDEST SWAP6 POP DUP1 NOT DUP5 AND SWAP4 POP DUP1 DUP7 AND DUP5 OR SWAP3 POP POP POP SWAP4 SWAP3 POP POP POP JUMP JUMPDEST PUSH0 DUP2 SWAP1 POP SWAP2 SWAP1 POP JUMP JUMPDEST PUSH0 PUSH2 0x1700 PUSH2 0x16FB PUSH2 0x16F6 DUP5 PUSH2 0x1020 JUMP JUMPDEST PUSH2 0x16DD JUMP JUMPDEST PUSH2 0x1020 JUMP JUMPDEST SWAP1 POP SWAP2 SWAP1 POP JUMP JUMPDEST PUSH0 DUP2 SWAP1 POP SWAP2 SWAP1 POP JUMP JUMPDEST PUSH2 0x1719 DUP4 PUSH2 0x16E6 JUMP JUMPDEST PUSH2 0x172D PUSH2 0x1725 DUP3 PUSH2 0x1707 JUMP JUMPDEST DUP5 DUP5 SLOAD PUSH2 0x168C JUMP JUMPDEST DUP3 SSTORE POP POP POP POP JUMP JUMPDEST PUSH0 PUSH0 SWAP1 POP SWAP1 JUMP JUMPDEST PUSH2 0x1744 PUSH2 0x1735 JUMP JUMPDEST PUSH2 0x174F DUP2 DUP5 DUP5 PUSH2 0x1710 JUMP JUMPDEST POP POP POP JUMP JUMPDEST JUMPDEST DUP2 DUP2 LT ISZERO PUSH2 0x1772 JUMPI PUSH2 0x1767 PUSH0 DUP3 PUSH2 0x173C JUMP JUMPDEST PUSH1 0x1 DUP2 ADD SWAP1 POP PUSH2 0x1755 JUMP JUMPDEST POP POP JUMP JUMPDEST PUSH1 0x1F DUP3 GT ISZERO PUSH2 0x17B7 JUMPI PUSH2 0x1788 DUP2 PUSH2 0x165F JUMP JUMPDEST PUSH2 0x1791 DUP5 PUSH2 0x1671 JUMP JUMPDEST DUP2 ADD PUSH1 0x20 DUP6 LT ISZERO PUSH2 0x17A0 JUMPI DUP2 SWAP1 POP JUMPDEST PUSH2 0x17B4 PUSH2 0x17AC DUP6 PUSH2 0x1671 JUMP JUMPDEST DUP4 ADD DUP3 PUSH2 0x1754 JUMP JUMPDEST POP POP JUMPDEST POP POP POP JUMP JUMPDEST PUSH0 DUP3 DUP3 SHR SWAP1 POP SWAP3 SWAP2 POP POP JUMP JUMPDEST PUSH0 PUSH2 0x17D7 PUSH0 NOT DUP5 PUSH1 0x8 MUL PUSH2 0x17BC JUMP JUMPDEST NOT DUP1 DUP4 AND SWAP2 POP POP SWAP3 SWAP2 POP POP JUMP JUMPDEST PUSH0 PUSH2 0x17EF DUP4 DUP4 PUSH2 0x17C8 JUMP JUMPDEST SWAP2 POP DUP3 PUSH1 0x2 MUL DUP3 OR SWAP1 POP SWAP3 SWAP2 POP POP JUMP JUMPDEST PUSH2 0x1809 DUP4 DUP4 PUSH2 0x1628 JUMP JUMPDEST PUSH8 0xFFFFFFFFFFFFFFFF DUP2 GT ISZERO PUSH2 0x1822 JUMPI PUSH2 0x1821 PUSH2 0x1632 JUMP JUMPDEST JUMPDEST PUSH2 0x182C DUP3 SLOAD PUSH2 0x14CE JUMP JUMPDEST PUSH2 0x1837 DUP3 DUP3 DUP6 PUSH2 0x1776 JUMP JUMPDEST PUSH0 PUSH1 0x1F DUP4 GT PUSH1 0x1 DUP2 EQ PUSH2 0x1864 JUMPI PUSH0 DUP5 ISZERO PUSH2 0x1852 JUMPI DUP3 DUP8 ADD CALLDATALOAD SWAP1 POP JUMPDEST PUSH2 0x185C DUP6 DUP3 PUSH2 0x17E4 JUMP JUMPDEST DUP7 SSTORE POP PUSH2 0x18C3 JUMP JUMPDEST PUSH1 0x1F NOT DUP5 AND PUSH2 0x1872 DUP7 PUSH2 0x165F JUMP JUMPDEST PUSH0 JUMPDEST DUP3 DUP2 LT ISZERO PUSH2 0x1899 JUMPI DUP5 DUP10 ADD CALLDATALOAD DUP3 SSTORE PUSH1 0x1 DUP3 ADD SWAP2 POP PUSH1 0x20 DUP6 ADD SWAP5 POP PUSH1 0x20 DUP2 ADD SWAP1 POP PUSH2 0x1874 JUMP JUMPDEST DUP7 DUP4 LT ISZERO PUSH2 0x18B6 JUMPI DUP5 DUP10 ADD CALLDATALOAD PUSH2 0x18B2 PUSH1 0x1F DUP10 AND DUP3 PUSH2 0x17C8 JUMP JUMPDEST DUP4 SSTORE POP JUMPDEST PUSH1 0x1 PUSH1 0x2 DUP9 MUL ADD DUP9 SSTORE POP POP POP JUMPDEST POP POP POP POP POP POP POP JUMP JUMPDEST DUP3 DUP2 DUP4 CALLDATACOPY PUSH0 DUP4 DUP4 ADD MSTORE POP POP POP JUMP JUMPDEST PUSH0 PUSH2 0x18E5 DUP4 DUP6 PUSH2 0x10C7 JUMP JUMPDEST SWAP4 POP PUSH2 0x18F2 DUP4 DUP6 DUP5 PUSH2 0x18CC JUMP JUMPDEST PUSH2 0x18FB DUP4 PUSH2 0x10E5 JUMP JUMPDEST DUP5 ADD SWAP1 POP SWAP4 SWAP3 POP POP POP JUMP JUMPDEST PUSH0 PUSH1 0x40 DUP3 ADD SWAP1 POP DUP2 DUP2 SUB PUSH0 DUP4 ADD MSTORE PUSH2 0x191F DUP2 DUP6 DUP8 PUSH2 0x18DA JUMP JUMPDEST SWAP1 POP PUSH2 0x192E PUSH1 0x20 DUP4 ADD DUP5 PUSH2 0x1148 JUMP JUMPDEST SWAP5 SWAP4 POP POP POP POP JUMP INVALID LOG2 PUSH5 0x6970667358 0x22 SLT KECCAK256 0xF 0xA9 0x2C 0xD3 0xD4 DUP2 PUSH25 0x32E7CB6107FB22DEEE1AD3F922777AA4BC91AEBF82990BA935 PUSH5 0x736F6C6343 STOP ADDMOD 0x1E STOP CALLER "
				},
				"gasEstimates": {
					"creation": {
						"codeDepositCost": "1301600",
						"executionCost": "infinite",
						"totalCost": "infinite"
					},
					"external": {
						"MIN_SIGNATURES()": "354",
						"claim(uint256)": "infinite",
						"createPetition(string,string)": "infinite",
						"decide(uint256,bool)": "infinite",
						"decision(uint256)": "infinite",
						"getPetition(uint256)": "infinite",
						"government()": "infinite",
						"hasSigned(uint256,address)": "3136",
						"hasSignedPetition(uint256,address)": "3226",
						"petitionsCount()": "2439",
						"sign(uint256)": "infinite"
					}
				},
				"methodIdentifiers": {
					"MIN_SIGNATURES()": "1a179692",
					"claim(uint256)": "379607f5",
					"createPetition(string,string)": "41a51d13",
					"decide(uint256,bool)": "224f3d1a",
					"decision(uint256)": "a83a475c",
					"getPetition(uint256)": "0c90ce42",
					"government()": "2672f526",
					"hasSigned(uint256,address)": "709df8d9",
					"hasSignedPetition(uint256,address)": "be7af16b",
					"petitionsCount()": "35f75e16",
					"sign(uint256)": "2fb1b25f"
				}
			},
			"storageLayout": {
				"storage": [
					{
						"astId": 48,
						"contract": "remix/social.sol:PollHub",
						"label": "_petitions",
						"offset": 0,
						"slot": "0",
						"type": "t_array(t_struct(Petition)37_storage)dyn_storage"
					},
					{
						"astId": 54,
						"contract": "remix/social.sol:PollHub",
						"label": "hasSigned",
						"offset": 0,
						"slot": "1",
						"type": "t_mapping(t_uint256,t_mapping(t_address,t_bool))"
					},
					{
						"astId": 59,
						"contract": "remix/social.sol:PollHub",
						"label": "_govDecisions",
						"offset": 0,
						"slot": "2",
						"type": "t_mapping(t_uint256,t_struct(GovDecision)44_storage)"
					}
				],
				"types": {
					"t_address": {
						"encoding": "inplace",
						"label": "address",
						"numberOfBytes": "20"
					},
					"t_array(t_struct(Petition)37_storage)dyn_storage": {
						"base": "t_struct(Petition)37_storage",
						"encoding": "dynamic_array",
						"label": "struct PollHub.Petition[]",
						"numberOfBytes": "32"
					},
					"t_bool": {
						"encoding": "inplace",
						"label": "bool",
						"numberOfBytes": "1"
					},
					"t_mapping(t_address,t_bool)": {
						"encoding": "mapping",
						"key": "t_address",
						"label": "mapping(address => bool)",
						"numberOfBytes": "32",
						"value": "t_bool"
					},
					"t_mapping(t_uint256,t_mapping(t_address,t_bool))": {
						"encoding": "mapping",
						"key": "t_uint256",
						"label": "mapping(uint256 => mapping(address => bool))",
						"numberOfBytes": "32",
						"value": "t_mapping(t_address,t_bool)"
					},
					"t_mapping(t_uint256,t_struct(GovDecision)44_storage)": {
						"encoding": "mapping",
						"key": "t_uint256",
						"label": "mapping(uint256 => struct PollHub.GovDecision)",
						"numberOfBytes": "32",
						"value": "t_struct(GovDecision)44_storage"
					},
					"t_string_storage": {
						"encoding": "bytes",
						"label": "string",
						"numberOfBytes": "32"
					},
					"t_struct(GovDecision)44_storage": {
						"encoding": "inplace",
						"label": "struct PollHub.GovDecision",
						"members": [
							{
								"astId": 39,
								"contract": "remix/social.sol:PollHub",
								"label": "decided",
								"offset": 0,
								"slot": "0",
								"type": "t_bool"
							},
							{
								"astId": 41,
								"contract": "remix/social.sol:PollHub",
								"label": "approved",
								"offset": 1,
								"slot": "0",
								"type": "t_bool"
							},
							{
								"astId": 43,
								"contract": "remix/social.sol:PollHub",
								"label": "by",
								"offset": 2,
								"slot": "0",
								"type": "t_address"
							}
						],
						"numberOfBytes": "32"
					},
					"t_struct(Petition)37_storage": {
						"encoding": "inplace",
						"label": "struct PollHub.Petition",
						"members": [
							{
								"astId": 22,
								"contract": "remix/social.sol:PollHub",
								"label": "creator",
								"offset": 0,
								"slot": "0",
								"type": "t_address"
							},
							{
								"astId": 24,
								"contract": "remix/social.sol:PollHub",
								"label": "title",
								"offset": 0,
								"slot": "1",
								"type": "t_string_storage"
							},
							{
								"astId": 26,
								"contract": "remix/social.sol:PollHub",
								"label": "description",
								"offset": 0,
								"slot": "2",
								"type": "t_string_storage"
							},
							{
								"astId": 28,
								"contract": "remix/social.sol:PollHub",
								"label": "stake",
								"offset": 0,
								"slot": "3",
								"type": "t_uint128"
							},
							{
								"astId": 30,
								"contract": "remix/social.sol:PollHub",
								"label": "signatureCount",
								"offset": 16,
								"slot": "3",
								"type": "t_uint64"
							},
							{
								"astId": 32,
								"contract": "remix/social.sol:PollHub",
								"label": "approved",
								"offset": 24,
								"slot": "3",
								"type": "t_bool"
							},
							{
								"astId": 34,
								"contract": "remix/social.sol:PollHub",
								"label": "decided",
								"offset": 25,
								"slot": "3",
								"type": "t_bool"
							},
							{
								"astId": 36,
								"contract": "remix/social.sol:PollHub",
								"label": "claimed",
								"offset": 26,
								"slot": "3",
								"type": "t_bool"
							}
						],
						"numberOfBytes": "128"
					},
					"t_uint128": {
						"encoding": "inplace",
						"label": "uint128",
						"numberOfBytes": "16"
					},
					"t_uint256": {
						"encoding": "inplace",
						"label": "uint256",
						"numberOfBytes": "32"
					},
					"t_uint64": {
						"encoding": "inplace",
						"label": "uint64",
						"numberOfBytes": "8"
					}
				}
			},
			"userdoc": {
				"kind": "user",
				"methods": {
					"claim(uint256)": {
						"notice": "Il creatore riprende la cauzione SE approvata dal governo."
					},
					"createPetition(string,string)": {
						"notice": "Crea una raccolta firme depositando la cauzione (msg.value)."
					},
					"decide(uint256,bool)": {
						"notice": "Il GOVERNO (deployer) approva o respinge una raccolta che ha raggiunto         MIN_SIGNATURES. Può cambiare idea (l'ultima decide) finché non è reclamata."
					},
					"sign(uint256)": {
						"notice": "Firma una raccolta (una sola volta per indirizzo)."
					}
				},
				"version": 1
			}
		}
	}
}