{
	"data": {
		"bytecode": {
			"linkReferences": {},
			"object": "60a060405234801561000f575f5ffd5b506040516120b43803806120b4833981810160405281019061003191906100da565b8073ffffffffffffffffffffffffffffffffffffffff1660808173ffffffffffffffffffffffffffffffffffffffff168152505050610105565b5f5ffd5b5f73ffffffffffffffffffffffffffffffffffffffff82169050919050565b5f6100988261006f565b9050919050565b5f6100a98261008e565b9050919050565b6100b98161009f565b81146100c3575f5ffd5b50565b5f815190506100d4816100b0565b92915050565b5f602082840312156100ef576100ee61006b565b5b5f6100fc848285016100c6565b91505092915050565b608051611f906101245f395f8181610e4f01526111390152611f905ff3fe6080604052600436106100c0575f3560e01c8063438596321161007e578063a994888b11610058578063a994888b14610290578063c9ca51ea146102b8578063e73f3e5d146102f4578063f887ea4014610333576100c0565b806343859632146101f057806368bb8bb61461022c57806399d5fca214610254576100c0565b8062f63722146100c457806306736946146100f4578063179d760d1461011e5780631a8cbcaa146101485780632deddb661461018a578063379607f5146101c8575b5f5ffd5b6100de60048036038101906100d991906113c2565b61035d565b6040516100eb9190611458565b60405180910390f35b3480156100ff575f5ffd5b506101086104f8565b6040516101159190611493565b60405180910390f35b348015610129575f5ffd5b506101326104fd565b60405161013f9190611458565b60405180910390f35b348015610153575f5ffd5b5061016e600480360381019061016991906114d6565b610508565b60405161018197969594939291906116b4565b60405180910390f35b348015610195575f5ffd5b506101b060048036038101906101ab91906114d6565b6106ae565b6040516101bf9392919061172f565b60405180910390f35b3480156101d3575f5ffd5b506101ee60048036038101906101e991906114d6565b610718565b005b3480156101fb575f5ffd5b506102166004803603810190610211919061178e565b6109e5565b60405161022391906117cc565b60405180910390f35b348015610237575f5ffd5b50610252600480360381019061024d919061180f565b610a0f565b005b34801561025f575f5ffd5b5061027a6004803603810190610275919061180f565b610d7a565b6040516102879190611458565b60405180910390f35b34801561029b575f5ffd5b506102b660048036038101906102b19190611877565b610da4565b005b3480156102c3575f5ffd5b506102de60048036038101906102d9919061180f565b6110a2565b6040516102eb9190611458565b60405180910390f35b3480156102ff575f5ffd5b5061031a600480360381019061031591906114d6565b6110c2565b60405161032a94939291906118b5565b60405180910390f35b34801561033e575f5ffd5b50610347611137565b6040516103549190611953565b60405180910390f35b5f600283839050108061036f57505f34145b8061037c57505f85859050145b156103b3576040517fda5d547300000000000000000000000000000000000000000000000000000000815260040160405180910390fd5b5f8054905090505f5f60018160018154018082558091505003905f5260205f209060040201905033815f015f6101000a81548173ffffffffffffffffffffffffffffffffffffffff021916908373ffffffffffffffffffffffffffffffffffffffff160217905550858582600101918261042e929190611b97565b50838382600201919061044292919061129e565b5034816003015f6101000a8154816fffffffffffffffffffffffffffffffff02191690836fffffffffffffffffffffffffffffffff1602179055503373ffffffffffffffffffffffffffffffffffffffff16827fe8f161669df91e2cf70752c07ce6888c7b96ced4254e2ef929bbf8ab98b5293f8888856003015f9054906101000a90046fffffffffffffffffffffffffffffffff166040516104e793929190611c9e565b60405180910390a350949350505050565b600581565b5f5f80549050905090565b5f6060805f5f5f5f5f5f898154811061052457610523611cce565b5b905f5260205f2090600402019050805f015f9054906101000a900473ffffffffffffffffffffffffffffffffffffffff168160010182600201836003015f9054906101000a90046fffffffffffffffffffffffffffffffff168460030160109054906101000a900467ffffffffffffffff168560030160189054906101000a900460ff168660030160199054906101000a900460ff168580546105c6906119d0565b80601f01602080910402602001604051908101604052809291908181526020018280546105f2906119d0565b801561063d5780601f106106145761010080835404028352916020019161063d565b820191905f5260205f20905b81548152906001019060200180831161062057829003601f168201915b505050505095508480548060200260200160405190810160405280929190818152602001828054801561068d57602002820191905f5260205f20905b815481526020019060010190808311610679575b50505050509450975097509750975097509750975050919395979092949650565b5f5f5f5f60035f8681526020019081526020015f209050805f015f9054906101000a900460ff16815f0160019054906101000a900460ff16825f0160029054906101000a900473ffffffffffffffffffffffffffffffffffffffff16935093509350509193909250565b5f5f828154811061072c5761072b611cce565b5b905f5260205f2090600402019050805f015f9054906101000a900473ffffffffffffffffffffffffffffffffffffffff1673ffffffffffffffffffffffffffffffffffffffff163373ffffffffffffffffffffffffffffffffffffffff16146107c1576040517f93687c0b00000000000000000000000000000000000000000000000000000000815260040160405180910390fd5b8060030160189054906101000a900460ff16610809576040517fc906a36e00000000000000000000000000000000000000000000000000000000815260040160405180910390fd5b8060030160199054906101000a900460ff1615610852576040517f646cf55800000000000000000000000000000000000000000000000000000000815260040160405180910390fd5b60018160030160196101000a81548160ff0219169083151502179055505f816003015f9054906101000a90046fffffffffffffffffffffffffffffffff1690505f825f015f9054906101000a900473ffffffffffffffffffffffffffffffffffffffff1673ffffffffffffffffffffffffffffffffffffffff16826fffffffffffffffffffffffffffffffff166040516108eb90611d28565b5f6040518083038185875af1925050503d805f8114610925576040519150601f19603f3d011682016040523d82523d5f602084013e61092a565b606091505b505090508061096e576040517f08c379a000000000000000000000000000000000000000000000000000000000815260040161096590611d86565b60405180910390fd5b825f015f9054906101000a900473ffffffffffffffffffffffffffffffffffffffff1673ffffffffffffffffffffffffffffffffffffffff16847f3852d5ee76f8c7d023121d4b3993eed708ed188b4fef90d13a41b4674d83afb8846040516109d79190611da4565b60405180910390a350505050565b6002602052815f5260405f20602052805f5260405f205f915091509054906101000a900460ff1681565b5f5f8381548110610a2357610a22611cce565b5b905f5260205f20906004020190505f73ffffffffffffffffffffffffffffffffffffffff16815f015f9054906101000a900473ffffffffffffffffffffffffffffffffffffffff1673ffffffffffffffffffffffffffffffffffffffff1603610ab8576040517fda5d547300000000000000000000000000000000000000000000000000000000815260040160405180910390fd5b60025f8481526020019081526020015f205f3373ffffffffffffffffffffffffffffffffffffffff1673ffffffffffffffffffffffffffffffffffffffff1681526020019081526020015f205f9054906101000a900460ff1615610b48576040517f7c9a1cf900000000000000000000000000000000000000000000000000000000815260040160405180910390fd5b610b52818361115b565b610b88576040517f05df92e600000000000000000000000000000000000000000000000000000000815260040160405180910390fd5b600160025f8581526020019081526020015f205f3373ffffffffffffffffffffffffffffffffffffffff1673ffffffffffffffffffffffffffffffffffffffff1681526020019081526020015f205f6101000a81548160ff0219169083151502179055506001805f8581526020019081526020015f205f8481526020019081526020015f205f828254610c1b9190611dea565b9250508190555060018160030160108282829054906101000a900467ffffffffffffffff16610c4a9190611e1d565b92506101000a81548167ffffffffffffffff021916908367ffffffffffffffff1602179055503373ffffffffffffffffffffffffffffffffffffffff16837f691b499aa832c2228608b4b4754ccd83f30b8d9356d38f0100ad041ebe541f83848460030160109054906101000a900467ffffffffffffffff16604051610cd1929190611e67565b60405180910390a38060030160189054906101000a900460ff16610d75575f5f610cfb85846111b2565b91509150610d2282828560030160109054906101000a900467ffffffffffffffff1661123a565b15610d725760018360030160186101000a81548160ff021916908315150217905550847fef4f46a31773908e63b633cd170845d689da51c425c47107d3d6bf130ab1b76760405160405180910390a25b50505b505050565b5f60015f8481526020019081526020015f205f8381526020019081526020015f2054905092915050565b5f5f8381548110610db857610db7611cce565b5b905f5260205f20906004020190505f73ffffffffffffffffffffffffffffffffffffffff16815f015f9054906101000a900473ffffffffffffffffffffffffffffffffffffffff1673ffffffffffffffffffffffffffffffffffffffff1603610e4d576040517fda5d547300000000000000000000000000000000000000000000000000000000815260040160405180910390fd5b7f000000000000000000000000000000000000000000000000000000000000000073ffffffffffffffffffffffffffffffffffffffff16632330f247336040518263ffffffff1660e01b8152600401610ea69190611e8e565b602060405180830381865afa158015610ec1573d5f5f3e3d5ffd5b505050506040513d601f19601f82011682018060405250810190610ee59190611ebb565b610f1b576040517f1ccc6f2700000000000000000000000000000000000000000000000000000000815260040160405180910390fd5b600567ffffffffffffffff168160030160109054906101000a900467ffffffffffffffff1667ffffffffffffffff161015610f82576040517fd79fa57000000000000000000000000000000000000000000000000000000000815260040160405180910390fd5b604051806060016040528060011515815260200183151581526020013373ffffffffffffffffffffffffffffffffffffffff1681525060035f8581526020019081526020015f205f820151815f015f6101000a81548160ff0219169083151502179055506020820151815f0160016101000a81548160ff0219169083151502179055506040820151815f0160026101000a81548173ffffffffffffffffffffffffffffffffffffffff021916908373ffffffffffffffffffffffffffffffffffffffff1602179055509050503373ffffffffffffffffffffffffffffffffffffffff16837f1b2f78b4b82a0f1d6e611809550e4e977305abe65442cbaac3ddee1a9467e2888460405161109591906117cc565b60405180910390a3505050565b6001602052815f5260405f20602052805f5260405f205f91509150505481565b5f5f5f5f5f5f86815481106110da576110d9611cce565b5b905f5260205f20906004020190506110f286826111b2565b809550819650505084848260030160109054906101000a900467ffffffffffffffff168360030160189054906101000a900460ff169450945094509450509193509193565b7f000000000000000000000000000000000000000000000000000000000000000081565b5f5f5b83600201805490508110156111a7578284600201828154811061118457611183611cce565b5b905f5260205f2001540361119c5760019150506111ac565b80600101905061115e565b505f90505b92915050565b5f5f5f5b8360020180549050811015611232575f60015f8781526020019081526020015f205f8660020184815481106111ee576111ed611cce565b5b905f5260205f20015481526020019081526020015f2054905083811061121957839250809350611226565b82811115611225578092505b5b508060010190506111b6565b509250929050565b5f600567ffffffffffffffff168267ffffffffffffffff161015611260575f9050611297565b5f838561126d9190611ee6565b90508267ffffffffffffffff1660046112869190611f19565b81826112929190611f19565b119150505b9392505050565b828054828255905f5260205f209081019282156112d8579160200282015b828111156112d75782358255916020019190600101906112bc565b5b5090506112e591906112e9565b5090565b5b80821115611300575f815f9055506001016112ea565b5090565b5f5ffd5b5f5ffd5b5f5ffd5b5f5ffd5b5f5ffd5b5f5f83601f84011261132d5761132c61130c565b5b8235905067ffffffffffffffff81111561134a57611349611310565b5b60208301915083600182028301111561136657611365611314565b5b9250929050565b5f5f83601f8401126113825761138161130c565b5b8235905067ffffffffffffffff81111561139f5761139e611310565b5b6020830191508360208202830111156113bb576113ba611314565b5b9250929050565b5f5f5f5f604085870312156113da576113d9611304565b5b5f85013567ffffffffffffffff8111156113f7576113f6611308565b5b61140387828801611318565b9450945050602085013567ffffffffffffffff81111561142657611425611308565b5b6114328782880161136d565b925092505092959194509250565b5f819050919050565b61145281611440565b82525050565b5f60208201905061146b5f830184611449565b92915050565b5f67ffffffffffffffff82169050919050565b61148d81611471565b82525050565b5f6020820190506114a65f830184611484565b92915050565b6114b581611440565b81146114bf575f5ffd5b50565b5f813590506114d0816114ac565b92915050565b5f602082840312156114eb576114ea611304565b5b5f6114f8848285016114c2565b91505092915050565b5f73ffffffffffffffffffffffffffffffffffffffff82169050919050565b5f61152a82611501565b9050919050565b61153a81611520565b82525050565b5f81519050919050565b5f82825260208201905092915050565b8281835e5f83830152505050565b5f601f19601f8301169050919050565b5f61158282611540565b61158c818561154a565b935061159c81856020860161155a565b6115a581611568565b840191505092915050565b5f81519050919050565b5f82825260208201905092915050565b5f819050602082019050919050565b5f819050919050565b6115eb816115d9565b82525050565b5f6115fc83836115e2565b60208301905092915050565b5f602082019050919050565b5f61161e826115b0565b61162881856115ba565b9350611633836115ca565b805f5b8381101561166357815161164a88826115f1565b975061165583611608565b925050600181019050611636565b5085935050505092915050565b5f6fffffffffffffffffffffffffffffffff82169050919050565b61169481611670565b82525050565b5f8115159050919050565b6116ae8161169a565b82525050565b5f60e0820190506116c75f83018a611531565b81810360208301526116d98189611578565b905081810360408301526116ed8188611614565b90506116fc606083018761168b565b6117096080830186611484565b61171660a08301856116a5565b61172360c08301846116a5565b98975050505050505050565b5f6060820190506117425f8301866116a5565b61174f60208301856116a5565b61175c6040830184611531565b949350505050565b61176d81611520565b8114611777575f5ffd5b50565b5f8135905061178881611764565b92915050565b5f5f604083850312156117a4576117a3611304565b5b5f6117b1858286016114c2565b92505060206117c28582860161177a565b9150509250929050565b5f6020820190506117df5f8301846116a5565b92915050565b6117ee816115d9565b81146117f8575f5ffd5b50565b5f81359050611809816117e5565b92915050565b5f5f6040838503121561182557611824611304565b5b5f611832858286016114c2565b9250506020611843858286016117fb565b9150509250929050565b6118568161169a565b8114611860575f5ffd5b50565b5f813590506118718161184d565b92915050565b5f5f6040838503121561188d5761188c611304565b5b5f61189a858286016114c2565b92505060206118ab85828601611863565b9150509250929050565b5f6080820190506118c85f830187611449565b6118d56020830186611449565b6118e26040830185611484565b6118ef60608301846116a5565b95945050505050565b5f819050919050565b5f61191b61191661191184611501565b6118f8565b611501565b9050919050565b5f61192c82611901565b9050919050565b5f61193d82611922565b9050919050565b61194d81611933565b82525050565b5f6020820190506119665f830184611944565b92915050565b5f82905092915050565b7f4e487b71000000000000000000000000000000000000000000000000000000005f52604160045260245ffd5b7f4e487b71000000000000000000000000000000000000000000000000000000005f52602260045260245ffd5b5f60028204905060018216806119e757607f821691505b6020821081036119fa576119f96119a3565b5b50919050565b5f819050815f5260205f209050919050565b5f6020601f8301049050919050565b5f82821b905092915050565b5f60088302611a5c7fffffffffffffffffffffffffffffffffffffffffffffffffffffffffffffffff82611a21565b611a668683611a21565b95508019841693508086168417925050509392505050565b5f611a98611a93611a8e84611440565b6118f8565b611440565b9050919050565b5f819050919050565b611ab183611a7e565b611ac5611abd82611a9f565b848454611a2d565b825550505050565b5f5f905090565b611adc611acd565b611ae7818484611aa8565b505050565b5b81811015611b0a57611aff5f82611ad4565b600181019050611aed565b5050565b601f821115611b4f57611b2081611a00565b611b2984611a12565b81016020851015611b38578190505b611b4c611b4485611a12565b830182611aec565b50505b505050565b5f82821c905092915050565b5f611b6f5f1984600802611b54565b1980831691505092915050565b5f611b878383611b60565b9150826002028217905092915050565b611ba1838361196c565b67ffffffffffffffff811115611bba57611bb9611976565b5b611bc482546119d0565b611bcf828285611b0e565b5f601f831160018114611bfc575f8415611bea578287013590505b611bf48582611b7c565b865550611c5b565b601f198416611c0a86611a00565b5f5b82811015611c3157848901358255600182019150602085019450602081019050611c0c565b86831015611c4e5784890135611c4a601f891682611b60565b8355505b6001600288020188555050505b50505050505050565b828183375f83830152505050565b5f611c7d838561154a565b9350611c8a838584611c64565b611c9383611568565b840190509392505050565b5f6040820190508181035f830152611cb7818587611c72565b9050611cc6602083018461168b565b949350505050565b7f4e487b71000000000000000000000000000000000000000000000000000000005f52603260045260245ffd5b5f81905092915050565b50565b5f611d135f83611cfb565b9150611d1e82611d05565b5f82019050919050565b5f611d3282611d08565b9150819050919050565b7f726566756e64206661696c6564000000000000000000000000000000000000005f82015250565b5f611d70600d8361154a565b9150611d7b82611d3c565b602082019050919050565b5f6020820190508181035f830152611d9d81611d64565b9050919050565b5f602082019050611db75f83018461168b565b92915050565b7f4e487b71000000000000000000000000000000000000000000000000000000005f52601160045260245ffd5b5f611df482611440565b9150611dff83611440565b9250828201905080821115611e1757611e16611dbd565b5b92915050565b5f611e2782611471565b9150611e3283611471565b9250828201905067ffffffffffffffff811115611e5257611e51611dbd565b5b92915050565b611e61816115d9565b82525050565b5f604082019050611e7a5f830185611e58565b611e876020830184611484565b9392505050565b5f602082019050611ea15f830184611531565b92915050565b5f81519050611eb58161184d565b92915050565b5f60208284031215611ed057611ecf611304565b5b5f611edd84828501611ea7565b91505092915050565b5f611ef082611440565b9150611efb83611440565b9250828203905081811115611f1357611f12611dbd565b5b92915050565b5f611f2382611440565b9150611f2e83611440565b9250828202611f3c81611440565b91508282048414831517611f5357611f52611dbd565b5b509291505056fea2646970667358221220d4d4864fb795fd1ff5d1e388611389cfcf9e43ff923eb9cca8a29df4dc7be5d064736f6c634300081e0033",
			"opcodes": "PUSH1 0xA0 PUSH1 0x40 MSTORE CALLVALUE DUP1 ISZERO PUSH2 0xF JUMPI PUSH0 PUSH0 REVERT JUMPDEST POP PUSH1 0x40 MLOAD PUSH2 0x20B4 CODESIZE SUB DUP1 PUSH2 0x20B4 DUP4 CODECOPY DUP2 DUP2 ADD PUSH1 0x40 MSTORE DUP2 ADD SWAP1 PUSH2 0x31 SWAP2 SWAP1 PUSH2 0xDA JUMP JUMPDEST DUP1 PUSH20 0xFFFFFFFFFFFFFFFFFFFFFFFFFFFFFFFFFFFFFFFF AND PUSH1 0x80 DUP2 PUSH20 0xFFFFFFFFFFFFFFFFFFFFFFFFFFFFFFFFFFFFFFFF AND DUP2 MSTORE POP POP POP PUSH2 0x105 JUMP JUMPDEST PUSH0 PUSH0 REVERT JUMPDEST PUSH0 PUSH20 0xFFFFFFFFFFFFFFFFFFFFFFFFFFFFFFFFFFFFFFFF DUP3 AND SWAP1 POP SWAP2 SWAP1 POP JUMP JUMPDEST PUSH0 PUSH2 0x98 DUP3 PUSH2 0x6F JUMP JUMPDEST SWAP1 POP SWAP2 SWAP1 POP JUMP JUMPDEST PUSH0 PUSH2 0xA9 DUP3 PUSH2 0x8E JUMP JUMPDEST SWAP1 POP SWAP2 SWAP1 POP JUMP JUMPDEST PUSH2 0xB9 DUP2 PUSH2 0x9F JUMP JUMPDEST DUP2 EQ PUSH2 0xC3 JUMPI PUSH0 PUSH0 REVERT JUMPDEST POP JUMP JUMPDEST PUSH0 DUP2 MLOAD SWAP1 POP PUSH2 0xD4 DUP2 PUSH2 0xB0 JUMP JUMPDEST SWAP3 SWAP2 POP POP JUMP JUMPDEST PUSH0 PUSH1 0x20 DUP3 DUP5 SUB SLT ISZERO PUSH2 0xEF JUMPI PUSH2 0xEE PUSH2 0x6B JUMP JUMPDEST JUMPDEST PUSH0 PUSH2 0xFC DUP5 DUP3 DUP6 ADD PUSH2 0xC6 JUMP JUMPDEST SWAP2 POP POP SWAP3 SWAP2 POP POP JUMP JUMPDEST PUSH1 0x80 MLOAD PUSH2 0x1F90 PUSH2 0x124 PUSH0 CODECOPY PUSH0 DUP2 DUP2 PUSH2 0xE4F ADD MSTORE PUSH2 0x1139 ADD MSTORE PUSH2 0x1F90 PUSH0 RETURN INVALID PUSH1 0x80 PUSH1 0x40 MSTORE PUSH1 0x4 CALLDATASIZE LT PUSH2 0xC0 JUMPI PUSH0 CALLDATALOAD PUSH1 0xE0 SHR DUP1 PUSH4 0x43859632 GT PUSH2 0x7E JUMPI DUP1 PUSH4 0xA994888B GT PUSH2 0x58 JUMPI DUP1 PUSH4 0xA994888B EQ PUSH2 0x290 JUMPI DUP1 PUSH4 0xC9CA51EA EQ PUSH2 0x2B8 JUMPI DUP1 PUSH4 0xE73F3E5D EQ PUSH2 0x2F4 JUMPI DUP1 PUSH4 0xF887EA40 EQ PUSH2 0x333 JUMPI PUSH2 0xC0 JUMP JUMPDEST DUP1 PUSH4 0x43859632 EQ PUSH2 0x1F0 JUMPI DUP1 PUSH4 0x68BB8BB6 EQ PUSH2 0x22C JUMPI DUP1 PUSH4 0x99D5FCA2 EQ PUSH2 0x254 JUMPI PUSH2 0xC0 JUMP JUMPDEST DUP1 PUSH3 0xF63722 EQ PUSH2 0xC4 JUMPI DUP1 PUSH4 0x6736946 EQ PUSH2 0xF4 JUMPI DUP1 PUSH4 0x179D760D EQ PUSH2 0x11E JUMPI DUP1 PUSH4 0x1A8CBCAA EQ PUSH2 0x148 JUMPI DUP1 PUSH4 0x2DEDDB66 EQ PUSH2 0x18A JUMPI DUP1 PUSH4 0x379607F5 EQ PUSH2 0x1C8 JUMPI JUMPDEST PUSH0 PUSH0 REVERT JUMPDEST PUSH2 0xDE PUSH1 0x4 DUP1 CALLDATASIZE SUB DUP2 ADD SWAP1 PUSH2 0xD9 SWAP2 SWAP1 PUSH2 0x13C2 JUMP JUMPDEST PUSH2 0x35D JUMP JUMPDEST PUSH1 0x40 MLOAD PUSH2 0xEB SWAP2 SWAP1 PUSH2 0x1458 JUMP JUMPDEST PUSH1 0x40 MLOAD DUP1 SWAP2 SUB SWAP1 RETURN JUMPDEST CALLVALUE DUP1 ISZERO PUSH2 0xFF JUMPI PUSH0 PUSH0 REVERT JUMPDEST POP PUSH2 0x108 PUSH2 0x4F8 JUMP JUMPDEST PUSH1 0x40 MLOAD PUSH2 0x115 SWAP2 SWAP1 PUSH2 0x1493 JUMP JUMPDEST PUSH1 0x40 MLOAD DUP1 SWAP2 SUB SWAP1 RETURN JUMPDEST CALLVALUE DUP1 ISZERO PUSH2 0x129 JUMPI PUSH0 PUSH0 REVERT JUMPDEST POP PUSH2 0x132 PUSH2 0x4FD JUMP JUMPDEST PUSH1 0x40 MLOAD PUSH2 0x13F SWAP2 SWAP1 PUSH2 0x1458 JUMP JUMPDEST PUSH1 0x40 MLOAD DUP1 SWAP2 SUB SWAP1 RETURN JUMPDEST CALLVALUE DUP1 ISZERO PUSH2 0x153 JUMPI PUSH0 PUSH0 REVERT JUMPDEST POP PUSH2 0x16E PUSH1 0x4 DUP1 CALLDATASIZE SUB DUP2 ADD SWAP1 PUSH2 0x169 SWAP2 SWAP1 PUSH2 0x14D6 JUMP JUMPDEST PUSH2 0x508 JUMP JUMPDEST PUSH1 0x40 MLOAD PUSH2 0x181 SWAP8 SWAP7 SWAP6 SWAP5 SWAP4 SWAP3 SWAP2 SWAP1 PUSH2 0x16B4 JUMP JUMPDEST PUSH1 0x40 MLOAD DUP1 SWAP2 SUB SWAP1 RETURN JUMPDEST CALLVALUE DUP1 ISZERO PUSH2 0x195 JUMPI PUSH0 PUSH0 REVERT JUMPDEST POP PUSH2 0x1B0 PUSH1 0x4 DUP1 CALLDATASIZE SUB DUP2 ADD SWAP1 PUSH2 0x1AB SWAP2 SWAP1 PUSH2 0x14D6 JUMP JUMPDEST PUSH2 0x6AE JUMP JUMPDEST PUSH1 0x40 MLOAD PUSH2 0x1BF SWAP4 SWAP3 SWAP2 SWAP1 PUSH2 0x172F JUMP JUMPDEST PUSH1 0x40 MLOAD DUP1 SWAP2 SUB SWAP1 RETURN JUMPDEST CALLVALUE DUP1 ISZERO PUSH2 0x1D3 JUMPI PUSH0 PUSH0 REVERT JUMPDEST POP PUSH2 0x1EE PUSH1 0x4 DUP1 CALLDATASIZE SUB DUP2 ADD SWAP1 PUSH2 0x1E9 SWAP2 SWAP1 PUSH2 0x14D6 JUMP JUMPDEST PUSH2 0x718 JUMP JUMPDEST STOP JUMPDEST CALLVALUE DUP1 ISZERO PUSH2 0x1FB JUMPI PUSH0 PUSH0 REVERT JUMPDEST POP PUSH2 0x216 PUSH1 0x4 DUP1 CALLDATASIZE SUB DUP2 ADD SWAP1 PUSH2 0x211 SWAP2 SWAP1 PUSH2 0x178E JUMP JUMPDEST PUSH2 0x9E5 JUMP JUMPDEST PUSH1 0x40 MLOAD PUSH2 0x223 SWAP2 SWAP1 PUSH2 0x17CC JUMP JUMPDEST PUSH1 0x40 MLOAD DUP1 SWAP2 SUB SWAP1 RETURN JUMPDEST CALLVALUE DUP1 ISZERO PUSH2 0x237 JUMPI PUSH0 PUSH0 REVERT JUMPDEST POP PUSH2 0x252 PUSH1 0x4 DUP1 CALLDATASIZE SUB DUP2 ADD SWAP1 PUSH2 0x24D SWAP2 SWAP1 PUSH2 0x180F JUMP JUMPDEST PUSH2 0xA0F JUMP JUMPDEST STOP JUMPDEST CALLVALUE DUP1 ISZERO PUSH2 0x25F JUMPI PUSH0 PUSH0 REVERT JUMPDEST POP PUSH2 0x27A PUSH1 0x4 DUP1 CALLDATASIZE SUB DUP2 ADD SWAP1 PUSH2 0x275 SWAP2 SWAP1 PUSH2 0x180F JUMP JUMPDEST PUSH2 0xD7A JUMP JUMPDEST PUSH1 0x40 MLOAD PUSH2 0x287 SWAP2 SWAP1 PUSH2 0x1458 JUMP JUMPDEST PUSH1 0x40 MLOAD DUP1 SWAP2 SUB SWAP1 RETURN JUMPDEST CALLVALUE DUP1 ISZERO PUSH2 0x29B JUMPI PUSH0 PUSH0 REVERT JUMPDEST POP PUSH2 0x2B6 PUSH1 0x4 DUP1 CALLDATASIZE SUB DUP2 ADD SWAP1 PUSH2 0x2B1 SWAP2 SWAP1 PUSH2 0x1877 JUMP JUMPDEST PUSH2 0xDA4 JUMP JUMPDEST STOP JUMPDEST CALLVALUE DUP1 ISZERO PUSH2 0x2C3 JUMPI PUSH0 PUSH0 REVERT JUMPDEST POP PUSH2 0x2DE PUSH1 0x4 DUP1 CALLDATASIZE SUB DUP2 ADD SWAP1 PUSH2 0x2D9 SWAP2 SWAP1 PUSH2 0x180F JUMP JUMPDEST PUSH2 0x10A2 JUMP JUMPDEST PUSH1 0x40 MLOAD PUSH2 0x2EB SWAP2 SWAP1 PUSH2 0x1458 JUMP JUMPDEST PUSH1 0x40 MLOAD DUP1 SWAP2 SUB SWAP1 RETURN JUMPDEST CALLVALUE DUP1 ISZERO PUSH2 0x2FF JUMPI PUSH0 PUSH0 REVERT JUMPDEST POP PUSH2 0x31A PUSH1 0x4 DUP1 CALLDATASIZE SUB DUP2 ADD SWAP1 PUSH2 0x315 SWAP2 SWAP1 PUSH2 0x14D6 JUMP JUMPDEST PUSH2 0x10C2 JUMP JUMPDEST PUSH1 0x40 MLOAD PUSH2 0x32A SWAP5 SWAP4 SWAP3 SWAP2 SWAP1 PUSH2 0x18B5 JUMP JUMPDEST PUSH1 0x40 MLOAD DUP1 SWAP2 SUB SWAP1 RETURN JUMPDEST CALLVALUE DUP1 ISZERO PUSH2 0x33E JUMPI PUSH0 PUSH0 REVERT JUMPDEST POP PUSH2 0x347 PUSH2 0x1137 JUMP JUMPDEST PUSH1 0x40 MLOAD PUSH2 0x354 SWAP2 SWAP1 PUSH2 0x1953 JUMP JUMPDEST PUSH1 0x40 MLOAD DUP1 SWAP2 SUB SWAP1 RETURN JUMPDEST PUSH0 PUSH1 0x2 DUP4 DUP4 SWAP1 POP LT DUP1 PUSH2 0x36F JUMPI POP PUSH0 CALLVALUE EQ JUMPDEST DUP1 PUSH2 0x37C JUMPI POP PUSH0 DUP6 DUP6 SWAP1 POP EQ JUMPDEST ISZERO PUSH2 0x3B3 JUMPI PUSH1 0x40 MLOAD PUSH32 0xDA5D547300000000000000000000000000000000000000000000000000000000 DUP2 MSTORE PUSH1 0x4 ADD PUSH1 0x40 MLOAD DUP1 SWAP2 SUB SWAP1 REVERT JUMPDEST PUSH0 DUP1 SLOAD SWAP1 POP SWAP1 POP PUSH0 PUSH0 PUSH1 0x1 DUP2 PUSH1 0x1 DUP2 SLOAD ADD DUP1 DUP3 SSTORE DUP1 SWAP2 POP POP SUB SWAP1 PUSH0 MSTORE PUSH1 0x20 PUSH0 KECCAK256 SWAP1 PUSH1 0x4 MUL ADD SWAP1 POP CALLER DUP2 PUSH0 ADD PUSH0 PUSH2 0x100 EXP DUP2 SLOAD DUP2 PUSH20 0xFFFFFFFFFFFFFFFFFFFFFFFFFFFFFFFFFFFFFFFF MUL NOT AND SWAP1 DUP4 PUSH20 0xFFFFFFFFFFFFFFFFFFFFFFFFFFFFFFFFFFFFFFFF AND MUL OR SWAP1 SSTORE POP DUP6 DUP6 DUP3 PUSH1 0x1 ADD SWAP2 DUP3 PUSH2 0x42E SWAP3 SWAP2 SWAP1 PUSH2 0x1B97 JUMP JUMPDEST POP DUP4 DUP4 DUP3 PUSH1 0x2 ADD SWAP2 SWAP1 PUSH2 0x442 SWAP3 SWAP2 SWAP1 PUSH2 0x129E JUMP JUMPDEST POP CALLVALUE DUP2 PUSH1 0x3 ADD PUSH0 PUSH2 0x100 EXP DUP2 SLOAD DUP2 PUSH16 0xFFFFFFFFFFFFFFFFFFFFFFFFFFFFFFFF MUL NOT AND SWAP1 DUP4 PUSH16 0xFFFFFFFFFFFFFFFFFFFFFFFFFFFFFFFF AND MUL OR SWAP1 SSTORE POP CALLER PUSH20 0xFFFFFFFFFFFFFFFFFFFFFFFFFFFFFFFFFFFFFFFF AND DUP3 PUSH32 0xE8F161669DF91E2CF70752C07CE6888C7B96CED4254E2EF929BBF8AB98B5293F DUP9 DUP9 DUP6 PUSH1 0x3 ADD PUSH0 SWAP1 SLOAD SWAP1 PUSH2 0x100 EXP SWAP1 DIV PUSH16 0xFFFFFFFFFFFFFFFFFFFFFFFFFFFFFFFF AND PUSH1 0x40 MLOAD PUSH2 0x4E7 SWAP4 SWAP3 SWAP2 SWAP1 PUSH2 0x1C9E JUMP JUMPDEST PUSH1 0x40 MLOAD DUP1 SWAP2 SUB SWAP1 LOG3 POP SWAP5 SWAP4 POP POP POP POP JUMP JUMPDEST PUSH1 0x5 DUP2 JUMP JUMPDEST PUSH0 PUSH0 DUP1 SLOAD SWAP1 POP SWAP1 POP SWAP1 JUMP JUMPDEST PUSH0 PUSH1 0x60 DUP1 PUSH0 PUSH0 PUSH0 PUSH0 PUSH0 PUSH0 DUP10 DUP2 SLOAD DUP2 LT PUSH2 0x524 JUMPI PUSH2 0x523 PUSH2 0x1CCE JUMP JUMPDEST JUMPDEST SWAP1 PUSH0 MSTORE PUSH1 0x20 PUSH0 KECCAK256 SWAP1 PUSH1 0x4 MUL ADD SWAP1 POP DUP1 PUSH0 ADD PUSH0 SWAP1 SLOAD SWAP1 PUSH2 0x100 EXP SWAP1 DIV PUSH20 0xFFFFFFFFFFFFFFFFFFFFFFFFFFFFFFFFFFFFFFFF AND DUP2 PUSH1 0x1 ADD DUP3 PUSH1 0x2 ADD DUP4 PUSH1 0x3 ADD PUSH0 SWAP1 SLOAD SWAP1 PUSH2 0x100 EXP SWAP1 DIV PUSH16 0xFFFFFFFFFFFFFFFFFFFFFFFFFFFFFFFF AND DUP5 PUSH1 0x3 ADD PUSH1 0x10 SWAP1 SLOAD SWAP1 PUSH2 0x100 EXP SWAP1 DIV PUSH8 0xFFFFFFFFFFFFFFFF AND DUP6 PUSH1 0x3 ADD PUSH1 0x18 SWAP1 SLOAD SWAP1 PUSH2 0x100 EXP SWAP1 DIV PUSH1 0xFF AND DUP7 PUSH1 0x3 ADD PUSH1 0x19 SWAP1 SLOAD SWAP1 PUSH2 0x100 EXP SWAP1 DIV PUSH1 0xFF AND DUP6 DUP1 SLOAD PUSH2 0x5C6 SWAP1 PUSH2 0x19D0 JUMP JUMPDEST DUP1 PUSH1 0x1F ADD PUSH1 0x20 DUP1 SWAP2 DIV MUL PUSH1 0x20 ADD PUSH1 0x40 MLOAD SWAP1 DUP2 ADD PUSH1 0x40 MSTORE DUP1 SWAP3 SWAP2 SWAP1 DUP2 DUP2 MSTORE PUSH1 0x20 ADD DUP3 DUP1 SLOAD PUSH2 0x5F2 SWAP1 PUSH2 0x19D0 JUMP JUMPDEST DUP1 ISZERO PUSH2 0x63D JUMPI DUP1 PUSH1 0x1F LT PUSH2 0x614 JUMPI PUSH2 0x100 DUP1 DUP4 SLOAD DIV MUL DUP4 MSTORE SWAP2 PUSH1 0x20 ADD SWAP2 PUSH2 0x63D JUMP JUMPDEST DUP3 ADD SWAP2 SWAP1 PUSH0 MSTORE PUSH1 0x20 PUSH0 KECCAK256 SWAP1 JUMPDEST DUP2 SLOAD DUP2 MSTORE SWAP1 PUSH1 0x1 ADD SWAP1 PUSH1 0x20 ADD DUP1 DUP4 GT PUSH2 0x620 JUMPI DUP3 SWAP1 SUB PUSH1 0x1F AND DUP3 ADD SWAP2 JUMPDEST POP POP POP POP POP SWAP6 POP DUP5 DUP1 SLOAD DUP1 PUSH1 0x20 MUL PUSH1 0x20 ADD PUSH1 0x40 MLOAD SWAP1 DUP2 ADD PUSH1 0x40 MSTORE DUP1 SWAP3 SWAP2 SWAP1 DUP2 DUP2 MSTORE PUSH1 0x20 ADD DUP3 DUP1 SLOAD DUP1 ISZERO PUSH2 0x68D JUMPI PUSH1 0x20 MUL DUP3 ADD SWAP2 SWAP1 PUSH0 MSTORE PUSH1 0x20 PUSH0 KECCAK256 SWAP1 JUMPDEST DUP2 SLOAD DUP2 MSTORE PUSH1 0x20 ADD SWAP1 PUSH1 0x1 ADD SWAP1 DUP1 DUP4 GT PUSH2 0x679 JUMPI JUMPDEST POP POP POP POP POP SWAP5 POP SWAP8 POP SWAP8 POP SWAP8 POP SWAP8 POP SWAP8 POP SWAP8 POP SWAP8 POP POP SWAP2 SWAP4 SWAP6 SWAP8 SWAP1 SWAP3 SWAP5 SWAP7 POP JUMP JUMPDEST PUSH0 PUSH0 PUSH0 PUSH0 PUSH1 0x3 PUSH0 DUP7 DUP2 MSTORE PUSH1 0x20 ADD SWAP1 DUP2 MSTORE PUSH1 0x20 ADD PUSH0 KECCAK256 SWAP1 POP DUP1 PUSH0 ADD PUSH0 SWAP1 SLOAD SWAP1 PUSH2 0x100 EXP SWAP1 DIV PUSH1 0xFF AND DUP2 PUSH0 ADD PUSH1 0x1 SWAP1 SLOAD SWAP1 PUSH2 0x100 EXP SWAP1 DIV PUSH1 0xFF AND DUP3 PUSH0 ADD PUSH1 0x2 SWAP1 SLOAD SWAP1 PUSH2 0x100 EXP SWAP1 DIV PUSH20 0xFFFFFFFFFFFFFFFFFFFFFFFFFFFFFFFFFFFFFFFF AND SWAP4 POP SWAP4 POP SWAP4 POP POP SWAP2 SWAP4 SWAP1 SWAP3 POP JUMP JUMPDEST PUSH0 PUSH0 DUP3 DUP2 SLOAD DUP2 LT PUSH2 0x72C JUMPI PUSH2 0x72B PUSH2 0x1CCE JUMP JUMPDEST JUMPDEST SWAP1 PUSH0 MSTORE PUSH1 0x20 PUSH0 KECCAK256 SWAP1 PUSH1 0x4 MUL ADD SWAP1 POP DUP1 PUSH0 ADD PUSH0 SWAP1 SLOAD SWAP1 PUSH2 0x100 EXP SWAP1 DIV PUSH20 0xFFFFFFFFFFFFFFFFFFFFFFFFFFFFFFFFFFFFFFFF AND PUSH20 0xFFFFFFFFFFFFFFFFFFFFFFFFFFFFFFFFFFFFFFFF AND CALLER PUSH20 0xFFFFFFFFFFFFFFFFFFFFFFFFFFFFFFFFFFFFFFFF AND EQ PUSH2 0x7C1 JUMPI PUSH1 0x40 MLOAD PUSH32 0x93687C0B00000000000000000000000000000000000000000000000000000000 DUP2 MSTORE PUSH1 0x4 ADD PUSH1 0x40 MLOAD DUP1 SWAP2 SUB SWAP1 REVERT JUMPDEST DUP1 PUSH1 0x3 ADD PUSH1 0x18 SWAP1 SLOAD SWAP1 PUSH2 0x100 EXP SWAP1 DIV PUSH1 0xFF AND PUSH2 0x809 JUMPI PUSH1 0x40 MLOAD PUSH32 0xC906A36E00000000000000000000000000000000000000000000000000000000 DUP2 MSTORE PUSH1 0x4 ADD PUSH1 0x40 MLOAD DUP1 SWAP2 SUB SWAP1 REVERT JUMPDEST DUP1 PUSH1 0x3 ADD PUSH1 0x19 SWAP1 SLOAD SWAP1 PUSH2 0x100 EXP SWAP1 DIV PUSH1 0xFF AND ISZERO PUSH2 0x852 JUMPI PUSH1 0x40 MLOAD PUSH32 0x646CF55800000000000000000000000000000000000000000000000000000000 DUP2 MSTORE PUSH1 0x4 ADD PUSH1 0x40 MLOAD DUP1 SWAP2 SUB SWAP1 REVERT JUMPDEST PUSH1 0x1 DUP2 PUSH1 0x3 ADD PUSH1 0x19 PUSH2 0x100 EXP DUP2 SLOAD DUP2 PUSH1 0xFF MUL NOT AND SWAP1 DUP4 ISZERO ISZERO MUL OR SWAP1 SSTORE POP PUSH0 DUP2 PUSH1 0x3 ADD PUSH0 SWAP1 SLOAD SWAP1 PUSH2 0x100 EXP SWAP1 DIV PUSH16 0xFFFFFFFFFFFFFFFFFFFFFFFFFFFFFFFF AND SWAP1 POP PUSH0 DUP3 PUSH0 ADD PUSH0 SWAP1 SLOAD SWAP1 PUSH2 0x100 EXP SWAP1 DIV PUSH20 0xFFFFFFFFFFFFFFFFFFFFFFFFFFFFFFFFFFFFFFFF AND PUSH20 0xFFFFFFFFFFFFFFFFFFFFFFFFFFFFFFFFFFFFFFFF AND DUP3 PUSH16 0xFFFFFFFFFFFFFFFFFFFFFFFFFFFFFFFF AND PUSH1 0x40 MLOAD PUSH2 0x8EB SWAP1 PUSH2 0x1D28 JUMP JUMPDEST PUSH0 PUSH1 0x40 MLOAD DUP1 DUP4 SUB DUP2 DUP6 DUP8 GAS CALL SWAP3 POP POP POP RETURNDATASIZE DUP1 PUSH0 DUP2 EQ PUSH2 0x925 JUMPI PUSH1 0x40 MLOAD SWAP2 POP PUSH1 0x1F NOT PUSH1 0x3F RETURNDATASIZE ADD AND DUP3 ADD PUSH1 0x40 MSTORE RETURNDATASIZE DUP3 MSTORE RETURNDATASIZE PUSH0 PUSH1 0x20 DUP5 ADD RETURNDATACOPY PUSH2 0x92A JUMP JUMPDEST PUSH1 0x60 SWAP2 POP JUMPDEST POP POP SWAP1 POP DUP1 PUSH2 0x96E JUMPI PUSH1 0x40 MLOAD PUSH32 0x8C379A000000000000000000000000000000000000000000000000000000000 DUP2 MSTORE PUSH1 0x4 ADD PUSH2 0x965 SWAP1 PUSH2 0x1D86 JUMP JUMPDEST PUSH1 0x40 MLOAD DUP1 SWAP2 SUB SWAP1 REVERT JUMPDEST DUP3 PUSH0 ADD PUSH0 SWAP1 SLOAD SWAP1 PUSH2 0x100 EXP SWAP1 DIV PUSH20 0xFFFFFFFFFFFFFFFFFFFFFFFFFFFFFFFFFFFFFFFF AND PUSH20 0xFFFFFFFFFFFFFFFFFFFFFFFFFFFFFFFFFFFFFFFF AND DUP5 PUSH32 0x3852D5EE76F8C7D023121D4B3993EED708ED188B4FEF90D13A41B4674D83AFB8 DUP5 PUSH1 0x40 MLOAD PUSH2 0x9D7 SWAP2 SWAP1 PUSH2 0x1DA4 JUMP JUMPDEST PUSH1 0x40 MLOAD DUP1 SWAP2 SUB SWAP1 LOG3 POP POP POP POP JUMP JUMPDEST PUSH1 0x2 PUSH1 0x20 MSTORE DUP2 PUSH0 MSTORE PUSH1 0x40 PUSH0 KECCAK256 PUSH1 0x20 MSTORE DUP1 PUSH0 MSTORE PUSH1 0x40 PUSH0 KECCAK256 PUSH0 SWAP2 POP SWAP2 POP SWAP1 SLOAD SWAP1 PUSH2 0x100 EXP SWAP1 DIV PUSH1 0xFF AND DUP2 JUMP JUMPDEST PUSH0 PUSH0 DUP4 DUP2 SLOAD DUP2 LT PUSH2 0xA23 JUMPI PUSH2 0xA22 PUSH2 0x1CCE JUMP JUMPDEST JUMPDEST SWAP1 PUSH0 MSTORE PUSH1 0x20 PUSH0 KECCAK256 SWAP1 PUSH1 0x4 MUL ADD SWAP1 POP PUSH0 PUSH20 0xFFFFFFFFFFFFFFFFFFFFFFFFFFFFFFFFFFFFFFFF AND DUP2 PUSH0 ADD PUSH0 SWAP1 SLOAD SWAP1 PUSH2 0x100 EXP SWAP1 DIV PUSH20 0xFFFFFFFFFFFFFFFFFFFFFFFFFFFFFFFFFFFFFFFF AND PUSH20 0xFFFFFFFFFFFFFFFFFFFFFFFFFFFFFFFFFFFFFFFF AND SUB PUSH2 0xAB8 JUMPI PUSH1 0x40 MLOAD PUSH32 0xDA5D547300000000000000000000000000000000000000000000000000000000 DUP2 MSTORE PUSH1 0x4 ADD PUSH1 0x40 MLOAD DUP1 SWAP2 SUB SWAP1 REVERT JUMPDEST PUSH1 0x2 PUSH0 DUP5 DUP2 MSTORE PUSH1 0x20 ADD SWAP1 DUP2 MSTORE PUSH1 0x20 ADD PUSH0 KECCAK256 PUSH0 CALLER PUSH20 0xFFFFFFFFFFFFFFFFFFFFFFFFFFFFFFFFFFFFFFFF AND PUSH20 0xFFFFFFFFFFFFFFFFFFFFFFFFFFFFFFFFFFFFFFFF AND DUP2 MSTORE PUSH1 0x20 ADD SWAP1 DUP2 MSTORE PUSH1 0x20 ADD PUSH0 KECCAK256 PUSH0 SWAP1 SLOAD SWAP1 PUSH2 0x100 EXP SWAP1 DIV PUSH1 0xFF AND ISZERO PUSH2 0xB48 JUMPI PUSH1 0x40 MLOAD PUSH32 0x7C9A1CF900000000000000000000000000000000000000000000000000000000 DUP2 MSTORE PUSH1 0x4 ADD PUSH1 0x40 MLOAD DUP1 SWAP2 SUB SWAP1 REVERT JUMPDEST PUSH2 0xB52 DUP2 DUP4 PUSH2 0x115B JUMP JUMPDEST PUSH2 0xB88 JUMPI PUSH1 0x40 MLOAD PUSH32 0x5DF92E600000000000000000000000000000000000000000000000000000000 DUP2 MSTORE PUSH1 0x4 ADD PUSH1 0x40 MLOAD DUP1 SWAP2 SUB SWAP1 REVERT JUMPDEST PUSH1 0x1 PUSH1 0x2 PUSH0 DUP6 DUP2 MSTORE PUSH1 0x20 ADD SWAP1 DUP2 MSTORE PUSH1 0x20 ADD PUSH0 KECCAK256 PUSH0 CALLER PUSH20 0xFFFFFFFFFFFFFFFFFFFFFFFFFFFFFFFFFFFFFFFF AND PUSH20 0xFFFFFFFFFFFFFFFFFFFFFFFFFFFFFFFFFFFFFFFF AND DUP2 MSTORE PUSH1 0x20 ADD SWAP1 DUP2 MSTORE PUSH1 0x20 ADD PUSH0 KECCAK256 PUSH0 PUSH2 0x100 EXP DUP2 SLOAD DUP2 PUSH1 0xFF MUL NOT AND SWAP1 DUP4 ISZERO ISZERO MUL OR SWAP1 SSTORE POP PUSH1 0x1 DUP1 PUSH0 DUP6 DUP2 MSTORE PUSH1 0x20 ADD SWAP1 DUP2 MSTORE PUSH1 0x20 ADD PUSH0 KECCAK256 PUSH0 DUP5 DUP2 MSTORE PUSH1 0x20 ADD SWAP1 DUP2 MSTORE PUSH1 0x20 ADD PUSH0 KECCAK256 PUSH0 DUP3 DUP3 SLOAD PUSH2 0xC1B SWAP2 SWAP1 PUSH2 0x1DEA JUMP JUMPDEST SWAP3 POP POP DUP2 SWAP1 SSTORE POP PUSH1 0x1 DUP2 PUSH1 0x3 ADD PUSH1 0x10 DUP3 DUP3 DUP3 SWAP1 SLOAD SWAP1 PUSH2 0x100 EXP SWAP1 DIV PUSH8 0xFFFFFFFFFFFFFFFF AND PUSH2 0xC4A SWAP2 SWAP1 PUSH2 0x1E1D JUMP JUMPDEST SWAP3 POP PUSH2 0x100 EXP DUP2 SLOAD DUP2 PUSH8 0xFFFFFFFFFFFFFFFF MUL NOT AND SWAP1 DUP4 PUSH8 0xFFFFFFFFFFFFFFFF AND MUL OR SWAP1 SSTORE POP CALLER PUSH20 0xFFFFFFFFFFFFFFFFFFFFFFFFFFFFFFFFFFFFFFFF AND DUP4 PUSH32 0x691B499AA832C2228608B4B4754CCD83F30B8D9356D38F0100AD041EBE541F83 DUP5 DUP5 PUSH1 0x3 ADD PUSH1 0x10 SWAP1 SLOAD SWAP1 PUSH2 0x100 EXP SWAP1 DIV PUSH8 0xFFFFFFFFFFFFFFFF AND PUSH1 0x40 MLOAD PUSH2 0xCD1 SWAP3 SWAP2 SWAP1 PUSH2 0x1E67 JUMP JUMPDEST PUSH1 0x40 MLOAD DUP1 SWAP2 SUB SWAP1 LOG3 DUP1 PUSH1 0x3 ADD PUSH1 0x18 SWAP1 SLOAD SWAP1 PUSH2 0x100 EXP SWAP1 DIV PUSH1 0xFF AND PUSH2 0xD75 JUMPI PUSH0 PUSH0 PUSH2 0xCFB DUP6 DUP5 PUSH2 0x11B2 JUMP JUMPDEST SWAP2 POP SWAP2 POP PUSH2 0xD22 DUP3 DUP3 DUP6 PUSH1 0x3 ADD PUSH1 0x10 SWAP1 SLOAD SWAP1 PUSH2 0x100 EXP SWAP1 DIV PUSH8 0xFFFFFFFFFFFFFFFF AND PUSH2 0x123A JUMP JUMPDEST ISZERO PUSH2 0xD72 JUMPI PUSH1 0x1 DUP4 PUSH1 0x3 ADD PUSH1 0x18 PUSH2 0x100 EXP DUP2 SLOAD DUP2 PUSH1 0xFF MUL NOT AND SWAP1 DUP4 ISZERO ISZERO MUL OR SWAP1 SSTORE POP DUP5 PUSH32 0xEF4F46A31773908E63B633CD170845D689DA51C425C47107D3D6BF130AB1B767 PUSH1 0x40 MLOAD PUSH1 0x40 MLOAD DUP1 SWAP2 SUB SWAP1 LOG2 JUMPDEST POP POP JUMPDEST POP POP POP JUMP JUMPDEST PUSH0 PUSH1 0x1 PUSH0 DUP5 DUP2 MSTORE PUSH1 0x20 ADD SWAP1 DUP2 MSTORE PUSH1 0x20 ADD PUSH0 KECCAK256 PUSH0 DUP4 DUP2 MSTORE PUSH1 0x20 ADD SWAP1 DUP2 MSTORE PUSH1 0x20 ADD PUSH0 KECCAK256 SLOAD SWAP1 POP SWAP3 SWAP2 POP POP JUMP JUMPDEST PUSH0 PUSH0 DUP4 DUP2 SLOAD DUP2 LT PUSH2 0xDB8 JUMPI PUSH2 0xDB7 PUSH2 0x1CCE JUMP JUMPDEST JUMPDEST SWAP1 PUSH0 MSTORE PUSH1 0x20 PUSH0 KECCAK256 SWAP1 PUSH1 0x4 MUL ADD SWAP1 POP PUSH0 PUSH20 0xFFFFFFFFFFFFFFFFFFFFFFFFFFFFFFFFFFFFFFFF AND DUP2 PUSH0 ADD PUSH0 SWAP1 SLOAD SWAP1 PUSH2 0x100 EXP SWAP1 DIV PUSH20 0xFFFFFFFFFFFFFFFFFFFFFFFFFFFFFFFFFFFFFFFF AND PUSH20 0xFFFFFFFFFFFFFFFFFFFFFFFFFFFFFFFFFFFFFFFF AND SUB PUSH2 0xE4D JUMPI PUSH1 0x40 MLOAD PUSH32 0xDA5D547300000000000000000000000000000000000000000000000000000000 DUP2 MSTORE PUSH1 0x4 ADD PUSH1 0x40 MLOAD DUP1 SWAP2 SUB SWAP1 REVERT JUMPDEST PUSH32 0x0 PUSH20 0xFFFFFFFFFFFFFFFFFFFFFFFFFFFFFFFFFFFFFFFF AND PUSH4 0x2330F247 CALLER PUSH1 0x40 MLOAD DUP3 PUSH4 0xFFFFFFFF AND PUSH1 0xE0 SHL DUP2 MSTORE PUSH1 0x4 ADD PUSH2 0xEA6 SWAP2 SWAP1 PUSH2 0x1E8E JUMP JUMPDEST PUSH1 0x20 PUSH1 0x40 MLOAD DUP1 DUP4 SUB DUP2 DUP7 GAS STATICCALL ISZERO DUP1 ISZERO PUSH2 0xEC1 JUMPI RETURNDATASIZE PUSH0 PUSH0 RETURNDATACOPY RETURNDATASIZE PUSH0 REVERT JUMPDEST POP POP POP POP PUSH1 0x40 MLOAD RETURNDATASIZE PUSH1 0x1F NOT PUSH1 0x1F DUP3 ADD AND DUP3 ADD DUP1 PUSH1 0x40 MSTORE POP DUP2 ADD SWAP1 PUSH2 0xEE5 SWAP2 SWAP1 PUSH2 0x1EBB JUMP JUMPDEST PUSH2 0xF1B JUMPI PUSH1 0x40 MLOAD PUSH32 0x1CCC6F2700000000000000000000000000000000000000000000000000000000 DUP2 MSTORE PUSH1 0x4 ADD PUSH1 0x40 MLOAD DUP1 SWAP2 SUB SWAP1 REVERT JUMPDEST PUSH1 0x5 PUSH8 0xFFFFFFFFFFFFFFFF AND DUP2 PUSH1 0x3 ADD PUSH1 0x10 SWAP1 SLOAD SWAP1 PUSH2 0x100 EXP SWAP1 DIV PUSH8 0xFFFFFFFFFFFFFFFF AND PUSH8 0xFFFFFFFFFFFFFFFF AND LT ISZERO PUSH2 0xF82 JUMPI PUSH1 0x40 MLOAD PUSH32 0xD79FA57000000000000000000000000000000000000000000000000000000000 DUP2 MSTORE PUSH1 0x4 ADD PUSH1 0x40 MLOAD DUP1 SWAP2 SUB SWAP1 REVERT JUMPDEST PUSH1 0x40 MLOAD DUP1 PUSH1 0x60 ADD PUSH1 0x40 MSTORE DUP1 PUSH1 0x1 ISZERO ISZERO DUP2 MSTORE PUSH1 0x20 ADD DUP4 ISZERO ISZERO DUP2 MSTORE PUSH1 0x20 ADD CALLER PUSH20 0xFFFFFFFFFFFFFFFFFFFFFFFFFFFFFFFFFFFFFFFF AND DUP2 MSTORE POP PUSH1 0x3 PUSH0 DUP6 DUP2 MSTORE PUSH1 0x20 ADD SWAP1 DUP2 MSTORE PUSH1 0x20 ADD PUSH0 KECCAK256 PUSH0 DUP3 ADD MLOAD DUP2 PUSH0 ADD PUSH0 PUSH2 0x100 EXP DUP2 SLOAD DUP2 PUSH1 0xFF MUL NOT AND SWAP1 DUP4 ISZERO ISZERO MUL OR SWAP1 SSTORE POP PUSH1 0x20 DUP3 ADD MLOAD DUP2 PUSH0 ADD PUSH1 0x1 PUSH2 0x100 EXP DUP2 SLOAD DUP2 PUSH1 0xFF MUL NOT AND SWAP1 DUP4 ISZERO ISZERO MUL OR SWAP1 SSTORE POP PUSH1 0x40 DUP3 ADD MLOAD DUP2 PUSH0 ADD PUSH1 0x2 PUSH2 0x100 EXP DUP2 SLOAD DUP2 PUSH20 0xFFFFFFFFFFFFFFFFFFFFFFFFFFFFFFFFFFFFFFFF MUL NOT AND SWAP1 DUP4 PUSH20 0xFFFFFFFFFFFFFFFFFFFFFFFFFFFFFFFFFFFFFFFF AND MUL OR SWAP1 SSTORE POP SWAP1 POP POP CALLER PUSH20 0xFFFFFFFFFFFFFFFFFFFFFFFFFFFFFFFFFFFFFFFF AND DUP4 PUSH32 0x1B2F78B4B82A0F1D6E611809550E4E977305ABE65442CBAAC3DDEE1A9467E288 DUP5 PUSH1 0x40 MLOAD PUSH2 0x1095 SWAP2 SWAP1 PUSH2 0x17CC JUMP JUMPDEST PUSH1 0x40 MLOAD DUP1 SWAP2 SUB SWAP1 LOG3 POP POP POP JUMP JUMPDEST PUSH1 0x1 PUSH1 0x20 MSTORE DUP2 PUSH0 MSTORE PUSH1 0x40 PUSH0 KECCAK256 PUSH1 0x20 MSTORE DUP1 PUSH0 MSTORE PUSH1 0x40 PUSH0 KECCAK256 PUSH0 SWAP2 POP SWAP2 POP POP SLOAD DUP2 JUMP JUMPDEST PUSH0 PUSH0 PUSH0 PUSH0 PUSH0 PUSH0 DUP7 DUP2 SLOAD DUP2 LT PUSH2 0x10DA JUMPI PUSH2 0x10D9 PUSH2 0x1CCE JUMP JUMPDEST JUMPDEST SWAP1 PUSH0 MSTORE PUSH1 0x20 PUSH0 KECCAK256 SWAP1 PUSH1 0x4 MUL ADD SWAP1 POP PUSH2 0x10F2 DUP7 DUP3 PUSH2 0x11B2 JUMP JUMPDEST DUP1 SWAP6 POP DUP2 SWAP7 POP POP POP DUP5 DUP5 DUP3 PUSH1 0x3 ADD PUSH1 0x10 SWAP1 SLOAD SWAP1 PUSH2 0x100 EXP SWAP1 DIV PUSH8 0xFFFFFFFFFFFFFFFF AND DUP4 PUSH1 0x3 ADD PUSH1 0x18 SWAP1 SLOAD SWAP1 PUSH2 0x100 EXP SWAP1 DIV PUSH1 0xFF AND SWAP5 POP SWAP5 POP SWAP5 POP SWAP5 POP POP SWAP2 SWAP4 POP SWAP2 SWAP4 JUMP JUMPDEST PUSH32 0x0 DUP2 JUMP JUMPDEST PUSH0 PUSH0 JUMPDEST DUP4 PUSH1 0x2 ADD DUP1 SLOAD SWAP1 POP DUP2 LT ISZERO PUSH2 0x11A7 JUMPI DUP3 DUP5 PUSH1 0x2 ADD DUP3 DUP2 SLOAD DUP2 LT PUSH2 0x1184 JUMPI PUSH2 0x1183 PUSH2 0x1CCE JUMP JUMPDEST JUMPDEST SWAP1 PUSH0 MSTORE PUSH1 0x20 PUSH0 KECCAK256 ADD SLOAD SUB PUSH2 0x119C JUMPI PUSH1 0x1 SWAP2 POP POP PUSH2 0x11AC JUMP JUMPDEST DUP1 PUSH1 0x1 ADD SWAP1 POP PUSH2 0x115E JUMP JUMPDEST POP PUSH0 SWAP1 POP JUMPDEST SWAP3 SWAP2 POP POP JUMP JUMPDEST PUSH0 PUSH0 PUSH0 JUMPDEST DUP4 PUSH1 0x2 ADD DUP1 SLOAD SWAP1 POP DUP2 LT ISZERO PUSH2 0x1232 JUMPI PUSH0 PUSH1 0x1 PUSH0 DUP8 DUP2 MSTORE PUSH1 0x20 ADD SWAP1 DUP2 MSTORE PUSH1 0x20 ADD PUSH0 KECCAK256 PUSH0 DUP7 PUSH1 0x2 ADD DUP5 DUP2 SLOAD DUP2 LT PUSH2 0x11EE JUMPI PUSH2 0x11ED PUSH2 0x1CCE JUMP JUMPDEST JUMPDEST SWAP1 PUSH0 MSTORE PUSH1 0x20 PUSH0 KECCAK256 ADD SLOAD DUP2 MSTORE PUSH1 0x20 ADD SWAP1 DUP2 MSTORE PUSH1 0x20 ADD PUSH0 KECCAK256 SLOAD SWAP1 POP DUP4 DUP2 LT PUSH2 0x1219 JUMPI DUP4 SWAP3 POP DUP1 SWAP4 POP PUSH2 0x1226 JUMP JUMPDEST DUP3 DUP2 GT ISZERO PUSH2 0x1225 JUMPI DUP1 SWAP3 POP JUMPDEST JUMPDEST POP DUP1 PUSH1 0x1 ADD SWAP1 POP PUSH2 0x11B6 JUMP JUMPDEST POP SWAP3 POP SWAP3 SWAP1 POP JUMP JUMPDEST PUSH0 PUSH1 0x5 PUSH8 0xFFFFFFFFFFFFFFFF AND DUP3 PUSH8 0xFFFFFFFFFFFFFFFF AND LT ISZERO PUSH2 0x1260 JUMPI PUSH0 SWAP1 POP PUSH2 0x1297 JUMP JUMPDEST PUSH0 DUP4 DUP6 PUSH2 0x126D SWAP2 SWAP1 PUSH2 0x1EE6 JUMP JUMPDEST SWAP1 POP DUP3 PUSH8 0xFFFFFFFFFFFFFFFF AND PUSH1 0x4 PUSH2 0x1286 SWAP2 SWAP1 PUSH2 0x1F19 JUMP JUMPDEST DUP2 DUP3 PUSH2 0x1292 SWAP2 SWAP1 PUSH2 0x1F19 JUMP JUMPDEST GT SWAP2 POP POP JUMPDEST SWAP4 SWAP3 POP POP POP JUMP JUMPDEST DUP3 DUP1 SLOAD DUP3 DUP3 SSTORE SWAP1 PUSH0 MSTORE PUSH1 0x20 PUSH0 KECCAK256 SWAP1 DUP2 ADD SWAP3 DUP3 ISZERO PUSH2 0x12D8 JUMPI SWAP2 PUSH1 0x20 MUL DUP3 ADD JUMPDEST DUP3 DUP2 GT ISZERO PUSH2 0x12D7 JUMPI DUP3 CALLDATALOAD DUP3 SSTORE SWAP2 PUSH1 0x20 ADD SWAP2 SWAP1 PUSH1 0x1 ADD SWAP1 PUSH2 0x12BC JUMP JUMPDEST JUMPDEST POP SWAP1 POP PUSH2 0x12E5 SWAP2 SWAP1 PUSH2 0x12E9 JUMP JUMPDEST POP SWAP1 JUMP JUMPDEST JUMPDEST DUP1 DUP3 GT ISZERO PUSH2 0x1300 JUMPI PUSH0 DUP2 PUSH0 SWAP1 SSTORE POP PUSH1 0x1 ADD PUSH2 0x12EA JUMP JUMPDEST POP SWAP1 JUMP JUMPDEST PUSH0 PUSH0 REVERT JUMPDEST PUSH0 PUSH0 REVERT JUMPDEST PUSH0 PUSH0 REVERT JUMPDEST PUSH0 PUSH0 REVERT JUMPDEST PUSH0 PUSH0 REVERT JUMPDEST PUSH0 PUSH0 DUP4 PUSH1 0x1F DUP5 ADD SLT PUSH2 0x132D JUMPI PUSH2 0x132C PUSH2 0x130C JUMP JUMPDEST JUMPDEST DUP3 CALLDATALOAD SWAP1 POP PUSH8 0xFFFFFFFFFFFFFFFF DUP2 GT ISZERO PUSH2 0x134A JUMPI PUSH2 0x1349 PUSH2 0x1310 JUMP JUMPDEST JUMPDEST PUSH1 0x20 DUP4 ADD SWAP2 POP DUP4 PUSH1 0x1 DUP3 MUL DUP4 ADD GT ISZERO PUSH2 0x1366 JUMPI PUSH2 0x1365 PUSH2 0x1314 JUMP JUMPDEST JUMPDEST SWAP3 POP SWAP3 SWAP1 POP JUMP JUMPDEST PUSH0 PUSH0 DUP4 PUSH1 0x1F DUP5 ADD SLT PUSH2 0x1382 JUMPI PUSH2 0x1381 PUSH2 0x130C JUMP JUMPDEST JUMPDEST DUP3 CALLDATALOAD SWAP1 POP PUSH8 0xFFFFFFFFFFFFFFFF DUP2 GT ISZERO PUSH2 0x139F JUMPI PUSH2 0x139E PUSH2 0x1310 JUMP JUMPDEST JUMPDEST PUSH1 0x20 DUP4 ADD SWAP2 POP DUP4 PUSH1 0x20 DUP3 MUL DUP4 ADD GT ISZERO PUSH2 0x13BB JUMPI PUSH2 0x13BA PUSH2 0x1314 JUMP JUMPDEST JUMPDEST SWAP3 POP SWAP3 SWAP1 POP JUMP JUMPDEST PUSH0 PUSH0 PUSH0 PUSH0 PUSH1 0x40 DUP6 DUP8 SUB SLT ISZERO PUSH2 0x13DA JUMPI PUSH2 0x13D9 PUSH2 0x1304 JUMP JUMPDEST JUMPDEST PUSH0 DUP6 ADD CALLDATALOAD PUSH8 0xFFFFFFFFFFFFFFFF DUP2 GT ISZERO PUSH2 0x13F7 JUMPI PUSH2 0x13F6 PUSH2 0x1308 JUMP JUMPDEST JUMPDEST PUSH2 0x1403 DUP8 DUP3 DUP9 ADD PUSH2 0x1318 JUMP JUMPDEST SWAP5 POP SWAP5 POP POP PUSH1 0x20 DUP6 ADD CALLDATALOAD PUSH8 0xFFFFFFFFFFFFFFFF DUP2 GT ISZERO PUSH2 0x1426 JUMPI PUSH2 0x1425 PUSH2 0x1308 JUMP JUMPDEST JUMPDEST PUSH2 0x1432 DUP8 DUP3 DUP9 ADD PUSH2 0x136D JUMP JUMPDEST SWAP3 POP SWAP3 POP POP SWAP3 SWAP6 SWAP2 SWAP5 POP SWAP3 POP JUMP JUMPDEST PUSH0 DUP2 SWAP1 POP SWAP2 SWAP1 POP JUMP JUMPDEST PUSH2 0x1452 DUP2 PUSH2 0x1440 JUMP JUMPDEST DUP3 MSTORE POP POP JUMP JUMPDEST PUSH0 PUSH1 0x20 DUP3 ADD SWAP1 POP PUSH2 0x146B PUSH0 DUP4 ADD DUP5 PUSH2 0x1449 JUMP JUMPDEST SWAP3 SWAP2 POP POP JUMP JUMPDEST PUSH0 PUSH8 0xFFFFFFFFFFFFFFFF DUP3 AND SWAP1 POP SWAP2 SWAP1 POP JUMP JUMPDEST PUSH2 0x148D DUP2 PUSH2 0x1471 JUMP JUMPDEST DUP3 MSTORE POP POP JUMP JUMPDEST PUSH0 PUSH1 0x20 DUP3 ADD SWAP1 POP PUSH2 0x14A6 PUSH0 DUP4 ADD DUP5 PUSH2 0x1484 JUMP JUMPDEST SWAP3 SWAP2 POP POP JUMP JUMPDEST PUSH2 0x14B5 DUP2 PUSH2 0x1440 JUMP JUMPDEST DUP2 EQ PUSH2 0x14BF JUMPI PUSH0 PUSH0 REVERT JUMPDEST POP JUMP JUMPDEST PUSH0 DUP2 CALLDATALOAD SWAP1 POP PUSH2 0x14D0 DUP2 PUSH2 0x14AC JUMP JUMPDEST SWAP3 SWAP2 POP POP JUMP JUMPDEST PUSH0 PUSH1 0x20 DUP3 DUP5 SUB SLT ISZERO PUSH2 0x14EB JUMPI PUSH2 0x14EA PUSH2 0x1304 JUMP JUMPDEST JUMPDEST PUSH0 PUSH2 0x14F8 DUP5 DUP3 DUP6 ADD PUSH2 0x14C2 JUMP JUMPDEST SWAP2 POP POP SWAP3 SWAP2 POP POP JUMP JUMPDEST PUSH0 PUSH20 0xFFFFFFFFFFFFFFFFFFFFFFFFFFFFFFFFFFFFFFFF DUP3 AND SWAP1 POP SWAP2 SWAP1 POP JUMP JUMPDEST PUSH0 PUSH2 0x152A DUP3 PUSH2 0x1501 JUMP JUMPDEST SWAP1 POP SWAP2 SWAP1 POP JUMP JUMPDEST PUSH2 0x153A DUP2 PUSH2 0x1520 JUMP JUMPDEST DUP3 MSTORE POP POP JUMP JUMPDEST PUSH0 DUP2 MLOAD SWAP1 POP SWAP2 SWAP1 POP JUMP JUMPDEST PUSH0 DUP3 DUP3 MSTORE PUSH1 0x20 DUP3 ADD SWAP1 POP SWAP3 SWAP2 POP POP JUMP JUMPDEST DUP3 DUP2 DUP4 MCOPY PUSH0 DUP4 DUP4 ADD MSTORE POP POP POP JUMP JUMPDEST PUSH0 PUSH1 0x1F NOT PUSH1 0x1F DUP4 ADD AND SWAP1 POP SWAP2 SWAP1 POP JUMP JUMPDEST PUSH0 PUSH2 0x1582 DUP3 PUSH2 0x1540 JUMP JUMPDEST PUSH2 0x158C DUP2 DUP6 PUSH2 0x154A JUMP JUMPDEST SWAP4 POP PUSH2 0x159C DUP2 DUP6 PUSH1 0x20 DUP7 ADD PUSH2 0x155A JUMP JUMPDEST PUSH2 0x15A5 DUP2 PUSH2 0x1568 JUMP JUMPDEST DUP5 ADD SWAP2 POP POP SWAP3 SWAP2 POP POP JUMP JUMPDEST PUSH0 DUP2 MLOAD SWAP1 POP SWAP2 SWAP1 POP JUMP JUMPDEST PUSH0 DUP3 DUP3 MSTORE PUSH1 0x20 DUP3 ADD SWAP1 POP SWAP3 SWAP2 POP POP JUMP JUMPDEST PUSH0 DUP2 SWAP1 POP PUSH1 0x20 DUP3 ADD SWAP1 POP SWAP2 SWAP1 POP JUMP JUMPDEST PUSH0 DUP2 SWAP1 POP SWAP2 SWAP1 POP JUMP JUMPDEST PUSH2 0x15EB DUP2 PUSH2 0x15D9 JUMP JUMPDEST DUP3 MSTORE POP POP JUMP JUMPDEST PUSH0 PUSH2 0x15FC DUP4 DUP4 PUSH2 0x15E2 JUMP JUMPDEST PUSH1 0x20 DUP4 ADD SWAP1 POP SWAP3 SWAP2 POP POP JUMP JUMPDEST PUSH0 PUSH1 0x20 DUP3 ADD SWAP1 POP SWAP2 SWAP1 POP JUMP JUMPDEST PUSH0 PUSH2 0x161E DUP3 PUSH2 0x15B0 JUMP JUMPDEST PUSH2 0x1628 DUP2 DUP6 PUSH2 0x15BA JUMP JUMPDEST SWAP4 POP PUSH2 0x1633 DUP4 PUSH2 0x15CA JUMP JUMPDEST DUP1 PUSH0 JUMPDEST DUP4 DUP2 LT ISZERO PUSH2 0x1663 JUMPI DUP2 MLOAD PUSH2 0x164A DUP9 DUP3 PUSH2 0x15F1 JUMP JUMPDEST SWAP8 POP PUSH2 0x1655 DUP4 PUSH2 0x1608 JUMP JUMPDEST SWAP3 POP POP PUSH1 0x1 DUP2 ADD SWAP1 POP PUSH2 0x1636 JUMP JUMPDEST POP DUP6 SWAP4 POP POP POP POP SWAP3 SWAP2 POP POP JUMP JUMPDEST PUSH0 PUSH16 0xFFFFFFFFFFFFFFFFFFFFFFFFFFFFFFFF DUP3 AND SWAP1 POP SWAP2 SWAP1 POP JUMP JUMPDEST PUSH2 0x1694 DUP2 PUSH2 0x1670 JUMP JUMPDEST DUP3 MSTORE POP POP JUMP JUMPDEST PUSH0 DUP2 ISZERO ISZERO SWAP1 POP SWAP2 SWAP1 POP JUMP JUMPDEST PUSH2 0x16AE DUP2 PUSH2 0x169A JUMP JUMPDEST DUP3 MSTORE POP POP JUMP JUMPDEST PUSH0 PUSH1 0xE0 DUP3 ADD SWAP1 POP PUSH2 0x16C7 PUSH0 DUP4 ADD DUP11 PUSH2 0x1531 JUMP JUMPDEST DUP2 DUP2 SUB PUSH1 0x20 DUP4 ADD MSTORE PUSH2 0x16D9 DUP2 DUP10 PUSH2 0x1578 JUMP JUMPDEST SWAP1 POP DUP2 DUP2 SUB PUSH1 0x40 DUP4 ADD MSTORE PUSH2 0x16ED DUP2 DUP9 PUSH2 0x1614 JUMP JUMPDEST SWAP1 POP PUSH2 0x16FC PUSH1 0x60 DUP4 ADD DUP8 PUSH2 0x168B JUMP JUMPDEST PUSH2 0x1709 PUSH1 0x80 DUP4 ADD DUP7 PUSH2 0x1484 JUMP JUMPDEST PUSH2 0x1716 PUSH1 0xA0 DUP4 ADD DUP6 PUSH2 0x16A5 JUMP JUMPDEST PUSH2 0x1723 PUSH1 0xC0 DUP4 ADD DUP5 PUSH2 0x16A5 JUMP JUMPDEST SWAP9 SWAP8 POP POP POP POP POP POP POP POP JUMP JUMPDEST PUSH0 PUSH1 0x60 DUP3 ADD SWAP1 POP PUSH2 0x1742 PUSH0 DUP4 ADD DUP7 PUSH2 0x16A5 JUMP JUMPDEST PUSH2 0x174F PUSH1 0x20 DUP4 ADD DUP6 PUSH2 0x16A5 JUMP JUMPDEST PUSH2 0x175C PUSH1 0x40 DUP4 ADD DUP5 PUSH2 0x1531 JUMP JUMPDEST SWAP5 SWAP4 POP POP POP POP JUMP JUMPDEST PUSH2 0x176D DUP2 PUSH2 0x1520 JUMP JUMPDEST DUP2 EQ PUSH2 0x1777 JUMPI PUSH0 PUSH0 REVERT JUMPDEST POP JUMP JUMPDEST PUSH0 DUP2 CALLDATALOAD SWAP1 POP PUSH2 0x1788 DUP2 PUSH2 0x1764 JUMP JUMPDEST SWAP3 SWAP2 POP POP JUMP JUMPDEST PUSH0 PUSH0 PUSH1 0x40 DUP4 DUP6 SUB SLT ISZERO PUSH2 0x17A4 JUMPI PUSH2 0x17A3 PUSH2 0x1304 JUMP JUMPDEST JUMPDEST PUSH0 PUSH2 0x17B1 DUP6 DUP3 DUP7 ADD PUSH2 0x14C2 JUMP JUMPDEST SWAP3 POP POP PUSH1 0x20 PUSH2 0x17C2 DUP6 DUP3 DUP7 ADD PUSH2 0x177A JUMP JUMPDEST SWAP2 POP POP SWAP3 POP SWAP3 SWAP1 POP JUMP JUMPDEST PUSH0 PUSH1 0x20 DUP3 ADD SWAP1 POP PUSH2 0x17DF PUSH0 DUP4 ADD DUP5 PUSH2 0x16A5 JUMP JUMPDEST SWAP3 SWAP2 POP POP JUMP JUMPDEST PUSH2 0x17EE DUP2 PUSH2 0x15D9 JUMP JUMPDEST DUP2 EQ PUSH2 0x17F8 JUMPI PUSH0 PUSH0 REVERT JUMPDEST POP JUMP JUMPDEST PUSH0 DUP2 CALLDATALOAD SWAP1 POP PUSH2 0x1809 DUP2 PUSH2 0x17E5 JUMP JUMPDEST SWAP3 SWAP2 POP POP JUMP JUMPDEST PUSH0 PUSH0 PUSH1 0x40 DUP4 DUP6 SUB SLT ISZERO PUSH2 0x1825 JUMPI PUSH2 0x1824 PUSH2 0x1304 JUMP JUMPDEST JUMPDEST PUSH0 PUSH2 0x1832 DUP6 DUP3 DUP7 ADD PUSH2 0x14C2 JUMP JUMPDEST SWAP3 POP POP PUSH1 0x20 PUSH2 0x1843 DUP6 DUP3 DUP7 ADD PUSH2 0x17FB JUMP JUMPDEST SWAP2 POP POP SWAP3 POP SWAP3 SWAP1 POP JUMP JUMPDEST PUSH2 0x1856 DUP2 PUSH2 0x169A JUMP JUMPDEST DUP2 EQ PUSH2 0x1860 JUMPI PUSH0 PUSH0 REVERT JUMPDEST POP JUMP JUMPDEST PUSH0 DUP2 CALLDATALOAD SWAP1 POP PUSH2 0x1871 DUP2 PUSH2 0x184D JUMP JUMPDEST SWAP3 SWAP2 POP POP JUMP JUMPDEST PUSH0 PUSH0 PUSH1 0x40 DUP4 DUP6 SUB SLT ISZERO PUSH2 0x188D JUMPI PUSH2 0x188C PUSH2 0x1304 JUMP JUMPDEST JUMPDEST PUSH0 PUSH2 0x189A DUP6 DUP3 DUP7 ADD PUSH2 0x14C2 JUMP JUMPDEST SWAP3 POP POP PUSH1 0x20 PUSH2 0x18AB DUP6 DUP3 DUP7 ADD PUSH2 0x1863 JUMP JUMPDEST SWAP2 POP POP SWAP3 POP SWAP3 SWAP1 POP JUMP JUMPDEST PUSH0 PUSH1 0x80 DUP3 ADD SWAP1 POP PUSH2 0x18C8 PUSH0 DUP4 ADD DUP8 PUSH2 0x1449 JUMP JUMPDEST PUSH2 0x18D5 PUSH1 0x20 DUP4 ADD DUP7 PUSH2 0x1449 JUMP JUMPDEST PUSH2 0x18E2 PUSH1 0x40 DUP4 ADD DUP6 PUSH2 0x1484 JUMP JUMPDEST PUSH2 0x18EF PUSH1 0x60 DUP4 ADD DUP5 PUSH2 0x16A5 JUMP JUMPDEST SWAP6 SWAP5 POP POP POP POP POP JUMP JUMPDEST PUSH0 DUP2 SWAP1 POP SWAP2 SWAP1 POP JUMP JUMPDEST PUSH0 PUSH2 0x191B PUSH2 0x1916 PUSH2 0x1911 DUP5 PUSH2 0x1501 JUMP JUMPDEST PUSH2 0x18F8 JUMP JUMPDEST PUSH2 0x1501 JUMP JUMPDEST SWAP1 POP SWAP2 SWAP1 POP JUMP JUMPDEST PUSH0 PUSH2 0x192C DUP3 PUSH2 0x1901 JUMP JUMPDEST SWAP1 POP SWAP2 SWAP1 POP JUMP JUMPDEST PUSH0 PUSH2 0x193D DUP3 PUSH2 0x1922 JUMP JUMPDEST SWAP1 POP SWAP2 SWAP1 POP JUMP JUMPDEST PUSH2 0x194D DUP2 PUSH2 0x1933 JUMP JUMPDEST DUP3 MSTORE POP POP JUMP JUMPDEST PUSH0 PUSH1 0x20 DUP3 ADD SWAP1 POP PUSH2 0x1966 PUSH0 DUP4 ADD DUP5 PUSH2 0x1944 JUMP JUMPDEST SWAP3 SWAP2 POP POP JUMP JUMPDEST PUSH0 DUP3 SWAP1 POP SWAP3 SWAP2 POP POP JUMP JUMPDEST PUSH32 0x4E487B7100000000000000000000000000000000000000000000000000000000 PUSH0 MSTORE PUSH1 0x41 PUSH1 0x4 MSTORE PUSH1 0x24 PUSH0 REVERT JUMPDEST PUSH32 0x4E487B7100000000000000000000000000000000000000000000000000000000 PUSH0 MSTORE PUSH1 0x22 PUSH1 0x4 MSTORE PUSH1 0x24 PUSH0 REVERT JUMPDEST PUSH0 PUSH1 0x2 DUP3 DIV SWAP1 POP PUSH1 0x1 DUP3 AND DUP1 PUSH2 0x19E7 JUMPI PUSH1 0x7F DUP3 AND SWAP2 POP JUMPDEST PUSH1 0x20 DUP3 LT DUP2 SUB PUSH2 0x19FA JUMPI PUSH2 0x19F9 PUSH2 0x19A3 JUMP JUMPDEST JUMPDEST POP SWAP2 SWAP1 POP JUMP JUMPDEST PUSH0 DUP2 SWAP1 POP DUP2 PUSH0 MSTORE PUSH1 0x20 PUSH0 KECCAK256 SWAP1 POP SWAP2 SWAP1 POP JUMP JUMPDEST PUSH0 PUSH1 0x20 PUSH1 0x1F DUP4 ADD DIV SWAP1 POP SWAP2 SWAP1 POP JUMP JUMPDEST PUSH0 DUP3 DUP3 SHL SWAP1 POP SWAP3 SWAP2 POP POP JUMP JUMPDEST PUSH0 PUSH1 0x8 DUP4 MUL PUSH2 0x1A5C PUSH32 0xFFFFFFFFFFFFFFFFFFFFFFFFFFFFFFFFFFFFFFFFFFFFFFFFFFFFFFFFFFFFFFFF DUP3 PUSH2 0x1A21 JUMP JUMPDEST PUSH2 0x1A66 DUP7 DUP4 PUSH2 0x1A21 JUMP JUMPDEST SWAP6 POP DUP1 NOT DUP5 AND SWAP4 POP DUP1 DUP7 AND DUP5 OR SWAP3 POP POP POP SWAP4 SWAP3 POP POP POP JUMP JUMPDEST PUSH0 PUSH2 0x1A98 PUSH2 0x1A93 PUSH2 0x1A8E DUP5 PUSH2 0x1440 JUMP JUMPDEST PUSH2 0x18F8 JUMP JUMPDEST PUSH2 0x1440 JUMP JUMPDEST SWAP1 POP SWAP2 SWAP1 POP JUMP JUMPDEST PUSH0 DUP2 SWAP1 POP SWAP2 SWAP1 POP JUMP JUMPDEST PUSH2 0x1AB1 DUP4 PUSH2 0x1A7E JUMP JUMPDEST PUSH2 0x1AC5 PUSH2 0x1ABD DUP3 PUSH2 0x1A9F JUMP JUMPDEST DUP5 DUP5 SLOAD PUSH2 0x1A2D JUMP JUMPDEST DUP3 SSTORE POP POP POP POP JUMP JUMPDEST PUSH0 PUSH0 SWAP1 POP SWAP1 JUMP JUMPDEST PUSH2 0x1ADC PUSH2 0x1ACD JUMP JUMPDEST PUSH2 0x1AE7 DUP2 DUP5 DUP5 PUSH2 0x1AA8 JUMP JUMPDEST POP POP POP JUMP JUMPDEST JUMPDEST DUP2 DUP2 LT ISZERO PUSH2 0x1B0A JUMPI PUSH2 0x1AFF PUSH0 DUP3 PUSH2 0x1AD4 JUMP JUMPDEST PUSH1 0x1 DUP2 ADD SWAP1 POP PUSH2 0x1AED JUMP JUMPDEST POP POP JUMP JUMPDEST PUSH1 0x1F DUP3 GT ISZERO PUSH2 0x1B4F JUMPI PUSH2 0x1B20 DUP2 PUSH2 0x1A00 JUMP JUMPDEST PUSH2 0x1B29 DUP5 PUSH2 0x1A12 JUMP JUMPDEST DUP2 ADD PUSH1 0x20 DUP6 LT ISZERO PUSH2 0x1B38 JUMPI DUP2 SWAP1 POP JUMPDEST PUSH2 0x1B4C PUSH2 0x1B44 DUP6 PUSH2 0x1A12 JUMP JUMPDEST DUP4 ADD DUP3 PUSH2 0x1AEC JUMP JUMPDEST POP POP JUMPDEST POP POP POP JUMP JUMPDEST PUSH0 DUP3 DUP3 SHR SWAP1 POP SWAP3 SWAP2 POP POP JUMP JUMPDEST PUSH0 PUSH2 0x1B6F PUSH0 NOT DUP5 PUSH1 0x8 MUL PUSH2 0x1B54 JUMP JUMPDEST NOT DUP1 DUP4 AND SWAP2 POP POP SWAP3 SWAP2 POP POP JUMP JUMPDEST PUSH0 PUSH2 0x1B87 DUP4 DUP4 PUSH2 0x1B60 JUMP JUMPDEST SWAP2 POP DUP3 PUSH1 0x2 MUL DUP3 OR SWAP1 POP SWAP3 SWAP2 POP POP JUMP JUMPDEST PUSH2 0x1BA1 DUP4 DUP4 PUSH2 0x196C JUMP JUMPDEST PUSH8 0xFFFFFFFFFFFFFFFF DUP2 GT ISZERO PUSH2 0x1BBA JUMPI PUSH2 0x1BB9 PUSH2 0x1976 JUMP JUMPDEST JUMPDEST PUSH2 0x1BC4 DUP3 SLOAD PUSH2 0x19D0 JUMP JUMPDEST PUSH2 0x1BCF DUP3 DUP3 DUP6 PUSH2 0x1B0E JUMP JUMPDEST PUSH0 PUSH1 0x1F DUP4 GT PUSH1 0x1 DUP2 EQ PUSH2 0x1BFC JUMPI PUSH0 DUP5 ISZERO PUSH2 0x1BEA JUMPI DUP3 DUP8 ADD CALLDATALOAD SWAP1 POP JUMPDEST PUSH2 0x1BF4 DUP6 DUP3 PUSH2 0x1B7C JUMP JUMPDEST DUP7 SSTORE POP PUSH2 0x1C5B JUMP JUMPDEST PUSH1 0x1F NOT DUP5 AND PUSH2 0x1C0A DUP7 PUSH2 0x1A00 JUMP JUMPDEST PUSH0 JUMPDEST DUP3 DUP2 LT ISZERO PUSH2 0x1C31 JUMPI DUP5 DUP10 ADD CALLDATALOAD DUP3 SSTORE PUSH1 0x1 DUP3 ADD SWAP2 POP PUSH1 0x20 DUP6 ADD SWAP5 POP PUSH1 0x20 DUP2 ADD SWAP1 POP PUSH2 0x1C0C JUMP JUMPDEST DUP7 DUP4 LT ISZERO PUSH2 0x1C4E JUMPI DUP5 DUP10 ADD CALLDATALOAD PUSH2 0x1C4A PUSH1 0x1F DUP10 AND DUP3 PUSH2 0x1B60 JUMP JUMPDEST DUP4 SSTORE POP JUMPDEST PUSH1 0x1 PUSH1 0x2 DUP9 MUL ADD DUP9 SSTORE POP POP POP JUMPDEST POP POP POP POP POP POP POP JUMP JUMPDEST DUP3 DUP2 DUP4 CALLDATACOPY PUSH0 DUP4 DUP4 ADD MSTORE POP POP POP JUMP JUMPDEST PUSH0 PUSH2 0x1C7D DUP4 DUP6 PUSH2 0x154A JUMP JUMPDEST SWAP4 POP PUSH2 0x1C8A DUP4 DUP6 DUP5 PUSH2 0x1C64 JUMP JUMPDEST PUSH2 0x1C93 DUP4 PUSH2 0x1568 JUMP JUMPDEST DUP5 ADD SWAP1 POP SWAP4 SWAP3 POP POP POP JUMP JUMPDEST PUSH0 PUSH1 0x40 DUP3 ADD SWAP1 POP DUP2 DUP2 SUB PUSH0 DUP4 ADD MSTORE PUSH2 0x1CB7 DUP2 DUP6 DUP8 PUSH2 0x1C72 JUMP JUMPDEST SWAP1 POP PUSH2 0x1CC6 PUSH1 0x20 DUP4 ADD DUP5 PUSH2 0x168B JUMP JUMPDEST SWAP5 SWAP4 POP POP POP POP JUMP JUMPDEST PUSH32 0x4E487B7100000000000000000000000000000000000000000000000000000000 PUSH0 MSTORE PUSH1 0x32 PUSH1 0x4 MSTORE PUSH1 0x24 PUSH0 REVERT JUMPDEST PUSH0 DUP2 SWAP1 POP SWAP3 SWAP2 POP POP JUMP JUMPDEST POP JUMP JUMPDEST PUSH0 PUSH2 0x1D13 PUSH0 DUP4 PUSH2 0x1CFB JUMP JUMPDEST SWAP2 POP PUSH2 0x1D1E DUP3 PUSH2 0x1D05 JUMP JUMPDEST PUSH0 DUP3 ADD SWAP1 POP SWAP2 SWAP1 POP JUMP JUMPDEST PUSH0 PUSH2 0x1D32 DUP3 PUSH2 0x1D08 JUMP JUMPDEST SWAP2 POP DUP2 SWAP1 POP SWAP2 SWAP1 POP JUMP JUMPDEST PUSH32 0x726566756E64206661696C656400000000000000000000000000000000000000 PUSH0 DUP3 ADD MSTORE POP JUMP JUMPDEST PUSH0 PUSH2 0x1D70 PUSH1 0xD DUP4 PUSH2 0x154A JUMP JUMPDEST SWAP2 POP PUSH2 0x1D7B DUP3 PUSH2 0x1D3C JUMP JUMPDEST PUSH1 0x20 DUP3 ADD SWAP1 POP SWAP2 SWAP1 POP JUMP JUMPDEST PUSH0 PUSH1 0x20 DUP3 ADD SWAP1 POP DUP2 DUP2 SUB PUSH0 DUP4 ADD MSTORE PUSH2 0x1D9D DUP2 PUSH2 0x1D64 JUMP JUMPDEST SWAP1 POP SWAP2 SWAP1 POP JUMP JUMPDEST PUSH0 PUSH1 0x20 DUP3 ADD SWAP1 POP PUSH2 0x1DB7 PUSH0 DUP4 ADD DUP5 PUSH2 0x168B JUMP JUMPDEST SWAP3 SWAP2 POP POP JUMP JUMPDEST PUSH32 0x4E487B7100000000000000000000000000000000000000000000000000000000 PUSH0 MSTORE PUSH1 0x11 PUSH1 0x4 MSTORE PUSH1 0x24 PUSH0 REVERT JUMPDEST PUSH0 PUSH2 0x1DF4 DUP3 PUSH2 0x1440 JUMP JUMPDEST SWAP2 POP PUSH2 0x1DFF DUP4 PUSH2 0x1440 JUMP JUMPDEST SWAP3 POP DUP3 DUP3 ADD SWAP1 POP DUP1 DUP3 GT ISZERO PUSH2 0x1E17 JUMPI PUSH2 0x1E16 PUSH2 0x1DBD JUMP JUMPDEST JUMPDEST SWAP3 SWAP2 POP POP JUMP JUMPDEST PUSH0 PUSH2 0x1E27 DUP3 PUSH2 0x1471 JUMP JUMPDEST SWAP2 POP PUSH2 0x1E32 DUP4 PUSH2 0x1471 JUMP JUMPDEST SWAP3 POP DUP3 DUP3 ADD SWAP1 POP PUSH8 0xFFFFFFFFFFFFFFFF DUP2 GT ISZERO PUSH2 0x1E52 JUMPI PUSH2 0x1E51 PUSH2 0x1DBD JUMP JUMPDEST JUMPDEST SWAP3 SWAP2 POP POP JUMP JUMPDEST PUSH2 0x1E61 DUP2 PUSH2 0x15D9 JUMP JUMPDEST DUP3 MSTORE POP POP JUMP JUMPDEST PUSH0 PUSH1 0x40 DUP3 ADD SWAP1 POP PUSH2 0x1E7A PUSH0 DUP4 ADD DUP6 PUSH2 0x1E58 JUMP JUMPDEST PUSH2 0x1E87 PUSH1 0x20 DUP4 ADD DUP5 PUSH2 0x1484 JUMP JUMPDEST SWAP4 SWAP3 POP POP POP JUMP JUMPDEST PUSH0 PUSH1 0x20 DUP3 ADD SWAP1 POP PUSH2 0x1EA1 PUSH0 DUP4 ADD DUP5 PUSH2 0x1531 JUMP JUMPDEST SWAP3 SWAP2 POP POP JUMP JUMPDEST PUSH0 DUP2 MLOAD SWAP1 POP PUSH2 0x1EB5 DUP2 PUSH2 0x184D JUMP JUMPDEST SWAP3 SWAP2 POP POP JUMP JUMPDEST PUSH0 PUSH1 0x20 DUP3 DUP5 SUB SLT ISZERO PUSH2 0x1ED0 JUMPI PUSH2 0x1ECF PUSH2 0x1304 JUMP JUMPDEST JUMPDEST PUSH0 PUSH2 0x1EDD DUP5 DUP3 DUP6 ADD PUSH2 0x1EA7 JUMP JUMPDEST SWAP2 POP POP SWAP3 SWAP2 POP POP JUMP JUMPDEST PUSH0 PUSH2 0x1EF0 DUP3 PUSH2 0x1440 JUMP JUMPDEST SWAP2 POP PUSH2 0x1EFB DUP4 PUSH2 0x1440 JUMP JUMPDEST SWAP3 POP DUP3 DUP3 SUB SWAP1 POP DUP2 DUP2 GT ISZERO PUSH2 0x1F13 JUMPI PUSH2 0x1F12 PUSH2 0x1DBD JUMP JUMPDEST JUMPDEST SWAP3 SWAP2 POP POP JUMP JUMPDEST PUSH0 PUSH2 0x1F23 DUP3 PUSH2 0x1440 JUMP JUMPDEST SWAP2 POP PUSH2 0x1F2E DUP4 PUSH2 0x1440 JUMP JUMPDEST SWAP3 POP DUP3 DUP3 MUL PUSH2 0x1F3C DUP2 PUSH2 0x1440 JUMP JUMPDEST SWAP2 POP DUP3 DUP3 DIV DUP5 EQ DUP4 ISZERO OR PUSH2 0x1F53 JUMPI PUSH2 0x1F52 PUSH2 0x1DBD JUMP JUMPDEST JUMPDEST POP SWAP3 SWAP2 POP POP JUMP INVALID LOG2 PUSH5 0x6970667358 0x22 SLT KECCAK256 0xD4 0xD4 DUP7 0x4F 0xB7 SWAP6 REVERT 0x1F CREATE2 DATALOADN 0xE388 PUSH2 0x1389 0xCF 0xCF SWAP15 NUMBER SELFDESTRUCT SWAP3 RETURNDATACOPY 0xB9 0xCC 0xA8 LOG2 SWAP14 DELEGATECALL 0xDC PUSH28 0xE5D064736F6C634300081E0033000000000000000000000000000000 "
		},
		"gasEstimates": {
			"creation": {
				"codeDepositCost": "1616000",
				"executionCost": "infinite",
				"totalCost": "infinite"
			},
			"external": {
				"MIN_VOTES()": "354",
				"claim(uint256)": "infinite",
				"createPoll(string,bytes32[])": "infinite",
				"endorse(uint256,bool)": "infinite",
				"endorsement(uint256)": "infinite",
				"getPoll(uint256)": "infinite",
				"hasVoted(uint256,address)": "3093",
				"optionVotes(uint256,bytes32)": "infinite",
				"pollsCount()": "2484",
				"router()": "infinite",
				"standing(uint256)": "infinite",
				"vote(uint256,bytes32)": "infinite",
				"votesOf(uint256,bytes32)": "infinite"
			},
			"internal": {
				"_isOption(struct PollHub.Poll storage pointer,bytes32)": "infinite",
				"_significant(uint256,uint256,uint64)": "infinite",
				"_topTwo(uint256,struct PollHub.Poll storage pointer)": "infinite"
			}
		},
		"methodIdentifiers": {
			"MIN_VOTES()": "06736946",
			"claim(uint256)": "379607f5",
			"createPoll(string,bytes32[])": "00f63722",
			"endorse(uint256,bool)": "a994888b",
			"endorsement(uint256)": "2deddb66",
			"getPoll(uint256)": "1a8cbcaa",
			"hasVoted(uint256,address)": "43859632",
			"optionVotes(uint256,bytes32)": "99d5fca2",
			"pollsCount()": "179d760d",
			"router()": "f887ea40",
			"standing(uint256)": "e73f3e5d",
			"vote(uint256,bytes32)": "68bb8bb6",
			"votesOf(uint256,bytes32)": "c9ca51ea"
		}
	},
	"abi": [
		{
			"inputs": [
				{
					"internalType": "contract SPIDWalletRouter",
					"name": "_router",
					"type": "address"
				}
			],
			"stateMutability": "nonpayable",
			"type": "constructor"
		},
		{
			"inputs": [],
			"name": "AlreadyClaimed",
			"type": "error"
		},
		{
			"inputs": [],
			"name": "AlreadyVoted",
			"type": "error"
		},
		{
			"inputs": [],
			"name": "BadPoll",
			"type": "error"
		},
		{
			"inputs": [],
			"name": "BelowMinVotes",
			"type": "error"
		},
		{
			"inputs": [],
			"name": "NotCreator",
			"type": "error"
		},
		{
			"inputs": [],
			"name": "NotGovernment",
			"type": "error"
		},
		{
			"inputs": [],
			"name": "PollNotWon",
			"type": "error"
		},
		{
			"inputs": [],
			"name": "UnknownOption",
			"type": "error"
		},
		{
			"anonymous": false,
			"inputs": [
				{
					"indexed": true,
					"internalType": "uint256",
					"name": "id",
					"type": "uint256"
				},
				{
					"indexed": true,
					"internalType": "address",
					"name": "government",
					"type": "address"
				},
				{
					"indexed": false,
					"internalType": "bool",
					"name": "approve",
					"type": "bool"
				}
			],
			"name": "Endorsed",
			"type": "event"
		},
		{
			"anonymous": false,
			"inputs": [
				{
					"indexed": true,
					"internalType": "uint256",
					"name": "id",
					"type": "uint256"
				},
				{
					"indexed": true,
					"internalType": "address",
					"name": "creator",
					"type": "address"
				},
				{
					"indexed": false,
					"internalType": "string",
					"name": "question",
					"type": "string"
				},
				{
					"indexed": false,
					"internalType": "uint128",
					"name": "stake",
					"type": "uint128"
				}
			],
			"name": "PollCreated",
			"type": "event"
		},
		{
			"anonymous": false,
			"inputs": [
				{
					"indexed": true,
					"internalType": "uint256",
					"name": "id",
					"type": "uint256"
				}
			],
			"name": "PollWon",
			"type": "event"
		},
		{
			"anonymous": false,
			"inputs": [
				{
					"indexed": true,
					"internalType": "uint256",
					"name": "id",
					"type": "uint256"
				},
				{
					"indexed": true,
					"internalType": "address",
					"name": "creator",
					"type": "address"
				},
				{
					"indexed": false,
					"internalType": "uint128",
					"name": "amount",
					"type": "uint128"
				}
			],
			"name": "StakeClaimed",
			"type": "event"
		},
		{
			"anonymous": false,
			"inputs": [
				{
					"indexed": true,
					"internalType": "uint256",
					"name": "id",
					"type": "uint256"
				},
				{
					"indexed": true,
					"internalType": "address",
					"name": "voter",
					"type": "address"
				},
				{
					"indexed": false,
					"internalType": "bytes32",
					"name": "option",
					"type": "bytes32"
				},
				{
					"indexed": false,
					"internalType": "uint64",
					"name": "totalVotes",
					"type": "uint64"
				}
			],
			"name": "Voted",
			"type": "event"
		},
		{
			"inputs": [],
			"name": "MIN_VOTES",
			"outputs": [
				{
					"internalType": "uint64",
					"name": "",
					"type": "uint64"
				}
			],
			"stateMutability": "view",
			"type": "function"
		},
		{
			"inputs": [
				{
					"internalType": "uint256",
					"name": "id",
					"type": "uint256"
				}
			],
			"name": "claim",
			"outputs": [],
			"stateMutability": "nonpayable",
			"type": "function"
		},
		{
			"inputs": [
				{
					"internalType": "string",
					"name": "question",
					"type": "string"
				},
				{
					"internalType": "bytes32[]",
					"name": "options",
					"type": "bytes32[]"
				}
			],
			"name": "createPoll",
			"outputs": [
				{
					"internalType": "uint256",
					"name": "id",
					"type": "uint256"
				}
			],
			"stateMutability": "payable",
			"type": "function"
		},
		{
			"inputs": [
				{
					"internalType": "uint256",
					"name": "id",
					"type": "uint256"
				},
				{
					"internalType": "bool",
					"name": "approve",
					"type": "bool"
				}
			],
			"name": "endorse",
			"outputs": [],
			"stateMutability": "nonpayable",
			"type": "function"
		},
		{
			"inputs": [
				{
					"internalType": "uint256",
					"name": "id",
					"type": "uint256"
				}
			],
			"name": "endorsement",
			"outputs": [
				{
					"internalType": "bool",
					"name": "set",
					"type": "bool"
				},
				{
					"internalType": "bool",
					"name": "approve",
					"type": "bool"
				},
				{
					"internalType": "address",
					"name": "by",
					"type": "address"
				}
			],
			"stateMutability": "view",
			"type": "function"
		},
		{
			"inputs": [
				{
					"internalType": "uint256",
					"name": "id",
					"type": "uint256"
				}
			],
			"name": "getPoll",
			"outputs": [
				{
					"internalType": "address",
					"name": "creator",
					"type": "address"
				},
				{
					"internalType": "string",
					"name": "question",
					"type": "string"
				},
				{
					"internalType": "bytes32[]",
					"name": "options",
					"type": "bytes32[]"
				},
				{
					"internalType": "uint128",
					"name": "stake",
					"type": "uint128"
				},
				{
					"internalType": "uint64",
					"name": "totalVotes",
					"type": "uint64"
				},
				{
					"internalType": "bool",
					"name": "won",
					"type": "bool"
				},
				{
					"internalType": "bool",
					"name": "claimed",
					"type": "bool"
				}
			],
			"stateMutability": "view",
			"type": "function"
		},
		{
			"inputs": [
				{
					"internalType": "uint256",
					"name": "",
					"type": "uint256"
				},
				{
					"internalType": "address",
					"name": "",
					"type": "address"
				}
			],
			"name": "hasVoted",
			"outputs": [
				{
					"internalType": "bool",
					"name": "",
					"type": "bool"
				}
			],
			"stateMutability": "view",
			"type": "function"
		},
		{
			"inputs": [
				{
					"internalType": "uint256",
					"name": "id",
					"type": "uint256"
				},
				{
					"internalType": "bytes32",
					"name": "option",
					"type": "bytes32"
				}
			],
			"name": "optionVotes",
			"outputs": [
				{
					"internalType": "uint256",
					"name": "",
					"type": "uint256"
				}
			],
			"stateMutability": "view",
			"type": "function"
		},
		{
			"inputs": [],
			"name": "pollsCount",
			"outputs": [
				{
					"internalType": "uint256",
					"name": "",
					"type": "uint256"
				}
			],
			"stateMutability": "view",
			"type": "function"
		},
		{
			"inputs": [],
			"name": "router",
			"outputs": [
				{
					"internalType": "contract SPIDWalletRouter",
					"name": "",
					"type": "address"
				}
			],
			"stateMutability": "view",
			"type": "function"
		},
		{
			"inputs": [
				{
					"internalType": "uint256",
					"name": "id",
					"type": "uint256"
				}
			],
			"name": "standing",
			"outputs": [
				{
					"internalType": "uint256",
					"name": "top",
					"type": "uint256"
				},
				{
					"internalType": "uint256",
					"name": "second",
					"type": "uint256"
				},
				{
					"internalType": "uint64",
					"name": "total",
					"type": "uint64"
				},
				{
					"internalType": "bool",
					"name": "won",
					"type": "bool"
				}
			],
			"stateMutability": "view",
			"type": "function"
		},
		{
			"inputs": [
				{
					"internalType": "uint256",
					"name": "id",
					"type": "uint256"
				},
				{
					"internalType": "bytes32",
					"name": "option",
					"type": "bytes32"
				}
			],
			"name": "vote",
			"outputs": [],
			"stateMutability": "nonpayable",
			"type": "function"
		},
		{
			"inputs": [
				{
					"internalType": "uint256",
					"name": "",
					"type": "uint256"
				},
				{
					"internalType": "bytes32",
					"name": "",
					"type": "bytes32"
				}
			],
			"name": "votesOf",
			"outputs": [
				{
					"internalType": "uint256",
					"name": "",
					"type": "uint256"
				}
			],
			"stateMutability": "view",
			"type": "function"
		}
	]
}