{
	"data": {
		"bytecode": {
			"linkReferences": {},
			"object": "60c060405234801561000f575f5ffd5b506040516131ce3803806131ce833981810160405281019061003191906104c2565b8473ffffffffffffffffffffffffffffffffffffffff1660a08173ffffffffffffffffffffffffffffffffffffffff16815250508373ffffffffffffffffffffffffffffffffffffffff1660808173ffffffffffffffffffffffffffffffffffffffff1681525050825f90816100a7919061079d565b5081600190816100b7919061079d565b505f5b81518110156101845760048282815181106100d8576100d761086c565b5b6020026020010151908060018154018082558091505060019003905f5260205f20015f90919091909150908161010e919061079d565b50600330828484815181106101265761012561086c565b5b602002602001015160405160200161014093929190610938565b60405160208183030381529060405280519060200120908060018154018082558091505060019003905f5260205f20015f90919091909150558060010190506100ba565b50600160025f6101000a81548160ff021916908360038111156101aa576101a9610970565b5b02179055507fa6dcc92f45df25789d5639b7a0c97ba1edf3bb1c0b5dd3376fd96a0db87c464260025f9054906101000a900460ff166040516101ec91906109e3565b60405180910390a150505050506109fc565b5f604051905090565b5f5ffd5b5f5ffd5b5f73ffffffffffffffffffffffffffffffffffffffff82169050919050565b5f6102388261020f565b9050919050565b6102488161022e565b8114610252575f5ffd5b50565b5f815190506102638161023f565b92915050565b5f6102738261022e565b9050919050565b61028381610269565b811461028d575f5ffd5b50565b5f8151905061029e8161027a565b92915050565b5f5ffd5b5f5ffd5b5f601f19601f8301169050919050565b7f4e487b71000000000000000000000000000000000000000000000000000000005f52604160045260245ffd5b6102f2826102ac565b810181811067ffffffffffffffff82111715610311576103106102bc565b5b80604052505050565b5f6103236101fe565b905061032f82826102e9565b919050565b5f67ffffffffffffffff82111561034e5761034d6102bc565b5b610357826102ac565b9050602081019050919050565b8281835e5f83830152505050565b5f61038461037f84610334565b61031a565b9050828152602081018484840111156103a05761039f6102a8565b5b6103ab848285610364565b509392505050565b5f82601f8301126103c7576103c66102a4565b5b81516103d7848260208601610372565b91505092915050565b5f67ffffffffffffffff8211156103fa576103f96102bc565b5b602082029050602081019050919050565b5f5ffd5b5f61042161041c846103e0565b61031a565b905080838252602082019050602084028301858111156104445761044361040b565b5b835b8181101561048b57805167ffffffffffffffff811115610469576104686102a4565b5b80860161047689826103b3565b85526020850194505050602081019050610446565b5050509392505050565b5f82601f8301126104a9576104a86102a4565b5b81516104b984826020860161040f565b91505092915050565b5f5f5f5f5f60a086880312156104db576104da610207565b5b5f6104e888828901610255565b95505060206104f988828901610290565b945050604086015167ffffffffffffffff81111561051a5761051961020b565b5b610526888289016103b3565b935050606086015167ffffffffffffffff8111156105475761054661020b565b5b610553888289016103b3565b925050608086015167ffffffffffffffff8111156105745761057361020b565b5b61058088828901610495565b9150509295509295909350565b5f81519050919050565b7f4e487b71000000000000000000000000000000000000000000000000000000005f52602260045260245ffd5b5f60028204905060018216806105db57607f821691505b6020821081036105ee576105ed610597565b5b50919050565b5f819050815f5260205f209050919050565b5f6020601f8301049050919050565b5f82821b905092915050565b5f600883026106507fffffffffffffffffffffffffffffffffffffffffffffffffffffffffffffffff82610615565b61065a8683610615565b95508019841693508086168417925050509392505050565b5f819050919050565b5f819050919050565b5f61069e61069961069484610672565b61067b565b610672565b9050919050565b5f819050919050565b6106b783610684565b6106cb6106c3826106a5565b848454610621565b825550505050565b5f5f905090565b6106e26106d3565b6106ed8184846106ae565b505050565b5b81811015610710576107055f826106da565b6001810190506106f3565b5050565b601f82111561075557610726816105f4565b61072f84610606565b8101602085101561073e578190505b61075261074a85610606565b8301826106f2565b50505b505050565b5f82821c905092915050565b5f6107755f198460080261075a565b1980831691505092915050565b5f61078d8383610766565b9150826002028217905092915050565b6107a68261058d565b67ffffffffffffffff8111156107bf576107be6102bc565b5b6107c982546105c4565b6107d4828285610714565b5f60209050601f831160018114610805575f84156107f3578287015190505b6107fd8582610782565b865550610864565b601f198416610813866105f4565b5f5b8281101561083a57848901518255600182019150602085019450602081019050610815565b868310156108575784890151610853601f891682610766565b8355505b6001600288020188555050505b505050505050565b7f4e487b71000000000000000000000000000000000000000000000000000000005f52603260045260245ffd5b5f8160601b9050919050565b5f6108af82610899565b9050919050565b5f6108c0826108a5565b9050919050565b6108d86108d38261022e565b6108b6565b82525050565b5f819050919050565b6108f86108f382610672565b6108de565b82525050565b5f81905092915050565b5f6109128261058d565b61091c81856108fe565b935061092c818560208601610364565b80840191505092915050565b5f61094382866108c7565b60148201915061095382856108e7565b6020820191506109638284610908565b9150819050949350505050565b7f4e487b71000000000000000000000000000000000000000000000000000000005f52602160045260245ffd5b600481106109ae576109ad610970565b5b50565b5f8190506109be8261099d565b919050565b5f6109cd826109b1565b9050919050565b6109dd816109c3565b82525050565b5f6020820190506109f65f8301846109d4565b92915050565b60805160a05161278e610a405f395f81816104a7015281816105d80152610e4b01525f818161115f01528181611231015281816112d201526116d6015261278e5ff3fe608060405234801561000f575f5ffd5b5060043610610156575f3560e01c8063907a8585116100c1578063cc2ee1961161007a578063cc2ee196146103ce578063cdd72253146103ec578063da58c7d91461040a578063e3ce094d1461043a578063f6e22eb514610456578063f887ea401461048657610156565b8063907a85851461030a57806398c079381461033a578063b1c9fe6e14610358578063b3f05b9714610376578063bbd78e9314610394578063c03afb59146103b257610156565b80634abd18ab116101135780634abd18ab146102345780634c261247146102525780636a42a6421461026e578063826a5d561461029e5780638f9f07db146102bc578063903ac41d146102ec57610156565b80632672f5261461015a57806327cf38441461017857806339a926c4146101ac578063409e2205146101dc57806343d726d61461020c5780634a79d50c14610216575b5f5ffd5b6101626104a4565b60405161016f91906117f8565b60405180910390f35b610192600480360381019061018d9190611843565b6104cb565b6040516101a3959493929190611910565b60405180910390f35b6101c660048036038101906101c19190611992565b61059c565b6040516101d391906119d5565b60405180910390f35b6101f660048036038101906101f19190611a18565b6105b6565b6040516102039190611a43565b60405180910390f35b6102146105d6565b005b61021e6108c1565b60405161022b9190611a5c565b60405180910390f35b61023c61094c565b6040516102499190611b7f565b60405180910390f35b61026c60048036038101906102679190611c00565b610a20565b005b61028860048036038101906102839190611843565b610d25565b6040516102959190611c69565b60405180910390f35b6102a6610d45565b6040516102b39190611a5c565b60405180910390f35b6102d660048036038101906102d19190611c82565b610dd1565b6040516102e39190611cc0565b60405180910390f35b6102f4610dfb565b60405161030191906119d5565b60405180910390f35b610324600480360381019061031f9190611992565b610e01565b6040516103319190611cc0565b60405180910390f35b610342610e12565b60405161034f91906119d5565b60405180910390f35b610360610e1e565b60405161036d9190611d4c565b60405180910390f35b61037e610e30565b60405161038b9190611cc0565b60405180910390f35b61039c610e43565b6040516103a991906119d5565b60405180910390f35b6103cc60048036038101906103c79190611d88565b610e49565b005b6103d6610fd5565b6040516103e39190611e6a565b60405180910390f35b6103f461102b565b6040516104019190611f41565b60405180910390f35b610424600480360381019061041f9190611a18565b6110b6565b60405161043191906117f8565b60405180910390f35b610454600480360381019061044f9190611f61565b6110f1565b005b610470600480360381019061046b9190611992565b6116bf565b60405161047d91906119d5565b60405180910390f35b61048e6116d4565b60405161049b9190611ffa565b60405180910390f35b5f7f0000000000000000000000000000000000000000000000000000000000000000905090565b6006602052805f5260405f205f91509050805f015490806001015f9054906101000a900460ff16908060010160019054906101000a900460ff169080600201549080600301805461051b90612040565b80601f016020809104026020016040519081016040528092919081815260200182805461054790612040565b80156105925780601f1061056957610100808354040283529160200191610592565b820191905f5260205f20905b81548152906001019060200180831161057557829003601f168201915b5050505050905085565b5f60055f8381526020019081526020015f20549050919050565b600381815481106105c5575f80fd5b905f5260205f20015f915090505481565b7f000000000000000000000000000000000000000000000000000000000000000073ffffffffffffffffffffffffffffffffffffffff163373ffffffffffffffffffffffffffffffffffffffff161461065b576040517f1ccc6f2700000000000000000000000000000000000000000000000000000000815260040160405180910390fd5b6002600381111561066f5761066e611cd9565b5b60025f9054906101000a900460ff1660038111156106905761068f611cd9565b5b146106c7576040517ffae776d700000000000000000000000000000000000000000000000000000000815260040160405180910390fd5b600260019054906101000a900460ff161561070e576040517f475a253500000000000000000000000000000000000000000000000000000000815260040160405180910390fd5b5f5f5b6009805490508110156107fa575f60065f6009848154811061073657610735612070565b5b905f5260205f20015f9054906101000a900473ffffffffffffffffffffffffffffffffffffffff1673ffffffffffffffffffffffffffffffffffffffff1673ffffffffffffffffffffffffffffffffffffffff1681526020019081526020015f2090508060010160019054906101000a900460ff166107b557506107ef565b600160055f836002015481526020019081526020015f205f8282546107da91906120ca565b92505081905550826107eb906120fd565b9250505b806001019050610711565b506001600260016101000a81548160ff021916908315150217905550600360025f6101000a81548160ff0219169083600381111561083b5761083a611cd9565b5b02179055507fa6dcc92f45df25789d5639b7a0c97ba1edf3bb1c0b5dd3376fd96a0db87c464260036040516108709190611d4c565b60405180910390a17fb968440accd1ce5fa60b00de8bb8d8487eb2fda3c3701fb30fea3f69aa910a488182600a546108a89190612144565b6040516108b6929190612177565b60405180910390a150565b5f80546108cd90612040565b80601f01602080910402602001604051908101604052809291908181526020018280546108f990612040565b80156109445780601f1061091b57610100808354040283529160200191610944565b820191905f5260205f20905b81548152906001019060200180831161092757829003601f168201915b505050505081565b60606004805480602002602001604051908101604052809291908181526020015f905b82821015610a17578382905f5260205f2001805461098c90612040565b80601f01602080910402602001604051908101604052809291908181526020018280546109b890612040565b8015610a035780601f106109da57610100808354040283529160200191610a03565b820191905f5260205f20905b8154815290600101906020018083116109e657829003601f168201915b50505050508152602001906001019061096f565b50505050905090565b60026003811115610a3457610a33611cd9565b5b60025f9054906101000a900460ff166003811115610a5557610a54611cd9565b5b14610a8c576040517fd896054600000000000000000000000000000000000000000000000000000000815260040160405180910390fd5b5f60065f3373ffffffffffffffffffffffffffffffffffffffff1673ffffffffffffffffffffffffffffffffffffffff1681526020019081526020015f209050806001015f9054906101000a900460ff16610b13576040517f358f80a200000000000000000000000000000000000000000000000000000000815260040160405180910390fd5b8060010160019054906101000a900460ff1615610b5c576040517fa89ac15100000000000000000000000000000000000000000000000000000000815260040160405180910390fd5b5f5b600380549050811015610ccc57610bd860038281548110610b8257610b81612070565b5b905f5260205f20015485858080601f0160208091040260200160405190810160405280939291908181526020018383808284375f81840152601f19601f82011690508083019250505050505050845f01546116f8565b15610cc15760018260010160016101000a81548160ff02191690831515021790555060038181548110610c0e57610c0d612070565b5b905f5260205f20015482600201819055508383836003019182610c3292919061236c565b50600b5f815480929190610c45906120fd565b91905055503373ffffffffffffffffffffffffffffffffffffffff167fb0badfe092a7c4f1c6bbe483de673ce846cfc95a2d65f8aa4e98141bb6619fd360048381548110610c9657610c95612070565b5b905f5260205f200186866001604051610cb294939291906124f4565b60405180910390a25050610d21565b806001019050610b5e565b503373ffffffffffffffffffffffffffffffffffffffff167fb0badfe092a7c4f1c6bbe483de673ce846cfc95a2d65f8aa4e98141bb6619fd384845f604051610d179392919061255c565b60405180910390a2505b5050565b6007602052805f5260405f205f915054906101000a900463ffffffff1681565b60018054610d5290612040565b80601f0160208091040260200160405190810160405280929190818152602001828054610d7e90612040565b8015610dc95780601f10610da057610100808354040283529160200191610dc9565b820191905f5260205f20905b815481529060010190602001808311610dac57829003601f168201915b505050505081565b6008602052815f5260405f20602052805f5260405f205f915091509054906101000a900460ff1681565b600a5481565b5f610e0b8261170e565b9050919050565b5f600980549050905090565b60025f9054906101000a900460ff1681565b600260019054906101000a900460ff1681565b600b5481565b7f000000000000000000000000000000000000000000000000000000000000000073ffffffffffffffffffffffffffffffffffffffff163373ffffffffffffffffffffffffffffffffffffffff1614610ece576040517f1ccc6f2700000000000000000000000000000000000000000000000000000000815260040160405180910390fd5b600380811115610ee157610ee0611cd9565b5b816003811115610ef457610ef3611cd9565b5b03610f2b576040517ffae776d700000000000000000000000000000000000000000000000000000000815260040160405180910390fd5b600260019054906101000a900460ff1615610f72576040517f475a253500000000000000000000000000000000000000000000000000000000815260040160405180910390fd5b8060025f6101000a81548160ff02191690836003811115610f9657610f95611cd9565b5b02179055507fa6dcc92f45df25789d5639b7a0c97ba1edf3bb1c0b5dd3376fd96a0db87c464281604051610fca9190611d4c565b60405180910390a150565b6060600380548060200260200160405190810160405280929190818152602001828054801561102157602002820191905f5260205f20905b81548152602001906001019080831161100d575b5050505050905090565b606060098054806020026020016040519081016040528092919081815260200182805480156110ac57602002820191905f5260205f20905b815f9054906101000a900473ffffffffffffffffffffffffffffffffffffffff1673ffffffffffffffffffffffffffffffffffffffff1681526020019060010190808311611063575b5050505050905090565b600981815481106110c5575f80fd5b905f5260205f20015f915054906101000a900473ffffffffffffffffffffffffffffffffffffffff1681565b6001600381111561110557611104611cd9565b5b60025f9054906101000a900460ff16600381111561112657611125611cd9565b5b1461115d576040517f3d0e4af700000000000000000000000000000000000000000000000000000000815260040160405180910390fd5b7f000000000000000000000000000000000000000000000000000000000000000073ffffffffffffffffffffffffffffffffffffffff1663ae5922d43360016040518363ffffffff1660e01b81526004016111b992919061259f565b602060405180830381865afa1580156111d4573d5f5f3e3d5ffd5b505050506040513d601f19601f820116820180604052508101906111f891906125f7565b1561122f576040517f7d75fb6800000000000000000000000000000000000000000000000000000000815260040160405180910390fd5b7f000000000000000000000000000000000000000000000000000000000000000073ffffffffffffffffffffffffffffffffffffffff166356712f21303360016040518463ffffffff1660e01b815260040161128d93929190612622565b602060405180830381865afa1580156112a8573d5f5f3e3d5ffd5b505050506040513d601f19601f820116820180604052508101906112cc91906125f7565b6113d2577f000000000000000000000000000000000000000000000000000000000000000073ffffffffffffffffffffffffffffffffffffffff166365e4ad9e30336040518363ffffffff1660e01b815260040161132b92919061265e565b602060405180830381865afa158015611346573d5f5f3e3d5ffd5b505050506040513d601f19601f8201168201806040525081019061136a91906125f7565b6113a0576040517f5a7de52100000000000000000000000000000000000000000000000000000000815260040160405180910390fd5b6040517f5ad080bf00000000000000000000000000000000000000000000000000000000815260040160405180910390fd5b61141860085f3373ffffffffffffffffffffffffffffffffffffffff1673ffffffffffffffffffffffffffffffffffffffff1681526020019081526020015f2082611760565b61144e576040517f850828c400000000000000000000000000000000000000000000000000000000815260040160405180910390fd5b600160085f3373ffffffffffffffffffffffffffffffffffffffff1673ffffffffffffffffffffffffffffffffffffffff1681526020019081526020015f205f8381526020019081526020015f205f6101000a81548160ff0219169083151502179055505f60065f3373ffffffffffffffffffffffffffffffffffffffff1673ffffffffffffffffffffffffffffffffffffffff1681526020019081526020015f209050806001015f9054906101000a900460ff1661159b576001816001015f6101000a81548160ff021916908315150217905550600a5f815480929190611535906120fd565b9190505550600933908060018154018082558091505060019003905f5260205f20015f9091909190916101000a81548173ffffffffffffffffffffffffffffffffffffffff021916908373ffffffffffffffffffffffffffffffffffffffff1602179055505b82815f018190555060075f3373ffffffffffffffffffffffffffffffffffffffff1673ffffffffffffffffffffffffffffffffffffffff1681526020019081526020015f205f81819054906101000a900463ffffffff16809291906115ff90612685565b91906101000a81548163ffffffff021916908363ffffffff160217905550503373ffffffffffffffffffffffffffffffffffffffff167fc36ee38ab4bb6ee36048925089c6c2c83d2d608c0013a08e450968f3eebc229f8460075f3373ffffffffffffffffffffffffffffffffffffffff1673ffffffffffffffffffffffffffffffffffffffff1681526020019081526020015f205f9054906101000a900463ffffffff166040516116b29291906126b0565b60405180910390a2505050565b6005602052805f5260405f205f915090505481565b7f000000000000000000000000000000000000000000000000000000000000000081565b5f816117048585611787565b1490509392505050565b5f5f5b60038054905081101561175657826003828154811061173357611732612070565b5b905f5260205f2001540361174b57600191505061175b565b806001019050611711565b505f90505b919050565b5f825f8381526020019081526020015f205f9054906101000a900460ff1615905092915050565b5f828260405160200161179b929190612731565b60405160208183030381529060405280519060200120905092915050565b5f73ffffffffffffffffffffffffffffffffffffffff82169050919050565b5f6117e2826117b9565b9050919050565b6117f2816117d8565b82525050565b5f60208201905061180b5f8301846117e9565b92915050565b5f5ffd5b5f5ffd5b611822816117d8565b811461182c575f5ffd5b50565b5f8135905061183d81611819565b92915050565b5f6020828403121561185857611857611811565b5b5f6118658482850161182f565b91505092915050565b5f819050919050565b6118808161186e565b82525050565b5f8115159050919050565b61189a81611886565b82525050565b5f81519050919050565b5f82825260208201905092915050565b8281835e5f83830152505050565b5f601f19601f8301169050919050565b5f6118e2826118a0565b6118ec81856118aa565b93506118fc8185602086016118ba565b611905816118c8565b840191505092915050565b5f60a0820190506119235f830188611877565b6119306020830187611891565b61193d6040830186611891565b61194a6060830185611877565b818103608083015261195c81846118d8565b90509695505050505050565b6119718161186e565b811461197b575f5ffd5b50565b5f8135905061198c81611968565b92915050565b5f602082840312156119a7576119a6611811565b5b5f6119b48482850161197e565b91505092915050565b5f819050919050565b6119cf816119bd565b82525050565b5f6020820190506119e85f8301846119c6565b92915050565b6119f7816119bd565b8114611a01575f5ffd5b50565b5f81359050611a12816119ee565b92915050565b5f60208284031215611a2d57611a2c611811565b5b5f611a3a84828501611a04565b91505092915050565b5f602082019050611a565f830184611877565b92915050565b5f6020820190508181035f830152611a7481846118d8565b905092915050565b5f81519050919050565b5f82825260208201905092915050565b5f819050602082019050919050565b5f82825260208201905092915050565b5f611abf826118a0565b611ac98185611aa5565b9350611ad98185602086016118ba565b611ae2816118c8565b840191505092915050565b5f611af88383611ab5565b905092915050565b5f602082019050919050565b5f611b1682611a7c565b611b208185611a86565b935083602082028501611b3285611a96565b805f5b85811015611b6d5784840389528151611b4e8582611aed565b9450611b5983611b00565b925060208a01995050600181019050611b35565b50829750879550505050505092915050565b5f6020820190508181035f830152611b978184611b0c565b905092915050565b5f5ffd5b5f5ffd5b5f5ffd5b5f5f83601f840112611bc057611bbf611b9f565b5b8235905067ffffffffffffffff811115611bdd57611bdc611ba3565b5b602083019150836001820283011115611bf957611bf8611ba7565b5b9250929050565b5f5f60208385031215611c1657611c15611811565b5b5f83013567ffffffffffffffff811115611c3357611c32611815565b5b611c3f85828601611bab565b92509250509250929050565b5f63ffffffff82169050919050565b611c6381611c4b565b82525050565b5f602082019050611c7c5f830184611c5a565b92915050565b5f5f60408385031215611c9857611c97611811565b5b5f611ca58582860161182f565b9250506020611cb68582860161197e565b9150509250929050565b5f602082019050611cd35f830184611891565b92915050565b7f4e487b71000000000000000000000000000000000000000000000000000000005f52602160045260245ffd5b60048110611d1757611d16611cd9565b5b50565b5f819050611d2782611d06565b919050565b5f611d3682611d1a565b9050919050565b611d4681611d2c565b82525050565b5f602082019050611d5f5f830184611d3d565b92915050565b60048110611d71575f5ffd5b50565b5f81359050611d8281611d65565b92915050565b5f60208284031215611d9d57611d9c611811565b5b5f611daa84828501611d74565b91505092915050565b5f81519050919050565b5f82825260208201905092915050565b5f819050602082019050919050565b611de58161186e565b82525050565b5f611df68383611ddc565b60208301905092915050565b5f602082019050919050565b5f611e1882611db3565b611e228185611dbd565b9350611e2d83611dcd565b805f5b83811015611e5d578151611e448882611deb565b9750611e4f83611e02565b925050600181019050611e30565b5085935050505092915050565b5f6020820190508181035f830152611e828184611e0e565b905092915050565b5f81519050919050565b5f82825260208201905092915050565b5f819050602082019050919050565b611ebc816117d8565b82525050565b5f611ecd8383611eb3565b60208301905092915050565b5f602082019050919050565b5f611eef82611e8a565b611ef98185611e94565b9350611f0483611ea4565b805f5b83811015611f34578151611f1b8882611ec2565b9750611f2683611ed9565b925050600181019050611f07565b5085935050505092915050565b5f6020820190508181035f830152611f598184611ee5565b905092915050565b5f5f60408385031215611f7757611f76611811565b5b5f611f848582860161197e565b9250506020611f958582860161197e565b9150509250929050565b5f819050919050565b5f611fc2611fbd611fb8846117b9565b611f9f565b6117b9565b9050919050565b5f611fd382611fa8565b9050919050565b5f611fe482611fc9565b9050919050565b611ff481611fda565b82525050565b5f60208201905061200d5f830184611feb565b92915050565b7f4e487b71000000000000000000000000000000000000000000000000000000005f52602260045260245ffd5b5f600282049050600182168061205757607f821691505b60208210810361206a57612069612013565b5b50919050565b7f4e487b71000000000000000000000000000000000000000000000000000000005f52603260045260245ffd5b7f4e487b71000000000000000000000000000000000000000000000000000000005f52601160045260245ffd5b5f6120d4826119bd565b91506120df836119bd565b92508282019050808211156120f7576120f661209d565b5b92915050565b5f612107826119bd565b91507fffffffffffffffffffffffffffffffffffffffffffffffffffffffffffffffff82036121395761213861209d565b5b600182019050919050565b5f61214e826119bd565b9150612159836119bd565b92508282039050818111156121715761217061209d565b5b92915050565b5f60408201905061218a5f8301856119c6565b61219760208301846119c6565b9392505050565b5f82905092915050565b7f4e487b71000000000000000000000000000000000000000000000000000000005f52604160045260245ffd5b5f819050815f5260205f209050919050565b5f6020601f8301049050919050565b5f82821b905092915050565b5f600883026122317fffffffffffffffffffffffffffffffffffffffffffffffffffffffffffffffff826121f6565b61223b86836121f6565b95508019841693508086168417925050509392505050565b5f61226d612268612263846119bd565b611f9f565b6119bd565b9050919050565b5f819050919050565b61228683612253565b61229a61229282612274565b848454612202565b825550505050565b5f5f905090565b6122b16122a2565b6122bc81848461227d565b505050565b5b818110156122df576122d45f826122a9565b6001810190506122c2565b5050565b601f821115612324576122f5816121d5565b6122fe846121e7565b8101602085101561230d578190505b612321612319856121e7565b8301826122c1565b50505b505050565b5f82821c905092915050565b5f6123445f1984600802612329565b1980831691505092915050565b5f61235c8383612335565b9150826002028217905092915050565b612376838361219e565b67ffffffffffffffff81111561238f5761238e6121a8565b5b6123998254612040565b6123a48282856122e3565b5f601f8311600181146123d1575f84156123bf578287013590505b6123c98582612351565b865550612430565b601f1984166123df866121d5565b5f5b82811015612406578489013582556001820191506020850194506020810190506123e1565b86831015612423578489013561241f601f891682612335565b8355505b6001600288020188555050505b50505050505050565b5f815461244581612040565b61244f81866118aa565b9450600182165f8114612469576001811461247f576124b1565b60ff1983168652811515602002860193506124b1565b612488856121d5565b5f5b838110156124a95781548189015260018201915060208101905061248a565b808801955050505b50505092915050565b828183375f83830152505050565b5f6124d383856118aa565b93506124e08385846124ba565b6124e9836118c8565b840190509392505050565b5f6060820190508181035f83015261250c8187612439565b905081810360208301526125218185876124c8565b90506125306040830184611891565b95945050505050565b50565b5f6125475f836118aa565b915061255282612539565b5f82019050919050565b5f6060820190508181035f8301526125738161253c565b905081810360208301526125888185876124c8565b90506125976040830184611891565b949350505050565b5f6040820190506125b25f8301856117e9565b81810360208301526125c48184612439565b90509392505050565b6125d681611886565b81146125e0575f5ffd5b50565b5f815190506125f1816125cd565b92915050565b5f6020828403121561260c5761260b611811565b5b5f612619848285016125e3565b91505092915050565b5f6060820190506126355f8301866117e9565b61264260208301856117e9565b81810360408301526126548184612439565b9050949350505050565b5f6040820190506126715f8301856117e9565b61267e60208301846117e9565b9392505050565b5f61268f82611c4b565b915063ffffffff82036126a5576126a461209d565b5b600182019050919050565b5f6040820190506126c35f830185611877565b6126d06020830184611c5a565b9392505050565b5f819050919050565b6126f16126ec8261186e565b6126d7565b82525050565b5f81905092915050565b5f61270b826118a0565b61271581856126f7565b93506127258185602086016118ba565b80840191505092915050565b5f61273c82856126e0565b60208201915061274c8284612701565b9150819050939250505056fea2646970667358221220b72f0820998355ac669f47d6538fca5f4cc8abce49246662cffa1694deb0278464736f6c634300081e0033",
			"opcodes": "PUSH1 0xC0 PUSH1 0x40 MSTORE CALLVALUE DUP1 ISZERO PUSH2 0xF JUMPI PUSH0 PUSH0 REVERT JUMPDEST POP PUSH1 0x40 MLOAD PUSH2 0x31CE CODESIZE SUB DUP1 PUSH2 0x31CE DUP4 CODECOPY DUP2 DUP2 ADD PUSH1 0x40 MSTORE DUP2 ADD SWAP1 PUSH2 0x31 SWAP2 SWAP1 PUSH2 0x4C2 JUMP JUMPDEST DUP5 PUSH20 0xFFFFFFFFFFFFFFFFFFFFFFFFFFFFFFFFFFFFFFFF AND PUSH1 0xA0 DUP2 PUSH20 0xFFFFFFFFFFFFFFFFFFFFFFFFFFFFFFFFFFFFFFFF AND DUP2 MSTORE POP POP DUP4 PUSH20 0xFFFFFFFFFFFFFFFFFFFFFFFFFFFFFFFFFFFFFFFF AND PUSH1 0x80 DUP2 PUSH20 0xFFFFFFFFFFFFFFFFFFFFFFFFFFFFFFFFFFFFFFFF AND DUP2 MSTORE POP POP DUP3 PUSH0 SWAP1 DUP2 PUSH2 0xA7 SWAP2 SWAP1 PUSH2 0x79D JUMP JUMPDEST POP DUP2 PUSH1 0x1 SWAP1 DUP2 PUSH2 0xB7 SWAP2 SWAP1 PUSH2 0x79D JUMP JUMPDEST POP PUSH0 JUMPDEST DUP2 MLOAD DUP2 LT ISZERO PUSH2 0x184 JUMPI PUSH1 0x4 DUP3 DUP3 DUP2 MLOAD DUP2 LT PUSH2 0xD8 JUMPI PUSH2 0xD7 PUSH2 0x86C JUMP JUMPDEST JUMPDEST PUSH1 0x20 MUL PUSH1 0x20 ADD ADD MLOAD SWAP1 DUP1 PUSH1 0x1 DUP2 SLOAD ADD DUP1 DUP3 SSTORE DUP1 SWAP2 POP POP PUSH1 0x1 SWAP1 SUB SWAP1 PUSH0 MSTORE PUSH1 0x20 PUSH0 KECCAK256 ADD PUSH0 SWAP1 SWAP2 SWAP1 SWAP2 SWAP1 SWAP2 POP SWAP1 DUP2 PUSH2 0x10E SWAP2 SWAP1 PUSH2 0x79D JUMP JUMPDEST POP PUSH1 0x3 ADDRESS DUP3 DUP5 DUP5 DUP2 MLOAD DUP2 LT PUSH2 0x126 JUMPI PUSH2 0x125 PUSH2 0x86C JUMP JUMPDEST JUMPDEST PUSH1 0x20 MUL PUSH1 0x20 ADD ADD MLOAD PUSH1 0x40 MLOAD PUSH1 0x20 ADD PUSH2 0x140 SWAP4 SWAP3 SWAP2 SWAP1 PUSH2 0x938 JUMP JUMPDEST PUSH1 0x40 MLOAD PUSH1 0x20 DUP2 DUP4 SUB SUB DUP2 MSTORE SWAP1 PUSH1 0x40 MSTORE DUP1 MLOAD SWAP1 PUSH1 0x20 ADD KECCAK256 SWAP1 DUP1 PUSH1 0x1 DUP2 SLOAD ADD DUP1 DUP3 SSTORE DUP1 SWAP2 POP POP PUSH1 0x1 SWAP1 SUB SWAP1 PUSH0 MSTORE PUSH1 0x20 PUSH0 KECCAK256 ADD PUSH0 SWAP1 SWAP2 SWAP1 SWAP2 SWAP1 SWAP2 POP SSTORE DUP1 PUSH1 0x1 ADD SWAP1 POP PUSH2 0xBA JUMP JUMPDEST POP PUSH1 0x1 PUSH1 0x2 PUSH0 PUSH2 0x100 EXP DUP2 SLOAD DUP2 PUSH1 0xFF MUL NOT AND SWAP1 DUP4 PUSH1 0x3 DUP2 GT ISZERO PUSH2 0x1AA JUMPI PUSH2 0x1A9 PUSH2 0x970 JUMP JUMPDEST JUMPDEST MUL OR SWAP1 SSTORE POP PUSH32 0xA6DCC92F45DF25789D5639B7A0C97BA1EDF3BB1C0B5DD3376FD96A0DB87C4642 PUSH1 0x2 PUSH0 SWAP1 SLOAD SWAP1 PUSH2 0x100 EXP SWAP1 DIV PUSH1 0xFF AND PUSH1 0x40 MLOAD PUSH2 0x1EC SWAP2 SWAP1 PUSH2 0x9E3 JUMP JUMPDEST PUSH1 0x40 MLOAD DUP1 SWAP2 SUB SWAP1 LOG1 POP POP POP POP POP PUSH2 0x9FC JUMP JUMPDEST PUSH0 PUSH1 0x40 MLOAD SWAP1 POP SWAP1 JUMP JUMPDEST PUSH0 PUSH0 REVERT JUMPDEST PUSH0 PUSH0 REVERT JUMPDEST PUSH0 PUSH20 0xFFFFFFFFFFFFFFFFFFFFFFFFFFFFFFFFFFFFFFFF DUP3 AND SWAP1 POP SWAP2 SWAP1 POP JUMP JUMPDEST PUSH0 PUSH2 0x238 DUP3 PUSH2 0x20F JUMP JUMPDEST SWAP1 POP SWAP2 SWAP1 POP JUMP JUMPDEST PUSH2 0x248 DUP2 PUSH2 0x22E JUMP JUMPDEST DUP2 EQ PUSH2 0x252 JUMPI PUSH0 PUSH0 REVERT JUMPDEST POP JUMP JUMPDEST PUSH0 DUP2 MLOAD SWAP1 POP PUSH2 0x263 DUP2 PUSH2 0x23F JUMP JUMPDEST SWAP3 SWAP2 POP POP JUMP JUMPDEST PUSH0 PUSH2 0x273 DUP3 PUSH2 0x22E JUMP JUMPDEST SWAP1 POP SWAP2 SWAP1 POP JUMP JUMPDEST PUSH2 0x283 DUP2 PUSH2 0x269 JUMP JUMPDEST DUP2 EQ PUSH2 0x28D JUMPI PUSH0 PUSH0 REVERT JUMPDEST POP JUMP JUMPDEST PUSH0 DUP2 MLOAD SWAP1 POP PUSH2 0x29E DUP2 PUSH2 0x27A JUMP JUMPDEST SWAP3 SWAP2 POP POP JUMP JUMPDEST PUSH0 PUSH0 REVERT JUMPDEST PUSH0 PUSH0 REVERT JUMPDEST PUSH0 PUSH1 0x1F NOT PUSH1 0x1F DUP4 ADD AND SWAP1 POP SWAP2 SWAP1 POP JUMP JUMPDEST PUSH32 0x4E487B7100000000000000000000000000000000000000000000000000000000 PUSH0 MSTORE PUSH1 0x41 PUSH1 0x4 MSTORE PUSH1 0x24 PUSH0 REVERT JUMPDEST PUSH2 0x2F2 DUP3 PUSH2 0x2AC JUMP JUMPDEST DUP2 ADD DUP2 DUP2 LT PUSH8 0xFFFFFFFFFFFFFFFF DUP3 GT OR ISZERO PUSH2 0x311 JUMPI PUSH2 0x310 PUSH2 0x2BC JUMP JUMPDEST JUMPDEST DUP1 PUSH1 0x40 MSTORE POP POP POP JUMP JUMPDEST PUSH0 PUSH2 0x323 PUSH2 0x1FE JUMP JUMPDEST SWAP1 POP PUSH2 0x32F DUP3 DUP3 PUSH2 0x2E9 JUMP JUMPDEST SWAP2 SWAP1 POP JUMP JUMPDEST PUSH0 PUSH8 0xFFFFFFFFFFFFFFFF DUP3 GT ISZERO PUSH2 0x34E JUMPI PUSH2 0x34D PUSH2 0x2BC JUMP JUMPDEST JUMPDEST PUSH2 0x357 DUP3 PUSH2 0x2AC JUMP JUMPDEST SWAP1 POP PUSH1 0x20 DUP2 ADD SWAP1 POP SWAP2 SWAP1 POP JUMP JUMPDEST DUP3 DUP2 DUP4 MCOPY PUSH0 DUP4 DUP4 ADD MSTORE POP POP POP JUMP JUMPDEST PUSH0 PUSH2 0x384 PUSH2 0x37F DUP5 PUSH2 0x334 JUMP JUMPDEST PUSH2 0x31A JUMP JUMPDEST SWAP1 POP DUP3 DUP2 MSTORE PUSH1 0x20 DUP2 ADD DUP5 DUP5 DUP5 ADD GT ISZERO PUSH2 0x3A0 JUMPI PUSH2 0x39F PUSH2 0x2A8 JUMP JUMPDEST JUMPDEST PUSH2 0x3AB DUP5 DUP3 DUP6 PUSH2 0x364 JUMP JUMPDEST POP SWAP4 SWAP3 POP POP POP JUMP JUMPDEST PUSH0 DUP3 PUSH1 0x1F DUP4 ADD SLT PUSH2 0x3C7 JUMPI PUSH2 0x3C6 PUSH2 0x2A4 JUMP JUMPDEST JUMPDEST DUP2 MLOAD PUSH2 0x3D7 DUP5 DUP3 PUSH1 0x20 DUP7 ADD PUSH2 0x372 JUMP JUMPDEST SWAP2 POP POP SWAP3 SWAP2 POP POP JUMP JUMPDEST PUSH0 PUSH8 0xFFFFFFFFFFFFFFFF DUP3 GT ISZERO PUSH2 0x3FA JUMPI PUSH2 0x3F9 PUSH2 0x2BC JUMP JUMPDEST JUMPDEST PUSH1 0x20 DUP3 MUL SWAP1 POP PUSH1 0x20 DUP2 ADD SWAP1 POP SWAP2 SWAP1 POP JUMP JUMPDEST PUSH0 PUSH0 REVERT JUMPDEST PUSH0 PUSH2 0x421 PUSH2 0x41C DUP5 PUSH2 0x3E0 JUMP JUMPDEST PUSH2 0x31A JUMP JUMPDEST SWAP1 POP DUP1 DUP4 DUP3 MSTORE PUSH1 0x20 DUP3 ADD SWAP1 POP PUSH1 0x20 DUP5 MUL DUP4 ADD DUP6 DUP2 GT ISZERO PUSH2 0x444 JUMPI PUSH2 0x443 PUSH2 0x40B JUMP JUMPDEST JUMPDEST DUP4 JUMPDEST DUP2 DUP2 LT ISZERO PUSH2 0x48B JUMPI DUP1 MLOAD PUSH8 0xFFFFFFFFFFFFFFFF DUP2 GT ISZERO PUSH2 0x469 JUMPI PUSH2 0x468 PUSH2 0x2A4 JUMP JUMPDEST JUMPDEST DUP1 DUP7 ADD PUSH2 0x476 DUP10 DUP3 PUSH2 0x3B3 JUMP JUMPDEST DUP6 MSTORE PUSH1 0x20 DUP6 ADD SWAP5 POP POP POP PUSH1 0x20 DUP2 ADD SWAP1 POP PUSH2 0x446 JUMP JUMPDEST POP POP POP SWAP4 SWAP3 POP POP POP JUMP JUMPDEST PUSH0 DUP3 PUSH1 0x1F DUP4 ADD SLT PUSH2 0x4A9 JUMPI PUSH2 0x4A8 PUSH2 0x2A4 JUMP JUMPDEST JUMPDEST DUP2 MLOAD PUSH2 0x4B9 DUP5 DUP3 PUSH1 0x20 DUP7 ADD PUSH2 0x40F JUMP JUMPDEST SWAP2 POP POP SWAP3 SWAP2 POP POP JUMP JUMPDEST PUSH0 PUSH0 PUSH0 PUSH0 PUSH0 PUSH1 0xA0 DUP7 DUP9 SUB SLT ISZERO PUSH2 0x4DB JUMPI PUSH2 0x4DA PUSH2 0x207 JUMP JUMPDEST JUMPDEST PUSH0 PUSH2 0x4E8 DUP9 DUP3 DUP10 ADD PUSH2 0x255 JUMP JUMPDEST SWAP6 POP POP PUSH1 0x20 PUSH2 0x4F9 DUP9 DUP3 DUP10 ADD PUSH2 0x290 JUMP JUMPDEST SWAP5 POP POP PUSH1 0x40 DUP7 ADD MLOAD PUSH8 0xFFFFFFFFFFFFFFFF DUP2 GT ISZERO PUSH2 0x51A JUMPI PUSH2 0x519 PUSH2 0x20B JUMP JUMPDEST JUMPDEST PUSH2 0x526 DUP9 DUP3 DUP10 ADD PUSH2 0x3B3 JUMP JUMPDEST SWAP4 POP POP PUSH1 0x60 DUP7 ADD MLOAD PUSH8 0xFFFFFFFFFFFFFFFF DUP2 GT ISZERO PUSH2 0x547 JUMPI PUSH2 0x546 PUSH2 0x20B JUMP JUMPDEST JUMPDEST PUSH2 0x553 DUP9 DUP3 DUP10 ADD PUSH2 0x3B3 JUMP JUMPDEST SWAP3 POP POP PUSH1 0x80 DUP7 ADD MLOAD PUSH8 0xFFFFFFFFFFFFFFFF DUP2 GT ISZERO PUSH2 0x574 JUMPI PUSH2 0x573 PUSH2 0x20B JUMP JUMPDEST JUMPDEST PUSH2 0x580 DUP9 DUP3 DUP10 ADD PUSH2 0x495 JUMP JUMPDEST SWAP2 POP POP SWAP3 SWAP6 POP SWAP3 SWAP6 SWAP1 SWAP4 POP JUMP JUMPDEST PUSH0 DUP2 MLOAD SWAP1 POP SWAP2 SWAP1 POP JUMP JUMPDEST PUSH32 0x4E487B7100000000000000000000000000000000000000000000000000000000 PUSH0 MSTORE PUSH1 0x22 PUSH1 0x4 MSTORE PUSH1 0x24 PUSH0 REVERT JUMPDEST PUSH0 PUSH1 0x2 DUP3 DIV SWAP1 POP PUSH1 0x1 DUP3 AND DUP1 PUSH2 0x5DB JUMPI PUSH1 0x7F DUP3 AND SWAP2 POP JUMPDEST PUSH1 0x20 DUP3 LT DUP2 SUB PUSH2 0x5EE JUMPI PUSH2 0x5ED PUSH2 0x597 JUMP JUMPDEST JUMPDEST POP SWAP2 SWAP1 POP JUMP JUMPDEST PUSH0 DUP2 SWAP1 POP DUP2 PUSH0 MSTORE PUSH1 0x20 PUSH0 KECCAK256 SWAP1 POP SWAP2 SWAP1 POP JUMP JUMPDEST PUSH0 PUSH1 0x20 PUSH1 0x1F DUP4 ADD DIV SWAP1 POP SWAP2 SWAP1 POP JUMP JUMPDEST PUSH0 DUP3 DUP3 SHL SWAP1 POP SWAP3 SWAP2 POP POP JUMP JUMPDEST PUSH0 PUSH1 0x8 DUP4 MUL PUSH2 0x650 PUSH32 0xFFFFFFFFFFFFFFFFFFFFFFFFFFFFFFFFFFFFFFFFFFFFFFFFFFFFFFFFFFFFFFFF DUP3 PUSH2 0x615 JUMP JUMPDEST PUSH2 0x65A DUP7 DUP4 PUSH2 0x615 JUMP JUMPDEST SWAP6 POP DUP1 NOT DUP5 AND SWAP4 POP DUP1 DUP7 AND DUP5 OR SWAP3 POP POP POP SWAP4 SWAP3 POP POP POP JUMP JUMPDEST PUSH0 DUP2 SWAP1 POP SWAP2 SWAP1 POP JUMP JUMPDEST PUSH0 DUP2 SWAP1 POP SWAP2 SWAP1 POP JUMP JUMPDEST PUSH0 PUSH2 0x69E PUSH2 0x699 PUSH2 0x694 DUP5 PUSH2 0x672 JUMP JUMPDEST PUSH2 0x67B JUMP JUMPDEST PUSH2 0x672 JUMP JUMPDEST SWAP1 POP SWAP2 SWAP1 POP JUMP JUMPDEST PUSH0 DUP2 SWAP1 POP SWAP2 SWAP1 POP JUMP JUMPDEST PUSH2 0x6B7 DUP4 PUSH2 0x684 JUMP JUMPDEST PUSH2 0x6CB PUSH2 0x6C3 DUP3 PUSH2 0x6A5 JUMP JUMPDEST DUP5 DUP5 SLOAD PUSH2 0x621 JUMP JUMPDEST DUP3 SSTORE POP POP POP POP JUMP JUMPDEST PUSH0 PUSH0 SWAP1 POP SWAP1 JUMP JUMPDEST PUSH2 0x6E2 PUSH2 0x6D3 JUMP JUMPDEST PUSH2 0x6ED DUP2 DUP5 DUP5 PUSH2 0x6AE JUMP JUMPDEST POP POP POP JUMP JUMPDEST JUMPDEST DUP2 DUP2 LT ISZERO PUSH2 0x710 JUMPI PUSH2 0x705 PUSH0 DUP3 PUSH2 0x6DA JUMP JUMPDEST PUSH1 0x1 DUP2 ADD SWAP1 POP PUSH2 0x6F3 JUMP JUMPDEST POP POP JUMP JUMPDEST PUSH1 0x1F DUP3 GT ISZERO PUSH2 0x755 JUMPI PUSH2 0x726 DUP2 PUSH2 0x5F4 JUMP JUMPDEST PUSH2 0x72F DUP5 PUSH2 0x606 JUMP JUMPDEST DUP2 ADD PUSH1 0x20 DUP6 LT ISZERO PUSH2 0x73E JUMPI DUP2 SWAP1 POP JUMPDEST PUSH2 0x752 PUSH2 0x74A DUP6 PUSH2 0x606 JUMP JUMPDEST DUP4 ADD DUP3 PUSH2 0x6F2 JUMP JUMPDEST POP POP JUMPDEST POP POP POP JUMP JUMPDEST PUSH0 DUP3 DUP3 SHR SWAP1 POP SWAP3 SWAP2 POP POP JUMP JUMPDEST PUSH0 PUSH2 0x775 PUSH0 NOT DUP5 PUSH1 0x8 MUL PUSH2 0x75A JUMP JUMPDEST NOT DUP1 DUP4 AND SWAP2 POP POP SWAP3 SWAP2 POP POP JUMP JUMPDEST PUSH0 PUSH2 0x78D DUP4 DUP4 PUSH2 0x766 JUMP JUMPDEST SWAP2 POP DUP3 PUSH1 0x2 MUL DUP3 OR SWAP1 POP SWAP3 SWAP2 POP POP JUMP JUMPDEST PUSH2 0x7A6 DUP3 PUSH2 0x58D JUMP JUMPDEST PUSH8 0xFFFFFFFFFFFFFFFF DUP2 GT ISZERO PUSH2 0x7BF JUMPI PUSH2 0x7BE PUSH2 0x2BC JUMP JUMPDEST JUMPDEST PUSH2 0x7C9 DUP3 SLOAD PUSH2 0x5C4 JUMP JUMPDEST PUSH2 0x7D4 DUP3 DUP3 DUP6 PUSH2 0x714 JUMP JUMPDEST PUSH0 PUSH1 0x20 SWAP1 POP PUSH1 0x1F DUP4 GT PUSH1 0x1 DUP2 EQ PUSH2 0x805 JUMPI PUSH0 DUP5 ISZERO PUSH2 0x7F3 JUMPI DUP3 DUP8 ADD MLOAD SWAP1 POP JUMPDEST PUSH2 0x7FD DUP6 DUP3 PUSH2 0x782 JUMP JUMPDEST DUP7 SSTORE POP PUSH2 0x864 JUMP JUMPDEST PUSH1 0x1F NOT DUP5 AND PUSH2 0x813 DUP7 PUSH2 0x5F4 JUMP JUMPDEST PUSH0 JUMPDEST DUP3 DUP2 LT ISZERO PUSH2 0x83A JUMPI DUP5 DUP10 ADD MLOAD DUP3 SSTORE PUSH1 0x1 DUP3 ADD SWAP2 POP PUSH1 0x20 DUP6 ADD SWAP5 POP PUSH1 0x20 DUP2 ADD SWAP1 POP PUSH2 0x815 JUMP JUMPDEST DUP7 DUP4 LT ISZERO PUSH2 0x857 JUMPI DUP5 DUP10 ADD MLOAD PUSH2 0x853 PUSH1 0x1F DUP10 AND DUP3 PUSH2 0x766 JUMP JUMPDEST DUP4 SSTORE POP JUMPDEST PUSH1 0x1 PUSH1 0x2 DUP9 MUL ADD DUP9 SSTORE POP POP POP JUMPDEST POP POP POP POP POP POP JUMP JUMPDEST PUSH32 0x4E487B7100000000000000000000000000000000000000000000000000000000 PUSH0 MSTORE PUSH1 0x32 PUSH1 0x4 MSTORE PUSH1 0x24 PUSH0 REVERT JUMPDEST PUSH0 DUP2 PUSH1 0x60 SHL SWAP1 POP SWAP2 SWAP1 POP JUMP JUMPDEST PUSH0 PUSH2 0x8AF DUP3 PUSH2 0x899 JUMP JUMPDEST SWAP1 POP SWAP2 SWAP1 POP JUMP JUMPDEST PUSH0 PUSH2 0x8C0 DUP3 PUSH2 0x8A5 JUMP JUMPDEST SWAP1 POP SWAP2 SWAP1 POP JUMP JUMPDEST PUSH2 0x8D8 PUSH2 0x8D3 DUP3 PUSH2 0x22E JUMP JUMPDEST PUSH2 0x8B6 JUMP JUMPDEST DUP3 MSTORE POP POP JUMP JUMPDEST PUSH0 DUP2 SWAP1 POP SWAP2 SWAP1 POP JUMP JUMPDEST PUSH2 0x8F8 PUSH2 0x8F3 DUP3 PUSH2 0x672 JUMP JUMPDEST PUSH2 0x8DE JUMP JUMPDEST DUP3 MSTORE POP POP JUMP JUMPDEST PUSH0 DUP2 SWAP1 POP SWAP3 SWAP2 POP POP JUMP JUMPDEST PUSH0 PUSH2 0x912 DUP3 PUSH2 0x58D JUMP JUMPDEST PUSH2 0x91C DUP2 DUP6 PUSH2 0x8FE JUMP JUMPDEST SWAP4 POP PUSH2 0x92C DUP2 DUP6 PUSH1 0x20 DUP7 ADD PUSH2 0x364 JUMP JUMPDEST DUP1 DUP5 ADD SWAP2 POP POP SWAP3 SWAP2 POP POP JUMP JUMPDEST PUSH0 PUSH2 0x943 DUP3 DUP7 PUSH2 0x8C7 JUMP JUMPDEST PUSH1 0x14 DUP3 ADD SWAP2 POP PUSH2 0x953 DUP3 DUP6 PUSH2 0x8E7 JUMP JUMPDEST PUSH1 0x20 DUP3 ADD SWAP2 POP PUSH2 0x963 DUP3 DUP5 PUSH2 0x908 JUMP JUMPDEST SWAP2 POP DUP2 SWAP1 POP SWAP5 SWAP4 POP POP POP POP JUMP JUMPDEST PUSH32 0x4E487B7100000000000000000000000000000000000000000000000000000000 PUSH0 MSTORE PUSH1 0x21 PUSH1 0x4 MSTORE PUSH1 0x24 PUSH0 REVERT JUMPDEST PUSH1 0x4 DUP2 LT PUSH2 0x9AE JUMPI PUSH2 0x9AD PUSH2 0x970 JUMP JUMPDEST JUMPDEST POP JUMP JUMPDEST PUSH0 DUP2 SWAP1 POP PUSH2 0x9BE DUP3 PUSH2 0x99D JUMP JUMPDEST SWAP2 SWAP1 POP JUMP JUMPDEST PUSH0 PUSH2 0x9CD DUP3 PUSH2 0x9B1 JUMP JUMPDEST SWAP1 POP SWAP2 SWAP1 POP JUMP JUMPDEST PUSH2 0x9DD DUP2 PUSH2 0x9C3 JUMP JUMPDEST DUP3 MSTORE POP POP JUMP JUMPDEST PUSH0 PUSH1 0x20 DUP3 ADD SWAP1 POP PUSH2 0x9F6 PUSH0 DUP4 ADD DUP5 PUSH2 0x9D4 JUMP JUMPDEST SWAP3 SWAP2 POP POP JUMP JUMPDEST PUSH1 0x80 MLOAD PUSH1 0xA0 MLOAD PUSH2 0x278E PUSH2 0xA40 PUSH0 CODECOPY PUSH0 DUP2 DUP2 PUSH2 0x4A7 ADD MSTORE DUP2 DUP2 PUSH2 0x5D8 ADD MSTORE PUSH2 0xE4B ADD MSTORE PUSH0 DUP2 DUP2 PUSH2 0x115F ADD MSTORE DUP2 DUP2 PUSH2 0x1231 ADD MSTORE DUP2 DUP2 PUSH2 0x12D2 ADD MSTORE PUSH2 0x16D6 ADD MSTORE PUSH2 0x278E PUSH0 RETURN INVALID PUSH1 0x80 PUSH1 0x40 MSTORE CALLVALUE DUP1 ISZERO PUSH2 0xF JUMPI PUSH0 PUSH0 REVERT JUMPDEST POP PUSH1 0x4 CALLDATASIZE LT PUSH2 0x156 JUMPI PUSH0 CALLDATALOAD PUSH1 0xE0 SHR DUP1 PUSH4 0x907A8585 GT PUSH2 0xC1 JUMPI DUP1 PUSH4 0xCC2EE196 GT PUSH2 0x7A JUMPI DUP1 PUSH4 0xCC2EE196 EQ PUSH2 0x3CE JUMPI DUP1 PUSH4 0xCDD72253 EQ PUSH2 0x3EC JUMPI DUP1 PUSH4 0xDA58C7D9 EQ PUSH2 0x40A JUMPI DUP1 PUSH4 0xE3CE094D EQ PUSH2 0x43A JUMPI DUP1 PUSH4 0xF6E22EB5 EQ PUSH2 0x456 JUMPI DUP1 PUSH4 0xF887EA40 EQ PUSH2 0x486 JUMPI PUSH2 0x156 JUMP JUMPDEST DUP1 PUSH4 0x907A8585 EQ PUSH2 0x30A JUMPI DUP1 PUSH4 0x98C07938 EQ PUSH2 0x33A JUMPI DUP1 PUSH4 0xB1C9FE6E EQ PUSH2 0x358 JUMPI DUP1 PUSH4 0xB3F05B97 EQ PUSH2 0x376 JUMPI DUP1 PUSH4 0xBBD78E93 EQ PUSH2 0x394 JUMPI DUP1 PUSH4 0xC03AFB59 EQ PUSH2 0x3B2 JUMPI PUSH2 0x156 JUMP JUMPDEST DUP1 PUSH4 0x4ABD18AB GT PUSH2 0x113 JUMPI DUP1 PUSH4 0x4ABD18AB EQ PUSH2 0x234 JUMPI DUP1 PUSH4 0x4C261247 EQ PUSH2 0x252 JUMPI DUP1 PUSH4 0x6A42A642 EQ PUSH2 0x26E JUMPI DUP1 PUSH4 0x826A5D56 EQ PUSH2 0x29E JUMPI DUP1 PUSH4 0x8F9F07DB EQ PUSH2 0x2BC JUMPI DUP1 PUSH4 0x903AC41D EQ PUSH2 0x2EC JUMPI PUSH2 0x156 JUMP JUMPDEST DUP1 PUSH4 0x2672F526 EQ PUSH2 0x15A JUMPI DUP1 PUSH4 0x27CF3844 EQ PUSH2 0x178 JUMPI DUP1 PUSH4 0x39A926C4 EQ PUSH2 0x1AC JUMPI DUP1 PUSH4 0x409E2205 EQ PUSH2 0x1DC JUMPI DUP1 PUSH4 0x43D726D6 EQ PUSH2 0x20C JUMPI DUP1 PUSH4 0x4A79D50C EQ PUSH2 0x216 JUMPI JUMPDEST PUSH0 PUSH0 REVERT JUMPDEST PUSH2 0x162 PUSH2 0x4A4 JUMP JUMPDEST PUSH1 0x40 MLOAD PUSH2 0x16F SWAP2 SWAP1 PUSH2 0x17F8 JUMP JUMPDEST PUSH1 0x40 MLOAD DUP1 SWAP2 SUB SWAP1 RETURN JUMPDEST PUSH2 0x192 PUSH1 0x4 DUP1 CALLDATASIZE SUB DUP2 ADD SWAP1 PUSH2 0x18D SWAP2 SWAP1 PUSH2 0x1843 JUMP JUMPDEST PUSH2 0x4CB JUMP JUMPDEST PUSH1 0x40 MLOAD PUSH2 0x1A3 SWAP6 SWAP5 SWAP4 SWAP3 SWAP2 SWAP1 PUSH2 0x1910 JUMP JUMPDEST PUSH1 0x40 MLOAD DUP1 SWAP2 SUB SWAP1 RETURN JUMPDEST PUSH2 0x1C6 PUSH1 0x4 DUP1 CALLDATASIZE SUB DUP2 ADD SWAP1 PUSH2 0x1C1 SWAP2 SWAP1 PUSH2 0x1992 JUMP JUMPDEST PUSH2 0x59C JUMP JUMPDEST PUSH1 0x40 MLOAD PUSH2 0x1D3 SWAP2 SWAP1 PUSH2 0x19D5 JUMP JUMPDEST PUSH1 0x40 MLOAD DUP1 SWAP2 SUB SWAP1 RETURN JUMPDEST PUSH2 0x1F6 PUSH1 0x4 DUP1 CALLDATASIZE SUB DUP2 ADD SWAP1 PUSH2 0x1F1 SWAP2 SWAP1 PUSH2 0x1A18 JUMP JUMPDEST PUSH2 0x5B6 JUMP JUMPDEST PUSH1 0x40 MLOAD PUSH2 0x203 SWAP2 SWAP1 PUSH2 0x1A43 JUMP JUMPDEST PUSH1 0x40 MLOAD DUP1 SWAP2 SUB SWAP1 RETURN JUMPDEST PUSH2 0x214 PUSH2 0x5D6 JUMP JUMPDEST STOP JUMPDEST PUSH2 0x21E PUSH2 0x8C1 JUMP JUMPDEST PUSH1 0x40 MLOAD PUSH2 0x22B SWAP2 SWAP1 PUSH2 0x1A5C JUMP JUMPDEST PUSH1 0x40 MLOAD DUP1 SWAP2 SUB SWAP1 RETURN JUMPDEST PUSH2 0x23C PUSH2 0x94C JUMP JUMPDEST PUSH1 0x40 MLOAD PUSH2 0x249 SWAP2 SWAP1 PUSH2 0x1B7F JUMP JUMPDEST PUSH1 0x40 MLOAD DUP1 SWAP2 SUB SWAP1 RETURN JUMPDEST PUSH2 0x26C PUSH1 0x4 DUP1 CALLDATASIZE SUB DUP2 ADD SWAP1 PUSH2 0x267 SWAP2 SWAP1 PUSH2 0x1C00 JUMP JUMPDEST PUSH2 0xA20 JUMP JUMPDEST STOP JUMPDEST PUSH2 0x288 PUSH1 0x4 DUP1 CALLDATASIZE SUB DUP2 ADD SWAP1 PUSH2 0x283 SWAP2 SWAP1 PUSH2 0x1843 JUMP JUMPDEST PUSH2 0xD25 JUMP JUMPDEST PUSH1 0x40 MLOAD PUSH2 0x295 SWAP2 SWAP1 PUSH2 0x1C69 JUMP JUMPDEST PUSH1 0x40 MLOAD DUP1 SWAP2 SUB SWAP1 RETURN JUMPDEST PUSH2 0x2A6 PUSH2 0xD45 JUMP JUMPDEST PUSH1 0x40 MLOAD PUSH2 0x2B3 SWAP2 SWAP1 PUSH2 0x1A5C JUMP JUMPDEST PUSH1 0x40 MLOAD DUP1 SWAP2 SUB SWAP1 RETURN JUMPDEST PUSH2 0x2D6 PUSH1 0x4 DUP1 CALLDATASIZE SUB DUP2 ADD SWAP1 PUSH2 0x2D1 SWAP2 SWAP1 PUSH2 0x1C82 JUMP JUMPDEST PUSH2 0xDD1 JUMP JUMPDEST PUSH1 0x40 MLOAD PUSH2 0x2E3 SWAP2 SWAP1 PUSH2 0x1CC0 JUMP JUMPDEST PUSH1 0x40 MLOAD DUP1 SWAP2 SUB SWAP1 RETURN JUMPDEST PUSH2 0x2F4 PUSH2 0xDFB JUMP JUMPDEST PUSH1 0x40 MLOAD PUSH2 0x301 SWAP2 SWAP1 PUSH2 0x19D5 JUMP JUMPDEST PUSH1 0x40 MLOAD DUP1 SWAP2 SUB SWAP1 RETURN JUMPDEST PUSH2 0x324 PUSH1 0x4 DUP1 CALLDATASIZE SUB DUP2 ADD SWAP1 PUSH2 0x31F SWAP2 SWAP1 PUSH2 0x1992 JUMP JUMPDEST PUSH2 0xE01 JUMP JUMPDEST PUSH1 0x40 MLOAD PUSH2 0x331 SWAP2 SWAP1 PUSH2 0x1CC0 JUMP JUMPDEST PUSH1 0x40 MLOAD DUP1 SWAP2 SUB SWAP1 RETURN JUMPDEST PUSH2 0x342 PUSH2 0xE12 JUMP JUMPDEST PUSH1 0x40 MLOAD PUSH2 0x34F SWAP2 SWAP1 PUSH2 0x19D5 JUMP JUMPDEST PUSH1 0x40 MLOAD DUP1 SWAP2 SUB SWAP1 RETURN JUMPDEST PUSH2 0x360 PUSH2 0xE1E JUMP JUMPDEST PUSH1 0x40 MLOAD PUSH2 0x36D SWAP2 SWAP1 PUSH2 0x1D4C JUMP JUMPDEST PUSH1 0x40 MLOAD DUP1 SWAP2 SUB SWAP1 RETURN JUMPDEST PUSH2 0x37E PUSH2 0xE30 JUMP JUMPDEST PUSH1 0x40 MLOAD PUSH2 0x38B SWAP2 SWAP1 PUSH2 0x1CC0 JUMP JUMPDEST PUSH1 0x40 MLOAD DUP1 SWAP2 SUB SWAP1 RETURN JUMPDEST PUSH2 0x39C PUSH2 0xE43 JUMP JUMPDEST PUSH1 0x40 MLOAD PUSH2 0x3A9 SWAP2 SWAP1 PUSH2 0x19D5 JUMP JUMPDEST PUSH1 0x40 MLOAD DUP1 SWAP2 SUB SWAP1 RETURN JUMPDEST PUSH2 0x3CC PUSH1 0x4 DUP1 CALLDATASIZE SUB DUP2 ADD SWAP1 PUSH2 0x3C7 SWAP2 SWAP1 PUSH2 0x1D88 JUMP JUMPDEST PUSH2 0xE49 JUMP JUMPDEST STOP JUMPDEST PUSH2 0x3D6 PUSH2 0xFD5 JUMP JUMPDEST PUSH1 0x40 MLOAD PUSH2 0x3E3 SWAP2 SWAP1 PUSH2 0x1E6A JUMP JUMPDEST PUSH1 0x40 MLOAD DUP1 SWAP2 SUB SWAP1 RETURN JUMPDEST PUSH2 0x3F4 PUSH2 0x102B JUMP JUMPDEST PUSH1 0x40 MLOAD PUSH2 0x401 SWAP2 SWAP1 PUSH2 0x1F41 JUMP JUMPDEST PUSH1 0x40 MLOAD DUP1 SWAP2 SUB SWAP1 RETURN JUMPDEST PUSH2 0x424 PUSH1 0x4 DUP1 CALLDATASIZE SUB DUP2 ADD SWAP1 PUSH2 0x41F SWAP2 SWAP1 PUSH2 0x1A18 JUMP JUMPDEST PUSH2 0x10B6 JUMP JUMPDEST PUSH1 0x40 MLOAD PUSH2 0x431 SWAP2 SWAP1 PUSH2 0x17F8 JUMP JUMPDEST PUSH1 0x40 MLOAD DUP1 SWAP2 SUB SWAP1 RETURN JUMPDEST PUSH2 0x454 PUSH1 0x4 DUP1 CALLDATASIZE SUB DUP2 ADD SWAP1 PUSH2 0x44F SWAP2 SWAP1 PUSH2 0x1F61 JUMP JUMPDEST PUSH2 0x10F1 JUMP JUMPDEST STOP JUMPDEST PUSH2 0x470 PUSH1 0x4 DUP1 CALLDATASIZE SUB DUP2 ADD SWAP1 PUSH2 0x46B SWAP2 SWAP1 PUSH2 0x1992 JUMP JUMPDEST PUSH2 0x16BF JUMP JUMPDEST PUSH1 0x40 MLOAD PUSH2 0x47D SWAP2 SWAP1 PUSH2 0x19D5 JUMP JUMPDEST PUSH1 0x40 MLOAD DUP1 SWAP2 SUB SWAP1 RETURN JUMPDEST PUSH2 0x48E PUSH2 0x16D4 JUMP JUMPDEST PUSH1 0x40 MLOAD PUSH2 0x49B SWAP2 SWAP1 PUSH2 0x1FFA JUMP JUMPDEST PUSH1 0x40 MLOAD DUP1 SWAP2 SUB SWAP1 RETURN JUMPDEST PUSH0 PUSH32 0x0 SWAP1 POP SWAP1 JUMP JUMPDEST PUSH1 0x6 PUSH1 0x20 MSTORE DUP1 PUSH0 MSTORE PUSH1 0x40 PUSH0 KECCAK256 PUSH0 SWAP2 POP SWAP1 POP DUP1 PUSH0 ADD SLOAD SWAP1 DUP1 PUSH1 0x1 ADD PUSH0 SWAP1 SLOAD SWAP1 PUSH2 0x100 EXP SWAP1 DIV PUSH1 0xFF AND SWAP1 DUP1 PUSH1 0x1 ADD PUSH1 0x1 SWAP1 SLOAD SWAP1 PUSH2 0x100 EXP SWAP1 DIV PUSH1 0xFF AND SWAP1 DUP1 PUSH1 0x2 ADD SLOAD SWAP1 DUP1 PUSH1 0x3 ADD DUP1 SLOAD PUSH2 0x51B SWAP1 PUSH2 0x2040 JUMP JUMPDEST DUP1 PUSH1 0x1F ADD PUSH1 0x20 DUP1 SWAP2 DIV MUL PUSH1 0x20 ADD PUSH1 0x40 MLOAD SWAP1 DUP2 ADD PUSH1 0x40 MSTORE DUP1 SWAP3 SWAP2 SWAP1 DUP2 DUP2 MSTORE PUSH1 0x20 ADD DUP3 DUP1 SLOAD PUSH2 0x547 SWAP1 PUSH2 0x2040 JUMP JUMPDEST DUP1 ISZERO PUSH2 0x592 JUMPI DUP1 PUSH1 0x1F LT PUSH2 0x569 JUMPI PUSH2 0x100 DUP1 DUP4 SLOAD DIV MUL DUP4 MSTORE SWAP2 PUSH1 0x20 ADD SWAP2 PUSH2 0x592 JUMP JUMPDEST DUP3 ADD SWAP2 SWAP1 PUSH0 MSTORE PUSH1 0x20 PUSH0 KECCAK256 SWAP1 JUMPDEST DUP2 SLOAD DUP2 MSTORE SWAP1 PUSH1 0x1 ADD SWAP1 PUSH1 0x20 ADD DUP1 DUP4 GT PUSH2 0x575 JUMPI DUP3 SWAP1 SUB PUSH1 0x1F AND DUP3 ADD SWAP2 JUMPDEST POP POP POP POP POP SWAP1 POP DUP6 JUMP JUMPDEST PUSH0 PUSH1 0x5 PUSH0 DUP4 DUP2 MSTORE PUSH1 0x20 ADD SWAP1 DUP2 MSTORE PUSH1 0x20 ADD PUSH0 KECCAK256 SLOAD SWAP1 POP SWAP2 SWAP1 POP JUMP JUMPDEST PUSH1 0x3 DUP2 DUP2 SLOAD DUP2 LT PUSH2 0x5C5 JUMPI PUSH0 DUP1 REVERT JUMPDEST SWAP1 PUSH0 MSTORE PUSH1 0x20 PUSH0 KECCAK256 ADD PUSH0 SWAP2 POP SWAP1 POP SLOAD DUP2 JUMP JUMPDEST PUSH32 0x0 PUSH20 0xFFFFFFFFFFFFFFFFFFFFFFFFFFFFFFFFFFFFFFFF AND CALLER PUSH20 0xFFFFFFFFFFFFFFFFFFFFFFFFFFFFFFFFFFFFFFFF AND EQ PUSH2 0x65B JUMPI PUSH1 0x40 MLOAD PUSH32 0x1CCC6F2700000000000000000000000000000000000000000000000000000000 DUP2 MSTORE PUSH1 0x4 ADD PUSH1 0x40 MLOAD DUP1 SWAP2 SUB SWAP1 REVERT JUMPDEST PUSH1 0x2 PUSH1 0x3 DUP2 GT ISZERO PUSH2 0x66F JUMPI PUSH2 0x66E PUSH2 0x1CD9 JUMP JUMPDEST JUMPDEST PUSH1 0x2 PUSH0 SWAP1 SLOAD SWAP1 PUSH2 0x100 EXP SWAP1 DIV PUSH1 0xFF AND PUSH1 0x3 DUP2 GT ISZERO PUSH2 0x690 JUMPI PUSH2 0x68F PUSH2 0x1CD9 JUMP JUMPDEST JUMPDEST EQ PUSH2 0x6C7 JUMPI PUSH1 0x40 MLOAD PUSH32 0xFAE776D700000000000000000000000000000000000000000000000000000000 DUP2 MSTORE PUSH1 0x4 ADD PUSH1 0x40 MLOAD DUP1 SWAP2 SUB SWAP1 REVERT JUMPDEST PUSH1 0x2 PUSH1 0x1 SWAP1 SLOAD SWAP1 PUSH2 0x100 EXP SWAP1 DIV PUSH1 0xFF AND ISZERO PUSH2 0x70E JUMPI PUSH1 0x40 MLOAD PUSH32 0x475A253500000000000000000000000000000000000000000000000000000000 DUP2 MSTORE PUSH1 0x4 ADD PUSH1 0x40 MLOAD DUP1 SWAP2 SUB SWAP1 REVERT JUMPDEST PUSH0 PUSH0 JUMPDEST PUSH1 0x9 DUP1 SLOAD SWAP1 POP DUP2 LT ISZERO PUSH2 0x7FA JUMPI PUSH0 PUSH1 0x6 PUSH0 PUSH1 0x9 DUP5 DUP2 SLOAD DUP2 LT PUSH2 0x736 JUMPI PUSH2 0x735 PUSH2 0x2070 JUMP JUMPDEST JUMPDEST SWAP1 PUSH0 MSTORE PUSH1 0x20 PUSH0 KECCAK256 ADD PUSH0 SWAP1 SLOAD SWAP1 PUSH2 0x100 EXP SWAP1 DIV PUSH20 0xFFFFFFFFFFFFFFFFFFFFFFFFFFFFFFFFFFFFFFFF AND PUSH20 0xFFFFFFFFFFFFFFFFFFFFFFFFFFFFFFFFFFFFFFFF AND PUSH20 0xFFFFFFFFFFFFFFFFFFFFFFFFFFFFFFFFFFFFFFFF AND DUP2 MSTORE PUSH1 0x20 ADD SWAP1 DUP2 MSTORE PUSH1 0x20 ADD PUSH0 KECCAK256 SWAP1 POP DUP1 PUSH1 0x1 ADD PUSH1 0x1 SWAP1 SLOAD SWAP1 PUSH2 0x100 EXP SWAP1 DIV PUSH1 0xFF AND PUSH2 0x7B5 JUMPI POP PUSH2 0x7EF JUMP JUMPDEST PUSH1 0x1 PUSH1 0x5 PUSH0 DUP4 PUSH1 0x2 ADD SLOAD DUP2 MSTORE PUSH1 0x20 ADD SWAP1 DUP2 MSTORE PUSH1 0x20 ADD PUSH0 KECCAK256 PUSH0 DUP3 DUP3 SLOAD PUSH2 0x7DA SWAP2 SWAP1 PUSH2 0x20CA JUMP JUMPDEST SWAP3 POP POP DUP2 SWAP1 SSTORE POP DUP3 PUSH2 0x7EB SWAP1 PUSH2 0x20FD JUMP JUMPDEST SWAP3 POP POP JUMPDEST DUP1 PUSH1 0x1 ADD SWAP1 POP PUSH2 0x711 JUMP JUMPDEST POP PUSH1 0x1 PUSH1 0x2 PUSH1 0x1 PUSH2 0x100 EXP DUP2 SLOAD DUP2 PUSH1 0xFF MUL NOT AND SWAP1 DUP4 ISZERO ISZERO MUL OR SWAP1 SSTORE POP PUSH1 0x3 PUSH1 0x2 PUSH0 PUSH2 0x100 EXP DUP2 SLOAD DUP2 PUSH1 0xFF MUL NOT AND SWAP1 DUP4 PUSH1 0x3 DUP2 GT ISZERO PUSH2 0x83B JUMPI PUSH2 0x83A PUSH2 0x1CD9 JUMP JUMPDEST JUMPDEST MUL OR SWAP1 SSTORE POP PUSH32 0xA6DCC92F45DF25789D5639B7A0C97BA1EDF3BB1C0B5DD3376FD96A0DB87C4642 PUSH1 0x3 PUSH1 0x40 MLOAD PUSH2 0x870 SWAP2 SWAP1 PUSH2 0x1D4C JUMP JUMPDEST PUSH1 0x40 MLOAD DUP1 SWAP2 SUB SWAP1 LOG1 PUSH32 0xB968440ACCD1CE5FA60B00DE8BB8D8487EB2FDA3C3701FB30FEA3F69AA910A48 DUP2 DUP3 PUSH1 0xA SLOAD PUSH2 0x8A8 SWAP2 SWAP1 PUSH2 0x2144 JUMP JUMPDEST PUSH1 0x40 MLOAD PUSH2 0x8B6 SWAP3 SWAP2 SWAP1 PUSH2 0x2177 JUMP JUMPDEST PUSH1 0x40 MLOAD DUP1 SWAP2 SUB SWAP1 LOG1 POP JUMP JUMPDEST PUSH0 DUP1 SLOAD PUSH2 0x8CD SWAP1 PUSH2 0x2040 JUMP JUMPDEST DUP1 PUSH1 0x1F ADD PUSH1 0x20 DUP1 SWAP2 DIV MUL PUSH1 0x20 ADD PUSH1 0x40 MLOAD SWAP1 DUP2 ADD PUSH1 0x40 MSTORE DUP1 SWAP3 SWAP2 SWAP1 DUP2 DUP2 MSTORE PUSH1 0x20 ADD DUP3 DUP1 SLOAD PUSH2 0x8F9 SWAP1 PUSH2 0x2040 JUMP JUMPDEST DUP1 ISZERO PUSH2 0x944 JUMPI DUP1 PUSH1 0x1F LT PUSH2 0x91B JUMPI PUSH2 0x100 DUP1 DUP4 SLOAD DIV MUL DUP4 MSTORE SWAP2 PUSH1 0x20 ADD SWAP2 PUSH2 0x944 JUMP JUMPDEST DUP3 ADD SWAP2 SWAP1 PUSH0 MSTORE PUSH1 0x20 PUSH0 KECCAK256 SWAP1 JUMPDEST DUP2 SLOAD DUP2 MSTORE SWAP1 PUSH1 0x1 ADD SWAP1 PUSH1 0x20 ADD DUP1 DUP4 GT PUSH2 0x927 JUMPI DUP3 SWAP1 SUB PUSH1 0x1F AND DUP3 ADD SWAP2 JUMPDEST POP POP POP POP POP DUP2 JUMP JUMPDEST PUSH1 0x60 PUSH1 0x4 DUP1 SLOAD DUP1 PUSH1 0x20 MUL PUSH1 0x20 ADD PUSH1 0x40 MLOAD SWAP1 DUP2 ADD PUSH1 0x40 MSTORE DUP1 SWAP3 SWAP2 SWAP1 DUP2 DUP2 MSTORE PUSH1 0x20 ADD PUSH0 SWAP1 JUMPDEST DUP3 DUP3 LT ISZERO PUSH2 0xA17 JUMPI DUP4 DUP3 SWAP1 PUSH0 MSTORE PUSH1 0x20 PUSH0 KECCAK256 ADD DUP1 SLOAD PUSH2 0x98C SWAP1 PUSH2 0x2040 JUMP JUMPDEST DUP1 PUSH1 0x1F ADD PUSH1 0x20 DUP1 SWAP2 DIV MUL PUSH1 0x20 ADD PUSH1 0x40 MLOAD SWAP1 DUP2 ADD PUSH1 0x40 MSTORE DUP1 SWAP3 SWAP2 SWAP1 DUP2 DUP2 MSTORE PUSH1 0x20 ADD DUP3 DUP1 SLOAD PUSH2 0x9B8 SWAP1 PUSH2 0x2040 JUMP JUMPDEST DUP1 ISZERO PUSH2 0xA03 JUMPI DUP1 PUSH1 0x1F LT PUSH2 0x9DA JUMPI PUSH2 0x100 DUP1 DUP4 SLOAD DIV MUL DUP4 MSTORE SWAP2 PUSH1 0x20 ADD SWAP2 PUSH2 0xA03 JUMP JUMPDEST DUP3 ADD SWAP2 SWAP1 PUSH0 MSTORE PUSH1 0x20 PUSH0 KECCAK256 SWAP1 JUMPDEST DUP2 SLOAD DUP2 MSTORE SWAP1 PUSH1 0x1 ADD SWAP1 PUSH1 0x20 ADD DUP1 DUP4 GT PUSH2 0x9E6 JUMPI DUP3 SWAP1 SUB PUSH1 0x1F AND DUP3 ADD SWAP2 JUMPDEST POP POP POP POP POP DUP2 MSTORE PUSH1 0x20 ADD SWAP1 PUSH1 0x1 ADD SWAP1 PUSH2 0x96F JUMP JUMPDEST POP POP POP POP SWAP1 POP SWAP1 JUMP JUMPDEST PUSH1 0x2 PUSH1 0x3 DUP2 GT ISZERO PUSH2 0xA34 JUMPI PUSH2 0xA33 PUSH2 0x1CD9 JUMP JUMPDEST JUMPDEST PUSH1 0x2 PUSH0 SWAP1 SLOAD SWAP1 PUSH2 0x100 EXP SWAP1 DIV PUSH1 0xFF AND PUSH1 0x3 DUP2 GT ISZERO PUSH2 0xA55 JUMPI PUSH2 0xA54 PUSH2 0x1CD9 JUMP JUMPDEST JUMPDEST EQ PUSH2 0xA8C JUMPI PUSH1 0x40 MLOAD PUSH32 0xD896054600000000000000000000000000000000000000000000000000000000 DUP2 MSTORE PUSH1 0x4 ADD PUSH1 0x40 MLOAD DUP1 SWAP2 SUB SWAP1 REVERT JUMPDEST PUSH0 PUSH1 0x6 PUSH0 CALLER PUSH20 0xFFFFFFFFFFFFFFFFFFFFFFFFFFFFFFFFFFFFFFFF AND PUSH20 0xFFFFFFFFFFFFFFFFFFFFFFFFFFFFFFFFFFFFFFFF AND DUP2 MSTORE PUSH1 0x20 ADD SWAP1 DUP2 MSTORE PUSH1 0x20 ADD PUSH0 KECCAK256 SWAP1 POP DUP1 PUSH1 0x1 ADD PUSH0 SWAP1 SLOAD SWAP1 PUSH2 0x100 EXP SWAP1 DIV PUSH1 0xFF AND PUSH2 0xB13 JUMPI PUSH1 0x40 MLOAD PUSH32 0x358F80A200000000000000000000000000000000000000000000000000000000 DUP2 MSTORE PUSH1 0x4 ADD PUSH1 0x40 MLOAD DUP1 SWAP2 SUB SWAP1 REVERT JUMPDEST DUP1 PUSH1 0x1 ADD PUSH1 0x1 SWAP1 SLOAD SWAP1 PUSH2 0x100 EXP SWAP1 DIV PUSH1 0xFF AND ISZERO PUSH2 0xB5C JUMPI PUSH1 0x40 MLOAD PUSH32 0xA89AC15100000000000000000000000000000000000000000000000000000000 DUP2 MSTORE PUSH1 0x4 ADD PUSH1 0x40 MLOAD DUP1 SWAP2 SUB SWAP1 REVERT JUMPDEST PUSH0 JUMPDEST PUSH1 0x3 DUP1 SLOAD SWAP1 POP DUP2 LT ISZERO PUSH2 0xCCC JUMPI PUSH2 0xBD8 PUSH1 0x3 DUP3 DUP2 SLOAD DUP2 LT PUSH2 0xB82 JUMPI PUSH2 0xB81 PUSH2 0x2070 JUMP JUMPDEST JUMPDEST SWAP1 PUSH0 MSTORE PUSH1 0x20 PUSH0 KECCAK256 ADD SLOAD DUP6 DUP6 DUP1 DUP1 PUSH1 0x1F ADD PUSH1 0x20 DUP1 SWAP2 DIV MUL PUSH1 0x20 ADD PUSH1 0x40 MLOAD SWAP1 DUP2 ADD PUSH1 0x40 MSTORE DUP1 SWAP4 SWAP3 SWAP2 SWAP1 DUP2 DUP2 MSTORE PUSH1 0x20 ADD DUP4 DUP4 DUP1 DUP3 DUP5 CALLDATACOPY PUSH0 DUP2 DUP5 ADD MSTORE PUSH1 0x1F NOT PUSH1 0x1F DUP3 ADD AND SWAP1 POP DUP1 DUP4 ADD SWAP3 POP POP POP POP POP POP POP DUP5 PUSH0 ADD SLOAD PUSH2 0x16F8 JUMP JUMPDEST ISZERO PUSH2 0xCC1 JUMPI PUSH1 0x1 DUP3 PUSH1 0x1 ADD PUSH1 0x1 PUSH2 0x100 EXP DUP2 SLOAD DUP2 PUSH1 0xFF MUL NOT AND SWAP1 DUP4 ISZERO ISZERO MUL OR SWAP1 SSTORE POP PUSH1 0x3 DUP2 DUP2 SLOAD DUP2 LT PUSH2 0xC0E JUMPI PUSH2 0xC0D PUSH2 0x2070 JUMP JUMPDEST JUMPDEST SWAP1 PUSH0 MSTORE PUSH1 0x20 PUSH0 KECCAK256 ADD SLOAD DUP3 PUSH1 0x2 ADD DUP2 SWAP1 SSTORE POP DUP4 DUP4 DUP4 PUSH1 0x3 ADD SWAP2 DUP3 PUSH2 0xC32 SWAP3 SWAP2 SWAP1 PUSH2 0x236C JUMP JUMPDEST POP PUSH1 0xB PUSH0 DUP2 SLOAD DUP1 SWAP3 SWAP2 SWAP1 PUSH2 0xC45 SWAP1 PUSH2 0x20FD JUMP JUMPDEST SWAP2 SWAP1 POP SSTORE POP CALLER PUSH20 0xFFFFFFFFFFFFFFFFFFFFFFFFFFFFFFFFFFFFFFFF AND PUSH32 0xB0BADFE092A7C4F1C6BBE483DE673CE846CFC95A2D65F8AA4E98141BB6619FD3 PUSH1 0x4 DUP4 DUP2 SLOAD DUP2 LT PUSH2 0xC96 JUMPI PUSH2 0xC95 PUSH2 0x2070 JUMP JUMPDEST JUMPDEST SWAP1 PUSH0 MSTORE PUSH1 0x20 PUSH0 KECCAK256 ADD DUP7 DUP7 PUSH1 0x1 PUSH1 0x40 MLOAD PUSH2 0xCB2 SWAP5 SWAP4 SWAP3 SWAP2 SWAP1 PUSH2 0x24F4 JUMP JUMPDEST PUSH1 0x40 MLOAD DUP1 SWAP2 SUB SWAP1 LOG2 POP POP PUSH2 0xD21 JUMP JUMPDEST DUP1 PUSH1 0x1 ADD SWAP1 POP PUSH2 0xB5E JUMP JUMPDEST POP CALLER PUSH20 0xFFFFFFFFFFFFFFFFFFFFFFFFFFFFFFFFFFFFFFFF AND PUSH32 0xB0BADFE092A7C4F1C6BBE483DE673CE846CFC95A2D65F8AA4E98141BB6619FD3 DUP5 DUP5 PUSH0 PUSH1 0x40 MLOAD PUSH2 0xD17 SWAP4 SWAP3 SWAP2 SWAP1 PUSH2 0x255C JUMP JUMPDEST PUSH1 0x40 MLOAD DUP1 SWAP2 SUB SWAP1 LOG2 POP JUMPDEST POP POP JUMP JUMPDEST PUSH1 0x7 PUSH1 0x20 MSTORE DUP1 PUSH0 MSTORE PUSH1 0x40 PUSH0 KECCAK256 PUSH0 SWAP2 POP SLOAD SWAP1 PUSH2 0x100 EXP SWAP1 DIV PUSH4 0xFFFFFFFF AND DUP2 JUMP JUMPDEST PUSH1 0x1 DUP1 SLOAD PUSH2 0xD52 SWAP1 PUSH2 0x2040 JUMP JUMPDEST DUP1 PUSH1 0x1F ADD PUSH1 0x20 DUP1 SWAP2 DIV MUL PUSH1 0x20 ADD PUSH1 0x40 MLOAD SWAP1 DUP2 ADD PUSH1 0x40 MSTORE DUP1 SWAP3 SWAP2 SWAP1 DUP2 DUP2 MSTORE PUSH1 0x20 ADD DUP3 DUP1 SLOAD PUSH2 0xD7E SWAP1 PUSH2 0x2040 JUMP JUMPDEST DUP1 ISZERO PUSH2 0xDC9 JUMPI DUP1 PUSH1 0x1F LT PUSH2 0xDA0 JUMPI PUSH2 0x100 DUP1 DUP4 SLOAD DIV MUL DUP4 MSTORE SWAP2 PUSH1 0x20 ADD SWAP2 PUSH2 0xDC9 JUMP JUMPDEST DUP3 ADD SWAP2 SWAP1 PUSH0 MSTORE PUSH1 0x20 PUSH0 KECCAK256 SWAP1 JUMPDEST DUP2 SLOAD DUP2 MSTORE SWAP1 PUSH1 0x1 ADD SWAP1 PUSH1 0x20 ADD DUP1 DUP4 GT PUSH2 0xDAC JUMPI DUP3 SWAP1 SUB PUSH1 0x1F AND DUP3 ADD SWAP2 JUMPDEST POP POP POP POP POP DUP2 JUMP JUMPDEST PUSH1 0x8 PUSH1 0x20 MSTORE DUP2 PUSH0 MSTORE PUSH1 0x40 PUSH0 KECCAK256 PUSH1 0x20 MSTORE DUP1 PUSH0 MSTORE PUSH1 0x40 PUSH0 KECCAK256 PUSH0 SWAP2 POP SWAP2 POP SWAP1 SLOAD SWAP1 PUSH2 0x100 EXP SWAP1 DIV PUSH1 0xFF AND DUP2 JUMP JUMPDEST PUSH1 0xA SLOAD DUP2 JUMP JUMPDEST PUSH0 PUSH2 0xE0B DUP3 PUSH2 0x170E JUMP JUMPDEST SWAP1 POP SWAP2 SWAP1 POP JUMP JUMPDEST PUSH0 PUSH1 0x9 DUP1 SLOAD SWAP1 POP SWAP1 POP SWAP1 JUMP JUMPDEST PUSH1 0x2 PUSH0 SWAP1 SLOAD SWAP1 PUSH2 0x100 EXP SWAP1 DIV PUSH1 0xFF AND DUP2 JUMP JUMPDEST PUSH1 0x2 PUSH1 0x1 SWAP1 SLOAD SWAP1 PUSH2 0x100 EXP SWAP1 DIV PUSH1 0xFF AND DUP2 JUMP JUMPDEST PUSH1 0xB SLOAD DUP2 JUMP JUMPDEST PUSH32 0x0 PUSH20 0xFFFFFFFFFFFFFFFFFFFFFFFFFFFFFFFFFFFFFFFF AND CALLER PUSH20 0xFFFFFFFFFFFFFFFFFFFFFFFFFFFFFFFFFFFFFFFF AND EQ PUSH2 0xECE JUMPI PUSH1 0x40 MLOAD PUSH32 0x1CCC6F2700000000000000000000000000000000000000000000000000000000 DUP2 MSTORE PUSH1 0x4 ADD PUSH1 0x40 MLOAD DUP1 SWAP2 SUB SWAP1 REVERT JUMPDEST PUSH1 0x3 DUP1 DUP2 GT ISZERO PUSH2 0xEE1 JUMPI PUSH2 0xEE0 PUSH2 0x1CD9 JUMP JUMPDEST JUMPDEST DUP2 PUSH1 0x3 DUP2 GT ISZERO PUSH2 0xEF4 JUMPI PUSH2 0xEF3 PUSH2 0x1CD9 JUMP JUMPDEST JUMPDEST SUB PUSH2 0xF2B JUMPI PUSH1 0x40 MLOAD PUSH32 0xFAE776D700000000000000000000000000000000000000000000000000000000 DUP2 MSTORE PUSH1 0x4 ADD PUSH1 0x40 MLOAD DUP1 SWAP2 SUB SWAP1 REVERT JUMPDEST PUSH1 0x2 PUSH1 0x1 SWAP1 SLOAD SWAP1 PUSH2 0x100 EXP SWAP1 DIV PUSH1 0xFF AND ISZERO PUSH2 0xF72 JUMPI PUSH1 0x40 MLOAD PUSH32 0x475A253500000000000000000000000000000000000000000000000000000000 DUP2 MSTORE PUSH1 0x4 ADD PUSH1 0x40 MLOAD DUP1 SWAP2 SUB SWAP1 REVERT JUMPDEST DUP1 PUSH1 0x2 PUSH0 PUSH2 0x100 EXP DUP2 SLOAD DUP2 PUSH1 0xFF MUL NOT AND SWAP1 DUP4 PUSH1 0x3 DUP2 GT ISZERO PUSH2 0xF96 JUMPI PUSH2 0xF95 PUSH2 0x1CD9 JUMP JUMPDEST JUMPDEST MUL OR SWAP1 SSTORE POP PUSH32 0xA6DCC92F45DF25789D5639B7A0C97BA1EDF3BB1C0B5DD3376FD96A0DB87C4642 DUP2 PUSH1 0x40 MLOAD PUSH2 0xFCA SWAP2 SWAP1 PUSH2 0x1D4C JUMP JUMPDEST PUSH1 0x40 MLOAD DUP1 SWAP2 SUB SWAP1 LOG1 POP JUMP JUMPDEST PUSH1 0x60 PUSH1 0x3 DUP1 SLOAD DUP1 PUSH1 0x20 MUL PUSH1 0x20 ADD PUSH1 0x40 MLOAD SWAP1 DUP2 ADD PUSH1 0x40 MSTORE DUP1 SWAP3 SWAP2 SWAP1 DUP2 DUP2 MSTORE PUSH1 0x20 ADD DUP3 DUP1 SLOAD DUP1 ISZERO PUSH2 0x1021 JUMPI PUSH1 0x20 MUL DUP3 ADD SWAP2 SWAP1 PUSH0 MSTORE PUSH1 0x20 PUSH0 KECCAK256 SWAP1 JUMPDEST DUP2 SLOAD DUP2 MSTORE PUSH1 0x20 ADD SWAP1 PUSH1 0x1 ADD SWAP1 DUP1 DUP4 GT PUSH2 0x100D JUMPI JUMPDEST POP POP POP POP POP SWAP1 POP SWAP1 JUMP JUMPDEST PUSH1 0x60 PUSH1 0x9 DUP1 SLOAD DUP1 PUSH1 0x20 MUL PUSH1 0x20 ADD PUSH1 0x40 MLOAD SWAP1 DUP2 ADD PUSH1 0x40 MSTORE DUP1 SWAP3 SWAP2 SWAP1 DUP2 DUP2 MSTORE PUSH1 0x20 ADD DUP3 DUP1 SLOAD DUP1 ISZERO PUSH2 0x10AC JUMPI PUSH1 0x20 MUL DUP3 ADD SWAP2 SWAP1 PUSH0 MSTORE PUSH1 0x20 PUSH0 KECCAK256 SWAP1 JUMPDEST DUP2 PUSH0 SWAP1 SLOAD SWAP1 PUSH2 0x100 EXP SWAP1 DIV PUSH20 0xFFFFFFFFFFFFFFFFFFFFFFFFFFFFFFFFFFFFFFFF AND PUSH20 0xFFFFFFFFFFFFFFFFFFFFFFFFFFFFFFFFFFFFFFFF AND DUP2 MSTORE PUSH1 0x20 ADD SWAP1 PUSH1 0x1 ADD SWAP1 DUP1 DUP4 GT PUSH2 0x1063 JUMPI JUMPDEST POP POP POP POP POP SWAP1 POP SWAP1 JUMP JUMPDEST PUSH1 0x9 DUP2 DUP2 SLOAD DUP2 LT PUSH2 0x10C5 JUMPI PUSH0 DUP1 REVERT JUMPDEST SWAP1 PUSH0 MSTORE PUSH1 0x20 PUSH0 KECCAK256 ADD PUSH0 SWAP2 POP SLOAD SWAP1 PUSH2 0x100 EXP SWAP1 DIV PUSH20 0xFFFFFFFFFFFFFFFFFFFFFFFFFFFFFFFFFFFFFFFF AND DUP2 JUMP JUMPDEST PUSH1 0x1 PUSH1 0x3 DUP2 GT ISZERO PUSH2 0x1105 JUMPI PUSH2 0x1104 PUSH2 0x1CD9 JUMP JUMPDEST JUMPDEST PUSH1 0x2 PUSH0 SWAP1 SLOAD SWAP1 PUSH2 0x100 EXP SWAP1 DIV PUSH1 0xFF AND PUSH1 0x3 DUP2 GT ISZERO PUSH2 0x1126 JUMPI PUSH2 0x1125 PUSH2 0x1CD9 JUMP JUMPDEST JUMPDEST EQ PUSH2 0x115D JUMPI PUSH1 0x40 MLOAD PUSH32 0x3D0E4AF700000000000000000000000000000000000000000000000000000000 DUP2 MSTORE PUSH1 0x4 ADD PUSH1 0x40 MLOAD DUP1 SWAP2 SUB SWAP1 REVERT JUMPDEST PUSH32 0x0 PUSH20 0xFFFFFFFFFFFFFFFFFFFFFFFFFFFFFFFFFFFFFFFF AND PUSH4 0xAE5922D4 CALLER PUSH1 0x1 PUSH1 0x40 MLOAD DUP4 PUSH4 0xFFFFFFFF AND PUSH1 0xE0 SHL DUP2 MSTORE PUSH1 0x4 ADD PUSH2 0x11B9 SWAP3 SWAP2 SWAP1 PUSH2 0x259F JUMP JUMPDEST PUSH1 0x20 PUSH1 0x40 MLOAD DUP1 DUP4 SUB DUP2 DUP7 GAS STATICCALL ISZERO DUP1 ISZERO PUSH2 0x11D4 JUMPI RETURNDATASIZE PUSH0 PUSH0 RETURNDATACOPY RETURNDATASIZE PUSH0 REVERT JUMPDEST POP POP POP POP PUSH1 0x40 MLOAD RETURNDATASIZE PUSH1 0x1F NOT PUSH1 0x1F DUP3 ADD AND DUP3 ADD DUP1 PUSH1 0x40 MSTORE POP DUP2 ADD SWAP1 PUSH2 0x11F8 SWAP2 SWAP1 PUSH2 0x25F7 JUMP JUMPDEST ISZERO PUSH2 0x122F JUMPI PUSH1 0x40 MLOAD PUSH32 0x7D75FB6800000000000000000000000000000000000000000000000000000000 DUP2 MSTORE PUSH1 0x4 ADD PUSH1 0x40 MLOAD DUP1 SWAP2 SUB SWAP1 REVERT JUMPDEST PUSH32 0x0 PUSH20 0xFFFFFFFFFFFFFFFFFFFFFFFFFFFFFFFFFFFFFFFF AND PUSH4 0x56712F21 ADDRESS CALLER PUSH1 0x1 PUSH1 0x40 MLOAD DUP5 PUSH4 0xFFFFFFFF AND PUSH1 0xE0 SHL DUP2 MSTORE PUSH1 0x4 ADD PUSH2 0x128D SWAP4 SWAP3 SWAP2 SWAP1 PUSH2 0x2622 JUMP JUMPDEST PUSH1 0x20 PUSH1 0x40 MLOAD DUP1 DUP4 SUB DUP2 DUP7 GAS STATICCALL ISZERO DUP1 ISZERO PUSH2 0x12A8 JUMPI RETURNDATASIZE PUSH0 PUSH0 RETURNDATACOPY RETURNDATASIZE PUSH0 REVERT JUMPDEST POP POP POP POP PUSH1 0x40 MLOAD RETURNDATASIZE PUSH1 0x1F NOT PUSH1 0x1F DUP3 ADD AND DUP3 ADD DUP1 PUSH1 0x40 MSTORE POP DUP2 ADD SWAP1 PUSH2 0x12CC SWAP2 SWAP1 PUSH2 0x25F7 JUMP JUMPDEST PUSH2 0x13D2 JUMPI PUSH32 0x0 PUSH20 0xFFFFFFFFFFFFFFFFFFFFFFFFFFFFFFFFFFFFFFFF AND PUSH4 0x65E4AD9E ADDRESS CALLER PUSH1 0x40 MLOAD DUP4 PUSH4 0xFFFFFFFF AND PUSH1 0xE0 SHL DUP2 MSTORE PUSH1 0x4 ADD PUSH2 0x132B SWAP3 SWAP2 SWAP1 PUSH2 0x265E JUMP JUMPDEST PUSH1 0x20 PUSH1 0x40 MLOAD DUP1 DUP4 SUB DUP2 DUP7 GAS STATICCALL ISZERO DUP1 ISZERO PUSH2 0x1346 JUMPI RETURNDATASIZE PUSH0 PUSH0 RETURNDATACOPY RETURNDATASIZE PUSH0 REVERT JUMPDEST POP POP POP POP PUSH1 0x40 MLOAD RETURNDATASIZE PUSH1 0x1F NOT PUSH1 0x1F DUP3 ADD AND DUP3 ADD DUP1 PUSH1 0x40 MSTORE POP DUP2 ADD SWAP1 PUSH2 0x136A SWAP2 SWAP1 PUSH2 0x25F7 JUMP JUMPDEST PUSH2 0x13A0 JUMPI PUSH1 0x40 MLOAD PUSH32 0x5A7DE52100000000000000000000000000000000000000000000000000000000 DUP2 MSTORE PUSH1 0x4 ADD PUSH1 0x40 MLOAD DUP1 SWAP2 SUB SWAP1 REVERT JUMPDEST PUSH1 0x40 MLOAD PUSH32 0x5AD080BF00000000000000000000000000000000000000000000000000000000 DUP2 MSTORE PUSH1 0x4 ADD PUSH1 0x40 MLOAD DUP1 SWAP2 SUB SWAP1 REVERT JUMPDEST PUSH2 0x1418 PUSH1 0x8 PUSH0 CALLER PUSH20 0xFFFFFFFFFFFFFFFFFFFFFFFFFFFFFFFFFFFFFFFF AND PUSH20 0xFFFFFFFFFFFFFFFFFFFFFFFFFFFFFFFFFFFFFFFF AND DUP2 MSTORE PUSH1 0x20 ADD SWAP1 DUP2 MSTORE PUSH1 0x20 ADD PUSH0 KECCAK256 DUP3 PUSH2 0x1760 JUMP JUMPDEST PUSH2 0x144E JUMPI PUSH1 0x40 MLOAD PUSH32 0x850828C400000000000000000000000000000000000000000000000000000000 DUP2 MSTORE PUSH1 0x4 ADD PUSH1 0x40 MLOAD DUP1 SWAP2 SUB SWAP1 REVERT JUMPDEST PUSH1 0x1 PUSH1 0x8 PUSH0 CALLER PUSH20 0xFFFFFFFFFFFFFFFFFFFFFFFFFFFFFFFFFFFFFFFF AND PUSH20 0xFFFFFFFFFFFFFFFFFFFFFFFFFFFFFFFFFFFFFFFF AND DUP2 MSTORE PUSH1 0x20 ADD SWAP1 DUP2 MSTORE PUSH1 0x20 ADD PUSH0 KECCAK256 PUSH0 DUP4 DUP2 MSTORE PUSH1 0x20 ADD SWAP1 DUP2 MSTORE PUSH1 0x20 ADD PUSH0 KECCAK256 PUSH0 PUSH2 0x100 EXP DUP2 SLOAD DUP2 PUSH1 0xFF MUL NOT AND SWAP1 DUP4 ISZERO ISZERO MUL OR SWAP1 SSTORE POP PUSH0 PUSH1 0x6 PUSH0 CALLER PUSH20 0xFFFFFFFFFFFFFFFFFFFFFFFFFFFFFFFFFFFFFFFF AND PUSH20 0xFFFFFFFFFFFFFFFFFFFFFFFFFFFFFFFFFFFFFFFF AND DUP2 MSTORE PUSH1 0x20 ADD SWAP1 DUP2 MSTORE PUSH1 0x20 ADD PUSH0 KECCAK256 SWAP1 POP DUP1 PUSH1 0x1 ADD PUSH0 SWAP1 SLOAD SWAP1 PUSH2 0x100 EXP SWAP1 DIV PUSH1 0xFF AND PUSH2 0x159B JUMPI PUSH1 0x1 DUP2 PUSH1 0x1 ADD PUSH0 PUSH2 0x100 EXP DUP2 SLOAD DUP2 PUSH1 0xFF MUL NOT AND SWAP1 DUP4 ISZERO ISZERO MUL OR SWAP1 SSTORE POP PUSH1 0xA PUSH0 DUP2 SLOAD DUP1 SWAP3 SWAP2 SWAP1 PUSH2 0x1535 SWAP1 PUSH2 0x20FD JUMP JUMPDEST SWAP2 SWAP1 POP SSTORE POP PUSH1 0x9 CALLER SWAP1 DUP1 PUSH1 0x1 DUP2 SLOAD ADD DUP1 DUP3 SSTORE DUP1 SWAP2 POP POP PUSH1 0x1 SWAP1 SUB SWAP1 PUSH0 MSTORE PUSH1 0x20 PUSH0 KECCAK256 ADD PUSH0 SWAP1 SWAP2 SWAP1 SWAP2 SWAP1 SWAP2 PUSH2 0x100 EXP DUP2 SLOAD DUP2 PUSH20 0xFFFFFFFFFFFFFFFFFFFFFFFFFFFFFFFFFFFFFFFF MUL NOT AND SWAP1 DUP4 PUSH20 0xFFFFFFFFFFFFFFFFFFFFFFFFFFFFFFFFFFFFFFFF AND MUL OR SWAP1 SSTORE POP JUMPDEST DUP3 DUP2 PUSH0 ADD DUP2 SWAP1 SSTORE POP PUSH1 0x7 PUSH0 CALLER PUSH20 0xFFFFFFFFFFFFFFFFFFFFFFFFFFFFFFFFFFFFFFFF AND PUSH20 0xFFFFFFFFFFFFFFFFFFFFFFFFFFFFFFFFFFFFFFFF AND DUP2 MSTORE PUSH1 0x20 ADD SWAP1 DUP2 MSTORE PUSH1 0x20 ADD PUSH0 KECCAK256 PUSH0 DUP2 DUP2 SWAP1 SLOAD SWAP1 PUSH2 0x100 EXP SWAP1 DIV PUSH4 0xFFFFFFFF AND DUP1 SWAP3 SWAP2 SWAP1 PUSH2 0x15FF SWAP1 PUSH2 0x2685 JUMP JUMPDEST SWAP2 SWAP1 PUSH2 0x100 EXP DUP2 SLOAD DUP2 PUSH4 0xFFFFFFFF MUL NOT AND SWAP1 DUP4 PUSH4 0xFFFFFFFF AND MUL OR SWAP1 SSTORE POP POP CALLER PUSH20 0xFFFFFFFFFFFFFFFFFFFFFFFFFFFFFFFFFFFFFFFF AND PUSH32 0xC36EE38AB4BB6EE36048925089C6C2C83D2D608C0013A08E450968F3EEBC229F DUP5 PUSH1 0x7 PUSH0 CALLER PUSH20 0xFFFFFFFFFFFFFFFFFFFFFFFFFFFFFFFFFFFFFFFF AND PUSH20 0xFFFFFFFFFFFFFFFFFFFFFFFFFFFFFFFFFFFFFFFF AND DUP2 MSTORE PUSH1 0x20 ADD SWAP1 DUP2 MSTORE PUSH1 0x20 ADD PUSH0 KECCAK256 PUSH0 SWAP1 SLOAD SWAP1 PUSH2 0x100 EXP SWAP1 DIV PUSH4 0xFFFFFFFF AND PUSH1 0x40 MLOAD PUSH2 0x16B2 SWAP3 SWAP2 SWAP1 PUSH2 0x26B0 JUMP JUMPDEST PUSH1 0x40 MLOAD DUP1 SWAP2 SUB SWAP1 LOG2 POP POP POP JUMP JUMPDEST PUSH1 0x5 PUSH1 0x20 MSTORE DUP1 PUSH0 MSTORE PUSH1 0x40 PUSH0 KECCAK256 PUSH0 SWAP2 POP SWAP1 POP SLOAD DUP2 JUMP JUMPDEST PUSH32 0x0 DUP2 JUMP JUMPDEST PUSH0 DUP2 PUSH2 0x1704 DUP6 DUP6 PUSH2 0x1787 JUMP JUMPDEST EQ SWAP1 POP SWAP4 SWAP3 POP POP POP JUMP JUMPDEST PUSH0 PUSH0 JUMPDEST PUSH1 0x3 DUP1 SLOAD SWAP1 POP DUP2 LT ISZERO PUSH2 0x1756 JUMPI DUP3 PUSH1 0x3 DUP3 DUP2 SLOAD DUP2 LT PUSH2 0x1733 JUMPI PUSH2 0x1732 PUSH2 0x2070 JUMP JUMPDEST JUMPDEST SWAP1 PUSH0 MSTORE PUSH1 0x20 PUSH0 KECCAK256 ADD SLOAD SUB PUSH2 0x174B JUMPI PUSH1 0x1 SWAP2 POP POP PUSH2 0x175B JUMP JUMPDEST DUP1 PUSH1 0x1 ADD SWAP1 POP PUSH2 0x1711 JUMP JUMPDEST POP PUSH0 SWAP1 POP JUMPDEST SWAP2 SWAP1 POP JUMP JUMPDEST PUSH0 DUP3 PUSH0 DUP4 DUP2 MSTORE PUSH1 0x20 ADD SWAP1 DUP2 MSTORE PUSH1 0x20 ADD PUSH0 KECCAK256 PUSH0 SWAP1 SLOAD SWAP1 PUSH2 0x100 EXP SWAP1 DIV PUSH1 0xFF AND ISZERO SWAP1 POP SWAP3 SWAP2 POP POP JUMP JUMPDEST PUSH0 DUP3 DUP3 PUSH1 0x40 MLOAD PUSH1 0x20 ADD PUSH2 0x179B SWAP3 SWAP2 SWAP1 PUSH2 0x2731 JUMP JUMPDEST PUSH1 0x40 MLOAD PUSH1 0x20 DUP2 DUP4 SUB SUB DUP2 MSTORE SWAP1 PUSH1 0x40 MSTORE DUP1 MLOAD SWAP1 PUSH1 0x20 ADD KECCAK256 SWAP1 POP SWAP3 SWAP2 POP POP JUMP JUMPDEST PUSH0 PUSH20 0xFFFFFFFFFFFFFFFFFFFFFFFFFFFFFFFFFFFFFFFF DUP3 AND SWAP1 POP SWAP2 SWAP1 POP JUMP JUMPDEST PUSH0 PUSH2 0x17E2 DUP3 PUSH2 0x17B9 JUMP JUMPDEST SWAP1 POP SWAP2 SWAP1 POP JUMP JUMPDEST PUSH2 0x17F2 DUP2 PUSH2 0x17D8 JUMP JUMPDEST DUP3 MSTORE POP POP JUMP JUMPDEST PUSH0 PUSH1 0x20 DUP3 ADD SWAP1 POP PUSH2 0x180B PUSH0 DUP4 ADD DUP5 PUSH2 0x17E9 JUMP JUMPDEST SWAP3 SWAP2 POP POP JUMP JUMPDEST PUSH0 PUSH0 REVERT JUMPDEST PUSH0 PUSH0 REVERT JUMPDEST PUSH2 0x1822 DUP2 PUSH2 0x17D8 JUMP JUMPDEST DUP2 EQ PUSH2 0x182C JUMPI PUSH0 PUSH0 REVERT JUMPDEST POP JUMP JUMPDEST PUSH0 DUP2 CALLDATALOAD SWAP1 POP PUSH2 0x183D DUP2 PUSH2 0x1819 JUMP JUMPDEST SWAP3 SWAP2 POP POP JUMP JUMPDEST PUSH0 PUSH1 0x20 DUP3 DUP5 SUB SLT ISZERO PUSH2 0x1858 JUMPI PUSH2 0x1857 PUSH2 0x1811 JUMP JUMPDEST JUMPDEST PUSH0 PUSH2 0x1865 DUP5 DUP3 DUP6 ADD PUSH2 0x182F JUMP JUMPDEST SWAP2 POP POP SWAP3 SWAP2 POP POP JUMP JUMPDEST PUSH0 DUP2 SWAP1 POP SWAP2 SWAP1 POP JUMP JUMPDEST PUSH2 0x1880 DUP2 PUSH2 0x186E JUMP JUMPDEST DUP3 MSTORE POP POP JUMP JUMPDEST PUSH0 DUP2 ISZERO ISZERO SWAP1 POP SWAP2 SWAP1 POP JUMP JUMPDEST PUSH2 0x189A DUP2 PUSH2 0x1886 JUMP JUMPDEST DUP3 MSTORE POP POP JUMP JUMPDEST PUSH0 DUP2 MLOAD SWAP1 POP SWAP2 SWAP1 POP JUMP JUMPDEST PUSH0 DUP3 DUP3 MSTORE PUSH1 0x20 DUP3 ADD SWAP1 POP SWAP3 SWAP2 POP POP JUMP JUMPDEST DUP3 DUP2 DUP4 MCOPY PUSH0 DUP4 DUP4 ADD MSTORE POP POP POP JUMP JUMPDEST PUSH0 PUSH1 0x1F NOT PUSH1 0x1F DUP4 ADD AND SWAP1 POP SWAP2 SWAP1 POP JUMP JUMPDEST PUSH0 PUSH2 0x18E2 DUP3 PUSH2 0x18A0 JUMP JUMPDEST PUSH2 0x18EC DUP2 DUP6 PUSH2 0x18AA JUMP JUMPDEST SWAP4 POP PUSH2 0x18FC DUP2 DUP6 PUSH1 0x20 DUP7 ADD PUSH2 0x18BA JUMP JUMPDEST PUSH2 0x1905 DUP2 PUSH2 0x18C8 JUMP JUMPDEST DUP5 ADD SWAP2 POP POP SWAP3 SWAP2 POP POP JUMP JUMPDEST PUSH0 PUSH1 0xA0 DUP3 ADD SWAP1 POP PUSH2 0x1923 PUSH0 DUP4 ADD DUP9 PUSH2 0x1877 JUMP JUMPDEST PUSH2 0x1930 PUSH1 0x20 DUP4 ADD DUP8 PUSH2 0x1891 JUMP JUMPDEST PUSH2 0x193D PUSH1 0x40 DUP4 ADD DUP7 PUSH2 0x1891 JUMP JUMPDEST PUSH2 0x194A PUSH1 0x60 DUP4 ADD DUP6 PUSH2 0x1877 JUMP JUMPDEST DUP2 DUP2 SUB PUSH1 0x80 DUP4 ADD MSTORE PUSH2 0x195C DUP2 DUP5 PUSH2 0x18D8 JUMP JUMPDEST SWAP1 POP SWAP7 SWAP6 POP POP POP POP POP POP JUMP JUMPDEST PUSH2 0x1971 DUP2 PUSH2 0x186E JUMP JUMPDEST DUP2 EQ PUSH2 0x197B JUMPI PUSH0 PUSH0 REVERT JUMPDEST POP JUMP JUMPDEST PUSH0 DUP2 CALLDATALOAD SWAP1 POP PUSH2 0x198C DUP2 PUSH2 0x1968 JUMP JUMPDEST SWAP3 SWAP2 POP POP JUMP JUMPDEST PUSH0 PUSH1 0x20 DUP3 DUP5 SUB SLT ISZERO PUSH2 0x19A7 JUMPI PUSH2 0x19A6 PUSH2 0x1811 JUMP JUMPDEST JUMPDEST PUSH0 PUSH2 0x19B4 DUP5 DUP3 DUP6 ADD PUSH2 0x197E JUMP JUMPDEST SWAP2 POP POP SWAP3 SWAP2 POP POP JUMP JUMPDEST PUSH0 DUP2 SWAP1 POP SWAP2 SWAP1 POP JUMP JUMPDEST PUSH2 0x19CF DUP2 PUSH2 0x19BD JUMP JUMPDEST DUP3 MSTORE POP POP JUMP JUMPDEST PUSH0 PUSH1 0x20 DUP3 ADD SWAP1 POP PUSH2 0x19E8 PUSH0 DUP4 ADD DUP5 PUSH2 0x19C6 JUMP JUMPDEST SWAP3 SWAP2 POP POP JUMP JUMPDEST PUSH2 0x19F7 DUP2 PUSH2 0x19BD JUMP JUMPDEST DUP2 EQ PUSH2 0x1A01 JUMPI PUSH0 PUSH0 REVERT JUMPDEST POP JUMP JUMPDEST PUSH0 DUP2 CALLDATALOAD SWAP1 POP PUSH2 0x1A12 DUP2 PUSH2 0x19EE JUMP JUMPDEST SWAP3 SWAP2 POP POP JUMP JUMPDEST PUSH0 PUSH1 0x20 DUP3 DUP5 SUB SLT ISZERO PUSH2 0x1A2D JUMPI PUSH2 0x1A2C PUSH2 0x1811 JUMP JUMPDEST JUMPDEST PUSH0 PUSH2 0x1A3A DUP5 DUP3 DUP6 ADD PUSH2 0x1A04 JUMP JUMPDEST SWAP2 POP POP SWAP3 SWAP2 POP POP JUMP JUMPDEST PUSH0 PUSH1 0x20 DUP3 ADD SWAP1 POP PUSH2 0x1A56 PUSH0 DUP4 ADD DUP5 PUSH2 0x1877 JUMP JUMPDEST SWAP3 SWAP2 POP POP JUMP JUMPDEST PUSH0 PUSH1 0x20 DUP3 ADD SWAP1 POP DUP2 DUP2 SUB PUSH0 DUP4 ADD MSTORE PUSH2 0x1A74 DUP2 DUP5 PUSH2 0x18D8 JUMP JUMPDEST SWAP1 POP SWAP3 SWAP2 POP POP JUMP JUMPDEST PUSH0 DUP2 MLOAD SWAP1 POP SWAP2 SWAP1 POP JUMP JUMPDEST PUSH0 DUP3 DUP3 MSTORE PUSH1 0x20 DUP3 ADD SWAP1 POP SWAP3 SWAP2 POP POP JUMP JUMPDEST PUSH0 DUP2 SWAP1 POP PUSH1 0x20 DUP3 ADD SWAP1 POP SWAP2 SWAP1 POP JUMP JUMPDEST PUSH0 DUP3 DUP3 MSTORE PUSH1 0x20 DUP3 ADD SWAP1 POP SWAP3 SWAP2 POP POP JUMP JUMPDEST PUSH0 PUSH2 0x1ABF DUP3 PUSH2 0x18A0 JUMP JUMPDEST PUSH2 0x1AC9 DUP2 DUP6 PUSH2 0x1AA5 JUMP JUMPDEST SWAP4 POP PUSH2 0x1AD9 DUP2 DUP6 PUSH1 0x20 DUP7 ADD PUSH2 0x18BA JUMP JUMPDEST PUSH2 0x1AE2 DUP2 PUSH2 0x18C8 JUMP JUMPDEST DUP5 ADD SWAP2 POP POP SWAP3 SWAP2 POP POP JUMP JUMPDEST PUSH0 PUSH2 0x1AF8 DUP4 DUP4 PUSH2 0x1AB5 JUMP JUMPDEST SWAP1 POP SWAP3 SWAP2 POP POP JUMP JUMPDEST PUSH0 PUSH1 0x20 DUP3 ADD SWAP1 POP SWAP2 SWAP1 POP JUMP JUMPDEST PUSH0 PUSH2 0x1B16 DUP3 PUSH2 0x1A7C JUMP JUMPDEST PUSH2 0x1B20 DUP2 DUP6 PUSH2 0x1A86 JUMP JUMPDEST SWAP4 POP DUP4 PUSH1 0x20 DUP3 MUL DUP6 ADD PUSH2 0x1B32 DUP6 PUSH2 0x1A96 JUMP JUMPDEST DUP1 PUSH0 JUMPDEST DUP6 DUP2 LT ISZERO PUSH2 0x1B6D JUMPI DUP5 DUP5 SUB DUP10 MSTORE DUP2 MLOAD PUSH2 0x1B4E DUP6 DUP3 PUSH2 0x1AED JUMP JUMPDEST SWAP5 POP PUSH2 0x1B59 DUP4 PUSH2 0x1B00 JUMP JUMPDEST SWAP3 POP PUSH1 0x20 DUP11 ADD SWAP10 POP POP PUSH1 0x1 DUP2 ADD SWAP1 POP PUSH2 0x1B35 JUMP JUMPDEST POP DUP3 SWAP8 POP DUP8 SWAP6 POP POP POP POP POP POP SWAP3 SWAP2 POP POP JUMP JUMPDEST PUSH0 PUSH1 0x20 DUP3 ADD SWAP1 POP DUP2 DUP2 SUB PUSH0 DUP4 ADD MSTORE PUSH2 0x1B97 DUP2 DUP5 PUSH2 0x1B0C JUMP JUMPDEST SWAP1 POP SWAP3 SWAP2 POP POP JUMP JUMPDEST PUSH0 PUSH0 REVERT JUMPDEST PUSH0 PUSH0 REVERT JUMPDEST PUSH0 PUSH0 REVERT JUMPDEST PUSH0 PUSH0 DUP4 PUSH1 0x1F DUP5 ADD SLT PUSH2 0x1BC0 JUMPI PUSH2 0x1BBF PUSH2 0x1B9F JUMP JUMPDEST JUMPDEST DUP3 CALLDATALOAD SWAP1 POP PUSH8 0xFFFFFFFFFFFFFFFF DUP2 GT ISZERO PUSH2 0x1BDD JUMPI PUSH2 0x1BDC PUSH2 0x1BA3 JUMP JUMPDEST JUMPDEST PUSH1 0x20 DUP4 ADD SWAP2 POP DUP4 PUSH1 0x1 DUP3 MUL DUP4 ADD GT ISZERO PUSH2 0x1BF9 JUMPI PUSH2 0x1BF8 PUSH2 0x1BA7 JUMP JUMPDEST JUMPDEST SWAP3 POP SWAP3 SWAP1 POP JUMP JUMPDEST PUSH0 PUSH0 PUSH1 0x20 DUP4 DUP6 SUB SLT ISZERO PUSH2 0x1C16 JUMPI PUSH2 0x1C15 PUSH2 0x1811 JUMP JUMPDEST JUMPDEST PUSH0 DUP4 ADD CALLDATALOAD PUSH8 0xFFFFFFFFFFFFFFFF DUP2 GT ISZERO PUSH2 0x1C33 JUMPI PUSH2 0x1C32 PUSH2 0x1815 JUMP JUMPDEST JUMPDEST PUSH2 0x1C3F DUP6 DUP3 DUP7 ADD PUSH2 0x1BAB JUMP JUMPDEST SWAP3 POP SWAP3 POP POP SWAP3 POP SWAP3 SWAP1 POP JUMP JUMPDEST PUSH0 PUSH4 0xFFFFFFFF DUP3 AND SWAP1 POP SWAP2 SWAP1 POP JUMP JUMPDEST PUSH2 0x1C63 DUP2 PUSH2 0x1C4B JUMP JUMPDEST DUP3 MSTORE POP POP JUMP JUMPDEST PUSH0 PUSH1 0x20 DUP3 ADD SWAP1 POP PUSH2 0x1C7C PUSH0 DUP4 ADD DUP5 PUSH2 0x1C5A JUMP JUMPDEST SWAP3 SWAP2 POP POP JUMP JUMPDEST PUSH0 PUSH0 PUSH1 0x40 DUP4 DUP6 SUB SLT ISZERO PUSH2 0x1C98 JUMPI PUSH2 0x1C97 PUSH2 0x1811 JUMP JUMPDEST JUMPDEST PUSH0 PUSH2 0x1CA5 DUP6 DUP3 DUP7 ADD PUSH2 0x182F JUMP JUMPDEST SWAP3 POP POP PUSH1 0x20 PUSH2 0x1CB6 DUP6 DUP3 DUP7 ADD PUSH2 0x197E JUMP JUMPDEST SWAP2 POP POP SWAP3 POP SWAP3 SWAP1 POP JUMP JUMPDEST PUSH0 PUSH1 0x20 DUP3 ADD SWAP1 POP PUSH2 0x1CD3 PUSH0 DUP4 ADD DUP5 PUSH2 0x1891 JUMP JUMPDEST SWAP3 SWAP2 POP POP JUMP JUMPDEST PUSH32 0x4E487B7100000000000000000000000000000000000000000000000000000000 PUSH0 MSTORE PUSH1 0x21 PUSH1 0x4 MSTORE PUSH1 0x24 PUSH0 REVERT JUMPDEST PUSH1 0x4 DUP2 LT PUSH2 0x1D17 JUMPI PUSH2 0x1D16 PUSH2 0x1CD9 JUMP JUMPDEST JUMPDEST POP JUMP JUMPDEST PUSH0 DUP2 SWAP1 POP PUSH2 0x1D27 DUP3 PUSH2 0x1D06 JUMP JUMPDEST SWAP2 SWAP1 POP JUMP JUMPDEST PUSH0 PUSH2 0x1D36 DUP3 PUSH2 0x1D1A JUMP JUMPDEST SWAP1 POP SWAP2 SWAP1 POP JUMP JUMPDEST PUSH2 0x1D46 DUP2 PUSH2 0x1D2C JUMP JUMPDEST DUP3 MSTORE POP POP JUMP JUMPDEST PUSH0 PUSH1 0x20 DUP3 ADD SWAP1 POP PUSH2 0x1D5F PUSH0 DUP4 ADD DUP5 PUSH2 0x1D3D JUMP JUMPDEST SWAP3 SWAP2 POP POP JUMP JUMPDEST PUSH1 0x4 DUP2 LT PUSH2 0x1D71 JUMPI PUSH0 PUSH0 REVERT JUMPDEST POP JUMP JUMPDEST PUSH0 DUP2 CALLDATALOAD SWAP1 POP PUSH2 0x1D82 DUP2 PUSH2 0x1D65 JUMP JUMPDEST SWAP3 SWAP2 POP POP JUMP JUMPDEST PUSH0 PUSH1 0x20 DUP3 DUP5 SUB SLT ISZERO PUSH2 0x1D9D JUMPI PUSH2 0x1D9C PUSH2 0x1811 JUMP JUMPDEST JUMPDEST PUSH0 PUSH2 0x1DAA DUP5 DUP3 DUP6 ADD PUSH2 0x1D74 JUMP JUMPDEST SWAP2 POP POP SWAP3 SWAP2 POP POP JUMP JUMPDEST PUSH0 DUP2 MLOAD SWAP1 POP SWAP2 SWAP1 POP JUMP JUMPDEST PUSH0 DUP3 DUP3 MSTORE PUSH1 0x20 DUP3 ADD SWAP1 POP SWAP3 SWAP2 POP POP JUMP JUMPDEST PUSH0 DUP2 SWAP1 POP PUSH1 0x20 DUP3 ADD SWAP1 POP SWAP2 SWAP1 POP JUMP JUMPDEST PUSH2 0x1DE5 DUP2 PUSH2 0x186E JUMP JUMPDEST DUP3 MSTORE POP POP JUMP JUMPDEST PUSH0 PUSH2 0x1DF6 DUP4 DUP4 PUSH2 0x1DDC JUMP JUMPDEST PUSH1 0x20 DUP4 ADD SWAP1 POP SWAP3 SWAP2 POP POP JUMP JUMPDEST PUSH0 PUSH1 0x20 DUP3 ADD SWAP1 POP SWAP2 SWAP1 POP JUMP JUMPDEST PUSH0 PUSH2 0x1E18 DUP3 PUSH2 0x1DB3 JUMP JUMPDEST PUSH2 0x1E22 DUP2 DUP6 PUSH2 0x1DBD JUMP JUMPDEST SWAP4 POP PUSH2 0x1E2D DUP4 PUSH2 0x1DCD JUMP JUMPDEST DUP1 PUSH0 JUMPDEST DUP4 DUP2 LT ISZERO PUSH2 0x1E5D JUMPI DUP2 MLOAD PUSH2 0x1E44 DUP9 DUP3 PUSH2 0x1DEB JUMP JUMPDEST SWAP8 POP PUSH2 0x1E4F DUP4 PUSH2 0x1E02 JUMP JUMPDEST SWAP3 POP POP PUSH1 0x1 DUP2 ADD SWAP1 POP PUSH2 0x1E30 JUMP JUMPDEST POP DUP6 SWAP4 POP POP POP POP SWAP3 SWAP2 POP POP JUMP JUMPDEST PUSH0 PUSH1 0x20 DUP3 ADD SWAP1 POP DUP2 DUP2 SUB PUSH0 DUP4 ADD MSTORE PUSH2 0x1E82 DUP2 DUP5 PUSH2 0x1E0E JUMP JUMPDEST SWAP1 POP SWAP3 SWAP2 POP POP JUMP JUMPDEST PUSH0 DUP2 MLOAD SWAP1 POP SWAP2 SWAP1 POP JUMP JUMPDEST PUSH0 DUP3 DUP3 MSTORE PUSH1 0x20 DUP3 ADD SWAP1 POP SWAP3 SWAP2 POP POP JUMP JUMPDEST PUSH0 DUP2 SWAP1 POP PUSH1 0x20 DUP3 ADD SWAP1 POP SWAP2 SWAP1 POP JUMP JUMPDEST PUSH2 0x1EBC DUP2 PUSH2 0x17D8 JUMP JUMPDEST DUP3 MSTORE POP POP JUMP JUMPDEST PUSH0 PUSH2 0x1ECD DUP4 DUP4 PUSH2 0x1EB3 JUMP JUMPDEST PUSH1 0x20 DUP4 ADD SWAP1 POP SWAP3 SWAP2 POP POP JUMP JUMPDEST PUSH0 PUSH1 0x20 DUP3 ADD SWAP1 POP SWAP2 SWAP1 POP JUMP JUMPDEST PUSH0 PUSH2 0x1EEF DUP3 PUSH2 0x1E8A JUMP JUMPDEST PUSH2 0x1EF9 DUP2 DUP6 PUSH2 0x1E94 JUMP JUMPDEST SWAP4 POP PUSH2 0x1F04 DUP4 PUSH2 0x1EA4 JUMP JUMPDEST DUP1 PUSH0 JUMPDEST DUP4 DUP2 LT ISZERO PUSH2 0x1F34 JUMPI DUP2 MLOAD PUSH2 0x1F1B DUP9 DUP3 PUSH2 0x1EC2 JUMP JUMPDEST SWAP8 POP PUSH2 0x1F26 DUP4 PUSH2 0x1ED9 JUMP JUMPDEST SWAP3 POP POP PUSH1 0x1 DUP2 ADD SWAP1 POP PUSH2 0x1F07 JUMP JUMPDEST POP DUP6 SWAP4 POP POP POP POP SWAP3 SWAP2 POP POP JUMP JUMPDEST PUSH0 PUSH1 0x20 DUP3 ADD SWAP1 POP DUP2 DUP2 SUB PUSH0 DUP4 ADD MSTORE PUSH2 0x1F59 DUP2 DUP5 PUSH2 0x1EE5 JUMP JUMPDEST SWAP1 POP SWAP3 SWAP2 POP POP JUMP JUMPDEST PUSH0 PUSH0 PUSH1 0x40 DUP4 DUP6 SUB SLT ISZERO PUSH2 0x1F77 JUMPI PUSH2 0x1F76 PUSH2 0x1811 JUMP JUMPDEST JUMPDEST PUSH0 PUSH2 0x1F84 DUP6 DUP3 DUP7 ADD PUSH2 0x197E JUMP JUMPDEST SWAP3 POP POP PUSH1 0x20 PUSH2 0x1F95 DUP6 DUP3 DUP7 ADD PUSH2 0x197E JUMP JUMPDEST SWAP2 POP POP SWAP3 POP SWAP3 SWAP1 POP JUMP JUMPDEST PUSH0 DUP2 SWAP1 POP SWAP2 SWAP1 POP JUMP JUMPDEST PUSH0 PUSH2 0x1FC2 PUSH2 0x1FBD PUSH2 0x1FB8 DUP5 PUSH2 0x17B9 JUMP JUMPDEST PUSH2 0x1F9F JUMP JUMPDEST PUSH2 0x17B9 JUMP JUMPDEST SWAP1 POP SWAP2 SWAP1 POP JUMP JUMPDEST PUSH0 PUSH2 0x1FD3 DUP3 PUSH2 0x1FA8 JUMP JUMPDEST SWAP1 POP SWAP2 SWAP1 POP JUMP JUMPDEST PUSH0 PUSH2 0x1FE4 DUP3 PUSH2 0x1FC9 JUMP JUMPDEST SWAP1 POP SWAP2 SWAP1 POP JUMP JUMPDEST PUSH2 0x1FF4 DUP2 PUSH2 0x1FDA JUMP JUMPDEST DUP3 MSTORE POP POP JUMP JUMPDEST PUSH0 PUSH1 0x20 DUP3 ADD SWAP1 POP PUSH2 0x200D PUSH0 DUP4 ADD DUP5 PUSH2 0x1FEB JUMP JUMPDEST SWAP3 SWAP2 POP POP JUMP JUMPDEST PUSH32 0x4E487B7100000000000000000000000000000000000000000000000000000000 PUSH0 MSTORE PUSH1 0x22 PUSH1 0x4 MSTORE PUSH1 0x24 PUSH0 REVERT JUMPDEST PUSH0 PUSH1 0x2 DUP3 DIV SWAP1 POP PUSH1 0x1 DUP3 AND DUP1 PUSH2 0x2057 JUMPI PUSH1 0x7F DUP3 AND SWAP2 POP JUMPDEST PUSH1 0x20 DUP3 LT DUP2 SUB PUSH2 0x206A JUMPI PUSH2 0x2069 PUSH2 0x2013 JUMP JUMPDEST JUMPDEST POP SWAP2 SWAP1 POP JUMP JUMPDEST PUSH32 0x4E487B7100000000000000000000000000000000000000000000000000000000 PUSH0 MSTORE PUSH1 0x32 PUSH1 0x4 MSTORE PUSH1 0x24 PUSH0 REVERT JUMPDEST PUSH32 0x4E487B7100000000000000000000000000000000000000000000000000000000 PUSH0 MSTORE PUSH1 0x11 PUSH1 0x4 MSTORE PUSH1 0x24 PUSH0 REVERT JUMPDEST PUSH0 PUSH2 0x20D4 DUP3 PUSH2 0x19BD JUMP JUMPDEST SWAP2 POP PUSH2 0x20DF DUP4 PUSH2 0x19BD JUMP JUMPDEST SWAP3 POP DUP3 DUP3 ADD SWAP1 POP DUP1 DUP3 GT ISZERO PUSH2 0x20F7 JUMPI PUSH2 0x20F6 PUSH2 0x209D JUMP JUMPDEST JUMPDEST SWAP3 SWAP2 POP POP JUMP JUMPDEST PUSH0 PUSH2 0x2107 DUP3 PUSH2 0x19BD JUMP JUMPDEST SWAP2 POP PUSH32 0xFFFFFFFFFFFFFFFFFFFFFFFFFFFFFFFFFFFFFFFFFFFFFFFFFFFFFFFFFFFFFFFF DUP3 SUB PUSH2 0x2139 JUMPI PUSH2 0x2138 PUSH2 0x209D JUMP JUMPDEST JUMPDEST PUSH1 0x1 DUP3 ADD SWAP1 POP SWAP2 SWAP1 POP JUMP JUMPDEST PUSH0 PUSH2 0x214E DUP3 PUSH2 0x19BD JUMP JUMPDEST SWAP2 POP PUSH2 0x2159 DUP4 PUSH2 0x19BD JUMP JUMPDEST SWAP3 POP DUP3 DUP3 SUB SWAP1 POP DUP2 DUP2 GT ISZERO PUSH2 0x2171 JUMPI PUSH2 0x2170 PUSH2 0x209D JUMP JUMPDEST JUMPDEST SWAP3 SWAP2 POP POP JUMP JUMPDEST PUSH0 PUSH1 0x40 DUP3 ADD SWAP1 POP PUSH2 0x218A PUSH0 DUP4 ADD DUP6 PUSH2 0x19C6 JUMP JUMPDEST PUSH2 0x2197 PUSH1 0x20 DUP4 ADD DUP5 PUSH2 0x19C6 JUMP JUMPDEST SWAP4 SWAP3 POP POP POP JUMP JUMPDEST PUSH0 DUP3 SWAP1 POP SWAP3 SWAP2 POP POP JUMP JUMPDEST PUSH32 0x4E487B7100000000000000000000000000000000000000000000000000000000 PUSH0 MSTORE PUSH1 0x41 PUSH1 0x4 MSTORE PUSH1 0x24 PUSH0 REVERT JUMPDEST PUSH0 DUP2 SWAP1 POP DUP2 PUSH0 MSTORE PUSH1 0x20 PUSH0 KECCAK256 SWAP1 POP SWAP2 SWAP1 POP JUMP JUMPDEST PUSH0 PUSH1 0x20 PUSH1 0x1F DUP4 ADD DIV SWAP1 POP SWAP2 SWAP1 POP JUMP JUMPDEST PUSH0 DUP3 DUP3 SHL SWAP1 POP SWAP3 SWAP2 POP POP JUMP JUMPDEST PUSH0 PUSH1 0x8 DUP4 MUL PUSH2 0x2231 PUSH32 0xFFFFFFFFFFFFFFFFFFFFFFFFFFFFFFFFFFFFFFFFFFFFFFFFFFFFFFFFFFFFFFFF DUP3 PUSH2 0x21F6 JUMP JUMPDEST PUSH2 0x223B DUP7 DUP4 PUSH2 0x21F6 JUMP JUMPDEST SWAP6 POP DUP1 NOT DUP5 AND SWAP4 POP DUP1 DUP7 AND DUP5 OR SWAP3 POP POP POP SWAP4 SWAP3 POP POP POP JUMP JUMPDEST PUSH0 PUSH2 0x226D PUSH2 0x2268 PUSH2 0x2263 DUP5 PUSH2 0x19BD JUMP JUMPDEST PUSH2 0x1F9F JUMP JUMPDEST PUSH2 0x19BD JUMP JUMPDEST SWAP1 POP SWAP2 SWAP1 POP JUMP JUMPDEST PUSH0 DUP2 SWAP1 POP SWAP2 SWAP1 POP JUMP JUMPDEST PUSH2 0x2286 DUP4 PUSH2 0x2253 JUMP JUMPDEST PUSH2 0x229A PUSH2 0x2292 DUP3 PUSH2 0x2274 JUMP JUMPDEST DUP5 DUP5 SLOAD PUSH2 0x2202 JUMP JUMPDEST DUP3 SSTORE POP POP POP POP JUMP JUMPDEST PUSH0 PUSH0 SWAP1 POP SWAP1 JUMP JUMPDEST PUSH2 0x22B1 PUSH2 0x22A2 JUMP JUMPDEST PUSH2 0x22BC DUP2 DUP5 DUP5 PUSH2 0x227D JUMP JUMPDEST POP POP POP JUMP JUMPDEST JUMPDEST DUP2 DUP2 LT ISZERO PUSH2 0x22DF JUMPI PUSH2 0x22D4 PUSH0 DUP3 PUSH2 0x22A9 JUMP JUMPDEST PUSH1 0x1 DUP2 ADD SWAP1 POP PUSH2 0x22C2 JUMP JUMPDEST POP POP JUMP JUMPDEST PUSH1 0x1F DUP3 GT ISZERO PUSH2 0x2324 JUMPI PUSH2 0x22F5 DUP2 PUSH2 0x21D5 JUMP JUMPDEST PUSH2 0x22FE DUP5 PUSH2 0x21E7 JUMP JUMPDEST DUP2 ADD PUSH1 0x20 DUP6 LT ISZERO PUSH2 0x230D JUMPI DUP2 SWAP1 POP JUMPDEST PUSH2 0x2321 PUSH2 0x2319 DUP6 PUSH2 0x21E7 JUMP JUMPDEST DUP4 ADD DUP3 PUSH2 0x22C1 JUMP JUMPDEST POP POP JUMPDEST POP POP POP JUMP JUMPDEST PUSH0 DUP3 DUP3 SHR SWAP1 POP SWAP3 SWAP2 POP POP JUMP JUMPDEST PUSH0 PUSH2 0x2344 PUSH0 NOT DUP5 PUSH1 0x8 MUL PUSH2 0x2329 JUMP JUMPDEST NOT DUP1 DUP4 AND SWAP2 POP POP SWAP3 SWAP2 POP POP JUMP JUMPDEST PUSH0 PUSH2 0x235C DUP4 DUP4 PUSH2 0x2335 JUMP JUMPDEST SWAP2 POP DUP3 PUSH1 0x2 MUL DUP3 OR SWAP1 POP SWAP3 SWAP2 POP POP JUMP JUMPDEST PUSH2 0x2376 DUP4 DUP4 PUSH2 0x219E JUMP JUMPDEST PUSH8 0xFFFFFFFFFFFFFFFF DUP2 GT ISZERO PUSH2 0x238F JUMPI PUSH2 0x238E PUSH2 0x21A8 JUMP JUMPDEST JUMPDEST PUSH2 0x2399 DUP3 SLOAD PUSH2 0x2040 JUMP JUMPDEST PUSH2 0x23A4 DUP3 DUP3 DUP6 PUSH2 0x22E3 JUMP JUMPDEST PUSH0 PUSH1 0x1F DUP4 GT PUSH1 0x1 DUP2 EQ PUSH2 0x23D1 JUMPI PUSH0 DUP5 ISZERO PUSH2 0x23BF JUMPI DUP3 DUP8 ADD CALLDATALOAD SWAP1 POP JUMPDEST PUSH2 0x23C9 DUP6 DUP3 PUSH2 0x2351 JUMP JUMPDEST DUP7 SSTORE POP PUSH2 0x2430 JUMP JUMPDEST PUSH1 0x1F NOT DUP5 AND PUSH2 0x23DF DUP7 PUSH2 0x21D5 JUMP JUMPDEST PUSH0 JUMPDEST DUP3 DUP2 LT ISZERO PUSH2 0x2406 JUMPI DUP5 DUP10 ADD CALLDATALOAD DUP3 SSTORE PUSH1 0x1 DUP3 ADD SWAP2 POP PUSH1 0x20 DUP6 ADD SWAP5 POP PUSH1 0x20 DUP2 ADD SWAP1 POP PUSH2 0x23E1 JUMP JUMPDEST DUP7 DUP4 LT ISZERO PUSH2 0x2423 JUMPI DUP5 DUP10 ADD CALLDATALOAD PUSH2 0x241F PUSH1 0x1F DUP10 AND DUP3 PUSH2 0x2335 JUMP JUMPDEST DUP4 SSTORE POP JUMPDEST PUSH1 0x1 PUSH1 0x2 DUP9 MUL ADD DUP9 SSTORE POP POP POP JUMPDEST POP POP POP POP POP POP POP JUMP JUMPDEST PUSH0 DUP2 SLOAD PUSH2 0x2445 DUP2 PUSH2 0x2040 JUMP JUMPDEST PUSH2 0x244F DUP2 DUP7 PUSH2 0x18AA JUMP JUMPDEST SWAP5 POP PUSH1 0x1 DUP3 AND PUSH0 DUP2 EQ PUSH2 0x2469 JUMPI PUSH1 0x1 DUP2 EQ PUSH2 0x247F JUMPI PUSH2 0x24B1 JUMP JUMPDEST PUSH1 0xFF NOT DUP4 AND DUP7 MSTORE DUP2 ISZERO ISZERO PUSH1 0x20 MUL DUP7 ADD SWAP4 POP PUSH2 0x24B1 JUMP JUMPDEST PUSH2 0x2488 DUP6 PUSH2 0x21D5 JUMP JUMPDEST PUSH0 JUMPDEST DUP4 DUP2 LT ISZERO PUSH2 0x24A9 JUMPI DUP2 SLOAD DUP2 DUP10 ADD MSTORE PUSH1 0x1 DUP3 ADD SWAP2 POP PUSH1 0x20 DUP2 ADD SWAP1 POP PUSH2 0x248A JUMP JUMPDEST DUP1 DUP9 ADD SWAP6 POP POP POP JUMPDEST POP POP POP SWAP3 SWAP2 POP POP JUMP JUMPDEST DUP3 DUP2 DUP4 CALLDATACOPY PUSH0 DUP4 DUP4 ADD MSTORE POP POP POP JUMP JUMPDEST PUSH0 PUSH2 0x24D3 DUP4 DUP6 PUSH2 0x18AA JUMP JUMPDEST SWAP4 POP PUSH2 0x24E0 DUP4 DUP6 DUP5 PUSH2 0x24BA JUMP JUMPDEST PUSH2 0x24E9 DUP4 PUSH2 0x18C8 JUMP JUMPDEST DUP5 ADD SWAP1 POP SWAP4 SWAP3 POP POP POP JUMP JUMPDEST PUSH0 PUSH1 0x60 DUP3 ADD SWAP1 POP DUP2 DUP2 SUB PUSH0 DUP4 ADD MSTORE PUSH2 0x250C DUP2 DUP8 PUSH2 0x2439 JUMP JUMPDEST SWAP1 POP DUP2 DUP2 SUB PUSH1 0x20 DUP4 ADD MSTORE PUSH2 0x2521 DUP2 DUP6 DUP8 PUSH2 0x24C8 JUMP JUMPDEST SWAP1 POP PUSH2 0x2530 PUSH1 0x40 DUP4 ADD DUP5 PUSH2 0x1891 JUMP JUMPDEST SWAP6 SWAP5 POP POP POP POP POP JUMP JUMPDEST POP JUMP JUMPDEST PUSH0 PUSH2 0x2547 PUSH0 DUP4 PUSH2 0x18AA JUMP JUMPDEST SWAP2 POP PUSH2 0x2552 DUP3 PUSH2 0x2539 JUMP JUMPDEST PUSH0 DUP3 ADD SWAP1 POP SWAP2 SWAP1 POP JUMP JUMPDEST PUSH0 PUSH1 0x60 DUP3 ADD SWAP1 POP DUP2 DUP2 SUB PUSH0 DUP4 ADD MSTORE PUSH2 0x2573 DUP2 PUSH2 0x253C JUMP JUMPDEST SWAP1 POP DUP2 DUP2 SUB PUSH1 0x20 DUP4 ADD MSTORE PUSH2 0x2588 DUP2 DUP6 DUP8 PUSH2 0x24C8 JUMP JUMPDEST SWAP1 POP PUSH2 0x2597 PUSH1 0x40 DUP4 ADD DUP5 PUSH2 0x1891 JUMP JUMPDEST SWAP5 SWAP4 POP POP POP POP JUMP JUMPDEST PUSH0 PUSH1 0x40 DUP3 ADD SWAP1 POP PUSH2 0x25B2 PUSH0 DUP4 ADD DUP6 PUSH2 0x17E9 JUMP JUMPDEST DUP2 DUP2 SUB PUSH1 0x20 DUP4 ADD MSTORE PUSH2 0x25C4 DUP2 DUP5 PUSH2 0x2439 JUMP JUMPDEST SWAP1 POP SWAP4 SWAP3 POP POP POP JUMP JUMPDEST PUSH2 0x25D6 DUP2 PUSH2 0x1886 JUMP JUMPDEST DUP2 EQ PUSH2 0x25E0 JUMPI PUSH0 PUSH0 REVERT JUMPDEST POP JUMP JUMPDEST PUSH0 DUP2 MLOAD SWAP1 POP PUSH2 0x25F1 DUP2 PUSH2 0x25CD JUMP JUMPDEST SWAP3 SWAP2 POP POP JUMP JUMPDEST PUSH0 PUSH1 0x20 DUP3 DUP5 SUB SLT ISZERO PUSH2 0x260C JUMPI PUSH2 0x260B PUSH2 0x1811 JUMP JUMPDEST JUMPDEST PUSH0 PUSH2 0x2619 DUP5 DUP3 DUP6 ADD PUSH2 0x25E3 JUMP JUMPDEST SWAP2 POP POP SWAP3 SWAP2 POP POP JUMP JUMPDEST PUSH0 PUSH1 0x60 DUP3 ADD SWAP1 POP PUSH2 0x2635 PUSH0 DUP4 ADD DUP7 PUSH2 0x17E9 JUMP JUMPDEST PUSH2 0x2642 PUSH1 0x20 DUP4 ADD DUP6 PUSH2 0x17E9 JUMP JUMPDEST DUP2 DUP2 SUB PUSH1 0x40 DUP4 ADD MSTORE PUSH2 0x2654 DUP2 DUP5 PUSH2 0x2439 JUMP JUMPDEST SWAP1 POP SWAP5 SWAP4 POP POP POP POP JUMP JUMPDEST PUSH0 PUSH1 0x40 DUP3 ADD SWAP1 POP PUSH2 0x2671 PUSH0 DUP4 ADD DUP6 PUSH2 0x17E9 JUMP JUMPDEST PUSH2 0x267E PUSH1 0x20 DUP4 ADD DUP5 PUSH2 0x17E9 JUMP JUMPDEST SWAP4 SWAP3 POP POP POP JUMP JUMPDEST PUSH0 PUSH2 0x268F DUP3 PUSH2 0x1C4B JUMP JUMPDEST SWAP2 POP PUSH4 0xFFFFFFFF DUP3 SUB PUSH2 0x26A5 JUMPI PUSH2 0x26A4 PUSH2 0x209D JUMP JUMPDEST JUMPDEST PUSH1 0x1 DUP3 ADD SWAP1 POP SWAP2 SWAP1 POP JUMP JUMPDEST PUSH0 PUSH1 0x40 DUP3 ADD SWAP1 POP PUSH2 0x26C3 PUSH0 DUP4 ADD DUP6 PUSH2 0x1877 JUMP JUMPDEST PUSH2 0x26D0 PUSH1 0x20 DUP4 ADD DUP5 PUSH2 0x1C5A JUMP JUMPDEST SWAP4 SWAP3 POP POP POP JUMP JUMPDEST PUSH0 DUP2 SWAP1 POP SWAP2 SWAP1 POP JUMP JUMPDEST PUSH2 0x26F1 PUSH2 0x26EC DUP3 PUSH2 0x186E JUMP JUMPDEST PUSH2 0x26D7 JUMP JUMPDEST DUP3 MSTORE POP POP JUMP JUMPDEST PUSH0 DUP2 SWAP1 POP SWAP3 SWAP2 POP POP JUMP JUMPDEST PUSH0 PUSH2 0x270B DUP3 PUSH2 0x18A0 JUMP JUMPDEST PUSH2 0x2715 DUP2 DUP6 PUSH2 0x26F7 JUMP JUMPDEST SWAP4 POP PUSH2 0x2725 DUP2 DUP6 PUSH1 0x20 DUP7 ADD PUSH2 0x18BA JUMP JUMPDEST DUP1 DUP5 ADD SWAP2 POP POP SWAP3 SWAP2 POP POP JUMP JUMPDEST PUSH0 PUSH2 0x273C DUP3 DUP6 PUSH2 0x26E0 JUMP JUMPDEST PUSH1 0x20 DUP3 ADD SWAP2 POP PUSH2 0x274C DUP3 DUP5 PUSH2 0x2701 JUMP JUMPDEST SWAP2 POP DUP2 SWAP1 POP SWAP4 SWAP3 POP POP POP JUMP INVALID LOG2 PUSH5 0x6970667358 0x22 SLT KECCAK256 0xB7 0x2F ADDMOD KECCAK256 SWAP10 DUP4 SSTORE 0xAC PUSH7 0x9F47D6538FCA5F 0x4C 0xC8 0xAB 0xCE BLOBHASH 0x24 PUSH7 0x62CFFA1694DEB0 0x27 DUP5 PUSH5 0x736F6C6343 STOP ADDMOD 0x1E STOP CALLER "
		},
		"gasEstimates": {
			"creation": {
				"codeDepositCost": "2025200",
				"executionCost": "infinite",
				"totalCost": "infinite"
			},
			"external": {
				"ballots(address)": "infinite",
				"close()": "infinite",
				"commit(bytes32,bytes32)": "infinite",
				"committedCount()": "2558",
				"finalized()": "2606",
				"getLabels()": "infinite",
				"getOptions()": "infinite",
				"getVoters()": "infinite",
				"government()": "infinite",
				"isOption(bytes32)": "infinite",
				"jurisdiction()": "infinite",
				"options(uint256)": "4961",
				"phase()": "2621",
				"result(bytes32)": "2837",
				"reveal(string)": "infinite",
				"revealedCount()": "2536",
				"revisions(address)": "2900",
				"router()": "infinite",
				"setPhase(uint8)": "infinite",
				"tally(bytes32)": "2864",
				"title()": "infinite",
				"usedNonce(address,bytes32)": "3181",
				"voters(uint256)": "5010",
				"votersCount()": "2485"
			},
			"internal": {
				"_isOption(bytes32)": "infinite"
			}
		},
		"methodIdentifiers": {
			"ballots(address)": "27cf3844",
			"close()": "43d726d6",
			"commit(bytes32,bytes32)": "e3ce094d",
			"committedCount()": "903ac41d",
			"finalized()": "b3f05b97",
			"getLabels()": "4abd18ab",
			"getOptions()": "cc2ee196",
			"getVoters()": "cdd72253",
			"government()": "2672f526",
			"isOption(bytes32)": "907a8585",
			"jurisdiction()": "826a5d56",
			"options(uint256)": "409e2205",
			"phase()": "b1c9fe6e",
			"result(bytes32)": "39a926c4",
			"reveal(string)": "4c261247",
			"revealedCount()": "bbd78e93",
			"revisions(address)": "6a42a642",
			"router()": "f887ea40",
			"setPhase(uint8)": "c03afb59",
			"tally(bytes32)": "f6e22eb5",
			"title()": "4a79d50c",
			"usedNonce(address,bytes32)": "8f9f07db",
			"voters(uint256)": "da58c7d9",
			"votersCount()": "98c07938"
		}
	},
	"abi": [
		{
			"inputs": [
				{
					"internalType": "address",
					"name": "gov",
					"type": "address"
				},
				{
					"internalType": "contract SPIDWalletRouter",
					"name": "_router",
					"type": "address"
				},
				{
					"internalType": "string",
					"name": "_title",
					"type": "string"
				},
				{
					"internalType": "string",
					"name": "_jurisdiction",
					"type": "string"
				},
				{
					"internalType": "string[]",
					"name": "optionLabels",
					"type": "string[]"
				}
			],
			"stateMutability": "nonpayable",
			"type": "constructor"
		},
		{
			"inputs": [],
			"name": "AlreadyFinalized",
			"type": "error"
		},
		{
			"inputs": [],
			"name": "AlreadyRevealed",
			"type": "error"
		},
		{
			"inputs": [],
			"name": "CloseOnlyFromTally",
			"type": "error"
		},
		{
			"inputs": [],
			"name": "GovernmentCannotVote",
			"type": "error"
		},
		{
			"inputs": [],
			"name": "NoVote",
			"type": "error"
		},
		{
			"inputs": [],
			"name": "NonceGiaUtilizzato",
			"type": "error"
		},
		{
			"inputs": [],
			"name": "NotGovernment",
			"type": "error"
		},
		{
			"inputs": [],
			"name": "OutOfJurisdiction",
			"type": "error"
		},
		{
			"inputs": [],
			"name": "RevealClosed",
			"type": "error"
		},
		{
			"inputs": [],
			"name": "VotingNotOpen",
			"type": "error"
		},
		{
			"inputs": [],
			"name": "WalletNotAuthorized",
			"type": "error"
		},
		{
			"anonymous": false,
			"inputs": [
				{
					"indexed": true,
					"internalType": "address",
					"name": "voter",
					"type": "address"
				},
				{
					"indexed": false,
					"internalType": "bytes32",
					"name": "digest",
					"type": "bytes32"
				},
				{
					"indexed": false,
					"internalType": "uint32",
					"name": "revision",
					"type": "uint32"
				}
			],
			"name": "Committed",
			"type": "event"
		},
		{
			"anonymous": false,
			"inputs": [
				{
					"indexed": false,
					"internalType": "uint256",
					"name": "valid",
					"type": "uint256"
				},
				{
					"indexed": false,
					"internalType": "uint256",
					"name": "nullified",
					"type": "uint256"
				}
			],
			"name": "Finalized",
			"type": "event"
		},
		{
			"anonymous": false,
			"inputs": [
				{
					"indexed": false,
					"internalType": "enum IReferendum.Phase",
					"name": "phase",
					"type": "uint8"
				}
			],
			"name": "PhaseChanged",
			"type": "event"
		},
		{
			"anonymous": false,
			"inputs": [
				{
					"indexed": true,
					"internalType": "address",
					"name": "voter",
					"type": "address"
				},
				{
					"indexed": false,
					"internalType": "string",
					"name": "vote",
					"type": "string"
				},
				{
					"indexed": false,
					"internalType": "string",
					"name": "nonce",
					"type": "string"
				},
				{
					"indexed": false,
					"internalType": "bool",
					"name": "matches",
					"type": "bool"
				}
			],
			"name": "Revealed",
			"type": "event"
		},
		{
			"inputs": [
				{
					"internalType": "address",
					"name": "",
					"type": "address"
				}
			],
			"name": "ballots",
			"outputs": [
				{
					"internalType": "bytes32",
					"name": "lastDigest",
					"type": "bytes32"
				},
				{
					"internalType": "bool",
					"name": "committed",
					"type": "bool"
				},
				{
					"internalType": "bool",
					"name": "confirmed",
					"type": "bool"
				},
				{
					"internalType": "bytes32",
					"name": "vote",
					"type": "bytes32"
				},
				{
					"internalType": "string",
					"name": "nonce",
					"type": "string"
				}
			],
			"stateMutability": "view",
			"type": "function"
		},
		{
			"inputs": [],
			"name": "close",
			"outputs": [],
			"stateMutability": "nonpayable",
			"type": "function"
		},
		{
			"inputs": [
				{
					"internalType": "bytes32",
					"name": "d",
					"type": "bytes32"
				},
				{
					"internalType": "bytes32",
					"name": "nonceTag",
					"type": "bytes32"
				}
			],
			"name": "commit",
			"outputs": [],
			"stateMutability": "nonpayable",
			"type": "function"
		},
		{
			"inputs": [],
			"name": "committedCount",
			"outputs": [
				{
					"internalType": "uint256",
					"name": "",
					"type": "uint256"
				}
			],
			"stateMutability": "view",
			"type": "function"
		},
		{
			"inputs": [],
			"name": "finalized",
			"outputs": [
				{
					"internalType": "bool",
					"name": "",
					"type": "bool"
				}
			],
			"stateMutability": "view",
			"type": "function"
		},
		{
			"inputs": [],
			"name": "getLabels",
			"outputs": [
				{
					"internalType": "string[]",
					"name": "",
					"type": "string[]"
				}
			],
			"stateMutability": "view",
			"type": "function"
		},
		{
			"inputs": [],
			"name": "getOptions",
			"outputs": [
				{
					"internalType": "bytes32[]",
					"name": "",
					"type": "bytes32[]"
				}
			],
			"stateMutability": "view",
			"type": "function"
		},
		{
			"inputs": [],
			"name": "getVoters",
			"outputs": [
				{
					"internalType": "address[]",
					"name": "",
					"type": "address[]"
				}
			],
			"stateMutability": "view",
			"type": "function"
		},
		{
			"inputs": [],
			"name": "government",
			"outputs": [
				{
					"internalType": "address",
					"name": "",
					"type": "address"
				}
			],
			"stateMutability": "view",
			"type": "function"
		},
		{
			"inputs": [
				{
					"internalType": "bytes32",
					"name": "o",
					"type": "bytes32"
				}
			],
			"name": "isOption",
			"outputs": [
				{
					"internalType": "bool",
					"name": "",
					"type": "bool"
				}
			],
			"stateMutability": "view",
			"type": "function"
		},
		{
			"inputs": [],
			"name": "jurisdiction",
			"outputs": [
				{
					"internalType": "string",
					"name": "",
					"type": "string"
				}
			],
			"stateMutability": "view",
			"type": "function"
		},
		{
			"inputs": [
				{
					"internalType": "uint256",
					"name": "",
					"type": "uint256"
				}
			],
			"name": "options",
			"outputs": [
				{
					"internalType": "bytes32",
					"name": "",
					"type": "bytes32"
				}
			],
			"stateMutability": "view",
			"type": "function"
		},
		{
			"inputs": [],
			"name": "phase",
			"outputs": [
				{
					"internalType": "enum IReferendum.Phase",
					"name": "",
					"type": "uint8"
				}
			],
			"stateMutability": "view",
			"type": "function"
		},
		{
			"inputs": [
				{
					"internalType": "bytes32",
					"name": "option",
					"type": "bytes32"
				}
			],
			"name": "result",
			"outputs": [
				{
					"internalType": "uint256",
					"name": "",
					"type": "uint256"
				}
			],
			"stateMutability": "view",
			"type": "function"
		},
		{
			"inputs": [
				{
					"internalType": "string",
					"name": "nonce",
					"type": "string"
				}
			],
			"name": "reveal",
			"outputs": [],
			"stateMutability": "nonpayable",
			"type": "function"
		},
		{
			"inputs": [],
			"name": "revealedCount",
			"outputs": [
				{
					"internalType": "uint256",
					"name": "",
					"type": "uint256"
				}
			],
			"stateMutability": "view",
			"type": "function"
		},
		{
			"inputs": [
				{
					"internalType": "address",
					"name": "",
					"type": "address"
				}
			],
			"name": "revisions",
			"outputs": [
				{
					"internalType": "uint32",
					"name": "",
					"type": "uint32"
				}
			],
			"stateMutability": "view",
			"type": "function"
		},
		{
			"inputs": [],
			"name": "router",
			"outputs": [
				{
					"internalType": "contract SPIDWalletRouter",
					"name": "",
					"type": "address"
				}
			],
			"stateMutability": "view",
			"type": "function"
		},
		{
			"inputs": [
				{
					"internalType": "enum IReferendum.Phase",
					"name": "p",
					"type": "uint8"
				}
			],
			"name": "setPhase",
			"outputs": [],
			"stateMutability": "nonpayable",
			"type": "function"
		},
		{
			"inputs": [
				{
					"internalType": "bytes32",
					"name": "",
					"type": "bytes32"
				}
			],
			"name": "tally",
			"outputs": [
				{
					"internalType": "uint256",
					"name": "",
					"type": "uint256"
				}
			],
			"stateMutability": "view",
			"type": "function"
		},
		{
			"inputs": [],
			"name": "title",
			"outputs": [
				{
					"internalType": "string",
					"name": "",
					"type": "string"
				}
			],
			"stateMutability": "view",
			"type": "function"
		},
		{
			"inputs": [
				{
					"internalType": "address",
					"name": "",
					"type": "address"
				},
				{
					"internalType": "bytes32",
					"name": "",
					"type": "bytes32"
				}
			],
			"name": "usedNonce",
			"outputs": [
				{
					"internalType": "bool",
					"name": "",
					"type": "bool"
				}
			],
			"stateMutability": "view",
			"type": "function"
		},
		{
			"inputs": [
				{
					"internalType": "uint256",
					"name": "",
					"type": "uint256"
				}
			],
			"name": "voters",
			"outputs": [
				{
					"internalType": "address",
					"name": "",
					"type": "address"
				}
			],
			"stateMutability": "view",
			"type": "function"
		},
		{
			"inputs": [],
			"name": "votersCount",
			"outputs": [
				{
					"internalType": "uint256",
					"name": "",
					"type": "uint256"
				}
			],
			"stateMutability": "view",
			"type": "function"
		}
	]
}