{
	"data": {
		"bytecode": {
			"linkReferences": {},
			"object": "608060405234801561000f575f5ffd5b5060405161001c906107d9565b604051809103905ff080158015610035573d5f5f3e3d5ffd5b505f5f6101000a81548173ffffffffffffffffffffffffffffffffffffffff021916908373ffffffffffffffffffffffffffffffffffffffff1602179055505f5f9054906101000a900473ffffffffffffffffffffffffffffffffffffffff166040516100a1906107e6565b6100ab919061087a565b604051809103905ff0801580156100c4573d5f5f3e3d5ffd5b5060015f6101000a81548173ffffffffffffffffffffffffffffffffffffffff021916908373ffffffffffffffffffffffffffffffffffffffff1602179055505f5f9054906101000a900473ffffffffffffffffffffffffffffffffffffffff16604051610131906107f3565b61013b919061087a565b604051809103905ff080158015610154573d5f5f3e3d5ffd5b5060025f6101000a81548173ffffffffffffffffffffffffffffffffffffffff021916908373ffffffffffffffffffffffffffffffffffffffff1602179055505f3290505f5f9054906101000a900473ffffffffffffffffffffffffffffffffffffffff1673ffffffffffffffffffffffffffffffffffffffff16632f2ff15d5f5f9054906101000a900473ffffffffffffffffffffffffffffffffffffffff1673ffffffffffffffffffffffffffffffffffffffff16632a0acc6a6040518163ffffffff1660e01b8152600401602060405180830381865afa15801561023d573d5f5f3e3d5ffd5b505050506040513d601f19601f8201168201806040525081019061026191906108ca565b836040518363ffffffff1660e01b815260040161027f929190610924565b5f604051808303815f87803b158015610296575f5ffd5b505af11580156102a8573d5f5f3e3d5ffd5b505050505f5f9054906101000a900473ffffffffffffffffffffffffffffffffffffffff1673ffffffffffffffffffffffffffffffffffffffff16632f2ff15d5f5f9054906101000a900473ffffffffffffffffffffffffffffffffffffffff1673ffffffffffffffffffffffffffffffffffffffff166338013f026040518163ffffffff1660e01b8152600401602060405180830381865afa158015610351573d5f5f3e3d5ffd5b505050506040513d601f19601f8201168201806040525081019061037591906108ca565b836040518363ffffffff1660e01b8152600401610393929190610924565b5f604051808303815f87803b1580156103aa575f5ffd5b505af11580156103bc573d5f5f3e3d5ffd5b505050505f5f9054906101000a900473ffffffffffffffffffffffffffffffffffffffff1673ffffffffffffffffffffffffffffffffffffffff1663cb220fac826040518263ffffffff1660e01b815260040161041991906109a5565b5f604051808303815f87803b158015610430575f5ffd5b505af1158015610442573d5f5f3e3d5ffd5b505050505f5f9054906101000a900473ffffffffffffffffffffffffffffffffffffffff1673ffffffffffffffffffffffffffffffffffffffff1663cb220fac826040518263ffffffff1660e01b815260040161049f9190610a1b565b5f604051808303815f87803b1580156104b6575f5ffd5b505af11580156104c8573d5f5f3e3d5ffd5b505050505f5f9054906101000a900473ffffffffffffffffffffffffffffffffffffffff1673ffffffffffffffffffffffffffffffffffffffff1663cb220fac7322a2bc6e24fba136023a126560e2d2490a834b546040518263ffffffff1660e01b815260040161053991906109a5565b5f604051808303815f87803b158015610550575f5ffd5b505af1158015610562573d5f5f3e3d5ffd5b505050505f5f9054906101000a900473ffffffffffffffffffffffffffffffffffffffff1673ffffffffffffffffffffffffffffffffffffffff1663cb220fac7322a2bc6e24fba136023a126560e2d2490a834b546040518263ffffffff1660e01b81526004016105d39190610a1b565b5f604051808303815f87803b1580156105ea575f5ffd5b505af11580156105fc573d5f5f3e3d5ffd5b505050505f5f9054906101000a900473ffffffffffffffffffffffffffffffffffffffff1673ffffffffffffffffffffffffffffffffffffffff1663cb220fac73e6bbd7ee72fe05b50e15416b0e03a80c43f3f8616040518263ffffffff1660e01b815260040161066d91906109a5565b5f604051808303815f87803b158015610684575f5ffd5b505af1158015610696573d5f5f3e3d5ffd5b505050505f5f9054906101000a900473ffffffffffffffffffffffffffffffffffffffff1673ffffffffffffffffffffffffffffffffffffffff1663cb220fac73e6bbd7ee72fe05b50e15416b0e03a80c43f3f8616040518263ffffffff1660e01b81526004016107079190610a1b565b5f604051808303815f87803b15801561071e575f5ffd5b505af1158015610730573d5f5f3e3d5ffd5b505050507fd55ba4d01e57b874e150eae23da3bcbd034843ba1f1559c238be01a7d58fc24a5f5f9054906101000a900473ffffffffffffffffffffffffffffffffffffffff1660015f9054906101000a900473ffffffffffffffffffffffffffffffffffffffff1660025f9054906101000a900473ffffffffffffffffffffffffffffffffffffffff16846040516107cb9493929190610a47565b60405180910390a150610a8a565b61161780610e6b83390190565b613d418061248283390190565b611cf3806161c383390190565b5f73ffffffffffffffffffffffffffffffffffffffff82169050919050565b5f819050919050565b5f61084261083d61083884610800565b61081f565b610800565b9050919050565b5f61085382610828565b9050919050565b5f61086482610849565b9050919050565b6108748161085a565b82525050565b5f60208201905061088d5f83018461086b565b92915050565b5f5ffd5b5f819050919050565b6108a981610897565b81146108b3575f5ffd5b50565b5f815190506108c4816108a0565b92915050565b5f602082840312156108df576108de610893565b5b5f6108ec848285016108b6565b91505092915050565b6108fe81610897565b82525050565b5f61090e82610800565b9050919050565b61091e81610904565b82525050565b5f6040820190506109375f8301856108f5565b6109446020830184610915565b9392505050565b5f82825260208201905092915050565b7f4974616c696100000000000000000000000000000000000000000000000000005f82015250565b5f61098f60068361094b565b915061099a8261095b565b602082019050919050565b5f6040820190506109b85f830184610915565b81810360208301526109c981610983565b905092915050565b7f53616e204d6172696e6f000000000000000000000000000000000000000000005f82015250565b5f610a05600a8361094b565b9150610a10826109d1565b602082019050919050565b5f604082019050610a2e5f830184610915565b8181036020830152610a3f816109f9565b905092915050565b5f608082019050610a5a5f830187610915565b610a676020830186610915565b610a746040830185610915565b610a816060830184610915565b95945050505050565b6103d480610a975f395ff3fe608060405234801561000f575f5ffd5b5060043610610060575f3560e01c80638747eaf114610064578063c30d4bed14610082578063c45a0155146100a0578063da0321cd146100be578063e138cc9a146100de578063f887ea40146100fc575b5f5ffd5b61006c61011a565b604051610079919061026a565b60405180910390f35b61008a610132565b604051610097919061026a565b60405180910390f35b6100a861014a565b6040516100b591906102de565b60405180910390f35b6100c661016f565b6040516100d5939291906102f7565b60405180910390f35b6100e66101e2565b6040516100f3919061034c565b60405180910390f35b610104610207565b6040516101119190610385565b60405180910390f35b7322a2bc6e24fba136023a126560e2d2490a834b5481565b73e6bbd7ee72fe05b50e15416b0e03a80c43f3f86181565b60015f9054906101000a900473ffffffffffffffffffffffffffffffffffffffff1681565b5f5f5f5f5f9054906101000a900473ffffffffffffffffffffffffffffffffffffffff1660015f9054906101000a900473ffffffffffffffffffffffffffffffffffffffff1660025f9054906101000a900473ffffffffffffffffffffffffffffffffffffffff16925092509250909192565b60025f9054906101000a900473ffffffffffffffffffffffffffffffffffffffff1681565b5f5f9054906101000a900473ffffffffffffffffffffffffffffffffffffffff1681565b5f73ffffffffffffffffffffffffffffffffffffffff82169050919050565b5f6102548261022b565b9050919050565b6102648161024a565b82525050565b5f60208201905061027d5f83018461025b565b92915050565b5f819050919050565b5f6102a66102a161029c8461022b565b610283565b61022b565b9050919050565b5f6102b78261028c565b9050919050565b5f6102c8826102ad565b9050919050565b6102d8816102be565b82525050565b5f6020820190506102f15f8301846102cf565b92915050565b5f60608201905061030a5f83018661025b565b610317602083018561025b565b610324604083018461025b565b949350505050565b5f610336826102ad565b9050919050565b6103468161032c565b82525050565b5f60208201905061035f5f83018461033d565b92915050565b5f61036f826102ad565b9050919050565b61037f81610365565b82525050565b5f6020820190506103985f830184610376565b9291505056fea2646970667358221220c012fa848158f7bf585f66ff06bbd2f4b1fb9388fd0e8360c242d80b93a1a3ac64736f6c634300081e0033608060405234801561000f575f5ffd5b50336100417fdf8b4c520ffe197c5343c6f5aec59570151ef9a492f2c624fd45ddde6135ec428261007760201b60201c565b506100727f352d05fe3946dbe49277552ba941e744d5a96d9c60bc1ba0ea5f1d3ae000f7c83361007760201b60201c565b610139565b60015f5f8481526020019081526020015f205f8373ffffffffffffffffffffffffffffffffffffffff1673ffffffffffffffffffffffffffffffffffffffff1681526020019081526020015f205f6101000a81548160ff0219169083151502179055503373ffffffffffffffffffffffffffffffffffffffff168173ffffffffffffffffffffffffffffffffffffffff16837f2f8788117e7eff1d82e926ec794901d17c78024a50270940304540a733656f0d60405160405180910390a45050565b6114d1806101465f395ff3fe608060405234801561000f575f5ffd5b50600436106100b2575f3560e01c806365e4ad9e1161006f57806365e4ad9e1461018a5780637f0ebb07146101ba57806391d14854146101ea578063ae5922d41461021a578063cb220fac1461024a578063d547741f14610266576100b2565b80632330f247146100b65780632a0acc6a146100e65780632f2ff15d1461010457806338013f02146101205780633c2628251461013e57806356712f211461015a575b5f5ffd5b6100d060048036038101906100cb9190610e03565b610282565b6040516100dd9190610e48565b60405180910390f35b6100ee6102d4565b6040516100fb9190610e79565b60405180910390f35b61011e60048036038101906101199190610ebc565b6102f8565b005b6101286103c1565b6040516101359190610e79565b60405180910390f35b61015860048036038101906101539190610f5b565b6103e5565b005b610174600480360381019061016f9190610fb8565b61055a565b6040516101819190610e48565b60405180910390f35b6101a4600480360381019061019f9190611029565b6106f2565b6040516101b19190610e48565b60405180910390f35b6101d460048036038101906101cf9190611029565b610782565b6040516101e191906110d7565b60405180910390f35b61020460048036038101906101ff9190610ebc565b61088e565b6040516102119190610e48565b60405180910390f35b610234600480360381019061022f9190610f5b565b6108ef565b6040516102419190610e48565b60405180910390f35b610264600480360381019061025f9190610f5b565b610969565b005b610280600480360381019061027b9190610ebc565b610b49565b005b5f60035f8373ffffffffffffffffffffffffffffffffffffffff1673ffffffffffffffffffffffffffffffffffffffff1681526020019081526020015f205f9054906101000a900460ff169050919050565b7fdf8b4c520ffe197c5343c6f5aec59570151ef9a492f2c624fd45ddde6135ec4281565b7fdf8b4c520ffe197c5343c6f5aec59570151ef9a492f2c624fd45ddde6135ec425f5f8281526020019081526020015f205f3373ffffffffffffffffffffffffffffffffffffffff1673ffffffffffffffffffffffffffffffffffffffff1681526020019081526020015f205f9054906101000a900460ff166103b257806040517fe66c48da0000000000000000000000000000000000000000000000000000000081526004016103a99190610e79565b60405180910390fd5b6103bc8383610cc5565b505050565b7f352d05fe3946dbe49277552ba941e744d5a96d9c60bc1ba0ea5f1d3ae000f7c881565b604051806040016040528060011515815260200183838080601f0160208091040260200160405190810160405280939291908181526020018383808284375f81840152601f19601f8201169050808301925050505050505081525060015f8573ffffffffffffffffffffffffffffffffffffffff1673ffffffffffffffffffffffffffffffffffffffff1681526020019081526020015f205f3373ffffffffffffffffffffffffffffffffffffffff1673ffffffffffffffffffffffffffffffffffffffff1681526020019081526020015f205f820151815f015f6101000a81548160ff02191690831515021790555060208201518160010190816104ea919061132a565b509050503373ffffffffffffffffffffffffffffffffffffffff168373ffffffffffffffffffffffffffffffffffffffff167fa9bfc81de9c511da5a9fe8a33d67e3aec7fd94141848826347ba0ab5e2c0d7dc848460405161054d929190611433565b60405180910390a3505050565b5f5f60015f8773ffffffffffffffffffffffffffffffffffffffff1673ffffffffffffffffffffffffffffffffffffffff1681526020019081526020015f205f8673ffffffffffffffffffffffffffffffffffffffff1673ffffffffffffffffffffffffffffffffffffffff1681526020019081526020015f206040518060400160405290815f82015f9054906101000a900460ff1615151515815260200160018201805461060890611151565b80601f016020809104026020016040519081016040528092919081815260200182805461063490611151565b801561067f5780601f106106565761010080835404028352916020019161067f565b820191905f5260205f20905b81548152906001019060200180831161066257829003601f168201915b5050505050815250509050805f015180156106e757506106e6816020015185858080601f0160208091040260200160405190810160405280939291908181526020018383808284375f81840152601f19601f82011690508083019250505050505050610d87565b5b915050949350505050565b5f60015f8473ffffffffffffffffffffffffffffffffffffffff1673ffffffffffffffffffffffffffffffffffffffff1681526020019081526020015f205f8373ffffffffffffffffffffffffffffffffffffffff1673ffffffffffffffffffffffffffffffffffffffff1681526020019081526020015f205f015f9054906101000a900460ff16905092915050565b606060015f8473ffffffffffffffffffffffffffffffffffffffff1673ffffffffffffffffffffffffffffffffffffffff1681526020019081526020015f205f8373ffffffffffffffffffffffffffffffffffffffff1673ffffffffffffffffffffffffffffffffffffffff1681526020019081526020015f20600101805461080a90611151565b80601f016020809104026020016040519081016040528092919081815260200182805461083690611151565b80156108815780601f1061085857610100808354040283529160200191610881565b820191905f5260205f20905b81548152906001019060200180831161086457829003601f168201915b5050505050905092915050565b5f5f5f8481526020019081526020015f205f8373ffffffffffffffffffffffffffffffffffffffff1673ffffffffffffffffffffffffffffffffffffffff1681526020019081526020015f205f9054906101000a900460ff16905092915050565b5f60025f8573ffffffffffffffffffffffffffffffffffffffff1673ffffffffffffffffffffffffffffffffffffffff1681526020019081526020015f205f848460405161093e929190611483565b604051809103902081526020019081526020015f205f9054906101000a900460ff1690509392505050565b7fdf8b4c520ffe197c5343c6f5aec59570151ef9a492f2c624fd45ddde6135ec425f5f8281526020019081526020015f205f3373ffffffffffffffffffffffffffffffffffffffff1673ffffffffffffffffffffffffffffffffffffffff1681526020019081526020015f205f9054906101000a900460ff16610a2357806040517fe66c48da000000000000000000000000000000000000000000000000000000008152600401610a1a9190610e79565b60405180910390fd5b600160025f8673ffffffffffffffffffffffffffffffffffffffff1673ffffffffffffffffffffffffffffffffffffffff1681526020019081526020015f205f8585604051610a73929190611483565b604051809103902081526020019081526020015f205f6101000a81548160ff021916908315150217905550600160035f8673ffffffffffffffffffffffffffffffffffffffff1673ffffffffffffffffffffffffffffffffffffffff1681526020019081526020015f205f6101000a81548160ff0219169083151502179055508373ffffffffffffffffffffffffffffffffffffffff167f1fc5f764a994850f50b8eda85e5eee89ad859a5da915a0b0e7e7c4429b3b03858484604051610b3b929190611433565b60405180910390a250505050565b7fdf8b4c520ffe197c5343c6f5aec59570151ef9a492f2c624fd45ddde6135ec425f5f8281526020019081526020015f205f3373ffffffffffffffffffffffffffffffffffffffff1673ffffffffffffffffffffffffffffffffffffffff1681526020019081526020015f205f9054906101000a900460ff16610c0357806040517fe66c48da000000000000000000000000000000000000000000000000000000008152600401610bfa9190610e79565b60405180910390fd5b5f5f5f8581526020019081526020015f205f8473ffffffffffffffffffffffffffffffffffffffff1673ffffffffffffffffffffffffffffffffffffffff1681526020019081526020015f205f6101000a81548160ff0219169083151502179055503373ffffffffffffffffffffffffffffffffffffffff168273ffffffffffffffffffffffffffffffffffffffff16847ff6391f5c32d9c69d2a47ea670b442974b53935d1edc7fd64eb21e047a839171b60405160405180910390a4505050565b60015f5f8481526020019081526020015f205f8373ffffffffffffffffffffffffffffffffffffffff1673ffffffffffffffffffffffffffffffffffffffff1681526020019081526020015f205f6101000a81548160ff0219169083151502179055503373ffffffffffffffffffffffffffffffffffffffff168173ffffffffffffffffffffffffffffffffffffffff16837f2f8788117e7eff1d82e926ec794901d17c78024a50270940304540a733656f0d60405160405180910390a45050565b5f8180519060200120838051906020012014905092915050565b5f5ffd5b5f5ffd5b5f73ffffffffffffffffffffffffffffffffffffffff82169050919050565b5f610dd282610da9565b9050919050565b610de281610dc8565b8114610dec575f5ffd5b50565b5f81359050610dfd81610dd9565b92915050565b5f60208284031215610e1857610e17610da1565b5b5f610e2584828501610def565b91505092915050565b5f8115159050919050565b610e4281610e2e565b82525050565b5f602082019050610e5b5f830184610e39565b92915050565b5f819050919050565b610e7381610e61565b82525050565b5f602082019050610e8c5f830184610e6a565b92915050565b610e9b81610e61565b8114610ea5575f5ffd5b50565b5f81359050610eb681610e92565b92915050565b5f5f60408385031215610ed257610ed1610da1565b5b5f610edf85828601610ea8565b9250506020610ef085828601610def565b9150509250929050565b5f5ffd5b5f5ffd5b5f5ffd5b5f5f83601f840112610f1b57610f1a610efa565b5b8235905067ffffffffffffffff811115610f3857610f37610efe565b5b602083019150836001820283011115610f5457610f53610f02565b5b9250929050565b5f5f5f60408486031215610f7257610f71610da1565b5b5f610f7f86828701610def565b935050602084013567ffffffffffffffff811115610fa057610f9f610da5565b5b610fac86828701610f06565b92509250509250925092565b5f5f5f5f60608587031215610fd057610fcf610da1565b5b5f610fdd87828801610def565b9450506020610fee87828801610def565b935050604085013567ffffffffffffffff81111561100f5761100e610da5565b5b61101b87828801610f06565b925092505092959194509250565b5f5f6040838503121561103f5761103e610da1565b5b5f61104c85828601610def565b925050602061105d85828601610def565b9150509250929050565b5f81519050919050565b5f82825260208201905092915050565b8281835e5f83830152505050565b5f601f19601f8301169050919050565b5f6110a982611067565b6110b38185611071565b93506110c3818560208601611081565b6110cc8161108f565b840191505092915050565b5f6020820190508181035f8301526110ef818461109f565b905092915050565b7f4e487b71000000000000000000000000000000000000000000000000000000005f52604160045260245ffd5b7f4e487b71000000000000000000000000000000000000000000000000000000005f52602260045260245ffd5b5f600282049050600182168061116857607f821691505b60208210810361117b5761117a611124565b5b50919050565b5f819050815f5260205f209050919050565b5f6020601f8301049050919050565b5f82821b905092915050565b5f600883026111dd7fffffffffffffffffffffffffffffffffffffffffffffffffffffffffffffffff826111a2565b6111e786836111a2565b95508019841693508086168417925050509392505050565b5f819050919050565b5f819050919050565b5f61122b611226611221846111ff565b611208565b6111ff565b9050919050565b5f819050919050565b61124483611211565b61125861125082611232565b8484546111ae565b825550505050565b5f5f905090565b61126f611260565b61127a81848461123b565b505050565b5b8181101561129d576112925f82611267565b600181019050611280565b5050565b601f8211156112e2576112b381611181565b6112bc84611193565b810160208510156112cb578190505b6112df6112d785611193565b83018261127f565b50505b505050565b5f82821c905092915050565b5f6113025f19846008026112e7565b1980831691505092915050565b5f61131a83836112f3565b9150826002028217905092915050565b61133382611067565b67ffffffffffffffff81111561134c5761134b6110f7565b5b6113568254611151565b6113618282856112a1565b5f60209050601f831160018114611392575f8415611380578287015190505b61138a858261130f565b8655506113f1565b601f1984166113a086611181565b5f5b828110156113c7578489015182556001820191506020850194506020810190506113a2565b868310156113e457848901516113e0601f8916826112f3565b8355505b6001600288020188555050505b505050505050565b828183375f83830152505050565b5f6114128385611071565b935061141f8385846113f9565b6114288361108f565b840190509392505050565b5f6020820190508181035f83015261144c818486611407565b90509392505050565b5f81905092915050565b5f61146a8385611455565b93506114778385846113f9565b82840190509392505050565b5f61148f82848661145f565b9150819050939250505056fea26469706673582212200ddf97eeaf51a837e85193b73637af86cd490ca9e95d39d55a73d51e63764baa64736f6c634300081e003360a060405234801561000f575f5ffd5b50604051613d41380380613d41833981810160405281019061003191906100da565b8073ffffffffffffffffffffffffffffffffffffffff1660808173ffffffffffffffffffffffffffffffffffffffff168152505050610105565b5f5ffd5b5f73ffffffffffffffffffffffffffffffffffffffff82169050919050565b5f6100988261006f565b9050919050565b5f6100a98261008e565b9050919050565b6100b98161009f565b81146100c3575f5ffd5b50565b5f815190506100d4816100b0565b92915050565b5f602082840312156100ef576100ee61006b565b5b5f6100fc848285016100c6565b91505092915050565b608051613c1661012b5f395f81816101700152818161028201526103ba0152613c165ff3fe608060405234801561000f575f5ffd5b506004361061004a575f3560e01c806306661abd1461004e5780637591dbda1461006c578063a0719c421461008a578063f887ea40146100ba575b5f5ffd5b6100566100d8565b6040516100639190610401565b60405180910390f35b6100746100e3565b6040516100819190610501565b60405180910390f35b6100a4600480360381019061009f91906105df565b61016d565b6040516100b1919061069e565b60405180910390f35b6100c26103b8565b6040516100cf9190610712565b60405180910390f35b5f5f80549050905090565b60605f80548060200260200160405190810160405280929190818152602001828054801561016357602002820191905f5260205f20905b815f9054906101000a900473ffffffffffffffffffffffffffffffffffffffff1673ffffffffffffffffffffffffffffffffffffffff168152602001906001019080831161011a575b5050505050905090565b5f7f000000000000000000000000000000000000000000000000000000000000000073ffffffffffffffffffffffffffffffffffffffff1663ae5922d43387876040518463ffffffff1660e01b81526004016101cb93929190610785565b602060405180830381865afa1580156101e6573d5f5f3e3d5ffd5b505050506040513d601f19601f8201168201806040525081019061020a91906107ea565b610240576040517f1ccc6f2700000000000000000000000000000000000000000000000000000000815260040160405180910390fd5b600283839050101561027e576040517f8af2585300000000000000000000000000000000000000000000000000000000815260040160405180910390fd5b5f337f00000000000000000000000000000000000000000000000000000000000000008989898989896040516102b3906103dc565b6102c498979695949392919061096d565b604051809103905ff0801580156102dd573d5f5f3e3d5ffd5b5090505f81908060018154018082558091505060019003905f5260205f20015f9091909190916101000a81548173ffffffffffffffffffffffffffffffffffffffff021916908373ffffffffffffffffffffffffffffffffffffffff1602179055503373ffffffffffffffffffffffffffffffffffffffff168173ffffffffffffffffffffffffffffffffffffffff167f83b6b29e43bd355be256dcebc3f269ef74088d5a6f650c35534f8106f5c429fc88888c8c6040516103a294939291906109d9565b60405180910390a3809150509695505050505050565b7f000000000000000000000000000000000000000000000000000000000000000081565b6131ce80610a1383390190565b5f819050919050565b6103fb816103e9565b82525050565b5f6020820190506104145f8301846103f2565b92915050565b5f81519050919050565b5f82825260208201905092915050565b5f819050602082019050919050565b5f73ffffffffffffffffffffffffffffffffffffffff82169050919050565b5f61046c82610443565b9050919050565b61047c81610462565b82525050565b5f61048d8383610473565b60208301905092915050565b5f602082019050919050565b5f6104af8261041a565b6104b98185610424565b93506104c483610434565b805f5b838110156104f45781516104db8882610482565b97506104e683610499565b9250506001810190506104c7565b5085935050505092915050565b5f6020820190508181035f83015261051981846104a5565b905092915050565b5f5ffd5b5f5ffd5b5f5ffd5b5f5ffd5b5f5ffd5b5f5f83601f84011261054a57610549610529565b5b8235905067ffffffffffffffff8111156105675761056661052d565b5b60208301915083600182028301111561058357610582610531565b5b9250929050565b5f5f83601f84011261059f5761059e610529565b5b8235905067ffffffffffffffff8111156105bc576105bb61052d565b5b6020830191508360208202830111156105d8576105d7610531565b5b9250929050565b5f5f5f5f5f5f606087890312156105f9576105f8610521565b5b5f87013567ffffffffffffffff81111561061657610615610525565b5b61062289828a01610535565b9650965050602087013567ffffffffffffffff81111561064557610644610525565b5b61065189828a01610535565b9450945050604087013567ffffffffffffffff81111561067457610673610525565b5b61068089828a0161058a565b92509250509295509295509295565b61069881610462565b82525050565b5f6020820190506106b15f83018461068f565b92915050565b5f819050919050565b5f6106da6106d56106d084610443565b6106b7565b610443565b9050919050565b5f6106eb826106c0565b9050919050565b5f6106fc826106e1565b9050919050565b61070c816106f2565b82525050565b5f6020820190506107255f830184610703565b92915050565b5f82825260208201905092915050565b828183375f83830152505050565b5f601f19601f8301169050919050565b5f610764838561072b565b935061077183858461073b565b61077a83610749565b840190509392505050565b5f6040820190506107985f83018661068f565b81810360208301526107ab818486610759565b9050949350505050565b5f8115159050919050565b6107c9816107b5565b81146107d3575f5ffd5b50565b5f815190506107e4816107c0565b92915050565b5f602082840312156107ff576107fe610521565b5b5f61080c848285016107d6565b91505092915050565b5f82825260208201905092915050565b5f819050919050565b5f82825260208201905092915050565b5f610849838561082e565b935061085683858461073b565b61085f83610749565b840190509392505050565b5f61087684848461083e565b90509392505050565b5f5ffd5b5f5ffd5b5f5ffd5b5f5f833560016020038436030381126108a7576108a6610887565b5b83810192508235915060208301925067ffffffffffffffff8211156108cf576108ce61087f565b5b6001820236038313156108e5576108e4610883565b5b509250929050565b5f602082019050919050565b5f6109048385610815565b93508360208402850161091684610825565b805f5b8781101561095b578484038952610930828461088b565b61093b86828461086a565b9550610946846108ed565b935060208b019a505050600181019050610919565b50829750879450505050509392505050565b5f60a0820190506109805f83018b61068f565b61098d602083018a610703565b81810360408301526109a081888a610759565b905081810360608301526109b5818688610759565b905081810360808301526109ca8184866108f9565b90509998505050505050505050565b5f6040820190508181035f8301526109f2818688610759565b90508181036020830152610a07818486610759565b90509594505050505056fe60c060405234801561000f575f5ffd5b506040516131ce3803806131ce833981810160405281019061003191906104c2565b8473ffffffffffffffffffffffffffffffffffffffff1660a08173ffffffffffffffffffffffffffffffffffffffff16815250508373ffffffffffffffffffffffffffffffffffffffff1660808173ffffffffffffffffffffffffffffffffffffffff1681525050825f90816100a7919061079d565b5081600190816100b7919061079d565b505f5b81518110156101845760048282815181106100d8576100d761086c565b5b6020026020010151908060018154018082558091505060019003905f5260205f20015f90919091909150908161010e919061079d565b50600330828484815181106101265761012561086c565b5b602002602001015160405160200161014093929190610938565b60405160208183030381529060405280519060200120908060018154018082558091505060019003905f5260205f20015f90919091909150558060010190506100ba565b50600160025f6101000a81548160ff021916908360038111156101aa576101a9610970565b5b02179055507fa6dcc92f45df25789d5639b7a0c97ba1edf3bb1c0b5dd3376fd96a0db87c464260025f9054906101000a900460ff166040516101ec91906109e3565b60405180910390a150505050506109fc565b5f604051905090565b5f5ffd5b5f5ffd5b5f73ffffffffffffffffffffffffffffffffffffffff82169050919050565b5f6102388261020f565b9050919050565b6102488161022e565b8114610252575f5ffd5b50565b5f815190506102638161023f565b92915050565b5f6102738261022e565b9050919050565b61028381610269565b811461028d575f5ffd5b50565b5f8151905061029e8161027a565b92915050565b5f5ffd5b5f5ffd5b5f601f19601f8301169050919050565b7f4e487b71000000000000000000000000000000000000000000000000000000005f52604160045260245ffd5b6102f2826102ac565b810181811067ffffffffffffffff82111715610311576103106102bc565b5b80604052505050565b5f6103236101fe565b905061032f82826102e9565b919050565b5f67ffffffffffffffff82111561034e5761034d6102bc565b5b610357826102ac565b9050602081019050919050565b8281835e5f83830152505050565b5f61038461037f84610334565b61031a565b9050828152602081018484840111156103a05761039f6102a8565b5b6103ab848285610364565b509392505050565b5f82601f8301126103c7576103c66102a4565b5b81516103d7848260208601610372565b91505092915050565b5f67ffffffffffffffff8211156103fa576103f96102bc565b5b602082029050602081019050919050565b5f5ffd5b5f61042161041c846103e0565b61031a565b905080838252602082019050602084028301858111156104445761044361040b565b5b835b8181101561048b57805167ffffffffffffffff811115610469576104686102a4565b5b80860161047689826103b3565b85526020850194505050602081019050610446565b5050509392505050565b5f82601f8301126104a9576104a86102a4565b5b81516104b984826020860161040f565b91505092915050565b5f5f5f5f5f60a086880312156104db576104da610207565b5b5f6104e888828901610255565b95505060206104f988828901610290565b945050604086015167ffffffffffffffff81111561051a5761051961020b565b5b610526888289016103b3565b935050606086015167ffffffffffffffff8111156105475761054661020b565b5b610553888289016103b3565b925050608086015167ffffffffffffffff8111156105745761057361020b565b5b61058088828901610495565b9150509295509295909350565b5f81519050919050565b7f4e487b71000000000000000000000000000000000000000000000000000000005f52602260045260245ffd5b5f60028204905060018216806105db57607f821691505b6020821081036105ee576105ed610597565b5b50919050565b5f819050815f5260205f209050919050565b5f6020601f8301049050919050565b5f82821b905092915050565b5f600883026106507fffffffffffffffffffffffffffffffffffffffffffffffffffffffffffffffff82610615565b61065a8683610615565b95508019841693508086168417925050509392505050565b5f819050919050565b5f819050919050565b5f61069e61069961069484610672565b61067b565b610672565b9050919050565b5f819050919050565b6106b783610684565b6106cb6106c3826106a5565b848454610621565b825550505050565b5f5f905090565b6106e26106d3565b6106ed8184846106ae565b505050565b5b81811015610710576107055f826106da565b6001810190506106f3565b5050565b601f82111561075557610726816105f4565b61072f84610606565b8101602085101561073e578190505b61075261074a85610606565b8301826106f2565b50505b505050565b5f82821c905092915050565b5f6107755f198460080261075a565b1980831691505092915050565b5f61078d8383610766565b9150826002028217905092915050565b6107a68261058d565b67ffffffffffffffff8111156107bf576107be6102bc565b5b6107c982546105c4565b6107d4828285610714565b5f60209050601f831160018114610805575f84156107f3578287015190505b6107fd8582610782565b865550610864565b601f198416610813866105f4565b5f5b8281101561083a57848901518255600182019150602085019450602081019050610815565b868310156108575784890151610853601f891682610766565b8355505b6001600288020188555050505b505050505050565b7f4e487b71000000000000000000000000000000000000000000000000000000005f52603260045260245ffd5b5f8160601b9050919050565b5f6108af82610899565b9050919050565b5f6108c0826108a5565b9050919050565b6108d86108d38261022e565b6108b6565b82525050565b5f819050919050565b6108f86108f382610672565b6108de565b82525050565b5f81905092915050565b5f6109128261058d565b61091c81856108fe565b935061092c818560208601610364565b80840191505092915050565b5f61094382866108c7565b60148201915061095382856108e7565b6020820191506109638284610908565b9150819050949350505050565b7f4e487b71000000000000000000000000000000000000000000000000000000005f52602160045260245ffd5b600481106109ae576109ad610970565b5b50565b5f8190506109be8261099d565b919050565b5f6109cd826109b1565b9050919050565b6109dd816109c3565b82525050565b5f6020820190506109f65f8301846109d4565b92915050565b60805160a05161278e610a405f395f81816104a7015281816105d80152610e4b01525f818161115f01528181611231015281816112d201526116d6015261278e5ff3fe608060405234801561000f575f5ffd5b5060043610610156575f3560e01c8063907a8585116100c1578063cc2ee1961161007a578063cc2ee196146103ce578063cdd72253146103ec578063da58c7d91461040a578063e3ce094d1461043a578063f6e22eb514610456578063f887ea401461048657610156565b8063907a85851461030a57806398c079381461033a578063b1c9fe6e14610358578063b3f05b9714610376578063bbd78e9314610394578063c03afb59146103b257610156565b80634abd18ab116101135780634abd18ab146102345780634c261247146102525780636a42a6421461026e578063826a5d561461029e5780638f9f07db146102bc578063903ac41d146102ec57610156565b80632672f5261461015a57806327cf38441461017857806339a926c4146101ac578063409e2205146101dc57806343d726d61461020c5780634a79d50c14610216575b5f5ffd5b6101626104a4565b60405161016f91906117f8565b60405180910390f35b610192600480360381019061018d9190611843565b6104cb565b6040516101a3959493929190611910565b60405180910390f35b6101c660048036038101906101c19190611992565b61059c565b6040516101d391906119d5565b60405180910390f35b6101f660048036038101906101f19190611a18565b6105b6565b6040516102039190611a43565b60405180910390f35b6102146105d6565b005b61021e6108c1565b60405161022b9190611a5c565b60405180910390f35b61023c61094c565b6040516102499190611b7f565b60405180910390f35b61026c60048036038101906102679190611c00565b610a20565b005b61028860048036038101906102839190611843565b610d25565b6040516102959190611c69565b60405180910390f35b6102a6610d45565b6040516102b39190611a5c565b60405180910390f35b6102d660048036038101906102d19190611c82565b610dd1565b6040516102e39190611cc0565b60405180910390f35b6102f4610dfb565b60405161030191906119d5565b60405180910390f35b610324600480360381019061031f9190611992565b610e01565b6040516103319190611cc0565b60405180910390f35b610342610e12565b60405161034f91906119d5565b60405180910390f35b610360610e1e565b60405161036d9190611d4c565b60405180910390f35b61037e610e30565b60405161038b9190611cc0565b60405180910390f35b61039c610e43565b6040516103a991906119d5565b60405180910390f35b6103cc60048036038101906103c79190611d88565b610e49565b005b6103d6610fd5565b6040516103e39190611e6a565b60405180910390f35b6103f461102b565b6040516104019190611f41565b60405180910390f35b610424600480360381019061041f9190611a18565b6110b6565b60405161043191906117f8565b60405180910390f35b610454600480360381019061044f9190611f61565b6110f1565b005b610470600480360381019061046b9190611992565b6116bf565b60405161047d91906119d5565b60405180910390f35b61048e6116d4565b60405161049b9190611ffa565b60405180910390f35b5f7f0000000000000000000000000000000000000000000000000000000000000000905090565b6006602052805f5260405f205f91509050805f015490806001015f9054906101000a900460ff16908060010160019054906101000a900460ff169080600201549080600301805461051b90612040565b80601f016020809104026020016040519081016040528092919081815260200182805461054790612040565b80156105925780601f1061056957610100808354040283529160200191610592565b820191905f5260205f20905b81548152906001019060200180831161057557829003601f168201915b5050505050905085565b5f60055f8381526020019081526020015f20549050919050565b600381815481106105c5575f80fd5b905f5260205f20015f915090505481565b7f000000000000000000000000000000000000000000000000000000000000000073ffffffffffffffffffffffffffffffffffffffff163373ffffffffffffffffffffffffffffffffffffffff161461065b576040517f1ccc6f2700000000000000000000000000000000000000000000000000000000815260040160405180910390fd5b6002600381111561066f5761066e611cd9565b5b60025f9054906101000a900460ff1660038111156106905761068f611cd9565b5b146106c7576040517ffae776d700000000000000000000000000000000000000000000000000000000815260040160405180910390fd5b600260019054906101000a900460ff161561070e576040517f475a253500000000000000000000000000000000000000000000000000000000815260040160405180910390fd5b5f5f5b6009805490508110156107fa575f60065f6009848154811061073657610735612070565b5b905f5260205f20015f9054906101000a900473ffffffffffffffffffffffffffffffffffffffff1673ffffffffffffffffffffffffffffffffffffffff1673ffffffffffffffffffffffffffffffffffffffff1681526020019081526020015f2090508060010160019054906101000a900460ff166107b557506107ef565b600160055f836002015481526020019081526020015f205f8282546107da91906120ca565b92505081905550826107eb906120fd565b9250505b806001019050610711565b506001600260016101000a81548160ff021916908315150217905550600360025f6101000a81548160ff0219169083600381111561083b5761083a611cd9565b5b02179055507fa6dcc92f45df25789d5639b7a0c97ba1edf3bb1c0b5dd3376fd96a0db87c464260036040516108709190611d4c565b60405180910390a17fb968440accd1ce5fa60b00de8bb8d8487eb2fda3c3701fb30fea3f69aa910a488182600a546108a89190612144565b6040516108b6929190612177565b60405180910390a150565b5f80546108cd90612040565b80601f01602080910402602001604051908101604052809291908181526020018280546108f990612040565b80156109445780601f1061091b57610100808354040283529160200191610944565b820191905f5260205f20905b81548152906001019060200180831161092757829003601f168201915b505050505081565b60606004805480602002602001604051908101604052809291908181526020015f905b82821015610a17578382905f5260205f2001805461098c90612040565b80601f01602080910402602001604051908101604052809291908181526020018280546109b890612040565b8015610a035780601f106109da57610100808354040283529160200191610a03565b820191905f5260205f20905b8154815290600101906020018083116109e657829003601f168201915b50505050508152602001906001019061096f565b50505050905090565b60026003811115610a3457610a33611cd9565b5b60025f9054906101000a900460ff166003811115610a5557610a54611cd9565b5b14610a8c576040517fd896054600000000000000000000000000000000000000000000000000000000815260040160405180910390fd5b5f60065f3373ffffffffffffffffffffffffffffffffffffffff1673ffffffffffffffffffffffffffffffffffffffff1681526020019081526020015f209050806001015f9054906101000a900460ff16610b13576040517f358f80a200000000000000000000000000000000000000000000000000000000815260040160405180910390fd5b8060010160019054906101000a900460ff1615610b5c576040517fa89ac15100000000000000000000000000000000000000000000000000000000815260040160405180910390fd5b5f5b600380549050811015610ccc57610bd860038281548110610b8257610b81612070565b5b905f5260205f20015485858080601f0160208091040260200160405190810160405280939291908181526020018383808284375f81840152601f19601f82011690508083019250505050505050845f01546116f8565b15610cc15760018260010160016101000a81548160ff02191690831515021790555060038181548110610c0e57610c0d612070565b5b905f5260205f20015482600201819055508383836003019182610c3292919061236c565b50600b5f815480929190610c45906120fd565b91905055503373ffffffffffffffffffffffffffffffffffffffff167fb0badfe092a7c4f1c6bbe483de673ce846cfc95a2d65f8aa4e98141bb6619fd360048381548110610c9657610c95612070565b5b905f5260205f200186866001604051610cb294939291906124f4565b60405180910390a25050610d21565b806001019050610b5e565b503373ffffffffffffffffffffffffffffffffffffffff167fb0badfe092a7c4f1c6bbe483de673ce846cfc95a2d65f8aa4e98141bb6619fd384845f604051610d179392919061255c565b60405180910390a2505b5050565b6007602052805f5260405f205f915054906101000a900463ffffffff1681565b60018054610d5290612040565b80601f0160208091040260200160405190810160405280929190818152602001828054610d7e90612040565b8015610dc95780601f10610da057610100808354040283529160200191610dc9565b820191905f5260205f20905b815481529060010190602001808311610dac57829003601f168201915b505050505081565b6008602052815f5260405f20602052805f5260405f205f915091509054906101000a900460ff1681565b600a5481565b5f610e0b8261170e565b9050919050565b5f600980549050905090565b60025f9054906101000a900460ff1681565b600260019054906101000a900460ff1681565b600b5481565b7f000000000000000000000000000000000000000000000000000000000000000073ffffffffffffffffffffffffffffffffffffffff163373ffffffffffffffffffffffffffffffffffffffff1614610ece576040517f1ccc6f2700000000000000000000000000000000000000000000000000000000815260040160405180910390fd5b600380811115610ee157610ee0611cd9565b5b816003811115610ef457610ef3611cd9565b5b03610f2b576040517ffae776d700000000000000000000000000000000000000000000000000000000815260040160405180910390fd5b600260019054906101000a900460ff1615610f72576040517f475a253500000000000000000000000000000000000000000000000000000000815260040160405180910390fd5b8060025f6101000a81548160ff02191690836003811115610f9657610f95611cd9565b5b02179055507fa6dcc92f45df25789d5639b7a0c97ba1edf3bb1c0b5dd3376fd96a0db87c464281604051610fca9190611d4c565b60405180910390a150565b6060600380548060200260200160405190810160405280929190818152602001828054801561102157602002820191905f5260205f20905b81548152602001906001019080831161100d575b5050505050905090565b606060098054806020026020016040519081016040528092919081815260200182805480156110ac57602002820191905f5260205f20905b815f9054906101000a900473ffffffffffffffffffffffffffffffffffffffff1673ffffffffffffffffffffffffffffffffffffffff1681526020019060010190808311611063575b5050505050905090565b600981815481106110c5575f80fd5b905f5260205f20015f915054906101000a900473ffffffffffffffffffffffffffffffffffffffff1681565b6001600381111561110557611104611cd9565b5b60025f9054906101000a900460ff16600381111561112657611125611cd9565b5b1461115d576040517f3d0e4af700000000000000000000000000000000000000000000000000000000815260040160405180910390fd5b7f000000000000000000000000000000000000000000000000000000000000000073ffffffffffffffffffffffffffffffffffffffff1663ae5922d43360016040518363ffffffff1660e01b81526004016111b992919061259f565b602060405180830381865afa1580156111d4573d5f5f3e3d5ffd5b505050506040513d601f19601f820116820180604052508101906111f891906125f7565b1561122f576040517f7d75fb6800000000000000000000000000000000000000000000000000000000815260040160405180910390fd5b7f000000000000000000000000000000000000000000000000000000000000000073ffffffffffffffffffffffffffffffffffffffff166356712f21303360016040518463ffffffff1660e01b815260040161128d93929190612622565b602060405180830381865afa1580156112a8573d5f5f3e3d5ffd5b505050506040513d601f19601f820116820180604052508101906112cc91906125f7565b6113d2577f000000000000000000000000000000000000000000000000000000000000000073ffffffffffffffffffffffffffffffffffffffff166365e4ad9e30336040518363ffffffff1660e01b815260040161132b92919061265e565b602060405180830381865afa158015611346573d5f5f3e3d5ffd5b505050506040513d601f19601f8201168201806040525081019061136a91906125f7565b6113a0576040517f5a7de52100000000000000000000000000000000000000000000000000000000815260040160405180910390fd5b6040517f5ad080bf00000000000000000000000000000000000000000000000000000000815260040160405180910390fd5b61141860085f3373ffffffffffffffffffffffffffffffffffffffff1673ffffffffffffffffffffffffffffffffffffffff1681526020019081526020015f2082611760565b61144e576040517f850828c400000000000000000000000000000000000000000000000000000000815260040160405180910390fd5b600160085f3373ffffffffffffffffffffffffffffffffffffffff1673ffffffffffffffffffffffffffffffffffffffff1681526020019081526020015f205f8381526020019081526020015f205f6101000a81548160ff0219169083151502179055505f60065f3373ffffffffffffffffffffffffffffffffffffffff1673ffffffffffffffffffffffffffffffffffffffff1681526020019081526020015f209050806001015f9054906101000a900460ff1661159b576001816001015f6101000a81548160ff021916908315150217905550600a5f815480929190611535906120fd565b9190505550600933908060018154018082558091505060019003905f5260205f20015f9091909190916101000a81548173ffffffffffffffffffffffffffffffffffffffff021916908373ffffffffffffffffffffffffffffffffffffffff1602179055505b82815f018190555060075f3373ffffffffffffffffffffffffffffffffffffffff1673ffffffffffffffffffffffffffffffffffffffff1681526020019081526020015f205f81819054906101000a900463ffffffff16809291906115ff90612685565b91906101000a81548163ffffffff021916908363ffffffff160217905550503373ffffffffffffffffffffffffffffffffffffffff167fc36ee38ab4bb6ee36048925089c6c2c83d2d608c0013a08e450968f3eebc229f8460075f3373ffffffffffffffffffffffffffffffffffffffff1673ffffffffffffffffffffffffffffffffffffffff1681526020019081526020015f205f9054906101000a900463ffffffff166040516116b29291906126b0565b60405180910390a2505050565b6005602052805f5260405f205f915090505481565b7f000000000000000000000000000000000000000000000000000000000000000081565b5f816117048585611787565b1490509392505050565b5f5f5b60038054905081101561175657826003828154811061173357611732612070565b5b905f5260205f2001540361174b57600191505061175b565b806001019050611711565b505f90505b919050565b5f825f8381526020019081526020015f205f9054906101000a900460ff1615905092915050565b5f828260405160200161179b929190612731565b60405160208183030381529060405280519060200120905092915050565b5f73ffffffffffffffffffffffffffffffffffffffff82169050919050565b5f6117e2826117b9565b9050919050565b6117f2816117d8565b82525050565b5f60208201905061180b5f8301846117e9565b92915050565b5f5ffd5b5f5ffd5b611822816117d8565b811461182c575f5ffd5b50565b5f8135905061183d81611819565b92915050565b5f6020828403121561185857611857611811565b5b5f6118658482850161182f565b91505092915050565b5f819050919050565b6118808161186e565b82525050565b5f8115159050919050565b61189a81611886565b82525050565b5f81519050919050565b5f82825260208201905092915050565b8281835e5f83830152505050565b5f601f19601f8301169050919050565b5f6118e2826118a0565b6118ec81856118aa565b93506118fc8185602086016118ba565b611905816118c8565b840191505092915050565b5f60a0820190506119235f830188611877565b6119306020830187611891565b61193d6040830186611891565b61194a6060830185611877565b818103608083015261195c81846118d8565b90509695505050505050565b6119718161186e565b811461197b575f5ffd5b50565b5f8135905061198c81611968565b92915050565b5f602082840312156119a7576119a6611811565b5b5f6119b48482850161197e565b91505092915050565b5f819050919050565b6119cf816119bd565b82525050565b5f6020820190506119e85f8301846119c6565b92915050565b6119f7816119bd565b8114611a01575f5ffd5b50565b5f81359050611a12816119ee565b92915050565b5f60208284031215611a2d57611a2c611811565b5b5f611a3a84828501611a04565b91505092915050565b5f602082019050611a565f830184611877565b92915050565b5f6020820190508181035f830152611a7481846118d8565b905092915050565b5f81519050919050565b5f82825260208201905092915050565b5f819050602082019050919050565b5f82825260208201905092915050565b5f611abf826118a0565b611ac98185611aa5565b9350611ad98185602086016118ba565b611ae2816118c8565b840191505092915050565b5f611af88383611ab5565b905092915050565b5f602082019050919050565b5f611b1682611a7c565b611b208185611a86565b935083602082028501611b3285611a96565b805f5b85811015611b6d5784840389528151611b4e8582611aed565b9450611b5983611b00565b925060208a01995050600181019050611b35565b50829750879550505050505092915050565b5f6020820190508181035f830152611b978184611b0c565b905092915050565b5f5ffd5b5f5ffd5b5f5ffd5b5f5f83601f840112611bc057611bbf611b9f565b5b8235905067ffffffffffffffff811115611bdd57611bdc611ba3565b5b602083019150836001820283011115611bf957611bf8611ba7565b5b9250929050565b5f5f60208385031215611c1657611c15611811565b5b5f83013567ffffffffffffffff811115611c3357611c32611815565b5b611c3f85828601611bab565b92509250509250929050565b5f63ffffffff82169050919050565b611c6381611c4b565b82525050565b5f602082019050611c7c5f830184611c5a565b92915050565b5f5f60408385031215611c9857611c97611811565b5b5f611ca58582860161182f565b9250506020611cb68582860161197e565b9150509250929050565b5f602082019050611cd35f830184611891565b92915050565b7f4e487b71000000000000000000000000000000000000000000000000000000005f52602160045260245ffd5b60048110611d1757611d16611cd9565b5b50565b5f819050611d2782611d06565b919050565b5f611d3682611d1a565b9050919050565b611d4681611d2c565b82525050565b5f602082019050611d5f5f830184611d3d565b92915050565b60048110611d71575f5ffd5b50565b5f81359050611d8281611d65565b92915050565b5f60208284031215611d9d57611d9c611811565b5b5f611daa84828501611d74565b91505092915050565b5f81519050919050565b5f82825260208201905092915050565b5f819050602082019050919050565b611de58161186e565b82525050565b5f611df68383611ddc565b60208301905092915050565b5f602082019050919050565b5f611e1882611db3565b611e228185611dbd565b9350611e2d83611dcd565b805f5b83811015611e5d578151611e448882611deb565b9750611e4f83611e02565b925050600181019050611e30565b5085935050505092915050565b5f6020820190508181035f830152611e828184611e0e565b905092915050565b5f81519050919050565b5f82825260208201905092915050565b5f819050602082019050919050565b611ebc816117d8565b82525050565b5f611ecd8383611eb3565b60208301905092915050565b5f602082019050919050565b5f611eef82611e8a565b611ef98185611e94565b9350611f0483611ea4565b805f5b83811015611f34578151611f1b8882611ec2565b9750611f2683611ed9565b925050600181019050611f07565b5085935050505092915050565b5f6020820190508181035f830152611f598184611ee5565b905092915050565b5f5f60408385031215611f7757611f76611811565b5b5f611f848582860161197e565b9250506020611f958582860161197e565b9150509250929050565b5f819050919050565b5f611fc2611fbd611fb8846117b9565b611f9f565b6117b9565b9050919050565b5f611fd382611fa8565b9050919050565b5f611fe482611fc9565b9050919050565b611ff481611fda565b82525050565b5f60208201905061200d5f830184611feb565b92915050565b7f4e487b71000000000000000000000000000000000000000000000000000000005f52602260045260245ffd5b5f600282049050600182168061205757607f821691505b60208210810361206a57612069612013565b5b50919050565b7f4e487b71000000000000000000000000000000000000000000000000000000005f52603260045260245ffd5b7f4e487b71000000000000000000000000000000000000000000000000000000005f52601160045260245ffd5b5f6120d4826119bd565b91506120df836119bd565b92508282019050808211156120f7576120f661209d565b5b92915050565b5f612107826119bd565b91507fffffffffffffffffffffffffffffffffffffffffffffffffffffffffffffffff82036121395761213861209d565b5b600182019050919050565b5f61214e826119bd565b9150612159836119bd565b92508282039050818111156121715761217061209d565b5b92915050565b5f60408201905061218a5f8301856119c6565b61219760208301846119c6565b9392505050565b5f82905092915050565b7f4e487b71000000000000000000000000000000000000000000000000000000005f52604160045260245ffd5b5f819050815f5260205f209050919050565b5f6020601f8301049050919050565b5f82821b905092915050565b5f600883026122317fffffffffffffffffffffffffffffffffffffffffffffffffffffffffffffffff826121f6565b61223b86836121f6565b95508019841693508086168417925050509392505050565b5f61226d612268612263846119bd565b611f9f565b6119bd565b9050919050565b5f819050919050565b61228683612253565b61229a61229282612274565b848454612202565b825550505050565b5f5f905090565b6122b16122a2565b6122bc81848461227d565b505050565b5b818110156122df576122d45f826122a9565b6001810190506122c2565b5050565b601f821115612324576122f5816121d5565b6122fe846121e7565b8101602085101561230d578190505b612321612319856121e7565b8301826122c1565b50505b505050565b5f82821c905092915050565b5f6123445f1984600802612329565b1980831691505092915050565b5f61235c8383612335565b9150826002028217905092915050565b612376838361219e565b67ffffffffffffffff81111561238f5761238e6121a8565b5b6123998254612040565b6123a48282856122e3565b5f601f8311600181146123d1575f84156123bf578287013590505b6123c98582612351565b865550612430565b601f1984166123df866121d5565b5f5b82811015612406578489013582556001820191506020850194506020810190506123e1565b86831015612423578489013561241f601f891682612335565b8355505b6001600288020188555050505b50505050505050565b5f815461244581612040565b61244f81866118aa565b9450600182165f8114612469576001811461247f576124b1565b60ff1983168652811515602002860193506124b1565b612488856121d5565b5f5b838110156124a95781548189015260018201915060208101905061248a565b808801955050505b50505092915050565b828183375f83830152505050565b5f6124d383856118aa565b93506124e08385846124ba565b6124e9836118c8565b840190509392505050565b5f6060820190508181035f83015261250c8187612439565b905081810360208301526125218185876124c8565b90506125306040830184611891565b95945050505050565b50565b5f6125475f836118aa565b915061255282612539565b5f82019050919050565b5f6060820190508181035f8301526125738161253c565b905081810360208301526125888185876124c8565b90506125976040830184611891565b949350505050565b5f6040820190506125b25f8301856117e9565b81810360208301526125c48184612439565b90509392505050565b6125d681611886565b81146125e0575f5ffd5b50565b5f815190506125f1816125cd565b92915050565b5f6020828403121561260c5761260b611811565b5b5f612619848285016125e3565b91505092915050565b5f6060820190506126355f8301866117e9565b61264260208301856117e9565b81810360408301526126548184612439565b9050949350505050565b5f6040820190506126715f8301856117e9565b61267e60208301846117e9565b9392505050565b5f61268f82611c4b565b915063ffffffff82036126a5576126a461209d565b5b600182019050919050565b5f6040820190506126c35f830185611877565b6126d06020830184611c5a565b9392505050565b5f819050919050565b6126f16126ec8261186e565b6126d7565b82525050565b5f81905092915050565b5f61270b826118a0565b61271581856126f7565b93506127258185602086016118ba565b80840191505092915050565b5f61273c82856126e0565b60208201915061274c8284612701565b9150819050939250505056fea2646970667358221220b72f0820998355ac669f47d6538fca5f4cc8abce49246662cffa1694deb0278464736f6c634300081e0033a2646970667358221220fb8e783356dfb2992fcaff8265e7ecbd7407912620b5a0f19c79c0bc2af3851764736f6c634300081e003360a060405234801561000f575f5ffd5b50604051611cf3380380611cf3833981810160405281019061003191906100da565b8073ffffffffffffffffffffffffffffffffffffffff1660808173ffffffffffffffffffffffffffffffffffffffff168152505050610105565b5f5ffd5b5f73ffffffffffffffffffffffffffffffffffffffff82169050919050565b5f6100988261006f565b9050919050565b5f6100a98261008e565b9050919050565b6100b98161009f565b81146100c3575f5ffd5b50565b5f815190506100d4816100b0565b92915050565b5f602082840312156100ef576100ee61006b565b5b5f6100fc848285016100c6565b91505092915050565b608051611bcf6101245f395f81816105aa01526110d80152611bcf5ff3fe6080604052600436106100a6575f3560e01c806341a51d131161006357806341a51d13146101b9578063709df8d9146101e9578063a83a475c14610225578063be7af16b14610263578063dfceceae1461029f578063f887ea40146102db576100a6565b80630c90ce42146100aa5780631a179692146100ed578063224f3d1a146101175780632fb1b25f1461013f57806335f75e1614610167578063379607f514610191575b5f5ffd5b3480156100b5575f5ffd5b506100d060048036038101906100cb9190611135565b610305565b6040516100e4989796959493929190611275565b60405180910390f35b3480156100f8575f5ffd5b506101016104fa565b60405161010e91906112ff565b60405180910390f35b348015610122575f5ffd5b5061013d60048036038101906101389190611342565b6104ff565b005b34801561014a575f5ffd5b5061016560048036038101906101609190611135565b610836565b005b348015610172575f5ffd5b5061017b610ad4565b604051610188919061138f565b60405180910390f35b34801561019c575f5ffd5b506101b760048036038101906101b29190611135565b610adf565b005b6101d360048036038101906101ce9190611409565b610df4565b6040516101e0919061138f565b60405180910390f35b3480156101f4575f5ffd5b5061020f600480360381019061020a91906114b1565b610f8e565b60405161021c91906114ef565b60405180910390f35b348015610230575f5ffd5b5061024b60048036038101906102469190611135565b610fb8565b60405161025a93929190611508565b60405180910390f35b34801561026e575f5ffd5b50610289600480360381019061028491906114b1565b611022565b60405161029691906114ef565b60405180910390f35b3480156102aa575f5ffd5b506102c560048036038101906102c09190611135565b611084565b6040516102d291906115f4565b60405180910390f35b3480156102e6575f5ffd5b506102ef6110d6565b6040516102fc919061166f565b60405180910390f35b5f6060805f5f5f5f5f5f5f8a8154811061032257610321611688565b5b905f5260205f2090600402019050805f015f9054906101000a900473ffffffffffffffffffffffffffffffffffffffff168160010182600201836003015f9054906101000a90046fffffffffffffffffffffffffffffffff168460030160109054906101000a900467ffffffffffffffff168560030160189054906101000a900460ff168660030160199054906101000a900460ff1687600301601a9054906101000a900460ff168680546103d6906116e2565b80601f0160208091040260200160405190810160405280929190818152602001828054610402906116e2565b801561044d5780601f106104245761010080835404028352916020019161044d565b820191905f5260205f20905b81548152906001019060200180831161043057829003601f168201915b50505050509650858054610460906116e2565b80601f016020809104026020016040519081016040528092919081815260200182805461048c906116e2565b80156104d75780601f106104ae576101008083540402835291602001916104d7565b820191905f5260205f20905b8154815290600101906020018083116104ba57829003601f168201915b505050505095509850985098509850985098509850985050919395975091939597565b600581565b5f5f838154811061051357610512611688565b5b905f5260205f20906004020190505f73ffffffffffffffffffffffffffffffffffffffff16815f015f9054906101000a900473ffffffffffffffffffffffffffffffffffffffff1673ffffffffffffffffffffffffffffffffffffffff16036105a8576040517fda5d547300000000000000000000000000000000000000000000000000000000815260040160405180910390fd5b7f000000000000000000000000000000000000000000000000000000000000000073ffffffffffffffffffffffffffffffffffffffff16632330f247336040518263ffffffff1660e01b81526004016106019190611712565b602060405180830381865afa15801561061c573d5f5f3e3d5ffd5b505050506040513d601f19601f82011682018060405250810190610640919061173f565b610676576040517f1ccc6f2700000000000000000000000000000000000000000000000000000000815260040160405180910390fd5b600567ffffffffffffffff168160030160109054906101000a900467ffffffffffffffff1667ffffffffffffffff1610156106dd576040517fd79fa57000000000000000000000000000000000000000000000000000000000815260040160405180910390fd5b604051806060016040528060011515815260200183151581526020013373ffffffffffffffffffffffffffffffffffffffff1681525060025f8581526020019081526020015f205f820151815f015f6101000a81548160ff0219169083151502179055506020820151815f0160016101000a81548160ff0219169083151502179055506040820151815f0160026101000a81548173ffffffffffffffffffffffffffffffffffffffff021916908373ffffffffffffffffffffffffffffffffffffffff160217905550905050818160030160186101000a81548160ff02191690831515021790555060018160030160196101000a81548160ff0219169083151502179055503373ffffffffffffffffffffffffffffffffffffffff16837f0df24a5307d7ec9d0633724bd1e25ae3961a90c907f6d4dd48967bde0118a5788460405161082991906114ef565b60405180910390a3505050565b5f5f828154811061084a57610849611688565b5b905f5260205f20906004020190505f73ffffffffffffffffffffffffffffffffffffffff16815f015f9054906101000a900473ffffffffffffffffffffffffffffffffffffffff1673ffffffffffffffffffffffffffffffffffffffff16036108df576040517fda5d547300000000000000000000000000000000000000000000000000000000815260040160405180910390fd5b60015f8381526020019081526020015f205f3373ffffffffffffffffffffffffffffffffffffffff1673ffffffffffffffffffffffffffffffffffffffff1681526020019081526020015f205f9054906101000a900460ff161561096f576040517f7c9a1cf900000000000000000000000000000000000000000000000000000000815260040160405180910390fd5b8060030160199054906101000a900460ff16156109b8576040517fc906a36e00000000000000000000000000000000000000000000000000000000815260040160405180910390fd5b6001805f8481526020019081526020015f205f3373ffffffffffffffffffffffffffffffffffffffff1673ffffffffffffffffffffffffffffffffffffffff1681526020019081526020015f205f6101000a81548160ff02191690831515021790555060018160030160108282829054906101000a900467ffffffffffffffff16610a439190611797565b92506101000a81548167ffffffffffffffff021916908367ffffffffffffffff1602179055503373ffffffffffffffffffffffffffffffffffffffff16827f2ca60a2f068001bd115ebe115640860fb468ea80f162e5460874ba7c022c9e158360030160109054906101000a900467ffffffffffffffff16604051610ac891906112ff565b60405180910390a35050565b5f5f80549050905090565b5f5f8281548110610af357610af2611688565b5b905f5260205f2090600402019050805f015f9054906101000a900473ffffffffffffffffffffffffffffffffffffffff1673ffffffffffffffffffffffffffffffffffffffff163373ffffffffffffffffffffffffffffffffffffffff1614610b88576040517f93687c0b00000000000000000000000000000000000000000000000000000000815260040160405180910390fd5b8060030160199054906101000a900460ff16610bd0576040517fc906a36e00000000000000000000000000000000000000000000000000000000815260040160405180910390fd5b8060030160189054906101000a900460ff16610c18576040517fc906a36e00000000000000000000000000000000000000000000000000000000815260040160405180910390fd5b80600301601a9054906101000a900460ff1615610c61576040517f646cf55800000000000000000000000000000000000000000000000000000000815260040160405180910390fd5b600181600301601a6101000a81548160ff0219169083151502179055505f816003015f9054906101000a90046fffffffffffffffffffffffffffffffff1690505f825f015f9054906101000a900473ffffffffffffffffffffffffffffffffffffffff1673ffffffffffffffffffffffffffffffffffffffff16826fffffffffffffffffffffffffffffffff16604051610cfa906117ff565b5f6040518083038185875af1925050503d805f8114610d34576040519150601f19603f3d011682016040523d82523d5f602084013e610d39565b606091505b5050905080610d7d576040517f08c379a0000000000000000000000000000000000000000000000000000000008152600401610d749061185d565b60405180910390fd5b825f015f9054906101000a900473ffffffffffffffffffffffffffffffffffffffff1673ffffffffffffffffffffffffffffffffffffffff16847f3852d5ee76f8c7d023121d4b3993eed708ed188b4fef90d13a41b4674d83afb884604051610de6919061187b565b60405180910390a350505050565b5f5f858590501480610e0857505f83839050145b80610e1257505f34145b15610e49576040517fda5d547300000000000000000000000000000000000000000000000000000000815260040160405180910390fd5b5f8054905090505f5f60018160018154018082558091505003905f5260205f209060040201905033815f015f6101000a81548173ffffffffffffffffffffffffffffffffffffffff021916908373ffffffffffffffffffffffffffffffffffffffff1602179055508585826001019182610ec4929190611a62565b508383826002019182610ed8929190611a62565b5034816003015f6101000a8154816fffffffffffffffffffffffffffffffff02191690836fffffffffffffffffffffffffffffffff1602179055503373ffffffffffffffffffffffffffffffffffffffff16827fc74b3803df7be5418e64a332bbf85ddedb2acbe729eac5097345e28c5e25c0918888856003015f9054906101000a90046fffffffffffffffffffffffffffffffff16604051610f7d93929190611b69565b60405180910390a350949350505050565b6001602052815f5260405f20602052805f5260405f205f915091509054906101000a900460ff1681565b5f5f5f5f60025f8681526020019081526020015f209050805f015f9054906101000a900460ff16815f0160019054906101000a900460ff16825f0160029054906101000a900473ffffffffffffffffffffffffffffffffffffffff16935093509350509193909250565b5f60015f8481526020019081526020015f205f8373ffffffffffffffffffffffffffffffffffffffff1673ffffffffffffffffffffffffffffffffffffffff1681526020019081526020015f205f9054906101000a900460ff16905092915050565b60605f67ffffffffffffffff8111156110a05761109f61189e565b5b6040519080825280602002602001820160405280156110ce5781602001602082028036833780820191505090505b509050919050565b7f000000000000000000000000000000000000000000000000000000000000000081565b5f5ffd5b5f5ffd5b5f819050919050565b61111481611102565b811461111e575f5ffd5b50565b5f8135905061112f8161110b565b92915050565b5f6020828403121561114a576111496110fa565b5b5f61115784828501611121565b91505092915050565b5f73ffffffffffffffffffffffffffffffffffffffff82169050919050565b5f61118982611160565b9050919050565b6111998161117f565b82525050565b5f81519050919050565b5f82825260208201905092915050565b8281835e5f83830152505050565b5f601f19601f8301169050919050565b5f6111e18261119f565b6111eb81856111a9565b93506111fb8185602086016111b9565b611204816111c7565b840191505092915050565b5f6fffffffffffffffffffffffffffffffff82169050919050565b6112338161120f565b82525050565b5f67ffffffffffffffff82169050919050565b61125581611239565b82525050565b5f8115159050919050565b61126f8161125b565b82525050565b5f610100820190506112895f83018b611190565b818103602083015261129b818a6111d7565b905081810360408301526112af81896111d7565b90506112be606083018861122a565b6112cb608083018761124c565b6112d860a0830186611266565b6112e560c0830185611266565b6112f260e0830184611266565b9998505050505050505050565b5f6020820190506113125f83018461124c565b92915050565b6113218161125b565b811461132b575f5ffd5b50565b5f8135905061133c81611318565b92915050565b5f5f60408385031215611358576113576110fa565b5b5f61136585828601611121565b92505060206113768582860161132e565b9150509250929050565b61138981611102565b82525050565b5f6020820190506113a25f830184611380565b92915050565b5f5ffd5b5f5ffd5b5f5ffd5b5f5f83601f8401126113c9576113c86113a8565b5b8235905067ffffffffffffffff8111156113e6576113e56113ac565b5b602083019150836001820283011115611402576114016113b0565b5b9250929050565b5f5f5f5f60408587031215611421576114206110fa565b5b5f85013567ffffffffffffffff81111561143e5761143d6110fe565b5b61144a878288016113b4565b9450945050602085013567ffffffffffffffff81111561146d5761146c6110fe565b5b611479878288016113b4565b925092505092959194509250565b6114908161117f565b811461149a575f5ffd5b50565b5f813590506114ab81611487565b92915050565b5f5f604083850312156114c7576114c66110fa565b5b5f6114d485828601611121565b92505060206114e58582860161149d565b9150509250929050565b5f6020820190506115025f830184611266565b92915050565b5f60608201905061151b5f830186611266565b6115286020830185611266565b6115356040830184611190565b949350505050565b5f81519050919050565b5f82825260208201905092915050565b5f819050602082019050919050565b61156f8161117f565b82525050565b5f6115808383611566565b60208301905092915050565b5f602082019050919050565b5f6115a28261153d565b6115ac8185611547565b93506115b783611557565b805f5b838110156115e75781516115ce8882611575565b97506115d98361158c565b9250506001810190506115ba565b5085935050505092915050565b5f6020820190508181035f83015261160c8184611598565b905092915050565b5f819050919050565b5f61163761163261162d84611160565b611614565b611160565b9050919050565b5f6116488261161d565b9050919050565b5f6116598261163e565b9050919050565b6116698161164f565b82525050565b5f6020820190506116825f830184611660565b92915050565b7f4e487b71000000000000000000000000000000000000000000000000000000005f52603260045260245ffd5b7f4e487b71000000000000000000000000000000000000000000000000000000005f52602260045260245ffd5b5f60028204905060018216806116f957607f821691505b60208210810361170c5761170b6116b5565b5b50919050565b5f6020820190506117255f830184611190565b92915050565b5f8151905061173981611318565b92915050565b5f60208284031215611754576117536110fa565b5b5f6117618482850161172b565b91505092915050565b7f4e487b71000000000000000000000000000000000000000000000000000000005f52601160045260245ffd5b5f6117a182611239565b91506117ac83611239565b9250828201905067ffffffffffffffff8111156117cc576117cb61176a565b5b92915050565b5f81905092915050565b50565b5f6117ea5f836117d2565b91506117f5826117dc565b5f82019050919050565b5f611809826117df565b9150819050919050565b7f726566756e64206661696c6564000000000000000000000000000000000000005f82015250565b5f611847600d836111a9565b915061185282611813565b602082019050919050565b5f6020820190508181035f8301526118748161183b565b9050919050565b5f60208201905061188e5f83018461122a565b92915050565b5f82905092915050565b7f4e487b71000000000000000000000000000000000000000000000000000000005f52604160045260245ffd5b5f819050815f5260205f209050919050565b5f6020601f8301049050919050565b5f82821b905092915050565b5f600883026119277fffffffffffffffffffffffffffffffffffffffffffffffffffffffffffffffff826118ec565b61193186836118ec565b95508019841693508086168417925050509392505050565b5f61196361195e61195984611102565b611614565b611102565b9050919050565b5f819050919050565b61197c83611949565b6119906119888261196a565b8484546118f8565b825550505050565b5f5f905090565b6119a7611998565b6119b2818484611973565b505050565b5b818110156119d5576119ca5f8261199f565b6001810190506119b8565b5050565b601f821115611a1a576119eb816118cb565b6119f4846118dd565b81016020851015611a03578190505b611a17611a0f856118dd565b8301826119b7565b50505b505050565b5f82821c905092915050565b5f611a3a5f1984600802611a1f565b1980831691505092915050565b5f611a528383611a2b565b9150826002028217905092915050565b611a6c8383611894565b67ffffffffffffffff811115611a8557611a8461189e565b5b611a8f82546116e2565b611a9a8282856119d9565b5f601f831160018114611ac7575f8415611ab5578287013590505b611abf8582611a47565b865550611b26565b601f198416611ad5866118cb565b5f5b82811015611afc57848901358255600182019150602085019450602081019050611ad7565b86831015611b195784890135611b15601f891682611a2b565b8355505b6001600288020188555050505b50505050505050565b828183375f83830152505050565b5f611b4883856111a9565b9350611b55838584611b2f565b611b5e836111c7565b840190509392505050565b5f6040820190508181035f830152611b82818587611b3d565b9050611b91602083018461122a565b94935050505056fea2646970667358221220a6f22c01c44c0af4f07d049368fe1a6dd57eb9617d31b0592720d9c11a2d07fc64736f6c634300081e0033",
			"opcodes": "PUSH1 0x80 PUSH1 0x40 MSTORE CALLVALUE DUP1 ISZERO PUSH2 0xF JUMPI PUSH0 PUSH0 REVERT JUMPDEST POP PUSH1 0x40 MLOAD PUSH2 0x1C SWAP1 PUSH2 0x7D9 JUMP JUMPDEST PUSH1 0x40 MLOAD DUP1 SWAP2 SUB SWAP1 PUSH0 CREATE DUP1 ISZERO DUP1 ISZERO PUSH2 0x35 JUMPI RETURNDATASIZE PUSH0 PUSH0 RETURNDATACOPY RETURNDATASIZE PUSH0 REVERT JUMPDEST POP PUSH0 PUSH0 PUSH2 0x100 EXP DUP2 SLOAD DUP2 PUSH20 0xFFFFFFFFFFFFFFFFFFFFFFFFFFFFFFFFFFFFFFFF MUL NOT AND SWAP1 DUP4 PUSH20 0xFFFFFFFFFFFFFFFFFFFFFFFFFFFFFFFFFFFFFFFF AND MUL OR SWAP1 SSTORE POP PUSH0 PUSH0 SWAP1 SLOAD SWAP1 PUSH2 0x100 EXP SWAP1 DIV PUSH20 0xFFFFFFFFFFFFFFFFFFFFFFFFFFFFFFFFFFFFFFFF AND PUSH1 0x40 MLOAD PUSH2 0xA1 SWAP1 PUSH2 0x7E6 JUMP JUMPDEST PUSH2 0xAB SWAP2 SWAP1 PUSH2 0x87A JUMP JUMPDEST PUSH1 0x40 MLOAD DUP1 SWAP2 SUB SWAP1 PUSH0 CREATE DUP1 ISZERO DUP1 ISZERO PUSH2 0xC4 JUMPI RETURNDATASIZE PUSH0 PUSH0 RETURNDATACOPY RETURNDATASIZE PUSH0 REVERT JUMPDEST POP PUSH1 0x1 PUSH0 PUSH2 0x100 EXP DUP2 SLOAD DUP2 PUSH20 0xFFFFFFFFFFFFFFFFFFFFFFFFFFFFFFFFFFFFFFFF MUL NOT AND SWAP1 DUP4 PUSH20 0xFFFFFFFFFFFFFFFFFFFFFFFFFFFFFFFFFFFFFFFF AND MUL OR SWAP1 SSTORE POP PUSH0 PUSH0 SWAP1 SLOAD SWAP1 PUSH2 0x100 EXP SWAP1 DIV PUSH20 0xFFFFFFFFFFFFFFFFFFFFFFFFFFFFFFFFFFFFFFFF AND PUSH1 0x40 MLOAD PUSH2 0x131 SWAP1 PUSH2 0x7F3 JUMP JUMPDEST PUSH2 0x13B SWAP2 SWAP1 PUSH2 0x87A JUMP JUMPDEST PUSH1 0x40 MLOAD DUP1 SWAP2 SUB SWAP1 PUSH0 CREATE DUP1 ISZERO DUP1 ISZERO PUSH2 0x154 JUMPI RETURNDATASIZE PUSH0 PUSH0 RETURNDATACOPY RETURNDATASIZE PUSH0 REVERT JUMPDEST POP PUSH1 0x2 PUSH0 PUSH2 0x100 EXP DUP2 SLOAD DUP2 PUSH20 0xFFFFFFFFFFFFFFFFFFFFFFFFFFFFFFFFFFFFFFFF MUL NOT AND SWAP1 DUP4 PUSH20 0xFFFFFFFFFFFFFFFFFFFFFFFFFFFFFFFFFFFFFFFF AND MUL OR SWAP1 SSTORE POP PUSH0 ORIGIN SWAP1 POP PUSH0 PUSH0 SWAP1 SLOAD SWAP1 PUSH2 0x100 EXP SWAP1 DIV PUSH20 0xFFFFFFFFFFFFFFFFFFFFFFFFFFFFFFFFFFFFFFFF AND PUSH20 0xFFFFFFFFFFFFFFFFFFFFFFFFFFFFFFFFFFFFFFFF AND PUSH4 0x2F2FF15D PUSH0 PUSH0 SWAP1 SLOAD SWAP1 PUSH2 0x100 EXP SWAP1 DIV PUSH20 0xFFFFFFFFFFFFFFFFFFFFFFFFFFFFFFFFFFFFFFFF AND PUSH20 0xFFFFFFFFFFFFFFFFFFFFFFFFFFFFFFFFFFFFFFFF AND PUSH4 0x2A0ACC6A PUSH1 0x40 MLOAD DUP2 PUSH4 0xFFFFFFFF AND PUSH1 0xE0 SHL DUP2 MSTORE PUSH1 0x4 ADD PUSH1 0x20 PUSH1 0x40 MLOAD DUP1 DUP4 SUB DUP2 DUP7 GAS STATICCALL ISZERO DUP1 ISZERO PUSH2 0x23D JUMPI RETURNDATASIZE PUSH0 PUSH0 RETURNDATACOPY RETURNDATASIZE PUSH0 REVERT JUMPDEST POP POP POP POP PUSH1 0x40 MLOAD RETURNDATASIZE PUSH1 0x1F NOT PUSH1 0x1F DUP3 ADD AND DUP3 ADD DUP1 PUSH1 0x40 MSTORE POP DUP2 ADD SWAP1 PUSH2 0x261 SWAP2 SWAP1 PUSH2 0x8CA JUMP JUMPDEST DUP4 PUSH1 0x40 MLOAD DUP4 PUSH4 0xFFFFFFFF AND PUSH1 0xE0 SHL DUP2 MSTORE PUSH1 0x4 ADD PUSH2 0x27F SWAP3 SWAP2 SWAP1 PUSH2 0x924 JUMP JUMPDEST PUSH0 PUSH1 0x40 MLOAD DUP1 DUP4 SUB DUP2 PUSH0 DUP8 DUP1 EXTCODESIZE ISZERO DUP1 ISZERO PUSH2 0x296 JUMPI PUSH0 PUSH0 REVERT JUMPDEST POP GAS CALL ISZERO DUP1 ISZERO PUSH2 0x2A8 JUMPI RETURNDATASIZE PUSH0 PUSH0 RETURNDATACOPY RETURNDATASIZE PUSH0 REVERT JUMPDEST POP POP POP POP PUSH0 PUSH0 SWAP1 SLOAD SWAP1 PUSH2 0x100 EXP SWAP1 DIV PUSH20 0xFFFFFFFFFFFFFFFFFFFFFFFFFFFFFFFFFFFFFFFF AND PUSH20 0xFFFFFFFFFFFFFFFFFFFFFFFFFFFFFFFFFFFFFFFF AND PUSH4 0x2F2FF15D PUSH0 PUSH0 SWAP1 SLOAD SWAP1 PUSH2 0x100 EXP SWAP1 DIV PUSH20 0xFFFFFFFFFFFFFFFFFFFFFFFFFFFFFFFFFFFFFFFF AND PUSH20 0xFFFFFFFFFFFFFFFFFFFFFFFFFFFFFFFFFFFFFFFF AND PUSH4 0x38013F02 PUSH1 0x40 MLOAD DUP2 PUSH4 0xFFFFFFFF AND PUSH1 0xE0 SHL DUP2 MSTORE PUSH1 0x4 ADD PUSH1 0x20 PUSH1 0x40 MLOAD DUP1 DUP4 SUB DUP2 DUP7 GAS STATICCALL ISZERO DUP1 ISZERO PUSH2 0x351 JUMPI RETURNDATASIZE PUSH0 PUSH0 RETURNDATACOPY RETURNDATASIZE PUSH0 REVERT JUMPDEST POP POP POP POP PUSH1 0x40 MLOAD RETURNDATASIZE PUSH1 0x1F NOT PUSH1 0x1F DUP3 ADD AND DUP3 ADD DUP1 PUSH1 0x40 MSTORE POP DUP2 ADD SWAP1 PUSH2 0x375 SWAP2 SWAP1 PUSH2 0x8CA JUMP JUMPDEST DUP4 PUSH1 0x40 MLOAD DUP4 PUSH4 0xFFFFFFFF AND PUSH1 0xE0 SHL DUP2 MSTORE PUSH1 0x4 ADD PUSH2 0x393 SWAP3 SWAP2 SWAP1 PUSH2 0x924 JUMP JUMPDEST PUSH0 PUSH1 0x40 MLOAD DUP1 DUP4 SUB DUP2 PUSH0 DUP8 DUP1 EXTCODESIZE ISZERO DUP1 ISZERO PUSH2 0x3AA JUMPI PUSH0 PUSH0 REVERT JUMPDEST POP GAS CALL ISZERO DUP1 ISZERO PUSH2 0x3BC JUMPI RETURNDATASIZE PUSH0 PUSH0 RETURNDATACOPY RETURNDATASIZE PUSH0 REVERT JUMPDEST POP POP POP POP PUSH0 PUSH0 SWAP1 SLOAD SWAP1 PUSH2 0x100 EXP SWAP1 DIV PUSH20 0xFFFFFFFFFFFFFFFFFFFFFFFFFFFFFFFFFFFFFFFF AND PUSH20 0xFFFFFFFFFFFFFFFFFFFFFFFFFFFFFFFFFFFFFFFF AND PUSH4 0xCB220FAC DUP3 PUSH1 0x40 MLOAD DUP3 PUSH4 0xFFFFFFFF AND PUSH1 0xE0 SHL DUP2 MSTORE PUSH1 0x4 ADD PUSH2 0x419 SWAP2 SWAP1 PUSH2 0x9A5 JUMP JUMPDEST PUSH0 PUSH1 0x40 MLOAD DUP1 DUP4 SUB DUP2 PUSH0 DUP8 DUP1 EXTCODESIZE ISZERO DUP1 ISZERO PUSH2 0x430 JUMPI PUSH0 PUSH0 REVERT JUMPDEST POP GAS CALL ISZERO DUP1 ISZERO PUSH2 0x442 JUMPI RETURNDATASIZE PUSH0 PUSH0 RETURNDATACOPY RETURNDATASIZE PUSH0 REVERT JUMPDEST POP POP POP POP PUSH0 PUSH0 SWAP1 SLOAD SWAP1 PUSH2 0x100 EXP SWAP1 DIV PUSH20 0xFFFFFFFFFFFFFFFFFFFFFFFFFFFFFFFFFFFFFFFF AND PUSH20 0xFFFFFFFFFFFFFFFFFFFFFFFFFFFFFFFFFFFFFFFF AND PUSH4 0xCB220FAC DUP3 PUSH1 0x40 MLOAD DUP3 PUSH4 0xFFFFFFFF AND PUSH1 0xE0 SHL DUP2 MSTORE PUSH1 0x4 ADD PUSH2 0x49F SWAP2 SWAP1 PUSH2 0xA1B JUMP JUMPDEST PUSH0 PUSH1 0x40 MLOAD DUP1 DUP4 SUB DUP2 PUSH0 DUP8 DUP1 EXTCODESIZE ISZERO DUP1 ISZERO PUSH2 0x4B6 JUMPI PUSH0 PUSH0 REVERT JUMPDEST POP GAS CALL ISZERO DUP1 ISZERO PUSH2 0x4C8 JUMPI RETURNDATASIZE PUSH0 PUSH0 RETURNDATACOPY RETURNDATASIZE PUSH0 REVERT JUMPDEST POP POP POP POP PUSH0 PUSH0 SWAP1 SLOAD SWAP1 PUSH2 0x100 EXP SWAP1 DIV PUSH20 0xFFFFFFFFFFFFFFFFFFFFFFFFFFFFFFFFFFFFFFFF AND PUSH20 0xFFFFFFFFFFFFFFFFFFFFFFFFFFFFFFFFFFFFFFFF AND PUSH4 0xCB220FAC PUSH20 0x22A2BC6E24FBA136023A126560E2D2490A834B54 PUSH1 0x40 MLOAD DUP3 PUSH4 0xFFFFFFFF AND PUSH1 0xE0 SHL DUP2 MSTORE PUSH1 0x4 ADD PUSH2 0x539 SWAP2 SWAP1 PUSH2 0x9A5 JUMP JUMPDEST PUSH0 PUSH1 0x40 MLOAD DUP1 DUP4 SUB DUP2 PUSH0 DUP8 DUP1 EXTCODESIZE ISZERO DUP1 ISZERO PUSH2 0x550 JUMPI PUSH0 PUSH0 REVERT JUMPDEST POP GAS CALL ISZERO DUP1 ISZERO PUSH2 0x562 JUMPI RETURNDATASIZE PUSH0 PUSH0 RETURNDATACOPY RETURNDATASIZE PUSH0 REVERT JUMPDEST POP POP POP POP PUSH0 PUSH0 SWAP1 SLOAD SWAP1 PUSH2 0x100 EXP SWAP1 DIV PUSH20 0xFFFFFFFFFFFFFFFFFFFFFFFFFFFFFFFFFFFFFFFF AND PUSH20 0xFFFFFFFFFFFFFFFFFFFFFFFFFFFFFFFFFFFFFFFF AND PUSH4 0xCB220FAC PUSH20 0x22A2BC6E24FBA136023A126560E2D2490A834B54 PUSH1 0x40 MLOAD DUP3 PUSH4 0xFFFFFFFF AND PUSH1 0xE0 SHL DUP2 MSTORE PUSH1 0x4 ADD PUSH2 0x5D3 SWAP2 SWAP1 PUSH2 0xA1B JUMP JUMPDEST PUSH0 PUSH1 0x40 MLOAD DUP1 DUP4 SUB DUP2 PUSH0 DUP8 DUP1 EXTCODESIZE ISZERO DUP1 ISZERO PUSH2 0x5EA JUMPI PUSH0 PUSH0 REVERT JUMPDEST POP GAS CALL ISZERO DUP1 ISZERO PUSH2 0x5FC JUMPI RETURNDATASIZE PUSH0 PUSH0 RETURNDATACOPY RETURNDATASIZE PUSH0 REVERT JUMPDEST POP POP POP POP PUSH0 PUSH0 SWAP1 SLOAD SWAP1 PUSH2 0x100 EXP SWAP1 DIV PUSH20 0xFFFFFFFFFFFFFFFFFFFFFFFFFFFFFFFFFFFFFFFF AND PUSH20 0xFFFFFFFFFFFFFFFFFFFFFFFFFFFFFFFFFFFFFFFF AND PUSH4 0xCB220FAC PUSH20 0xE6BBD7EE72FE05B50E15416B0E03A80C43F3F861 PUSH1 0x40 MLOAD DUP3 PUSH4 0xFFFFFFFF AND PUSH1 0xE0 SHL DUP2 MSTORE PUSH1 0x4 ADD PUSH2 0x66D SWAP2 SWAP1 PUSH2 0x9A5 JUMP JUMPDEST PUSH0 PUSH1 0x40 MLOAD DUP1 DUP4 SUB DUP2 PUSH0 DUP8 DUP1 EXTCODESIZE ISZERO DUP1 ISZERO PUSH2 0x684 JUMPI PUSH0 PUSH0 REVERT JUMPDEST POP GAS CALL ISZERO DUP1 ISZERO PUSH2 0x696 JUMPI RETURNDATASIZE PUSH0 PUSH0 RETURNDATACOPY RETURNDATASIZE PUSH0 REVERT JUMPDEST POP POP POP POP PUSH0 PUSH0 SWAP1 SLOAD SWAP1 PUSH2 0x100 EXP SWAP1 DIV PUSH20 0xFFFFFFFFFFFFFFFFFFFFFFFFFFFFFFFFFFFFFFFF AND PUSH20 0xFFFFFFFFFFFFFFFFFFFFFFFFFFFFFFFFFFFFFFFF AND PUSH4 0xCB220FAC PUSH20 0xE6BBD7EE72FE05B50E15416B0E03A80C43F3F861 PUSH1 0x40 MLOAD DUP3 PUSH4 0xFFFFFFFF AND PUSH1 0xE0 SHL DUP2 MSTORE PUSH1 0x4 ADD PUSH2 0x707 SWAP2 SWAP1 PUSH2 0xA1B JUMP JUMPDEST PUSH0 PUSH1 0x40 MLOAD DUP1 DUP4 SUB DUP2 PUSH0 DUP8 DUP1 EXTCODESIZE ISZERO DUP1 ISZERO PUSH2 0x71E JUMPI PUSH0 PUSH0 REVERT JUMPDEST POP GAS CALL ISZERO DUP1 ISZERO PUSH2 0x730 JUMPI RETURNDATASIZE PUSH0 PUSH0 RETURNDATACOPY RETURNDATASIZE PUSH0 REVERT JUMPDEST POP POP POP POP PUSH32 0xD55BA4D01E57B874E150EAE23DA3BCBD034843BA1F1559C238BE01A7D58FC24A PUSH0 PUSH0 SWAP1 SLOAD SWAP1 PUSH2 0x100 EXP SWAP1 DIV PUSH20 0xFFFFFFFFFFFFFFFFFFFFFFFFFFFFFFFFFFFFFFFF AND PUSH1 0x1 PUSH0 SWAP1 SLOAD SWAP1 PUSH2 0x100 EXP SWAP1 DIV PUSH20 0xFFFFFFFFFFFFFFFFFFFFFFFFFFFFFFFFFFFFFFFF AND PUSH1 0x2 PUSH0 SWAP1 SLOAD SWAP1 PUSH2 0x100 EXP SWAP1 DIV PUSH20 0xFFFFFFFFFFFFFFFFFFFFFFFFFFFFFFFFFFFFFFFF AND DUP5 PUSH1 0x40 MLOAD PUSH2 0x7CB SWAP5 SWAP4 SWAP3 SWAP2 SWAP1 PUSH2 0xA47 JUMP JUMPDEST PUSH1 0x40 MLOAD DUP1 SWAP2 SUB SWAP1 LOG1 POP PUSH2 0xA8A JUMP JUMPDEST PUSH2 0x1617 DUP1 PUSH2 0xE6B DUP4 CODECOPY ADD SWAP1 JUMP JUMPDEST PUSH2 0x3D41 DUP1 PUSH2 0x2482 DUP4 CODECOPY ADD SWAP1 JUMP JUMPDEST PUSH2 0x1CF3 DUP1 PUSH2 0x61C3 DUP4 CODECOPY ADD SWAP1 JUMP JUMPDEST PUSH0 PUSH20 0xFFFFFFFFFFFFFFFFFFFFFFFFFFFFFFFFFFFFFFFF DUP3 AND SWAP1 POP SWAP2 SWAP1 POP JUMP JUMPDEST PUSH0 DUP2 SWAP1 POP SWAP2 SWAP1 POP JUMP JUMPDEST PUSH0 PUSH2 0x842 PUSH2 0x83D PUSH2 0x838 DUP5 PUSH2 0x800 JUMP JUMPDEST PUSH2 0x81F JUMP JUMPDEST PUSH2 0x800 JUMP JUMPDEST SWAP1 POP SWAP2 SWAP1 POP JUMP JUMPDEST PUSH0 PUSH2 0x853 DUP3 PUSH2 0x828 JUMP JUMPDEST SWAP1 POP SWAP2 SWAP1 POP JUMP JUMPDEST PUSH0 PUSH2 0x864 DUP3 PUSH2 0x849 JUMP JUMPDEST SWAP1 POP SWAP2 SWAP1 POP JUMP JUMPDEST PUSH2 0x874 DUP2 PUSH2 0x85A JUMP JUMPDEST DUP3 MSTORE POP POP JUMP JUMPDEST PUSH0 PUSH1 0x20 DUP3 ADD SWAP1 POP PUSH2 0x88D PUSH0 DUP4 ADD DUP5 PUSH2 0x86B JUMP JUMPDEST SWAP3 SWAP2 POP POP JUMP JUMPDEST PUSH0 PUSH0 REVERT JUMPDEST PUSH0 DUP2 SWAP1 POP SWAP2 SWAP1 POP JUMP JUMPDEST PUSH2 0x8A9 DUP2 PUSH2 0x897 JUMP JUMPDEST DUP2 EQ PUSH2 0x8B3 JUMPI PUSH0 PUSH0 REVERT JUMPDEST POP JUMP JUMPDEST PUSH0 DUP2 MLOAD SWAP1 POP PUSH2 0x8C4 DUP2 PUSH2 0x8A0 JUMP JUMPDEST SWAP3 SWAP2 POP POP JUMP JUMPDEST PUSH0 PUSH1 0x20 DUP3 DUP5 SUB SLT ISZERO PUSH2 0x8DF JUMPI PUSH2 0x8DE PUSH2 0x893 JUMP JUMPDEST JUMPDEST PUSH0 PUSH2 0x8EC DUP5 DUP3 DUP6 ADD PUSH2 0x8B6 JUMP JUMPDEST SWAP2 POP POP SWAP3 SWAP2 POP POP JUMP JUMPDEST PUSH2 0x8FE DUP2 PUSH2 0x897 JUMP JUMPDEST DUP3 MSTORE POP POP JUMP JUMPDEST PUSH0 PUSH2 0x90E DUP3 PUSH2 0x800 JUMP JUMPDEST SWAP1 POP SWAP2 SWAP1 POP JUMP JUMPDEST PUSH2 0x91E DUP2 PUSH2 0x904 JUMP JUMPDEST DUP3 MSTORE POP POP JUMP JUMPDEST PUSH0 PUSH1 0x40 DUP3 ADD SWAP1 POP PUSH2 0x937 PUSH0 DUP4 ADD DUP6 PUSH2 0x8F5 JUMP JUMPDEST PUSH2 0x944 PUSH1 0x20 DUP4 ADD DUP5 PUSH2 0x915 JUMP JUMPDEST SWAP4 SWAP3 POP POP POP JUMP JUMPDEST PUSH0 DUP3 DUP3 MSTORE PUSH1 0x20 DUP3 ADD SWAP1 POP SWAP3 SWAP2 POP POP JUMP JUMPDEST PUSH32 0x4974616C69610000000000000000000000000000000000000000000000000000 PUSH0 DUP3 ADD MSTORE POP JUMP JUMPDEST PUSH0 PUSH2 0x98F PUSH1 0x6 DUP4 PUSH2 0x94B JUMP JUMPDEST SWAP2 POP PUSH2 0x99A DUP3 PUSH2 0x95B JUMP JUMPDEST PUSH1 0x20 DUP3 ADD SWAP1 POP SWAP2 SWAP1 POP JUMP JUMPDEST PUSH0 PUSH1 0x40 DUP3 ADD SWAP1 POP PUSH2 0x9B8 PUSH0 DUP4 ADD DUP5 PUSH2 0x915 JUMP JUMPDEST DUP2 DUP2 SUB PUSH1 0x20 DUP4 ADD MSTORE PUSH2 0x9C9 DUP2 PUSH2 0x983 JUMP JUMPDEST SWAP1 POP SWAP3 SWAP2 POP POP JUMP JUMPDEST PUSH32 0x53616E204D6172696E6F00000000000000000000000000000000000000000000 PUSH0 DUP3 ADD MSTORE POP JUMP JUMPDEST PUSH0 PUSH2 0xA05 PUSH1 0xA DUP4 PUSH2 0x94B JUMP JUMPDEST SWAP2 POP PUSH2 0xA10 DUP3 PUSH2 0x9D1 JUMP JUMPDEST PUSH1 0x20 DUP3 ADD SWAP1 POP SWAP2 SWAP1 POP JUMP JUMPDEST PUSH0 PUSH1 0x40 DUP3 ADD SWAP1 POP PUSH2 0xA2E PUSH0 DUP4 ADD DUP5 PUSH2 0x915 JUMP JUMPDEST DUP2 DUP2 SUB PUSH1 0x20 DUP4 ADD MSTORE PUSH2 0xA3F DUP2 PUSH2 0x9F9 JUMP JUMPDEST SWAP1 POP SWAP3 SWAP2 POP POP JUMP JUMPDEST PUSH0 PUSH1 0x80 DUP3 ADD SWAP1 POP PUSH2 0xA5A PUSH0 DUP4 ADD DUP8 PUSH2 0x915 JUMP JUMPDEST PUSH2 0xA67 PUSH1 0x20 DUP4 ADD DUP7 PUSH2 0x915 JUMP JUMPDEST PUSH2 0xA74 PUSH1 0x40 DUP4 ADD DUP6 PUSH2 0x915 JUMP JUMPDEST PUSH2 0xA81 PUSH1 0x60 DUP4 ADD DUP5 PUSH2 0x915 JUMP JUMPDEST SWAP6 SWAP5 POP POP POP POP POP JUMP JUMPDEST PUSH2 0x3D4 DUP1 PUSH2 0xA97 PUSH0 CODECOPY PUSH0 RETURN INVALID PUSH1 0x80 PUSH1 0x40 MSTORE CALLVALUE DUP1 ISZERO PUSH2 0xF JUMPI PUSH0 PUSH0 REVERT JUMPDEST POP PUSH1 0x4 CALLDATASIZE LT PUSH2 0x60 JUMPI PUSH0 CALLDATALOAD PUSH1 0xE0 SHR DUP1 PUSH4 0x8747EAF1 EQ PUSH2 0x64 JUMPI DUP1 PUSH4 0xC30D4BED EQ PUSH2 0x82 JUMPI DUP1 PUSH4 0xC45A0155 EQ PUSH2 0xA0 JUMPI DUP1 PUSH4 0xDA0321CD EQ PUSH2 0xBE JUMPI DUP1 PUSH4 0xE138CC9A EQ PUSH2 0xDE JUMPI DUP1 PUSH4 0xF887EA40 EQ PUSH2 0xFC JUMPI JUMPDEST PUSH0 PUSH0 REVERT JUMPDEST PUSH2 0x6C PUSH2 0x11A JUMP JUMPDEST PUSH1 0x40 MLOAD PUSH2 0x79 SWAP2 SWAP1 PUSH2 0x26A JUMP JUMPDEST PUSH1 0x40 MLOAD DUP1 SWAP2 SUB SWAP1 RETURN JUMPDEST PUSH2 0x8A PUSH2 0x132 JUMP JUMPDEST PUSH1 0x40 MLOAD PUSH2 0x97 SWAP2 SWAP1 PUSH2 0x26A JUMP JUMPDEST PUSH1 0x40 MLOAD DUP1 SWAP2 SUB SWAP1 RETURN JUMPDEST PUSH2 0xA8 PUSH2 0x14A JUMP JUMPDEST PUSH1 0x40 MLOAD PUSH2 0xB5 SWAP2 SWAP1 PUSH2 0x2DE JUMP JUMPDEST PUSH1 0x40 MLOAD DUP1 SWAP2 SUB SWAP1 RETURN JUMPDEST PUSH2 0xC6 PUSH2 0x16F JUMP JUMPDEST PUSH1 0x40 MLOAD PUSH2 0xD5 SWAP4 SWAP3 SWAP2 SWAP1 PUSH2 0x2F7 JUMP JUMPDEST PUSH1 0x40 MLOAD DUP1 SWAP2 SUB SWAP1 RETURN JUMPDEST PUSH2 0xE6 PUSH2 0x1E2 JUMP JUMPDEST PUSH1 0x40 MLOAD PUSH2 0xF3 SWAP2 SWAP1 PUSH2 0x34C JUMP JUMPDEST PUSH1 0x40 MLOAD DUP1 SWAP2 SUB SWAP1 RETURN JUMPDEST PUSH2 0x104 PUSH2 0x207 JUMP JUMPDEST PUSH1 0x40 MLOAD PUSH2 0x111 SWAP2 SWAP1 PUSH2 0x385 JUMP JUMPDEST PUSH1 0x40 MLOAD DUP1 SWAP2 SUB SWAP1 RETURN JUMPDEST PUSH20 0x22A2BC6E24FBA136023A126560E2D2490A834B54 DUP2 JUMP JUMPDEST PUSH20 0xE6BBD7EE72FE05B50E15416B0E03A80C43F3F861 DUP2 JUMP JUMPDEST PUSH1 0x1 PUSH0 SWAP1 SLOAD SWAP1 PUSH2 0x100 EXP SWAP1 DIV PUSH20 0xFFFFFFFFFFFFFFFFFFFFFFFFFFFFFFFFFFFFFFFF AND DUP2 JUMP JUMPDEST PUSH0 PUSH0 PUSH0 PUSH0 PUSH0 SWAP1 SLOAD SWAP1 PUSH2 0x100 EXP SWAP1 DIV PUSH20 0xFFFFFFFFFFFFFFFFFFFFFFFFFFFFFFFFFFFFFFFF AND PUSH1 0x1 PUSH0 SWAP1 SLOAD SWAP1 PUSH2 0x100 EXP SWAP1 DIV PUSH20 0xFFFFFFFFFFFFFFFFFFFFFFFFFFFFFFFFFFFFFFFF AND PUSH1 0x2 PUSH0 SWAP1 SLOAD SWAP1 PUSH2 0x100 EXP SWAP1 DIV PUSH20 0xFFFFFFFFFFFFFFFFFFFFFFFFFFFFFFFFFFFFFFFF AND SWAP3 POP SWAP3 POP SWAP3 POP SWAP1 SWAP2 SWAP3 JUMP JUMPDEST PUSH1 0x2 PUSH0 SWAP1 SLOAD SWAP1 PUSH2 0x100 EXP SWAP1 DIV PUSH20 0xFFFFFFFFFFFFFFFFFFFFFFFFFFFFFFFFFFFFFFFF AND DUP2 JUMP JUMPDEST PUSH0 PUSH0 SWAP1 SLOAD SWAP1 PUSH2 0x100 EXP SWAP1 DIV PUSH20 0xFFFFFFFFFFFFFFFFFFFFFFFFFFFFFFFFFFFFFFFF AND DUP2 JUMP JUMPDEST PUSH0 PUSH20 0xFFFFFFFFFFFFFFFFFFFFFFFFFFFFFFFFFFFFFFFF DUP3 AND SWAP1 POP SWAP2 SWAP1 POP JUMP JUMPDEST PUSH0 PUSH2 0x254 DUP3 PUSH2 0x22B JUMP JUMPDEST SWAP1 POP SWAP2 SWAP1 POP JUMP JUMPDEST PUSH2 0x264 DUP2 PUSH2 0x24A JUMP JUMPDEST DUP3 MSTORE POP POP JUMP JUMPDEST PUSH0 PUSH1 0x20 DUP3 ADD SWAP1 POP PUSH2 0x27D PUSH0 DUP4 ADD DUP5 PUSH2 0x25B JUMP JUMPDEST SWAP3 SWAP2 POP POP JUMP JUMPDEST PUSH0 DUP2 SWAP1 POP SWAP2 SWAP1 POP JUMP JUMPDEST PUSH0 PUSH2 0x2A6 PUSH2 0x2A1 PUSH2 0x29C DUP5 PUSH2 0x22B JUMP JUMPDEST PUSH2 0x283 JUMP JUMPDEST PUSH2 0x22B JUMP JUMPDEST SWAP1 POP SWAP2 SWAP1 POP JUMP JUMPDEST PUSH0 PUSH2 0x2B7 DUP3 PUSH2 0x28C JUMP JUMPDEST SWAP1 POP SWAP2 SWAP1 POP JUMP JUMPDEST PUSH0 PUSH2 0x2C8 DUP3 PUSH2 0x2AD JUMP JUMPDEST SWAP1 POP SWAP2 SWAP1 POP JUMP JUMPDEST PUSH2 0x2D8 DUP2 PUSH2 0x2BE JUMP JUMPDEST DUP3 MSTORE POP POP JUMP JUMPDEST PUSH0 PUSH1 0x20 DUP3 ADD SWAP1 POP PUSH2 0x2F1 PUSH0 DUP4 ADD DUP5 PUSH2 0x2CF JUMP JUMPDEST SWAP3 SWAP2 POP POP JUMP JUMPDEST PUSH0 PUSH1 0x60 DUP3 ADD SWAP1 POP PUSH2 0x30A PUSH0 DUP4 ADD DUP7 PUSH2 0x25B JUMP JUMPDEST PUSH2 0x317 PUSH1 0x20 DUP4 ADD DUP6 PUSH2 0x25B JUMP JUMPDEST PUSH2 0x324 PUSH1 0x40 DUP4 ADD DUP5 PUSH2 0x25B JUMP JUMPDEST SWAP5 SWAP4 POP POP POP POP JUMP JUMPDEST PUSH0 PUSH2 0x336 DUP3 PUSH2 0x2AD JUMP JUMPDEST SWAP1 POP SWAP2 SWAP1 POP JUMP JUMPDEST PUSH2 0x346 DUP2 PUSH2 0x32C JUMP JUMPDEST DUP3 MSTORE POP POP JUMP JUMPDEST PUSH0 PUSH1 0x20 DUP3 ADD SWAP1 POP PUSH2 0x35F PUSH0 DUP4 ADD DUP5 PUSH2 0x33D JUMP JUMPDEST SWAP3 SWAP2 POP POP JUMP JUMPDEST PUSH0 PUSH2 0x36F DUP3 PUSH2 0x2AD JUMP JUMPDEST SWAP1 POP SWAP2 SWAP1 POP JUMP JUMPDEST PUSH2 0x37F DUP2 PUSH2 0x365 JUMP JUMPDEST DUP3 MSTORE POP POP JUMP JUMPDEST PUSH0 PUSH1 0x20 DUP3 ADD SWAP1 POP PUSH2 0x398 PUSH0 DUP4 ADD DUP5 PUSH2 0x376 JUMP JUMPDEST SWAP3 SWAP2 POP POP JUMP INVALID LOG2 PUSH5 0x6970667358 0x22 SLT KECCAK256 0xC0 SLT STATICCALL DUP5 DUP2 PC 0xF7 0xBF PC PUSH0 PUSH7 0xFF06BBD2F4B1FB SWAP4 DUP9 REVERT 0xE DUP4 PUSH1 0xC2 TIMESTAMP 0xD8 SIGNEXTEND SWAP4 LOG1 LOG3 0xAC PUSH5 0x736F6C6343 STOP ADDMOD 0x1E STOP CALLER PUSH1 0x80 PUSH1 0x40 MSTORE CALLVALUE DUP1 ISZERO PUSH2 0xF JUMPI PUSH0 PUSH0 REVERT JUMPDEST POP CALLER PUSH2 0x41 PUSH32 0xDF8B4C520FFE197C5343C6F5AEC59570151EF9A492F2C624FD45DDDE6135EC42 DUP3 PUSH2 0x77 PUSH1 0x20 SHL PUSH1 0x20 SHR JUMP JUMPDEST POP PUSH2 0x72 PUSH32 0x352D05FE3946DBE49277552BA941E744D5A96D9C60BC1BA0EA5F1D3AE000F7C8 CALLER PUSH2 0x77 PUSH1 0x20 SHL PUSH1 0x20 SHR JUMP JUMPDEST PUSH2 0x139 JUMP JUMPDEST PUSH1 0x1 PUSH0 PUSH0 DUP5 DUP2 MSTORE PUSH1 0x20 ADD SWAP1 DUP2 MSTORE PUSH1 0x20 ADD PUSH0 KECCAK256 PUSH0 DUP4 PUSH20 0xFFFFFFFFFFFFFFFFFFFFFFFFFFFFFFFFFFFFFFFF AND PUSH20 0xFFFFFFFFFFFFFFFFFFFFFFFFFFFFFFFFFFFFFFFF AND DUP2 MSTORE PUSH1 0x20 ADD SWAP1 DUP2 MSTORE PUSH1 0x20 ADD PUSH0 KECCAK256 PUSH0 PUSH2 0x100 EXP DUP2 SLOAD DUP2 PUSH1 0xFF MUL NOT AND SWAP1 DUP4 ISZERO ISZERO MUL OR SWAP1 SSTORE POP CALLER PUSH20 0xFFFFFFFFFFFFFFFFFFFFFFFFFFFFFFFFFFFFFFFF AND DUP2 PUSH20 0xFFFFFFFFFFFFFFFFFFFFFFFFFFFFFFFFFFFFFFFF AND DUP4 PUSH32 0x2F8788117E7EFF1D82E926EC794901D17C78024A50270940304540A733656F0D PUSH1 0x40 MLOAD PUSH1 0x40 MLOAD DUP1 SWAP2 SUB SWAP1 LOG4 POP POP JUMP JUMPDEST PUSH2 0x14D1 DUP1 PUSH2 0x146 PUSH0 CODECOPY PUSH0 RETURN INVALID PUSH1 0x80 PUSH1 0x40 MSTORE CALLVALUE DUP1 ISZERO PUSH2 0xF JUMPI PUSH0 PUSH0 REVERT JUMPDEST POP PUSH1 0x4 CALLDATASIZE LT PUSH2 0xB2 JUMPI PUSH0 CALLDATALOAD PUSH1 0xE0 SHR DUP1 PUSH4 0x65E4AD9E GT PUSH2 0x6F JUMPI DUP1 PUSH4 0x65E4AD9E EQ PUSH2 0x18A JUMPI DUP1 PUSH4 0x7F0EBB07 EQ PUSH2 0x1BA JUMPI DUP1 PUSH4 0x91D14854 EQ PUSH2 0x1EA JUMPI DUP1 PUSH4 0xAE5922D4 EQ PUSH2 0x21A JUMPI DUP1 PUSH4 0xCB220FAC EQ PUSH2 0x24A JUMPI DUP1 PUSH4 0xD547741F EQ PUSH2 0x266 JUMPI PUSH2 0xB2 JUMP JUMPDEST DUP1 PUSH4 0x2330F247 EQ PUSH2 0xB6 JUMPI DUP1 PUSH4 0x2A0ACC6A EQ PUSH2 0xE6 JUMPI DUP1 PUSH4 0x2F2FF15D EQ PUSH2 0x104 JUMPI DUP1 PUSH4 0x38013F02 EQ PUSH2 0x120 JUMPI DUP1 PUSH4 0x3C262825 EQ PUSH2 0x13E JUMPI DUP1 PUSH4 0x56712F21 EQ PUSH2 0x15A JUMPI JUMPDEST PUSH0 PUSH0 REVERT JUMPDEST PUSH2 0xD0 PUSH1 0x4 DUP1 CALLDATASIZE SUB DUP2 ADD SWAP1 PUSH2 0xCB SWAP2 SWAP1 PUSH2 0xE03 JUMP JUMPDEST PUSH2 0x282 JUMP JUMPDEST PUSH1 0x40 MLOAD PUSH2 0xDD SWAP2 SWAP1 PUSH2 0xE48 JUMP JUMPDEST PUSH1 0x40 MLOAD DUP1 SWAP2 SUB SWAP1 RETURN JUMPDEST PUSH2 0xEE PUSH2 0x2D4 JUMP JUMPDEST PUSH1 0x40 MLOAD PUSH2 0xFB SWAP2 SWAP1 PUSH2 0xE79 JUMP JUMPDEST PUSH1 0x40 MLOAD DUP1 SWAP2 SUB SWAP1 RETURN JUMPDEST PUSH2 0x11E PUSH1 0x4 DUP1 CALLDATASIZE SUB DUP2 ADD SWAP1 PUSH2 0x119 SWAP2 SWAP1 PUSH2 0xEBC JUMP JUMPDEST PUSH2 0x2F8 JUMP JUMPDEST STOP JUMPDEST PUSH2 0x128 PUSH2 0x3C1 JUMP JUMPDEST PUSH1 0x40 MLOAD PUSH2 0x135 SWAP2 SWAP1 PUSH2 0xE79 JUMP JUMPDEST PUSH1 0x40 MLOAD DUP1 SWAP2 SUB SWAP1 RETURN JUMPDEST PUSH2 0x158 PUSH1 0x4 DUP1 CALLDATASIZE SUB DUP2 ADD SWAP1 PUSH2 0x153 SWAP2 SWAP1 PUSH2 0xF5B JUMP JUMPDEST PUSH2 0x3E5 JUMP JUMPDEST STOP JUMPDEST PUSH2 0x174 PUSH1 0x4 DUP1 CALLDATASIZE SUB DUP2 ADD SWAP1 PUSH2 0x16F SWAP2 SWAP1 PUSH2 0xFB8 JUMP JUMPDEST PUSH2 0x55A JUMP JUMPDEST PUSH1 0x40 MLOAD PUSH2 0x181 SWAP2 SWAP1 PUSH2 0xE48 JUMP JUMPDEST PUSH1 0x40 MLOAD DUP1 SWAP2 SUB SWAP1 RETURN JUMPDEST PUSH2 0x1A4 PUSH1 0x4 DUP1 CALLDATASIZE SUB DUP2 ADD SWAP1 PUSH2 0x19F SWAP2 SWAP1 PUSH2 0x1029 JUMP JUMPDEST PUSH2 0x6F2 JUMP JUMPDEST PUSH1 0x40 MLOAD PUSH2 0x1B1 SWAP2 SWAP1 PUSH2 0xE48 JUMP JUMPDEST PUSH1 0x40 MLOAD DUP1 SWAP2 SUB SWAP1 RETURN JUMPDEST PUSH2 0x1D4 PUSH1 0x4 DUP1 CALLDATASIZE SUB DUP2 ADD SWAP1 PUSH2 0x1CF SWAP2 SWAP1 PUSH2 0x1029 JUMP JUMPDEST PUSH2 0x782 JUMP JUMPDEST PUSH1 0x40 MLOAD PUSH2 0x1E1 SWAP2 SWAP1 PUSH2 0x10D7 JUMP JUMPDEST PUSH1 0x40 MLOAD DUP1 SWAP2 SUB SWAP1 RETURN JUMPDEST PUSH2 0x204 PUSH1 0x4 DUP1 CALLDATASIZE SUB DUP2 ADD SWAP1 PUSH2 0x1FF SWAP2 SWAP1 PUSH2 0xEBC JUMP JUMPDEST PUSH2 0x88E JUMP JUMPDEST PUSH1 0x40 MLOAD PUSH2 0x211 SWAP2 SWAP1 PUSH2 0xE48 JUMP JUMPDEST PUSH1 0x40 MLOAD DUP1 SWAP2 SUB SWAP1 RETURN JUMPDEST PUSH2 0x234 PUSH1 0x4 DUP1 CALLDATASIZE SUB DUP2 ADD SWAP1 PUSH2 0x22F SWAP2 SWAP1 PUSH2 0xF5B JUMP JUMPDEST PUSH2 0x8EF JUMP JUMPDEST PUSH1 0x40 MLOAD PUSH2 0x241 SWAP2 SWAP1 PUSH2 0xE48 JUMP JUMPDEST PUSH1 0x40 MLOAD DUP1 SWAP2 SUB SWAP1 RETURN JUMPDEST PUSH2 0x264 PUSH1 0x4 DUP1 CALLDATASIZE SUB DUP2 ADD SWAP1 PUSH2 0x25F SWAP2 SWAP1 PUSH2 0xF5B JUMP JUMPDEST PUSH2 0x969 JUMP JUMPDEST STOP JUMPDEST PUSH2 0x280 PUSH1 0x4 DUP1 CALLDATASIZE SUB DUP2 ADD SWAP1 PUSH2 0x27B SWAP2 SWAP1 PUSH2 0xEBC JUMP JUMPDEST PUSH2 0xB49 JUMP JUMPDEST STOP JUMPDEST PUSH0 PUSH1 0x3 PUSH0 DUP4 PUSH20 0xFFFFFFFFFFFFFFFFFFFFFFFFFFFFFFFFFFFFFFFF AND PUSH20 0xFFFFFFFFFFFFFFFFFFFFFFFFFFFFFFFFFFFFFFFF AND DUP2 MSTORE PUSH1 0x20 ADD SWAP1 DUP2 MSTORE PUSH1 0x20 ADD PUSH0 KECCAK256 PUSH0 SWAP1 SLOAD SWAP1 PUSH2 0x100 EXP SWAP1 DIV PUSH1 0xFF AND SWAP1 POP SWAP2 SWAP1 POP JUMP JUMPDEST PUSH32 0xDF8B4C520FFE197C5343C6F5AEC59570151EF9A492F2C624FD45DDDE6135EC42 DUP2 JUMP JUMPDEST PUSH32 0xDF8B4C520FFE197C5343C6F5AEC59570151EF9A492F2C624FD45DDDE6135EC42 PUSH0 PUSH0 DUP3 DUP2 MSTORE PUSH1 0x20 ADD SWAP1 DUP2 MSTORE PUSH1 0x20 ADD PUSH0 KECCAK256 PUSH0 CALLER PUSH20 0xFFFFFFFFFFFFFFFFFFFFFFFFFFFFFFFFFFFFFFFF AND PUSH20 0xFFFFFFFFFFFFFFFFFFFFFFFFFFFFFFFFFFFFFFFF AND DUP2 MSTORE PUSH1 0x20 ADD SWAP1 DUP2 MSTORE PUSH1 0x20 ADD PUSH0 KECCAK256 PUSH0 SWAP1 SLOAD SWAP1 PUSH2 0x100 EXP SWAP1 DIV PUSH1 0xFF AND PUSH2 0x3B2 JUMPI DUP1 PUSH1 0x40 MLOAD PUSH32 0xE66C48DA00000000000000000000000000000000000000000000000000000000 DUP2 MSTORE PUSH1 0x4 ADD PUSH2 0x3A9 SWAP2 SWAP1 PUSH2 0xE79 JUMP JUMPDEST PUSH1 0x40 MLOAD DUP1 SWAP2 SUB SWAP1 REVERT JUMPDEST PUSH2 0x3BC DUP4 DUP4 PUSH2 0xCC5 JUMP JUMPDEST POP POP POP JUMP JUMPDEST PUSH32 0x352D05FE3946DBE49277552BA941E744D5A96D9C60BC1BA0EA5F1D3AE000F7C8 DUP2 JUMP JUMPDEST PUSH1 0x40 MLOAD DUP1 PUSH1 0x40 ADD PUSH1 0x40 MSTORE DUP1 PUSH1 0x1 ISZERO ISZERO DUP2 MSTORE PUSH1 0x20 ADD DUP4 DUP4 DUP1 DUP1 PUSH1 0x1F ADD PUSH1 0x20 DUP1 SWAP2 DIV MUL PUSH1 0x20 ADD PUSH1 0x40 MLOAD SWAP1 DUP2 ADD PUSH1 0x40 MSTORE DUP1 SWAP4 SWAP3 SWAP2 SWAP1 DUP2 DUP2 MSTORE PUSH1 0x20 ADD DUP4 DUP4 DUP1 DUP3 DUP5 CALLDATACOPY PUSH0 DUP2 DUP5 ADD MSTORE PUSH1 0x1F NOT PUSH1 0x1F DUP3 ADD AND SWAP1 POP DUP1 DUP4 ADD SWAP3 POP POP POP POP POP POP POP DUP2 MSTORE POP PUSH1 0x1 PUSH0 DUP6 PUSH20 0xFFFFFFFFFFFFFFFFFFFFFFFFFFFFFFFFFFFFFFFF AND PUSH20 0xFFFFFFFFFFFFFFFFFFFFFFFFFFFFFFFFFFFFFFFF AND DUP2 MSTORE PUSH1 0x20 ADD SWAP1 DUP2 MSTORE PUSH1 0x20 ADD PUSH0 KECCAK256 PUSH0 CALLER PUSH20 0xFFFFFFFFFFFFFFFFFFFFFFFFFFFFFFFFFFFFFFFF AND PUSH20 0xFFFFFFFFFFFFFFFFFFFFFFFFFFFFFFFFFFFFFFFF AND DUP2 MSTORE PUSH1 0x20 ADD SWAP1 DUP2 MSTORE PUSH1 0x20 ADD PUSH0 KECCAK256 PUSH0 DUP3 ADD MLOAD DUP2 PUSH0 ADD PUSH0 PUSH2 0x100 EXP DUP2 SLOAD DUP2 PUSH1 0xFF MUL NOT AND SWAP1 DUP4 ISZERO ISZERO MUL OR SWAP1 SSTORE POP PUSH1 0x20 DUP3 ADD MLOAD DUP2 PUSH1 0x1 ADD SWAP1 DUP2 PUSH2 0x4EA SWAP2 SWAP1 PUSH2 0x132A JUMP JUMPDEST POP SWAP1 POP POP CALLER PUSH20 0xFFFFFFFFFFFFFFFFFFFFFFFFFFFFFFFFFFFFFFFF AND DUP4 PUSH20 0xFFFFFFFFFFFFFFFFFFFFFFFFFFFFFFFFFFFFFFFF AND PUSH32 0xA9BFC81DE9C511DA5A9FE8A33D67E3AEC7FD94141848826347BA0AB5E2C0D7DC DUP5 DUP5 PUSH1 0x40 MLOAD PUSH2 0x54D SWAP3 SWAP2 SWAP1 PUSH2 0x1433 JUMP JUMPDEST PUSH1 0x40 MLOAD DUP1 SWAP2 SUB SWAP1 LOG3 POP POP POP JUMP JUMPDEST PUSH0 PUSH0 PUSH1 0x1 PUSH0 DUP8 PUSH20 0xFFFFFFFFFFFFFFFFFFFFFFFFFFFFFFFFFFFFFFFF AND PUSH20 0xFFFFFFFFFFFFFFFFFFFFFFFFFFFFFFFFFFFFFFFF AND DUP2 MSTORE PUSH1 0x20 ADD SWAP1 DUP2 MSTORE PUSH1 0x20 ADD PUSH0 KECCAK256 PUSH0 DUP7 PUSH20 0xFFFFFFFFFFFFFFFFFFFFFFFFFFFFFFFFFFFFFFFF AND PUSH20 0xFFFFFFFFFFFFFFFFFFFFFFFFFFFFFFFFFFFFFFFF AND DUP2 MSTORE PUSH1 0x20 ADD SWAP1 DUP2 MSTORE PUSH1 0x20 ADD PUSH0 KECCAK256 PUSH1 0x40 MLOAD DUP1 PUSH1 0x40 ADD PUSH1 0x40 MSTORE SWAP1 DUP2 PUSH0 DUP3 ADD PUSH0 SWAP1 SLOAD SWAP1 PUSH2 0x100 EXP SWAP1 DIV PUSH1 0xFF AND ISZERO ISZERO ISZERO ISZERO DUP2 MSTORE PUSH1 0x20 ADD PUSH1 0x1 DUP3 ADD DUP1 SLOAD PUSH2 0x608 SWAP1 PUSH2 0x1151 JUMP JUMPDEST DUP1 PUSH1 0x1F ADD PUSH1 0x20 DUP1 SWAP2 DIV MUL PUSH1 0x20 ADD PUSH1 0x40 MLOAD SWAP1 DUP2 ADD PUSH1 0x40 MSTORE DUP1 SWAP3 SWAP2 SWAP1 DUP2 DUP2 MSTORE PUSH1 0x20 ADD DUP3 DUP1 SLOAD PUSH2 0x634 SWAP1 PUSH2 0x1151 JUMP JUMPDEST DUP1 ISZERO PUSH2 0x67F JUMPI DUP1 PUSH1 0x1F LT PUSH2 0x656 JUMPI PUSH2 0x100 DUP1 DUP4 SLOAD DIV MUL DUP4 MSTORE SWAP2 PUSH1 0x20 ADD SWAP2 PUSH2 0x67F JUMP JUMPDEST DUP3 ADD SWAP2 SWAP1 PUSH0 MSTORE PUSH1 0x20 PUSH0 KECCAK256 SWAP1 JUMPDEST DUP2 SLOAD DUP2 MSTORE SWAP1 PUSH1 0x1 ADD SWAP1 PUSH1 0x20 ADD DUP1 DUP4 GT PUSH2 0x662 JUMPI DUP3 SWAP1 SUB PUSH1 0x1F AND DUP3 ADD SWAP2 JUMPDEST POP POP POP POP POP DUP2 MSTORE POP POP SWAP1 POP DUP1 PUSH0 ADD MLOAD DUP1 ISZERO PUSH2 0x6E7 JUMPI POP PUSH2 0x6E6 DUP2 PUSH1 0x20 ADD MLOAD DUP6 DUP6 DUP1 DUP1 PUSH1 0x1F ADD PUSH1 0x20 DUP1 SWAP2 DIV MUL PUSH1 0x20 ADD PUSH1 0x40 MLOAD SWAP1 DUP2 ADD PUSH1 0x40 MSTORE DUP1 SWAP4 SWAP3 SWAP2 SWAP1 DUP2 DUP2 MSTORE PUSH1 0x20 ADD DUP4 DUP4 DUP1 DUP3 DUP5 CALLDATACOPY PUSH0 DUP2 DUP5 ADD MSTORE PUSH1 0x1F NOT PUSH1 0x1F DUP3 ADD AND SWAP1 POP DUP1 DUP4 ADD SWAP3 POP POP POP POP POP POP POP PUSH2 0xD87 JUMP JUMPDEST JUMPDEST SWAP2 POP POP SWAP5 SWAP4 POP POP POP POP JUMP JUMPDEST PUSH0 PUSH1 0x1 PUSH0 DUP5 PUSH20 0xFFFFFFFFFFFFFFFFFFFFFFFFFFFFFFFFFFFFFFFF AND PUSH20 0xFFFFFFFFFFFFFFFFFFFFFFFFFFFFFFFFFFFFFFFF AND DUP2 MSTORE PUSH1 0x20 ADD SWAP1 DUP2 MSTORE PUSH1 0x20 ADD PUSH0 KECCAK256 PUSH0 DUP4 PUSH20 0xFFFFFFFFFFFFFFFFFFFFFFFFFFFFFFFFFFFFFFFF AND PUSH20 0xFFFFFFFFFFFFFFFFFFFFFFFFFFFFFFFFFFFFFFFF AND DUP2 MSTORE PUSH1 0x20 ADD SWAP1 DUP2 MSTORE PUSH1 0x20 ADD PUSH0 KECCAK256 PUSH0 ADD PUSH0 SWAP1 SLOAD SWAP1 PUSH2 0x100 EXP SWAP1 DIV PUSH1 0xFF AND SWAP1 POP SWAP3 SWAP2 POP POP JUMP JUMPDEST PUSH1 0x60 PUSH1 0x1 PUSH0 DUP5 PUSH20 0xFFFFFFFFFFFFFFFFFFFFFFFFFFFFFFFFFFFFFFFF AND PUSH20 0xFFFFFFFFFFFFFFFFFFFFFFFFFFFFFFFFFFFFFFFF AND DUP2 MSTORE PUSH1 0x20 ADD SWAP1 DUP2 MSTORE PUSH1 0x20 ADD PUSH0 KECCAK256 PUSH0 DUP4 PUSH20 0xFFFFFFFFFFFFFFFFFFFFFFFFFFFFFFFFFFFFFFFF AND PUSH20 0xFFFFFFFFFFFFFFFFFFFFFFFFFFFFFFFFFFFFFFFF AND DUP2 MSTORE PUSH1 0x20 ADD SWAP1 DUP2 MSTORE PUSH1 0x20 ADD PUSH0 KECCAK256 PUSH1 0x1 ADD DUP1 SLOAD PUSH2 0x80A SWAP1 PUSH2 0x1151 JUMP JUMPDEST DUP1 PUSH1 0x1F ADD PUSH1 0x20 DUP1 SWAP2 DIV MUL PUSH1 0x20 ADD PUSH1 0x40 MLOAD SWAP1 DUP2 ADD PUSH1 0x40 MSTORE DUP1 SWAP3 SWAP2 SWAP1 DUP2 DUP2 MSTORE PUSH1 0x20 ADD DUP3 DUP1 SLOAD PUSH2 0x836 SWAP1 PUSH2 0x1151 JUMP JUMPDEST DUP1 ISZERO PUSH2 0x881 JUMPI DUP1 PUSH1 0x1F LT PUSH2 0x858 JUMPI PUSH2 0x100 DUP1 DUP4 SLOAD DIV MUL DUP4 MSTORE SWAP2 PUSH1 0x20 ADD SWAP2 PUSH2 0x881 JUMP JUMPDEST DUP3 ADD SWAP2 SWAP1 PUSH0 MSTORE PUSH1 0x20 PUSH0 KECCAK256 SWAP1 JUMPDEST DUP2 SLOAD DUP2 MSTORE SWAP1 PUSH1 0x1 ADD SWAP1 PUSH1 0x20 ADD DUP1 DUP4 GT PUSH2 0x864 JUMPI DUP3 SWAP1 SUB PUSH1 0x1F AND DUP3 ADD SWAP2 JUMPDEST POP POP POP POP POP SWAP1 POP SWAP3 SWAP2 POP POP JUMP JUMPDEST PUSH0 PUSH0 PUSH0 DUP5 DUP2 MSTORE PUSH1 0x20 ADD SWAP1 DUP2 MSTORE PUSH1 0x20 ADD PUSH0 KECCAK256 PUSH0 DUP4 PUSH20 0xFFFFFFFFFFFFFFFFFFFFFFFFFFFFFFFFFFFFFFFF AND PUSH20 0xFFFFFFFFFFFFFFFFFFFFFFFFFFFFFFFFFFFFFFFF AND DUP2 MSTORE PUSH1 0x20 ADD SWAP1 DUP2 MSTORE PUSH1 0x20 ADD PUSH0 KECCAK256 PUSH0 SWAP1 SLOAD SWAP1 PUSH2 0x100 EXP SWAP1 DIV PUSH1 0xFF AND SWAP1 POP SWAP3 SWAP2 POP POP JUMP JUMPDEST PUSH0 PUSH1 0x2 PUSH0 DUP6 PUSH20 0xFFFFFFFFFFFFFFFFFFFFFFFFFFFFFFFFFFFFFFFF AND PUSH20 0xFFFFFFFFFFFFFFFFFFFFFFFFFFFFFFFFFFFFFFFF AND DUP2 MSTORE PUSH1 0x20 ADD SWAP1 DUP2 MSTORE PUSH1 0x20 ADD PUSH0 KECCAK256 PUSH0 DUP5 DUP5 PUSH1 0x40 MLOAD PUSH2 0x93E SWAP3 SWAP2 SWAP1 PUSH2 0x1483 JUMP JUMPDEST PUSH1 0x40 MLOAD DUP1 SWAP2 SUB SWAP1 KECCAK256 DUP2 MSTORE PUSH1 0x20 ADD SWAP1 DUP2 MSTORE PUSH1 0x20 ADD PUSH0 KECCAK256 PUSH0 SWAP1 SLOAD SWAP1 PUSH2 0x100 EXP SWAP1 DIV PUSH1 0xFF AND SWAP1 POP SWAP4 SWAP3 POP POP POP JUMP JUMPDEST PUSH32 0xDF8B4C520FFE197C5343C6F5AEC59570151EF9A492F2C624FD45DDDE6135EC42 PUSH0 PUSH0 DUP3 DUP2 MSTORE PUSH1 0x20 ADD SWAP1 DUP2 MSTORE PUSH1 0x20 ADD PUSH0 KECCAK256 PUSH0 CALLER PUSH20 0xFFFFFFFFFFFFFFFFFFFFFFFFFFFFFFFFFFFFFFFF AND PUSH20 0xFFFFFFFFFFFFFFFFFFFFFFFFFFFFFFFFFFFFFFFF AND DUP2 MSTORE PUSH1 0x20 ADD SWAP1 DUP2 MSTORE PUSH1 0x20 ADD PUSH0 KECCAK256 PUSH0 SWAP1 SLOAD SWAP1 PUSH2 0x100 EXP SWAP1 DIV PUSH1 0xFF AND PUSH2 0xA23 JUMPI DUP1 PUSH1 0x40 MLOAD PUSH32 0xE66C48DA00000000000000000000000000000000000000000000000000000000 DUP2 MSTORE PUSH1 0x4 ADD PUSH2 0xA1A SWAP2 SWAP1 PUSH2 0xE79 JUMP JUMPDEST PUSH1 0x40 MLOAD DUP1 SWAP2 SUB SWAP1 REVERT JUMPDEST PUSH1 0x1 PUSH1 0x2 PUSH0 DUP7 PUSH20 0xFFFFFFFFFFFFFFFFFFFFFFFFFFFFFFFFFFFFFFFF AND PUSH20 0xFFFFFFFFFFFFFFFFFFFFFFFFFFFFFFFFFFFFFFFF AND DUP2 MSTORE PUSH1 0x20 ADD SWAP1 DUP2 MSTORE PUSH1 0x20 ADD PUSH0 KECCAK256 PUSH0 DUP6 DUP6 PUSH1 0x40 MLOAD PUSH2 0xA73 SWAP3 SWAP2 SWAP1 PUSH2 0x1483 JUMP JUMPDEST PUSH1 0x40 MLOAD DUP1 SWAP2 SUB SWAP1 KECCAK256 DUP2 MSTORE PUSH1 0x20 ADD SWAP1 DUP2 MSTORE PUSH1 0x20 ADD PUSH0 KECCAK256 PUSH0 PUSH2 0x100 EXP DUP2 SLOAD DUP2 PUSH1 0xFF MUL NOT AND SWAP1 DUP4 ISZERO ISZERO MUL OR SWAP1 SSTORE POP PUSH1 0x1 PUSH1 0x3 PUSH0 DUP7 PUSH20 0xFFFFFFFFFFFFFFFFFFFFFFFFFFFFFFFFFFFFFFFF AND PUSH20 0xFFFFFFFFFFFFFFFFFFFFFFFFFFFFFFFFFFFFFFFF AND DUP2 MSTORE PUSH1 0x20 ADD SWAP1 DUP2 MSTORE PUSH1 0x20 ADD PUSH0 KECCAK256 PUSH0 PUSH2 0x100 EXP DUP2 SLOAD DUP2 PUSH1 0xFF MUL NOT AND SWAP1 DUP4 ISZERO ISZERO MUL OR SWAP1 SSTORE POP DUP4 PUSH20 0xFFFFFFFFFFFFFFFFFFFFFFFFFFFFFFFFFFFFFFFF AND PUSH32 0x1FC5F764A994850F50B8EDA85E5EEE89AD859A5DA915A0B0E7E7C4429B3B0385 DUP5 DUP5 PUSH1 0x40 MLOAD PUSH2 0xB3B SWAP3 SWAP2 SWAP1 PUSH2 0x1433 JUMP JUMPDEST PUSH1 0x40 MLOAD DUP1 SWAP2 SUB SWAP1 LOG2 POP POP POP POP JUMP JUMPDEST PUSH32 0xDF8B4C520FFE197C5343C6F5AEC59570151EF9A492F2C624FD45DDDE6135EC42 PUSH0 PUSH0 DUP3 DUP2 MSTORE PUSH1 0x20 ADD SWAP1 DUP2 MSTORE PUSH1 0x20 ADD PUSH0 KECCAK256 PUSH0 CALLER PUSH20 0xFFFFFFFFFFFFFFFFFFFFFFFFFFFFFFFFFFFFFFFF AND PUSH20 0xFFFFFFFFFFFFFFFFFFFFFFFFFFFFFFFFFFFFFFFF AND DUP2 MSTORE PUSH1 0x20 ADD SWAP1 DUP2 MSTORE PUSH1 0x20 ADD PUSH0 KECCAK256 PUSH0 SWAP1 SLOAD SWAP1 PUSH2 0x100 EXP SWAP1 DIV PUSH1 0xFF AND PUSH2 0xC03 JUMPI DUP1 PUSH1 0x40 MLOAD PUSH32 0xE66C48DA00000000000000000000000000000000000000000000000000000000 DUP2 MSTORE PUSH1 0x4 ADD PUSH2 0xBFA SWAP2 SWAP1 PUSH2 0xE79 JUMP JUMPDEST PUSH1 0x40 MLOAD DUP1 SWAP2 SUB SWAP1 REVERT JUMPDEST PUSH0 PUSH0 PUSH0 DUP6 DUP2 MSTORE PUSH1 0x20 ADD SWAP1 DUP2 MSTORE PUSH1 0x20 ADD PUSH0 KECCAK256 PUSH0 DUP5 PUSH20 0xFFFFFFFFFFFFFFFFFFFFFFFFFFFFFFFFFFFFFFFF AND PUSH20 0xFFFFFFFFFFFFFFFFFFFFFFFFFFFFFFFFFFFFFFFF AND DUP2 MSTORE PUSH1 0x20 ADD SWAP1 DUP2 MSTORE PUSH1 0x20 ADD PUSH0 KECCAK256 PUSH0 PUSH2 0x100 EXP DUP2 SLOAD DUP2 PUSH1 0xFF MUL NOT AND SWAP1 DUP4 ISZERO ISZERO MUL OR SWAP1 SSTORE POP CALLER PUSH20 0xFFFFFFFFFFFFFFFFFFFFFFFFFFFFFFFFFFFFFFFF AND DUP3 PUSH20 0xFFFFFFFFFFFFFFFFFFFFFFFFFFFFFFFFFFFFFFFF AND DUP5 PUSH32 0xF6391F5C32D9C69D2A47EA670B442974B53935D1EDC7FD64EB21E047A839171B PUSH1 0x40 MLOAD PUSH1 0x40 MLOAD DUP1 SWAP2 SUB SWAP1 LOG4 POP POP POP JUMP JUMPDEST PUSH1 0x1 PUSH0 PUSH0 DUP5 DUP2 MSTORE PUSH1 0x20 ADD SWAP1 DUP2 MSTORE PUSH1 0x20 ADD PUSH0 KECCAK256 PUSH0 DUP4 PUSH20 0xFFFFFFFFFFFFFFFFFFFFFFFFFFFFFFFFFFFFFFFF AND PUSH20 0xFFFFFFFFFFFFFFFFFFFFFFFFFFFFFFFFFFFFFFFF AND DUP2 MSTORE PUSH1 0x20 ADD SWAP1 DUP2 MSTORE PUSH1 0x20 ADD PUSH0 KECCAK256 PUSH0 PUSH2 0x100 EXP DUP2 SLOAD DUP2 PUSH1 0xFF MUL NOT AND SWAP1 DUP4 ISZERO ISZERO MUL OR SWAP1 SSTORE POP CALLER PUSH20 0xFFFFFFFFFFFFFFFFFFFFFFFFFFFFFFFFFFFFFFFF AND DUP2 PUSH20 0xFFFFFFFFFFFFFFFFFFFFFFFFFFFFFFFFFFFFFFFF AND DUP4 PUSH32 0x2F8788117E7EFF1D82E926EC794901D17C78024A50270940304540A733656F0D PUSH1 0x40 MLOAD PUSH1 0x40 MLOAD DUP1 SWAP2 SUB SWAP1 LOG4 POP POP JUMP JUMPDEST PUSH0 DUP2 DUP1 MLOAD SWAP1 PUSH1 0x20 ADD KECCAK256 DUP4 DUP1 MLOAD SWAP1 PUSH1 0x20 ADD KECCAK256 EQ SWAP1 POP SWAP3 SWAP2 POP POP JUMP JUMPDEST PUSH0 PUSH0 REVERT JUMPDEST PUSH0 PUSH0 REVERT JUMPDEST PUSH0 PUSH20 0xFFFFFFFFFFFFFFFFFFFFFFFFFFFFFFFFFFFFFFFF DUP3 AND SWAP1 POP SWAP2 SWAP1 POP JUMP JUMPDEST PUSH0 PUSH2 0xDD2 DUP3 PUSH2 0xDA9 JUMP JUMPDEST SWAP1 POP SWAP2 SWAP1 POP JUMP JUMPDEST PUSH2 0xDE2 DUP2 PUSH2 0xDC8 JUMP JUMPDEST DUP2 EQ PUSH2 0xDEC JUMPI PUSH0 PUSH0 REVERT JUMPDEST POP JUMP JUMPDEST PUSH0 DUP2 CALLDATALOAD SWAP1 POP PUSH2 0xDFD DUP2 PUSH2 0xDD9 JUMP JUMPDEST SWAP3 SWAP2 POP POP JUMP JUMPDEST PUSH0 PUSH1 0x20 DUP3 DUP5 SUB SLT ISZERO PUSH2 0xE18 JUMPI PUSH2 0xE17 PUSH2 0xDA1 JUMP JUMPDEST JUMPDEST PUSH0 PUSH2 0xE25 DUP5 DUP3 DUP6 ADD PUSH2 0xDEF JUMP JUMPDEST SWAP2 POP POP SWAP3 SWAP2 POP POP JUMP JUMPDEST PUSH0 DUP2 ISZERO ISZERO SWAP1 POP SWAP2 SWAP1 POP JUMP JUMPDEST PUSH2 0xE42 DUP2 PUSH2 0xE2E JUMP JUMPDEST DUP3 MSTORE POP POP JUMP JUMPDEST PUSH0 PUSH1 0x20 DUP3 ADD SWAP1 POP PUSH2 0xE5B PUSH0 DUP4 ADD DUP5 PUSH2 0xE39 JUMP JUMPDEST SWAP3 SWAP2 POP POP JUMP JUMPDEST PUSH0 DUP2 SWAP1 POP SWAP2 SWAP1 POP JUMP JUMPDEST PUSH2 0xE73 DUP2 PUSH2 0xE61 JUMP JUMPDEST DUP3 MSTORE POP POP JUMP JUMPDEST PUSH0 PUSH1 0x20 DUP3 ADD SWAP1 POP PUSH2 0xE8C PUSH0 DUP4 ADD DUP5 PUSH2 0xE6A JUMP JUMPDEST SWAP3 SWAP2 POP POP JUMP JUMPDEST PUSH2 0xE9B DUP2 PUSH2 0xE61 JUMP JUMPDEST DUP2 EQ PUSH2 0xEA5 JUMPI PUSH0 PUSH0 REVERT JUMPDEST POP JUMP JUMPDEST PUSH0 DUP2 CALLDATALOAD SWAP1 POP PUSH2 0xEB6 DUP2 PUSH2 0xE92 JUMP JUMPDEST SWAP3 SWAP2 POP POP JUMP JUMPDEST PUSH0 PUSH0 PUSH1 0x40 DUP4 DUP6 SUB SLT ISZERO PUSH2 0xED2 JUMPI PUSH2 0xED1 PUSH2 0xDA1 JUMP JUMPDEST JUMPDEST PUSH0 PUSH2 0xEDF DUP6 DUP3 DUP7 ADD PUSH2 0xEA8 JUMP JUMPDEST SWAP3 POP POP PUSH1 0x20 PUSH2 0xEF0 DUP6 DUP3 DUP7 ADD PUSH2 0xDEF JUMP JUMPDEST SWAP2 POP POP SWAP3 POP SWAP3 SWAP1 POP JUMP JUMPDEST PUSH0 PUSH0 REVERT JUMPDEST PUSH0 PUSH0 REVERT JUMPDEST PUSH0 PUSH0 REVERT JUMPDEST PUSH0 PUSH0 DUP4 PUSH1 0x1F DUP5 ADD SLT PUSH2 0xF1B JUMPI PUSH2 0xF1A PUSH2 0xEFA JUMP JUMPDEST JUMPDEST DUP3 CALLDATALOAD SWAP1 POP PUSH8 0xFFFFFFFFFFFFFFFF DUP2 GT ISZERO PUSH2 0xF38 JUMPI PUSH2 0xF37 PUSH2 0xEFE JUMP JUMPDEST JUMPDEST PUSH1 0x20 DUP4 ADD SWAP2 POP DUP4 PUSH1 0x1 DUP3 MUL DUP4 ADD GT ISZERO PUSH2 0xF54 JUMPI PUSH2 0xF53 PUSH2 0xF02 JUMP JUMPDEST JUMPDEST SWAP3 POP SWAP3 SWAP1 POP JUMP JUMPDEST PUSH0 PUSH0 PUSH0 PUSH1 0x40 DUP5 DUP7 SUB SLT ISZERO PUSH2 0xF72 JUMPI PUSH2 0xF71 PUSH2 0xDA1 JUMP JUMPDEST JUMPDEST PUSH0 PUSH2 0xF7F DUP7 DUP3 DUP8 ADD PUSH2 0xDEF JUMP JUMPDEST SWAP4 POP POP PUSH1 0x20 DUP5 ADD CALLDATALOAD PUSH8 0xFFFFFFFFFFFFFFFF DUP2 GT ISZERO PUSH2 0xFA0 JUMPI PUSH2 0xF9F PUSH2 0xDA5 JUMP JUMPDEST JUMPDEST PUSH2 0xFAC DUP7 DUP3 DUP8 ADD PUSH2 0xF06 JUMP JUMPDEST SWAP3 POP SWAP3 POP POP SWAP3 POP SWAP3 POP SWAP3 JUMP JUMPDEST PUSH0 PUSH0 PUSH0 PUSH0 PUSH1 0x60 DUP6 DUP8 SUB SLT ISZERO PUSH2 0xFD0 JUMPI PUSH2 0xFCF PUSH2 0xDA1 JUMP JUMPDEST JUMPDEST PUSH0 PUSH2 0xFDD DUP8 DUP3 DUP9 ADD PUSH2 0xDEF JUMP JUMPDEST SWAP5 POP POP PUSH1 0x20 PUSH2 0xFEE DUP8 DUP3 DUP9 ADD PUSH2 0xDEF JUMP JUMPDEST SWAP4 POP POP PUSH1 0x40 DUP6 ADD CALLDATALOAD PUSH8 0xFFFFFFFFFFFFFFFF DUP2 GT ISZERO PUSH2 0x100F JUMPI PUSH2 0x100E PUSH2 0xDA5 JUMP JUMPDEST JUMPDEST PUSH2 0x101B DUP8 DUP3 DUP9 ADD PUSH2 0xF06 JUMP JUMPDEST SWAP3 POP SWAP3 POP POP SWAP3 SWAP6 SWAP2 SWAP5 POP SWAP3 POP JUMP JUMPDEST PUSH0 PUSH0 PUSH1 0x40 DUP4 DUP6 SUB SLT ISZERO PUSH2 0x103F JUMPI PUSH2 0x103E PUSH2 0xDA1 JUMP JUMPDEST JUMPDEST PUSH0 PUSH2 0x104C DUP6 DUP3 DUP7 ADD PUSH2 0xDEF JUMP JUMPDEST SWAP3 POP POP PUSH1 0x20 PUSH2 0x105D DUP6 DUP3 DUP7 ADD PUSH2 0xDEF JUMP JUMPDEST SWAP2 POP POP SWAP3 POP SWAP3 SWAP1 POP JUMP JUMPDEST PUSH0 DUP2 MLOAD SWAP1 POP SWAP2 SWAP1 POP JUMP JUMPDEST PUSH0 DUP3 DUP3 MSTORE PUSH1 0x20 DUP3 ADD SWAP1 POP SWAP3 SWAP2 POP POP JUMP JUMPDEST DUP3 DUP2 DUP4 MCOPY PUSH0 DUP4 DUP4 ADD MSTORE POP POP POP JUMP JUMPDEST PUSH0 PUSH1 0x1F NOT PUSH1 0x1F DUP4 ADD AND SWAP1 POP SWAP2 SWAP1 POP JUMP JUMPDEST PUSH0 PUSH2 0x10A9 DUP3 PUSH2 0x1067 JUMP JUMPDEST PUSH2 0x10B3 DUP2 DUP6 PUSH2 0x1071 JUMP JUMPDEST SWAP4 POP PUSH2 0x10C3 DUP2 DUP6 PUSH1 0x20 DUP7 ADD PUSH2 0x1081 JUMP JUMPDEST PUSH2 0x10CC DUP2 PUSH2 0x108F JUMP JUMPDEST DUP5 ADD SWAP2 POP POP SWAP3 SWAP2 POP POP JUMP JUMPDEST PUSH0 PUSH1 0x20 DUP3 ADD SWAP1 POP DUP2 DUP2 SUB PUSH0 DUP4 ADD MSTORE PUSH2 0x10EF DUP2 DUP5 PUSH2 0x109F JUMP JUMPDEST SWAP1 POP SWAP3 SWAP2 POP POP JUMP JUMPDEST PUSH32 0x4E487B7100000000000000000000000000000000000000000000000000000000 PUSH0 MSTORE PUSH1 0x41 PUSH1 0x4 MSTORE PUSH1 0x24 PUSH0 REVERT JUMPDEST PUSH32 0x4E487B7100000000000000000000000000000000000000000000000000000000 PUSH0 MSTORE PUSH1 0x22 PUSH1 0x4 MSTORE PUSH1 0x24 PUSH0 REVERT JUMPDEST PUSH0 PUSH1 0x2 DUP3 DIV SWAP1 POP PUSH1 0x1 DUP3 AND DUP1 PUSH2 0x1168 JUMPI PUSH1 0x7F DUP3 AND SWAP2 POP JUMPDEST PUSH1 0x20 DUP3 LT DUP2 SUB PUSH2 0x117B JUMPI PUSH2 0x117A PUSH2 0x1124 JUMP JUMPDEST JUMPDEST POP SWAP2 SWAP1 POP JUMP JUMPDEST PUSH0 DUP2 SWAP1 POP DUP2 PUSH0 MSTORE PUSH1 0x20 PUSH0 KECCAK256 SWAP1 POP SWAP2 SWAP1 POP JUMP JUMPDEST PUSH0 PUSH1 0x20 PUSH1 0x1F DUP4 ADD DIV SWAP1 POP SWAP2 SWAP1 POP JUMP JUMPDEST PUSH0 DUP3 DUP3 SHL SWAP1 POP SWAP3 SWAP2 POP POP JUMP JUMPDEST PUSH0 PUSH1 0x8 DUP4 MUL PUSH2 0x11DD PUSH32 0xFFFFFFFFFFFFFFFFFFFFFFFFFFFFFFFFFFFFFFFFFFFFFFFFFFFFFFFFFFFFFFFF DUP3 PUSH2 0x11A2 JUMP JUMPDEST PUSH2 0x11E7 DUP7 DUP4 PUSH2 0x11A2 JUMP JUMPDEST SWAP6 POP DUP1 NOT DUP5 AND SWAP4 POP DUP1 DUP7 AND DUP5 OR SWAP3 POP POP POP SWAP4 SWAP3 POP POP POP JUMP JUMPDEST PUSH0 DUP2 SWAP1 POP SWAP2 SWAP1 POP JUMP JUMPDEST PUSH0 DUP2 SWAP1 POP SWAP2 SWAP1 POP JUMP JUMPDEST PUSH0 PUSH2 0x122B PUSH2 0x1226 PUSH2 0x1221 DUP5 PUSH2 0x11FF JUMP JUMPDEST PUSH2 0x1208 JUMP JUMPDEST PUSH2 0x11FF JUMP JUMPDEST SWAP1 POP SWAP2 SWAP1 POP JUMP JUMPDEST PUSH0 DUP2 SWAP1 POP SWAP2 SWAP1 POP JUMP JUMPDEST PUSH2 0x1244 DUP4 PUSH2 0x1211 JUMP JUMPDEST PUSH2 0x1258 PUSH2 0x1250 DUP3 PUSH2 0x1232 JUMP JUMPDEST DUP5 DUP5 SLOAD PUSH2 0x11AE JUMP JUMPDEST DUP3 SSTORE POP POP POP POP JUMP JUMPDEST PUSH0 PUSH0 SWAP1 POP SWAP1 JUMP JUMPDEST PUSH2 0x126F PUSH2 0x1260 JUMP JUMPDEST PUSH2 0x127A DUP2 DUP5 DUP5 PUSH2 0x123B JUMP JUMPDEST POP POP POP JUMP JUMPDEST JUMPDEST DUP2 DUP2 LT ISZERO PUSH2 0x129D JUMPI PUSH2 0x1292 PUSH0 DUP3 PUSH2 0x1267 JUMP JUMPDEST PUSH1 0x1 DUP2 ADD SWAP1 POP PUSH2 0x1280 JUMP JUMPDEST POP POP JUMP JUMPDEST PUSH1 0x1F DUP3 GT ISZERO PUSH2 0x12E2 JUMPI PUSH2 0x12B3 DUP2 PUSH2 0x1181 JUMP JUMPDEST PUSH2 0x12BC DUP5 PUSH2 0x1193 JUMP JUMPDEST DUP2 ADD PUSH1 0x20 DUP6 LT ISZERO PUSH2 0x12CB JUMPI DUP2 SWAP1 POP JUMPDEST PUSH2 0x12DF PUSH2 0x12D7 DUP6 PUSH2 0x1193 JUMP JUMPDEST DUP4 ADD DUP3 PUSH2 0x127F JUMP JUMPDEST POP POP JUMPDEST POP POP POP JUMP JUMPDEST PUSH0 DUP3 DUP3 SHR SWAP1 POP SWAP3 SWAP2 POP POP JUMP JUMPDEST PUSH0 PUSH2 0x1302 PUSH0 NOT DUP5 PUSH1 0x8 MUL PUSH2 0x12E7 JUMP JUMPDEST NOT DUP1 DUP4 AND SWAP2 POP POP SWAP3 SWAP2 POP POP JUMP JUMPDEST PUSH0 PUSH2 0x131A DUP4 DUP4 PUSH2 0x12F3 JUMP JUMPDEST SWAP2 POP DUP3 PUSH1 0x2 MUL DUP3 OR SWAP1 POP SWAP3 SWAP2 POP POP JUMP JUMPDEST PUSH2 0x1333 DUP3 PUSH2 0x1067 JUMP JUMPDEST PUSH8 0xFFFFFFFFFFFFFFFF DUP2 GT ISZERO PUSH2 0x134C JUMPI PUSH2 0x134B PUSH2 0x10F7 JUMP JUMPDEST JUMPDEST PUSH2 0x1356 DUP3 SLOAD PUSH2 0x1151 JUMP JUMPDEST PUSH2 0x1361 DUP3 DUP3 DUP6 PUSH2 0x12A1 JUMP JUMPDEST PUSH0 PUSH1 0x20 SWAP1 POP PUSH1 0x1F DUP4 GT PUSH1 0x1 DUP2 EQ PUSH2 0x1392 JUMPI PUSH0 DUP5 ISZERO PUSH2 0x1380 JUMPI DUP3 DUP8 ADD MLOAD SWAP1 POP JUMPDEST PUSH2 0x138A DUP6 DUP3 PUSH2 0x130F JUMP JUMPDEST DUP7 SSTORE POP PUSH2 0x13F1 JUMP JUMPDEST PUSH1 0x1F NOT DUP5 AND PUSH2 0x13A0 DUP7 PUSH2 0x1181 JUMP JUMPDEST PUSH0 JUMPDEST DUP3 DUP2 LT ISZERO PUSH2 0x13C7 JUMPI DUP5 DUP10 ADD MLOAD DUP3 SSTORE PUSH1 0x1 DUP3 ADD SWAP2 POP PUSH1 0x20 DUP6 ADD SWAP5 POP PUSH1 0x20 DUP2 ADD SWAP1 POP PUSH2 0x13A2 JUMP JUMPDEST DUP7 DUP4 LT ISZERO PUSH2 0x13E4 JUMPI DUP5 DUP10 ADD MLOAD PUSH2 0x13E0 PUSH1 0x1F DUP10 AND DUP3 PUSH2 0x12F3 JUMP JUMPDEST DUP4 SSTORE POP JUMPDEST PUSH1 0x1 PUSH1 0x2 DUP9 MUL ADD DUP9 SSTORE POP POP POP JUMPDEST POP POP POP POP POP POP JUMP JUMPDEST DUP3 DUP2 DUP4 CALLDATACOPY PUSH0 DUP4 DUP4 ADD MSTORE POP POP POP JUMP JUMPDEST PUSH0 PUSH2 0x1412 DUP4 DUP6 PUSH2 0x1071 JUMP JUMPDEST SWAP4 POP PUSH2 0x141F DUP4 DUP6 DUP5 PUSH2 0x13F9 JUMP JUMPDEST PUSH2 0x1428 DUP4 PUSH2 0x108F JUMP JUMPDEST DUP5 ADD SWAP1 POP SWAP4 SWAP3 POP POP POP JUMP JUMPDEST PUSH0 PUSH1 0x20 DUP3 ADD SWAP1 POP DUP2 DUP2 SUB PUSH0 DUP4 ADD MSTORE PUSH2 0x144C DUP2 DUP5 DUP7 PUSH2 0x1407 JUMP JUMPDEST SWAP1 POP SWAP4 SWAP3 POP POP POP JUMP JUMPDEST PUSH0 DUP2 SWAP1 POP SWAP3 SWAP2 POP POP JUMP JUMPDEST PUSH0 PUSH2 0x146A DUP4 DUP6 PUSH2 0x1455 JUMP JUMPDEST SWAP4 POP PUSH2 0x1477 DUP4 DUP6 DUP5 PUSH2 0x13F9 JUMP JUMPDEST DUP3 DUP5 ADD SWAP1 POP SWAP4 SWAP3 POP POP POP JUMP JUMPDEST PUSH0 PUSH2 0x148F DUP3 DUP5 DUP7 PUSH2 0x145F JUMP JUMPDEST SWAP2 POP DUP2 SWAP1 POP SWAP4 SWAP3 POP POP POP JUMP INVALID LOG2 PUSH5 0x6970667358 0x22 SLT KECCAK256 0xD 0xDF SWAP8 RETURNCONTRACT 0xAF MLOAD 0xA8 CALLDATACOPY 0xE8 MLOAD SWAP4 0xB7 CALLDATASIZE CALLDATACOPY 0xAF DUP7 0xCD BLOBHASH 0xC 0xA9 0xE9 TSTORE CODECOPY 0xD5 GAS PUSH20 0xD51E63764BAA64736F6C634300081E003360A060 BLOCKHASH MSTORE CALLVALUE DUP1 ISZERO PUSH2 0xF JUMPI PUSH0 PUSH0 REVERT JUMPDEST POP PUSH1 0x40 MLOAD PUSH2 0x3D41 CODESIZE SUB DUP1 PUSH2 0x3D41 DUP4 CODECOPY DUP2 DUP2 ADD PUSH1 0x40 MSTORE DUP2 ADD SWAP1 PUSH2 0x31 SWAP2 SWAP1 PUSH2 0xDA JUMP JUMPDEST DUP1 PUSH20 0xFFFFFFFFFFFFFFFFFFFFFFFFFFFFFFFFFFFFFFFF AND PUSH1 0x80 DUP2 PUSH20 0xFFFFFFFFFFFFFFFFFFFFFFFFFFFFFFFFFFFFFFFF AND DUP2 MSTORE POP POP POP PUSH2 0x105 JUMP JUMPDEST PUSH0 PUSH0 REVERT JUMPDEST PUSH0 PUSH20 0xFFFFFFFFFFFFFFFFFFFFFFFFFFFFFFFFFFFFFFFF DUP3 AND SWAP1 POP SWAP2 SWAP1 POP JUMP JUMPDEST PUSH0 PUSH2 0x98 DUP3 PUSH2 0x6F JUMP JUMPDEST SWAP1 POP SWAP2 SWAP1 POP JUMP JUMPDEST PUSH0 PUSH2 0xA9 DUP3 PUSH2 0x8E JUMP JUMPDEST SWAP1 POP SWAP2 SWAP1 POP JUMP JUMPDEST PUSH2 0xB9 DUP2 PUSH2 0x9F JUMP JUMPDEST DUP2 EQ PUSH2 0xC3 JUMPI PUSH0 PUSH0 REVERT JUMPDEST POP JUMP JUMPDEST PUSH0 DUP2 MLOAD SWAP1 POP PUSH2 0xD4 DUP2 PUSH2 0xB0 JUMP JUMPDEST SWAP3 SWAP2 POP POP JUMP JUMPDEST PUSH0 PUSH1 0x20 DUP3 DUP5 SUB SLT ISZERO PUSH2 0xEF JUMPI PUSH2 0xEE PUSH2 0x6B JUMP JUMPDEST JUMPDEST PUSH0 PUSH2 0xFC DUP5 DUP3 DUP6 ADD PUSH2 0xC6 JUMP JUMPDEST SWAP2 POP POP SWAP3 SWAP2 POP POP JUMP JUMPDEST PUSH1 0x80 MLOAD PUSH2 0x3C16 PUSH2 0x12B PUSH0 CODECOPY PUSH0 DUP2 DUP2 PUSH2 0x170 ADD MSTORE DUP2 DUP2 PUSH2 0x282 ADD MSTORE PUSH2 0x3BA ADD MSTORE PUSH2 0x3C16 PUSH0 RETURN INVALID PUSH1 0x80 PUSH1 0x40 MSTORE CALLVALUE DUP1 ISZERO PUSH2 0xF JUMPI PUSH0 PUSH0 REVERT JUMPDEST POP PUSH1 0x4 CALLDATASIZE LT PUSH2 0x4A JUMPI PUSH0 CALLDATALOAD PUSH1 0xE0 SHR DUP1 PUSH4 0x6661ABD EQ PUSH2 0x4E JUMPI DUP1 PUSH4 0x7591DBDA EQ PUSH2 0x6C JUMPI DUP1 PUSH4 0xA0719C42 EQ PUSH2 0x8A JUMPI DUP1 PUSH4 0xF887EA40 EQ PUSH2 0xBA JUMPI JUMPDEST PUSH0 PUSH0 REVERT JUMPDEST PUSH2 0x56 PUSH2 0xD8 JUMP JUMPDEST PUSH1 0x40 MLOAD PUSH2 0x63 SWAP2 SWAP1 PUSH2 0x401 JUMP JUMPDEST PUSH1 0x40 MLOAD DUP1 SWAP2 SUB SWAP1 RETURN JUMPDEST PUSH2 0x74 PUSH2 0xE3 JUMP JUMPDEST PUSH1 0x40 MLOAD PUSH2 0x81 SWAP2 SWAP1 PUSH2 0x501 JUMP JUMPDEST PUSH1 0x40 MLOAD DUP1 SWAP2 SUB SWAP1 RETURN JUMPDEST PUSH2 0xA4 PUSH1 0x4 DUP1 CALLDATASIZE SUB DUP2 ADD SWAP1 PUSH2 0x9F SWAP2 SWAP1 PUSH2 0x5DF JUMP JUMPDEST PUSH2 0x16D JUMP JUMPDEST PUSH1 0x40 MLOAD PUSH2 0xB1 SWAP2 SWAP1 PUSH2 0x69E JUMP JUMPDEST PUSH1 0x40 MLOAD DUP1 SWAP2 SUB SWAP1 RETURN JUMPDEST PUSH2 0xC2 PUSH2 0x3B8 JUMP JUMPDEST PUSH1 0x40 MLOAD PUSH2 0xCF SWAP2 SWAP1 PUSH2 0x712 JUMP JUMPDEST PUSH1 0x40 MLOAD DUP1 SWAP2 SUB SWAP1 RETURN JUMPDEST PUSH0 PUSH0 DUP1 SLOAD SWAP1 POP SWAP1 POP SWAP1 JUMP JUMPDEST PUSH1 0x60 PUSH0 DUP1 SLOAD DUP1 PUSH1 0x20 MUL PUSH1 0x20 ADD PUSH1 0x40 MLOAD SWAP1 DUP2 ADD PUSH1 0x40 MSTORE DUP1 SWAP3 SWAP2 SWAP1 DUP2 DUP2 MSTORE PUSH1 0x20 ADD DUP3 DUP1 SLOAD DUP1 ISZERO PUSH2 0x163 JUMPI PUSH1 0x20 MUL DUP3 ADD SWAP2 SWAP1 PUSH0 MSTORE PUSH1 0x20 PUSH0 KECCAK256 SWAP1 JUMPDEST DUP2 PUSH0 SWAP1 SLOAD SWAP1 PUSH2 0x100 EXP SWAP1 DIV PUSH20 0xFFFFFFFFFFFFFFFFFFFFFFFFFFFFFFFFFFFFFFFF AND PUSH20 0xFFFFFFFFFFFFFFFFFFFFFFFFFFFFFFFFFFFFFFFF AND DUP2 MSTORE PUSH1 0x20 ADD SWAP1 PUSH1 0x1 ADD SWAP1 DUP1 DUP4 GT PUSH2 0x11A JUMPI JUMPDEST POP POP POP POP POP SWAP1 POP SWAP1 JUMP JUMPDEST PUSH0 PUSH32 0x0 PUSH20 0xFFFFFFFFFFFFFFFFFFFFFFFFFFFFFFFFFFFFFFFF AND PUSH4 0xAE5922D4 CALLER DUP8 DUP8 PUSH1 0x40 MLOAD DUP5 PUSH4 0xFFFFFFFF AND PUSH1 0xE0 SHL DUP2 MSTORE PUSH1 0x4 ADD PUSH2 0x1CB SWAP4 SWAP3 SWAP2 SWAP1 PUSH2 0x785 JUMP JUMPDEST PUSH1 0x20 PUSH1 0x40 MLOAD DUP1 DUP4 SUB DUP2 DUP7 GAS STATICCALL ISZERO DUP1 ISZERO PUSH2 0x1E6 JUMPI RETURNDATASIZE PUSH0 PUSH0 RETURNDATACOPY RETURNDATASIZE PUSH0 REVERT JUMPDEST POP POP POP POP PUSH1 0x40 MLOAD RETURNDATASIZE PUSH1 0x1F NOT PUSH1 0x1F DUP3 ADD AND DUP3 ADD DUP1 PUSH1 0x40 MSTORE POP DUP2 ADD SWAP1 PUSH2 0x20A SWAP2 SWAP1 PUSH2 0x7EA JUMP JUMPDEST PUSH2 0x240 JUMPI PUSH1 0x40 MLOAD PUSH32 0x1CCC6F2700000000000000000000000000000000000000000000000000000000 DUP2 MSTORE PUSH1 0x4 ADD PUSH1 0x40 MLOAD DUP1 SWAP2 SUB SWAP1 REVERT JUMPDEST PUSH1 0x2 DUP4 DUP4 SWAP1 POP LT ISZERO PUSH2 0x27E JUMPI PUSH1 0x40 MLOAD PUSH32 0x8AF2585300000000000000000000000000000000000000000000000000000000 DUP2 MSTORE PUSH1 0x4 ADD PUSH1 0x40 MLOAD DUP1 SWAP2 SUB SWAP1 REVERT JUMPDEST PUSH0 CALLER PUSH32 0x0 DUP10 DUP10 DUP10 DUP10 DUP10 DUP10 PUSH1 0x40 MLOAD PUSH2 0x2B3 SWAP1 PUSH2 0x3DC JUMP JUMPDEST PUSH2 0x2C4 SWAP9 SWAP8 SWAP7 SWAP6 SWAP5 SWAP4 SWAP3 SWAP2 SWAP1 PUSH2 0x96D JUMP JUMPDEST PUSH1 0x40 MLOAD DUP1 SWAP2 SUB SWAP1 PUSH0 CREATE DUP1 ISZERO DUP1 ISZERO PUSH2 0x2DD JUMPI RETURNDATASIZE PUSH0 PUSH0 RETURNDATACOPY RETURNDATASIZE PUSH0 REVERT JUMPDEST POP SWAP1 POP PUSH0 DUP2 SWAP1 DUP1 PUSH1 0x1 DUP2 SLOAD ADD DUP1 DUP3 SSTORE DUP1 SWAP2 POP POP PUSH1 0x1 SWAP1 SUB SWAP1 PUSH0 MSTORE PUSH1 0x20 PUSH0 KECCAK256 ADD PUSH0 SWAP1 SWAP2 SWAP1 SWAP2 SWAP1 SWAP2 PUSH2 0x100 EXP DUP2 SLOAD DUP2 PUSH20 0xFFFFFFFFFFFFFFFFFFFFFFFFFFFFFFFFFFFFFFFF MUL NOT AND SWAP1 DUP4 PUSH20 0xFFFFFFFFFFFFFFFFFFFFFFFFFFFFFFFFFFFFFFFF AND MUL OR SWAP1 SSTORE POP CALLER PUSH20 0xFFFFFFFFFFFFFFFFFFFFFFFFFFFFFFFFFFFFFFFF AND DUP2 PUSH20 0xFFFFFFFFFFFFFFFFFFFFFFFFFFFFFFFFFFFFFFFF AND PUSH32 0x83B6B29E43BD355BE256DCEBC3F269EF74088D5A6F650C35534F8106F5C429FC DUP9 DUP9 DUP13 DUP13 PUSH1 0x40 MLOAD PUSH2 0x3A2 SWAP5 SWAP4 SWAP3 SWAP2 SWAP1 PUSH2 0x9D9 JUMP JUMPDEST PUSH1 0x40 MLOAD DUP1 SWAP2 SUB SWAP1 LOG3 DUP1 SWAP2 POP POP SWAP7 SWAP6 POP POP POP POP POP POP JUMP JUMPDEST PUSH32 0x0 DUP2 JUMP JUMPDEST PUSH2 0x31CE DUP1 PUSH2 0xA13 DUP4 CODECOPY ADD SWAP1 JUMP JUMPDEST PUSH0 DUP2 SWAP1 POP SWAP2 SWAP1 POP JUMP JUMPDEST PUSH2 0x3FB DUP2 PUSH2 0x3E9 JUMP JUMPDEST DUP3 MSTORE POP POP JUMP JUMPDEST PUSH0 PUSH1 0x20 DUP3 ADD SWAP1 POP PUSH2 0x414 PUSH0 DUP4 ADD DUP5 PUSH2 0x3F2 JUMP JUMPDEST SWAP3 SWAP2 POP POP JUMP JUMPDEST PUSH0 DUP2 MLOAD SWAP1 POP SWAP2 SWAP1 POP JUMP JUMPDEST PUSH0 DUP3 DUP3 MSTORE PUSH1 0x20 DUP3 ADD SWAP1 POP SWAP3 SWAP2 POP POP JUMP JUMPDEST PUSH0 DUP2 SWAP1 POP PUSH1 0x20 DUP3 ADD SWAP1 POP SWAP2 SWAP1 POP JUMP JUMPDEST PUSH0 PUSH20 0xFFFFFFFFFFFFFFFFFFFFFFFFFFFFFFFFFFFFFFFF DUP3 AND SWAP1 POP SWAP2 SWAP1 POP JUMP JUMPDEST PUSH0 PUSH2 0x46C DUP3 PUSH2 0x443 JUMP JUMPDEST SWAP1 POP SWAP2 SWAP1 POP JUMP JUMPDEST PUSH2 0x47C DUP2 PUSH2 0x462 JUMP JUMPDEST DUP3 MSTORE POP POP JUMP JUMPDEST PUSH0 PUSH2 0x48D DUP4 DUP4 PUSH2 0x473 JUMP JUMPDEST PUSH1 0x20 DUP4 ADD SWAP1 POP SWAP3 SWAP2 POP POP JUMP JUMPDEST PUSH0 PUSH1 0x20 DUP3 ADD SWAP1 POP SWAP2 SWAP1 POP JUMP JUMPDEST PUSH0 PUSH2 0x4AF DUP3 PUSH2 0x41A JUMP JUMPDEST PUSH2 0x4B9 DUP2 DUP6 PUSH2 0x424 JUMP JUMPDEST SWAP4 POP PUSH2 0x4C4 DUP4 PUSH2 0x434 JUMP JUMPDEST DUP1 PUSH0 JUMPDEST DUP4 DUP2 LT ISZERO PUSH2 0x4F4 JUMPI DUP2 MLOAD PUSH2 0x4DB DUP9 DUP3 PUSH2 0x482 JUMP JUMPDEST SWAP8 POP PUSH2 0x4E6 DUP4 PUSH2 0x499 JUMP JUMPDEST SWAP3 POP POP PUSH1 0x1 DUP2 ADD SWAP1 POP PUSH2 0x4C7 JUMP JUMPDEST POP DUP6 SWAP4 POP POP POP POP SWAP3 SWAP2 POP POP JUMP JUMPDEST PUSH0 PUSH1 0x20 DUP3 ADD SWAP1 POP DUP2 DUP2 SUB PUSH0 DUP4 ADD MSTORE PUSH2 0x519 DUP2 DUP5 PUSH2 0x4A5 JUMP JUMPDEST SWAP1 POP SWAP3 SWAP2 POP POP JUMP JUMPDEST PUSH0 PUSH0 REVERT JUMPDEST PUSH0 PUSH0 REVERT JUMPDEST PUSH0 PUSH0 REVERT JUMPDEST PUSH0 PUSH0 REVERT JUMPDEST PUSH0 PUSH0 REVERT JUMPDEST PUSH0 PUSH0 DUP4 PUSH1 0x1F DUP5 ADD SLT PUSH2 0x54A JUMPI PUSH2 0x549 PUSH2 0x529 JUMP JUMPDEST JUMPDEST DUP3 CALLDATALOAD SWAP1 POP PUSH8 0xFFFFFFFFFFFFFFFF DUP2 GT ISZERO PUSH2 0x567 JUMPI PUSH2 0x566 PUSH2 0x52D JUMP JUMPDEST JUMPDEST PUSH1 0x20 DUP4 ADD SWAP2 POP DUP4 PUSH1 0x1 DUP3 MUL DUP4 ADD GT ISZERO PUSH2 0x583 JUMPI PUSH2 0x582 PUSH2 0x531 JUMP JUMPDEST JUMPDEST SWAP3 POP SWAP3 SWAP1 POP JUMP JUMPDEST PUSH0 PUSH0 DUP4 PUSH1 0x1F DUP5 ADD SLT PUSH2 0x59F JUMPI PUSH2 0x59E PUSH2 0x529 JUMP JUMPDEST JUMPDEST DUP3 CALLDATALOAD SWAP1 POP PUSH8 0xFFFFFFFFFFFFFFFF DUP2 GT ISZERO PUSH2 0x5BC JUMPI PUSH2 0x5BB PUSH2 0x52D JUMP JUMPDEST JUMPDEST PUSH1 0x20 DUP4 ADD SWAP2 POP DUP4 PUSH1 0x20 DUP3 MUL DUP4 ADD GT ISZERO PUSH2 0x5D8 JUMPI PUSH2 0x5D7 PUSH2 0x531 JUMP JUMPDEST JUMPDEST SWAP3 POP SWAP3 SWAP1 POP JUMP JUMPDEST PUSH0 PUSH0 PUSH0 PUSH0 PUSH0 PUSH0 PUSH1 0x60 DUP8 DUP10 SUB SLT ISZERO PUSH2 0x5F9 JUMPI PUSH2 0x5F8 PUSH2 0x521 JUMP JUMPDEST JUMPDEST PUSH0 DUP8 ADD CALLDATALOAD PUSH8 0xFFFFFFFFFFFFFFFF DUP2 GT ISZERO PUSH2 0x616 JUMPI PUSH2 0x615 PUSH2 0x525 JUMP JUMPDEST JUMPDEST PUSH2 0x622 DUP10 DUP3 DUP11 ADD PUSH2 0x535 JUMP JUMPDEST SWAP7 POP SWAP7 POP POP PUSH1 0x20 DUP8 ADD CALLDATALOAD PUSH8 0xFFFFFFFFFFFFFFFF DUP2 GT ISZERO PUSH2 0x645 JUMPI PUSH2 0x644 PUSH2 0x525 JUMP JUMPDEST JUMPDEST PUSH2 0x651 DUP10 DUP3 DUP11 ADD PUSH2 0x535 JUMP JUMPDEST SWAP5 POP SWAP5 POP POP PUSH1 0x40 DUP8 ADD CALLDATALOAD PUSH8 0xFFFFFFFFFFFFFFFF DUP2 GT ISZERO PUSH2 0x674 JUMPI PUSH2 0x673 PUSH2 0x525 JUMP JUMPDEST JUMPDEST PUSH2 0x680 DUP10 DUP3 DUP11 ADD PUSH2 0x58A JUMP JUMPDEST SWAP3 POP SWAP3 POP POP SWAP3 SWAP6 POP SWAP3 SWAP6 POP SWAP3 SWAP6 JUMP JUMPDEST PUSH2 0x698 DUP2 PUSH2 0x462 JUMP JUMPDEST DUP3 MSTORE POP POP JUMP JUMPDEST PUSH0 PUSH1 0x20 DUP3 ADD SWAP1 POP PUSH2 0x6B1 PUSH0 DUP4 ADD DUP5 PUSH2 0x68F JUMP JUMPDEST SWAP3 SWAP2 POP POP JUMP JUMPDEST PUSH0 DUP2 SWAP1 POP SWAP2 SWAP1 POP JUMP JUMPDEST PUSH0 PUSH2 0x6DA PUSH2 0x6D5 PUSH2 0x6D0 DUP5 PUSH2 0x443 JUMP JUMPDEST PUSH2 0x6B7 JUMP JUMPDEST PUSH2 0x443 JUMP JUMPDEST SWAP1 POP SWAP2 SWAP1 POP JUMP JUMPDEST PUSH0 PUSH2 0x6EB DUP3 PUSH2 0x6C0 JUMP JUMPDEST SWAP1 POP SWAP2 SWAP1 POP JUMP JUMPDEST PUSH0 PUSH2 0x6FC DUP3 PUSH2 0x6E1 JUMP JUMPDEST SWAP1 POP SWAP2 SWAP1 POP JUMP JUMPDEST PUSH2 0x70C DUP2 PUSH2 0x6F2 JUMP JUMPDEST DUP3 MSTORE POP POP JUMP JUMPDEST PUSH0 PUSH1 0x20 DUP3 ADD SWAP1 POP PUSH2 0x725 PUSH0 DUP4 ADD DUP5 PUSH2 0x703 JUMP JUMPDEST SWAP3 SWAP2 POP POP JUMP JUMPDEST PUSH0 DUP3 DUP3 MSTORE PUSH1 0x20 DUP3 ADD SWAP1 POP SWAP3 SWAP2 POP POP JUMP JUMPDEST DUP3 DUP2 DUP4 CALLDATACOPY PUSH0 DUP4 DUP4 ADD MSTORE POP POP POP JUMP JUMPDEST PUSH0 PUSH1 0x1F NOT PUSH1 0x1F DUP4 ADD AND SWAP1 POP SWAP2 SWAP1 POP JUMP JUMPDEST PUSH0 PUSH2 0x764 DUP4 DUP6 PUSH2 0x72B JUMP JUMPDEST SWAP4 POP PUSH2 0x771 DUP4 DUP6 DUP5 PUSH2 0x73B JUMP JUMPDEST PUSH2 0x77A DUP4 PUSH2 0x749 JUMP JUMPDEST DUP5 ADD SWAP1 POP SWAP4 SWAP3 POP POP POP JUMP JUMPDEST PUSH0 PUSH1 0x40 DUP3 ADD SWAP1 POP PUSH2 0x798 PUSH0 DUP4 ADD DUP7 PUSH2 0x68F JUMP JUMPDEST DUP2 DUP2 SUB PUSH1 0x20 DUP4 ADD MSTORE PUSH2 0x7AB DUP2 DUP5 DUP7 PUSH2 0x759 JUMP JUMPDEST SWAP1 POP SWAP5 SWAP4 POP POP POP POP JUMP JUMPDEST PUSH0 DUP2 ISZERO ISZERO SWAP1 POP SWAP2 SWAP1 POP JUMP JUMPDEST PUSH2 0x7C9 DUP2 PUSH2 0x7B5 JUMP JUMPDEST DUP2 EQ PUSH2 0x7D3 JUMPI PUSH0 PUSH0 REVERT JUMPDEST POP JUMP JUMPDEST PUSH0 DUP2 MLOAD SWAP1 POP PUSH2 0x7E4 DUP2 PUSH2 0x7C0 JUMP JUMPDEST SWAP3 SWAP2 POP POP JUMP JUMPDEST PUSH0 PUSH1 0x20 DUP3 DUP5 SUB SLT ISZERO PUSH2 0x7FF JUMPI PUSH2 0x7FE PUSH2 0x521 JUMP JUMPDEST JUMPDEST PUSH0 PUSH2 0x80C DUP5 DUP3 DUP6 ADD PUSH2 0x7D6 JUMP JUMPDEST SWAP2 POP POP SWAP3 SWAP2 POP POP JUMP JUMPDEST PUSH0 DUP3 DUP3 MSTORE PUSH1 0x20 DUP3 ADD SWAP1 POP SWAP3 SWAP2 POP POP JUMP JUMPDEST PUSH0 DUP2 SWAP1 POP SWAP2 SWAP1 POP JUMP JUMPDEST PUSH0 DUP3 DUP3 MSTORE PUSH1 0x20 DUP3 ADD SWAP1 POP SWAP3 SWAP2 POP POP JUMP JUMPDEST PUSH0 PUSH2 0x849 DUP4 DUP6 PUSH2 0x82E JUMP JUMPDEST SWAP4 POP PUSH2 0x856 DUP4 DUP6 DUP5 PUSH2 0x73B JUMP JUMPDEST PUSH2 0x85F DUP4 PUSH2 0x749 JUMP JUMPDEST DUP5 ADD SWAP1 POP SWAP4 SWAP3 POP POP POP JUMP JUMPDEST PUSH0 PUSH2 0x876 DUP5 DUP5 DUP5 PUSH2 0x83E JUMP JUMPDEST SWAP1 POP SWAP4 SWAP3 POP POP POP JUMP JUMPDEST PUSH0 PUSH0 REVERT JUMPDEST PUSH0 PUSH0 REVERT JUMPDEST PUSH0 PUSH0 REVERT JUMPDEST PUSH0 PUSH0 DUP4 CALLDATALOAD PUSH1 0x1 PUSH1 0x20 SUB DUP5 CALLDATASIZE SUB SUB DUP2 SLT PUSH2 0x8A7 JUMPI PUSH2 0x8A6 PUSH2 0x887 JUMP JUMPDEST JUMPDEST DUP4 DUP2 ADD SWAP3 POP DUP3 CALLDATALOAD SWAP2 POP PUSH1 0x20 DUP4 ADD SWAP3 POP PUSH8 0xFFFFFFFFFFFFFFFF DUP3 GT ISZERO PUSH2 0x8CF JUMPI PUSH2 0x8CE PUSH2 0x87F JUMP JUMPDEST JUMPDEST PUSH1 0x1 DUP3 MUL CALLDATASIZE SUB DUP4 SGT ISZERO PUSH2 0x8E5 JUMPI PUSH2 0x8E4 PUSH2 0x883 JUMP JUMPDEST JUMPDEST POP SWAP3 POP SWAP3 SWAP1 POP JUMP JUMPDEST PUSH0 PUSH1 0x20 DUP3 ADD SWAP1 POP SWAP2 SWAP1 POP JUMP JUMPDEST PUSH0 PUSH2 0x904 DUP4 DUP6 PUSH2 0x815 JUMP JUMPDEST SWAP4 POP DUP4 PUSH1 0x20 DUP5 MUL DUP6 ADD PUSH2 0x916 DUP5 PUSH2 0x825 JUMP JUMPDEST DUP1 PUSH0 JUMPDEST DUP8 DUP2 LT ISZERO PUSH2 0x95B JUMPI DUP5 DUP5 SUB DUP10 MSTORE PUSH2 0x930 DUP3 DUP5 PUSH2 0x88B JUMP JUMPDEST PUSH2 0x93B DUP7 DUP3 DUP5 PUSH2 0x86A JUMP JUMPDEST SWAP6 POP PUSH2 0x946 DUP5 PUSH2 0x8ED JUMP JUMPDEST SWAP4 POP PUSH1 0x20 DUP12 ADD SWAP11 POP POP POP PUSH1 0x1 DUP2 ADD SWAP1 POP PUSH2 0x919 JUMP JUMPDEST POP DUP3 SWAP8 POP DUP8 SWAP5 POP POP POP POP POP SWAP4 SWAP3 POP POP POP JUMP JUMPDEST PUSH0 PUSH1 0xA0 DUP3 ADD SWAP1 POP PUSH2 0x980 PUSH0 DUP4 ADD DUP12 PUSH2 0x68F JUMP JUMPDEST PUSH2 0x98D PUSH1 0x20 DUP4 ADD DUP11 PUSH2 0x703 JUMP JUMPDEST DUP2 DUP2 SUB PUSH1 0x40 DUP4 ADD MSTORE PUSH2 0x9A0 DUP2 DUP9 DUP11 PUSH2 0x759 JUMP JUMPDEST SWAP1 POP DUP2 DUP2 SUB PUSH1 0x60 DUP4 ADD MSTORE PUSH2 0x9B5 DUP2 DUP7 DUP9 PUSH2 0x759 JUMP JUMPDEST SWAP1 POP DUP2 DUP2 SUB PUSH1 0x80 DUP4 ADD MSTORE PUSH2 0x9CA DUP2 DUP5 DUP7 PUSH2 0x8F9 JUMP JUMPDEST SWAP1 POP SWAP10 SWAP9 POP POP POP POP POP POP POP POP POP JUMP JUMPDEST PUSH0 PUSH1 0x40 DUP3 ADD SWAP1 POP DUP2 DUP2 SUB PUSH0 DUP4 ADD MSTORE PUSH2 0x9F2 DUP2 DUP7 DUP9 PUSH2 0x759 JUMP JUMPDEST SWAP1 POP DUP2 DUP2 SUB PUSH1 0x20 DUP4 ADD MSTORE PUSH2 0xA07 DUP2 DUP5 DUP7 PUSH2 0x759 JUMP JUMPDEST SWAP1 POP SWAP6 SWAP5 POP POP POP POP POP JUMP INVALID PUSH1 0xC0 PUSH1 0x40 MSTORE CALLVALUE DUP1 ISZERO PUSH2 0xF JUMPI PUSH0 PUSH0 REVERT JUMPDEST POP PUSH1 0x40 MLOAD PUSH2 0x31CE CODESIZE SUB DUP1 PUSH2 0x31CE DUP4 CODECOPY DUP2 DUP2 ADD PUSH1 0x40 MSTORE DUP2 ADD SWAP1 PUSH2 0x31 SWAP2 SWAP1 PUSH2 0x4C2 JUMP JUMPDEST DUP5 PUSH20 0xFFFFFFFFFFFFFFFFFFFFFFFFFFFFFFFFFFFFFFFF AND PUSH1 0xA0 DUP2 PUSH20 0xFFFFFFFFFFFFFFFFFFFFFFFFFFFFFFFFFFFFFFFF AND DUP2 MSTORE POP POP DUP4 PUSH20 0xFFFFFFFFFFFFFFFFFFFFFFFFFFFFFFFFFFFFFFFF AND PUSH1 0x80 DUP2 PUSH20 0xFFFFFFFFFFFFFFFFFFFFFFFFFFFFFFFFFFFFFFFF AND DUP2 MSTORE POP POP DUP3 PUSH0 SWAP1 DUP2 PUSH2 0xA7 SWAP2 SWAP1 PUSH2 0x79D JUMP JUMPDEST POP DUP2 PUSH1 0x1 SWAP1 DUP2 PUSH2 0xB7 SWAP2 SWAP1 PUSH2 0x79D JUMP JUMPDEST POP PUSH0 JUMPDEST DUP2 MLOAD DUP2 LT ISZERO PUSH2 0x184 JUMPI PUSH1 0x4 DUP3 DUP3 DUP2 MLOAD DUP2 LT PUSH2 0xD8 JUMPI PUSH2 0xD7 PUSH2 0x86C JUMP JUMPDEST JUMPDEST PUSH1 0x20 MUL PUSH1 0x20 ADD ADD MLOAD SWAP1 DUP1 PUSH1 0x1 DUP2 SLOAD ADD DUP1 DUP3 SSTORE DUP1 SWAP2 POP POP PUSH1 0x1 SWAP1 SUB SWAP1 PUSH0 MSTORE PUSH1 0x20 PUSH0 KECCAK256 ADD PUSH0 SWAP1 SWAP2 SWAP1 SWAP2 SWAP1 SWAP2 POP SWAP1 DUP2 PUSH2 0x10E SWAP2 SWAP1 PUSH2 0x79D JUMP JUMPDEST POP PUSH1 0x3 ADDRESS DUP3 DUP5 DUP5 DUP2 MLOAD DUP2 LT PUSH2 0x126 JUMPI PUSH2 0x125 PUSH2 0x86C JUMP JUMPDEST JUMPDEST PUSH1 0x20 MUL PUSH1 0x20 ADD ADD MLOAD PUSH1 0x40 MLOAD PUSH1 0x20 ADD PUSH2 0x140 SWAP4 SWAP3 SWAP2 SWAP1 PUSH2 0x938 JUMP JUMPDEST PUSH1 0x40 MLOAD PUSH1 0x20 DUP2 DUP4 SUB SUB DUP2 MSTORE SWAP1 PUSH1 0x40 MSTORE DUP1 MLOAD SWAP1 PUSH1 0x20 ADD KECCAK256 SWAP1 DUP1 PUSH1 0x1 DUP2 SLOAD ADD DUP1 DUP3 SSTORE DUP1 SWAP2 POP POP PUSH1 0x1 SWAP1 SUB SWAP1 PUSH0 MSTORE PUSH1 0x20 PUSH0 KECCAK256 ADD PUSH0 SWAP1 SWAP2 SWAP1 SWAP2 SWAP1 SWAP2 POP SSTORE DUP1 PUSH1 0x1 ADD SWAP1 POP PUSH2 0xBA JUMP JUMPDEST POP PUSH1 0x1 PUSH1 0x2 PUSH0 PUSH2 0x100 EXP DUP2 SLOAD DUP2 PUSH1 0xFF MUL NOT AND SWAP1 DUP4 PUSH1 0x3 DUP2 GT ISZERO PUSH2 0x1AA JUMPI PUSH2 0x1A9 PUSH2 0x970 JUMP JUMPDEST JUMPDEST MUL OR SWAP1 SSTORE POP PUSH32 0xA6DCC92F45DF25789D5639B7A0C97BA1EDF3BB1C0B5DD3376FD96A0DB87C4642 PUSH1 0x2 PUSH0 SWAP1 SLOAD SWAP1 PUSH2 0x100 EXP SWAP1 DIV PUSH1 0xFF AND PUSH1 0x40 MLOAD PUSH2 0x1EC SWAP2 SWAP1 PUSH2 0x9E3 JUMP JUMPDEST PUSH1 0x40 MLOAD DUP1 SWAP2 SUB SWAP1 LOG1 POP POP POP POP POP PUSH2 0x9FC JUMP JUMPDEST PUSH0 PUSH1 0x40 MLOAD SWAP1 POP SWAP1 JUMP JUMPDEST PUSH0 PUSH0 REVERT JUMPDEST PUSH0 PUSH0 REVERT JUMPDEST PUSH0 PUSH20 0xFFFFFFFFFFFFFFFFFFFFFFFFFFFFFFFFFFFFFFFF DUP3 AND SWAP1 POP SWAP2 SWAP1 POP JUMP JUMPDEST PUSH0 PUSH2 0x238 DUP3 PUSH2 0x20F JUMP JUMPDEST SWAP1 POP SWAP2 SWAP1 POP JUMP JUMPDEST PUSH2 0x248 DUP2 PUSH2 0x22E JUMP JUMPDEST DUP2 EQ PUSH2 0x252 JUMPI PUSH0 PUSH0 REVERT JUMPDEST POP JUMP JUMPDEST PUSH0 DUP2 MLOAD SWAP1 POP PUSH2 0x263 DUP2 PUSH2 0x23F JUMP JUMPDEST SWAP3 SWAP2 POP POP JUMP JUMPDEST PUSH0 PUSH2 0x273 DUP3 PUSH2 0x22E JUMP JUMPDEST SWAP1 POP SWAP2 SWAP1 POP JUMP JUMPDEST PUSH2 0x283 DUP2 PUSH2 0x269 JUMP JUMPDEST DUP2 EQ PUSH2 0x28D JUMPI PUSH0 PUSH0 REVERT JUMPDEST POP JUMP JUMPDEST PUSH0 DUP2 MLOAD SWAP1 POP PUSH2 0x29E DUP2 PUSH2 0x27A JUMP JUMPDEST SWAP3 SWAP2 POP POP JUMP JUMPDEST PUSH0 PUSH0 REVERT JUMPDEST PUSH0 PUSH0 REVERT JUMPDEST PUSH0 PUSH1 0x1F NOT PUSH1 0x1F DUP4 ADD AND SWAP1 POP SWAP2 SWAP1 POP JUMP JUMPDEST PUSH32 0x4E487B7100000000000000000000000000000000000000000000000000000000 PUSH0 MSTORE PUSH1 0x41 PUSH1 0x4 MSTORE PUSH1 0x24 PUSH0 REVERT JUMPDEST PUSH2 0x2F2 DUP3 PUSH2 0x2AC JUMP JUMPDEST DUP2 ADD DUP2 DUP2 LT PUSH8 0xFFFFFFFFFFFFFFFF DUP3 GT OR ISZERO PUSH2 0x311 JUMPI PUSH2 0x310 PUSH2 0x2BC JUMP JUMPDEST JUMPDEST DUP1 PUSH1 0x40 MSTORE POP POP POP JUMP JUMPDEST PUSH0 PUSH2 0x323 PUSH2 0x1FE JUMP JUMPDEST SWAP1 POP PUSH2 0x32F DUP3 DUP3 PUSH2 0x2E9 JUMP JUMPDEST SWAP2 SWAP1 POP JUMP JUMPDEST PUSH0 PUSH8 0xFFFFFFFFFFFFFFFF DUP3 GT ISZERO PUSH2 0x34E JUMPI PUSH2 0x34D PUSH2 0x2BC JUMP JUMPDEST JUMPDEST PUSH2 0x357 DUP3 PUSH2 0x2AC JUMP JUMPDEST SWAP1 POP PUSH1 0x20 DUP2 ADD SWAP1 POP SWAP2 SWAP1 POP JUMP JUMPDEST DUP3 DUP2 DUP4 MCOPY PUSH0 DUP4 DUP4 ADD MSTORE POP POP POP JUMP JUMPDEST PUSH0 PUSH2 0x384 PUSH2 0x37F DUP5 PUSH2 0x334 JUMP JUMPDEST PUSH2 0x31A JUMP JUMPDEST SWAP1 POP DUP3 DUP2 MSTORE PUSH1 0x20 DUP2 ADD DUP5 DUP5 DUP5 ADD GT ISZERO PUSH2 0x3A0 JUMPI PUSH2 0x39F PUSH2 0x2A8 JUMP JUMPDEST JUMPDEST PUSH2 0x3AB DUP5 DUP3 DUP6 PUSH2 0x364 JUMP JUMPDEST POP SWAP4 SWAP3 POP POP POP JUMP JUMPDEST PUSH0 DUP3 PUSH1 0x1F DUP4 ADD SLT PUSH2 0x3C7 JUMPI PUSH2 0x3C6 PUSH2 0x2A4 JUMP JUMPDEST JUMPDEST DUP2 MLOAD PUSH2 0x3D7 DUP5 DUP3 PUSH1 0x20 DUP7 ADD PUSH2 0x372 JUMP JUMPDEST SWAP2 POP POP SWAP3 SWAP2 POP POP JUMP JUMPDEST PUSH0 PUSH8 0xFFFFFFFFFFFFFFFF DUP3 GT ISZERO PUSH2 0x3FA JUMPI PUSH2 0x3F9 PUSH2 0x2BC JUMP JUMPDEST JUMPDEST PUSH1 0x20 DUP3 MUL SWAP1 POP PUSH1 0x20 DUP2 ADD SWAP1 POP SWAP2 SWAP1 POP JUMP JUMPDEST PUSH0 PUSH0 REVERT JUMPDEST PUSH0 PUSH2 0x421 PUSH2 0x41C DUP5 PUSH2 0x3E0 JUMP JUMPDEST PUSH2 0x31A JUMP JUMPDEST SWAP1 POP DUP1 DUP4 DUP3 MSTORE PUSH1 0x20 DUP3 ADD SWAP1 POP PUSH1 0x20 DUP5 MUL DUP4 ADD DUP6 DUP2 GT ISZERO PUSH2 0x444 JUMPI PUSH2 0x443 PUSH2 0x40B JUMP JUMPDEST JUMPDEST DUP4 JUMPDEST DUP2 DUP2 LT ISZERO PUSH2 0x48B JUMPI DUP1 MLOAD PUSH8 0xFFFFFFFFFFFFFFFF DUP2 GT ISZERO PUSH2 0x469 JUMPI PUSH2 0x468 PUSH2 0x2A4 JUMP JUMPDEST JUMPDEST DUP1 DUP7 ADD PUSH2 0x476 DUP10 DUP3 PUSH2 0x3B3 JUMP JUMPDEST DUP6 MSTORE PUSH1 0x20 DUP6 ADD SWAP5 POP POP POP PUSH1 0x20 DUP2 ADD SWAP1 POP PUSH2 0x446 JUMP JUMPDEST POP POP POP SWAP4 SWAP3 POP POP POP JUMP JUMPDEST PUSH0 DUP3 PUSH1 0x1F DUP4 ADD SLT PUSH2 0x4A9 JUMPI PUSH2 0x4A8 PUSH2 0x2A4 JUMP JUMPDEST JUMPDEST DUP2 MLOAD PUSH2 0x4B9 DUP5 DUP3 PUSH1 0x20 DUP7 ADD PUSH2 0x40F JUMP JUMPDEST SWAP2 POP POP SWAP3 SWAP2 POP POP JUMP JUMPDEST PUSH0 PUSH0 PUSH0 PUSH0 PUSH0 PUSH1 0xA0 DUP7 DUP9 SUB SLT ISZERO PUSH2 0x4DB JUMPI PUSH2 0x4DA PUSH2 0x207 JUMP JUMPDEST JUMPDEST PUSH0 PUSH2 0x4E8 DUP9 DUP3 DUP10 ADD PUSH2 0x255 JUMP JUMPDEST SWAP6 POP POP PUSH1 0x20 PUSH2 0x4F9 DUP9 DUP3 DUP10 ADD PUSH2 0x290 JUMP JUMPDEST SWAP5 POP POP PUSH1 0x40 DUP7 ADD MLOAD PUSH8 0xFFFFFFFFFFFFFFFF DUP2 GT ISZERO PUSH2 0x51A JUMPI PUSH2 0x519 PUSH2 0x20B JUMP JUMPDEST JUMPDEST PUSH2 0x526 DUP9 DUP3 DUP10 ADD PUSH2 0x3B3 JUMP JUMPDEST SWAP4 POP POP PUSH1 0x60 DUP7 ADD MLOAD PUSH8 0xFFFFFFFFFFFFFFFF DUP2 GT ISZERO PUSH2 0x547 JUMPI PUSH2 0x546 PUSH2 0x20B JUMP JUMPDEST JUMPDEST PUSH2 0x553 DUP9 DUP3 DUP10 ADD PUSH2 0x3B3 JUMP JUMPDEST SWAP3 POP POP PUSH1 0x80 DUP7 ADD MLOAD PUSH8 0xFFFFFFFFFFFFFFFF DUP2 GT ISZERO PUSH2 0x574 JUMPI PUSH2 0x573 PUSH2 0x20B JUMP JUMPDEST JUMPDEST PUSH2 0x580 DUP9 DUP3 DUP10 ADD PUSH2 0x495 JUMP JUMPDEST SWAP2 POP POP SWAP3 SWAP6 POP SWAP3 SWAP6 SWAP1 SWAP4 POP JUMP JUMPDEST PUSH0 DUP2 MLOAD SWAP1 POP SWAP2 SWAP1 POP JUMP JUMPDEST PUSH32 0x4E487B7100000000000000000000000000000000000000000000000000000000 PUSH0 MSTORE PUSH1 0x22 PUSH1 0x4 MSTORE PUSH1 0x24 PUSH0 REVERT JUMPDEST PUSH0 PUSH1 0x2 DUP3 DIV SWAP1 POP PUSH1 0x1 DUP3 AND DUP1 PUSH2 0x5DB JUMPI PUSH1 0x7F DUP3 AND SWAP2 POP JUMPDEST PUSH1 0x20 DUP3 LT DUP2 SUB PUSH2 0x5EE JUMPI PUSH2 0x5ED PUSH2 0x597 JUMP JUMPDEST JUMPDEST POP SWAP2 SWAP1 POP JUMP JUMPDEST PUSH0 DUP2 SWAP1 POP DUP2 PUSH0 MSTORE PUSH1 0x20 PUSH0 KECCAK256 SWAP1 POP SWAP2 SWAP1 POP JUMP JUMPDEST PUSH0 PUSH1 0x20 PUSH1 0x1F DUP4 ADD DIV SWAP1 POP SWAP2 SWAP1 POP JUMP JUMPDEST PUSH0 DUP3 DUP3 SHL SWAP1 POP SWAP3 SWAP2 POP POP JUMP JUMPDEST PUSH0 PUSH1 0x8 DUP4 MUL PUSH2 0x650 PUSH32 0xFFFFFFFFFFFFFFFFFFFFFFFFFFFFFFFFFFFFFFFFFFFFFFFFFFFFFFFFFFFFFFFF DUP3 PUSH2 0x615 JUMP JUMPDEST PUSH2 0x65A DUP7 DUP4 PUSH2 0x615 JUMP JUMPDEST SWAP6 POP DUP1 NOT DUP5 AND SWAP4 POP DUP1 DUP7 AND DUP5 OR SWAP3 POP POP POP SWAP4 SWAP3 POP POP POP JUMP JUMPDEST PUSH0 DUP2 SWAP1 POP SWAP2 SWAP1 POP JUMP JUMPDEST PUSH0 DUP2 SWAP1 POP SWAP2 SWAP1 POP JUMP JUMPDEST PUSH0 PUSH2 0x69E PUSH2 0x699 PUSH2 0x694 DUP5 PUSH2 0x672 JUMP JUMPDEST PUSH2 0x67B JUMP JUMPDEST PUSH2 0x672 JUMP JUMPDEST SWAP1 POP SWAP2 SWAP1 POP JUMP JUMPDEST PUSH0 DUP2 SWAP1 POP SWAP2 SWAP1 POP JUMP JUMPDEST PUSH2 0x6B7 DUP4 PUSH2 0x684 JUMP JUMPDEST PUSH2 0x6CB PUSH2 0x6C3 DUP3 PUSH2 0x6A5 JUMP JUMPDEST DUP5 DUP5 SLOAD PUSH2 0x621 JUMP JUMPDEST DUP3 SSTORE POP POP POP POP JUMP JUMPDEST PUSH0 PUSH0 SWAP1 POP SWAP1 JUMP JUMPDEST PUSH2 0x6E2 PUSH2 0x6D3 JUMP JUMPDEST PUSH2 0x6ED DUP2 DUP5 DUP5 PUSH2 0x6AE JUMP JUMPDEST POP POP POP JUMP JUMPDEST JUMPDEST DUP2 DUP2 LT ISZERO PUSH2 0x710 JUMPI PUSH2 0x705 PUSH0 DUP3 PUSH2 0x6DA JUMP JUMPDEST PUSH1 0x1 DUP2 ADD SWAP1 POP PUSH2 0x6F3 JUMP JUMPDEST POP POP JUMP JUMPDEST PUSH1 0x1F DUP3 GT ISZERO PUSH2 0x755 JUMPI PUSH2 0x726 DUP2 PUSH2 0x5F4 JUMP JUMPDEST PUSH2 0x72F DUP5 PUSH2 0x606 JUMP JUMPDEST DUP2 ADD PUSH1 0x20 DUP6 LT ISZERO PUSH2 0x73E JUMPI DUP2 SWAP1 POP JUMPDEST PUSH2 0x752 PUSH2 0x74A DUP6 PUSH2 0x606 JUMP JUMPDEST DUP4 ADD DUP3 PUSH2 0x6F2 JUMP JUMPDEST POP POP JUMPDEST POP POP POP JUMP JUMPDEST PUSH0 DUP3 DUP3 SHR SWAP1 POP SWAP3 SWAP2 POP POP JUMP JUMPDEST PUSH0 PUSH2 0x775 PUSH0 NOT DUP5 PUSH1 0x8 MUL PUSH2 0x75A JUMP JUMPDEST NOT DUP1 DUP4 AND SWAP2 POP POP SWAP3 SWAP2 POP POP JUMP JUMPDEST PUSH0 PUSH2 0x78D DUP4 DUP4 PUSH2 0x766 JUMP JUMPDEST SWAP2 POP DUP3 PUSH1 0x2 MUL DUP3 OR SWAP1 POP SWAP3 SWAP2 POP POP JUMP JUMPDEST PUSH2 0x7A6 DUP3 PUSH2 0x58D JUMP JUMPDEST PUSH8 0xFFFFFFFFFFFFFFFF DUP2 GT ISZERO PUSH2 0x7BF JUMPI PUSH2 0x7BE PUSH2 0x2BC JUMP JUMPDEST JUMPDEST PUSH2 0x7C9 DUP3 SLOAD PUSH2 0x5C4 JUMP JUMPDEST PUSH2 0x7D4 DUP3 DUP3 DUP6 PUSH2 0x714 JUMP JUMPDEST PUSH0 PUSH1 0x20 SWAP1 POP PUSH1 0x1F DUP4 GT PUSH1 0x1 DUP2 EQ PUSH2 0x805 JUMPI PUSH0 DUP5 ISZERO PUSH2 0x7F3 JUMPI DUP3 DUP8 ADD MLOAD SWAP1 POP JUMPDEST PUSH2 0x7FD DUP6 DUP3 PUSH2 0x782 JUMP JUMPDEST DUP7 SSTORE POP PUSH2 0x864 JUMP JUMPDEST PUSH1 0x1F NOT DUP5 AND PUSH2 0x813 DUP7 PUSH2 0x5F4 JUMP JUMPDEST PUSH0 JUMPDEST DUP3 DUP2 LT ISZERO PUSH2 0x83A JUMPI DUP5 DUP10 ADD MLOAD DUP3 SSTORE PUSH1 0x1 DUP3 ADD SWAP2 POP PUSH1 0x20 DUP6 ADD SWAP5 POP PUSH1 0x20 DUP2 ADD SWAP1 POP PUSH2 0x815 JUMP JUMPDEST DUP7 DUP4 LT ISZERO PUSH2 0x857 JUMPI DUP5 DUP10 ADD MLOAD PUSH2 0x853 PUSH1 0x1F DUP10 AND DUP3 PUSH2 0x766 JUMP JUMPDEST DUP4 SSTORE POP JUMPDEST PUSH1 0x1 PUSH1 0x2 DUP9 MUL ADD DUP9 SSTORE POP POP POP JUMPDEST POP POP POP POP POP POP JUMP JUMPDEST PUSH32 0x4E487B7100000000000000000000000000000000000000000000000000000000 PUSH0 MSTORE PUSH1 0x32 PUSH1 0x4 MSTORE PUSH1 0x24 PUSH0 REVERT JUMPDEST PUSH0 DUP2 PUSH1 0x60 SHL SWAP1 POP SWAP2 SWAP1 POP JUMP JUMPDEST PUSH0 PUSH2 0x8AF DUP3 PUSH2 0x899 JUMP JUMPDEST SWAP1 POP SWAP2 SWAP1 POP JUMP JUMPDEST PUSH0 PUSH2 0x8C0 DUP3 PUSH2 0x8A5 JUMP JUMPDEST SWAP1 POP SWAP2 SWAP1 POP JUMP JUMPDEST PUSH2 0x8D8 PUSH2 0x8D3 DUP3 PUSH2 0x22E JUMP JUMPDEST PUSH2 0x8B6 JUMP JUMPDEST DUP3 MSTORE POP POP JUMP JUMPDEST PUSH0 DUP2 SWAP1 POP SWAP2 SWAP1 POP JUMP JUMPDEST PUSH2 0x8F8 PUSH2 0x8F3 DUP3 PUSH2 0x672 JUMP JUMPDEST PUSH2 0x8DE JUMP JUMPDEST DUP3 MSTORE POP POP JUMP JUMPDEST PUSH0 DUP2 SWAP1 POP SWAP3 SWAP2 POP POP JUMP JUMPDEST PUSH0 PUSH2 0x912 DUP3 PUSH2 0x58D JUMP JUMPDEST PUSH2 0x91C DUP2 DUP6 PUSH2 0x8FE JUMP JUMPDEST SWAP4 POP PUSH2 0x92C DUP2 DUP6 PUSH1 0x20 DUP7 ADD PUSH2 0x364 JUMP JUMPDEST DUP1 DUP5 ADD SWAP2 POP POP SWAP3 SWAP2 POP POP JUMP JUMPDEST PUSH0 PUSH2 0x943 DUP3 DUP7 PUSH2 0x8C7 JUMP JUMPDEST PUSH1 0x14 DUP3 ADD SWAP2 POP PUSH2 0x953 DUP3 DUP6 PUSH2 0x8E7 JUMP JUMPDEST PUSH1 0x20 DUP3 ADD SWAP2 POP PUSH2 0x963 DUP3 DUP5 PUSH2 0x908 JUMP JUMPDEST SWAP2 POP DUP2 SWAP1 POP SWAP5 SWAP4 POP POP POP POP JUMP JUMPDEST PUSH32 0x4E487B7100000000000000000000000000000000000000000000000000000000 PUSH0 MSTORE PUSH1 0x21 PUSH1 0x4 MSTORE PUSH1 0x24 PUSH0 REVERT JUMPDEST PUSH1 0x4 DUP2 LT PUSH2 0x9AE JUMPI PUSH2 0x9AD PUSH2 0x970 JUMP JUMPDEST JUMPDEST POP JUMP JUMPDEST PUSH0 DUP2 SWAP1 POP PUSH2 0x9BE DUP3 PUSH2 0x99D JUMP JUMPDEST SWAP2 SWAP1 POP JUMP JUMPDEST PUSH0 PUSH2 0x9CD DUP3 PUSH2 0x9B1 JUMP JUMPDEST SWAP1 POP SWAP2 SWAP1 POP JUMP JUMPDEST PUSH2 0x9DD DUP2 PUSH2 0x9C3 JUMP JUMPDEST DUP3 MSTORE POP POP JUMP JUMPDEST PUSH0 PUSH1 0x20 DUP3 ADD SWAP1 POP PUSH2 0x9F6 PUSH0 DUP4 ADD DUP5 PUSH2 0x9D4 JUMP JUMPDEST SWAP3 SWAP2 POP POP JUMP JUMPDEST PUSH1 0x80 MLOAD PUSH1 0xA0 MLOAD PUSH2 0x278E PUSH2 0xA40 PUSH0 CODECOPY PUSH0 DUP2 DUP2 PUSH2 0x4A7 ADD MSTORE DUP2 DUP2 PUSH2 0x5D8 ADD MSTORE PUSH2 0xE4B ADD MSTORE PUSH0 DUP2 DUP2 PUSH2 0x115F ADD MSTORE DUP2 DUP2 PUSH2 0x1231 ADD MSTORE DUP2 DUP2 PUSH2 0x12D2 ADD MSTORE PUSH2 0x16D6 ADD MSTORE PUSH2 0x278E PUSH0 RETURN INVALID PUSH1 0x80 PUSH1 0x40 MSTORE CALLVALUE DUP1 ISZERO PUSH2 0xF JUMPI PUSH0 PUSH0 REVERT JUMPDEST POP PUSH1 0x4 CALLDATASIZE LT PUSH2 0x156 JUMPI PUSH0 CALLDATALOAD PUSH1 0xE0 SHR DUP1 PUSH4 0x907A8585 GT PUSH2 0xC1 JUMPI DUP1 PUSH4 0xCC2EE196 GT PUSH2 0x7A JUMPI DUP1 PUSH4 0xCC2EE196 EQ PUSH2 0x3CE JUMPI DUP1 PUSH4 0xCDD72253 EQ PUSH2 0x3EC JUMPI DUP1 PUSH4 0xDA58C7D9 EQ PUSH2 0x40A JUMPI DUP1 PUSH4 0xE3CE094D EQ PUSH2 0x43A JUMPI DUP1 PUSH4 0xF6E22EB5 EQ PUSH2 0x456 JUMPI DUP1 PUSH4 0xF887EA40 EQ PUSH2 0x486 JUMPI PUSH2 0x156 JUMP JUMPDEST DUP1 PUSH4 0x907A8585 EQ PUSH2 0x30A JUMPI DUP1 PUSH4 0x98C07938 EQ PUSH2 0x33A JUMPI DUP1 PUSH4 0xB1C9FE6E EQ PUSH2 0x358 JUMPI DUP1 PUSH4 0xB3F05B97 EQ PUSH2 0x376 JUMPI DUP1 PUSH4 0xBBD78E93 EQ PUSH2 0x394 JUMPI DUP1 PUSH4 0xC03AFB59 EQ PUSH2 0x3B2 JUMPI PUSH2 0x156 JUMP JUMPDEST DUP1 PUSH4 0x4ABD18AB GT PUSH2 0x113 JUMPI DUP1 PUSH4 0x4ABD18AB EQ PUSH2 0x234 JUMPI DUP1 PUSH4 0x4C261247 EQ PUSH2 0x252 JUMPI DUP1 PUSH4 0x6A42A642 EQ PUSH2 0x26E JUMPI DUP1 PUSH4 0x826A5D56 EQ PUSH2 0x29E JUMPI DUP1 PUSH4 0x8F9F07DB EQ PUSH2 0x2BC JUMPI DUP1 PUSH4 0x903AC41D EQ PUSH2 0x2EC JUMPI PUSH2 0x156 JUMP JUMPDEST DUP1 PUSH4 0x2672F526 EQ PUSH2 0x15A JUMPI DUP1 PUSH4 0x27CF3844 EQ PUSH2 0x178 JUMPI DUP1 PUSH4 0x39A926C4 EQ PUSH2 0x1AC JUMPI DUP1 PUSH4 0x409E2205 EQ PUSH2 0x1DC JUMPI DUP1 PUSH4 0x43D726D6 EQ PUSH2 0x20C JUMPI DUP1 PUSH4 0x4A79D50C EQ PUSH2 0x216 JUMPI JUMPDEST PUSH0 PUSH0 REVERT JUMPDEST PUSH2 0x162 PUSH2 0x4A4 JUMP JUMPDEST PUSH1 0x40 MLOAD PUSH2 0x16F SWAP2 SWAP1 PUSH2 0x17F8 JUMP JUMPDEST PUSH1 0x40 MLOAD DUP1 SWAP2 SUB SWAP1 RETURN JUMPDEST PUSH2 0x192 PUSH1 0x4 DUP1 CALLDATASIZE SUB DUP2 ADD SWAP1 PUSH2 0x18D SWAP2 SWAP1 PUSH2 0x1843 JUMP JUMPDEST PUSH2 0x4CB JUMP JUMPDEST PUSH1 0x40 MLOAD PUSH2 0x1A3 SWAP6 SWAP5 SWAP4 SWAP3 SWAP2 SWAP1 PUSH2 0x1910 JUMP JUMPDEST PUSH1 0x40 MLOAD DUP1 SWAP2 SUB SWAP1 RETURN JUMPDEST PUSH2 0x1C6 PUSH1 0x4 DUP1 CALLDATASIZE SUB DUP2 ADD SWAP1 PUSH2 0x1C1 SWAP2 SWAP1 PUSH2 0x1992 JUMP JUMPDEST PUSH2 0x59C JUMP JUMPDEST PUSH1 0x40 MLOAD PUSH2 0x1D3 SWAP2 SWAP1 PUSH2 0x19D5 JUMP JUMPDEST PUSH1 0x40 MLOAD DUP1 SWAP2 SUB SWAP1 RETURN JUMPDEST PUSH2 0x1F6 PUSH1 0x4 DUP1 CALLDATASIZE SUB DUP2 ADD SWAP1 PUSH2 0x1F1 SWAP2 SWAP1 PUSH2 0x1A18 JUMP JUMPDEST PUSH2 0x5B6 JUMP JUMPDEST PUSH1 0x40 MLOAD PUSH2 0x203 SWAP2 SWAP1 PUSH2 0x1A43 JUMP JUMPDEST PUSH1 0x40 MLOAD DUP1 SWAP2 SUB SWAP1 RETURN JUMPDEST PUSH2 0x214 PUSH2 0x5D6 JUMP JUMPDEST STOP JUMPDEST PUSH2 0x21E PUSH2 0x8C1 JUMP JUMPDEST PUSH1 0x40 MLOAD PUSH2 0x22B SWAP2 SWAP1 PUSH2 0x1A5C JUMP JUMPDEST PUSH1 0x40 MLOAD DUP1 SWAP2 SUB SWAP1 RETURN JUMPDEST PUSH2 0x23C PUSH2 0x94C JUMP JUMPDEST PUSH1 0x40 MLOAD PUSH2 0x249 SWAP2 SWAP1 PUSH2 0x1B7F JUMP JUMPDEST PUSH1 0x40 MLOAD DUP1 SWAP2 SUB SWAP1 RETURN JUMPDEST PUSH2 0x26C PUSH1 0x4 DUP1 CALLDATASIZE SUB DUP2 ADD SWAP1 PUSH2 0x267 SWAP2 SWAP1 PUSH2 0x1C00 JUMP JUMPDEST PUSH2 0xA20 JUMP JUMPDEST STOP JUMPDEST PUSH2 0x288 PUSH1 0x4 DUP1 CALLDATASIZE SUB DUP2 ADD SWAP1 PUSH2 0x283 SWAP2 SWAP1 PUSH2 0x1843 JUMP JUMPDEST PUSH2 0xD25 JUMP JUMPDEST PUSH1 0x40 MLOAD PUSH2 0x295 SWAP2 SWAP1 PUSH2 0x1C69 JUMP JUMPDEST PUSH1 0x40 MLOAD DUP1 SWAP2 SUB SWAP1 RETURN JUMPDEST PUSH2 0x2A6 PUSH2 0xD45 JUMP JUMPDEST PUSH1 0x40 MLOAD PUSH2 0x2B3 SWAP2 SWAP1 PUSH2 0x1A5C JUMP JUMPDEST PUSH1 0x40 MLOAD DUP1 SWAP2 SUB SWAP1 RETURN JUMPDEST PUSH2 0x2D6 PUSH1 0x4 DUP1 CALLDATASIZE SUB DUP2 ADD SWAP1 PUSH2 0x2D1 SWAP2 SWAP1 PUSH2 0x1C82 JUMP JUMPDEST PUSH2 0xDD1 JUMP JUMPDEST PUSH1 0x40 MLOAD PUSH2 0x2E3 SWAP2 SWAP1 PUSH2 0x1CC0 JUMP JUMPDEST PUSH1 0x40 MLOAD DUP1 SWAP2 SUB SWAP1 RETURN JUMPDEST PUSH2 0x2F4 PUSH2 0xDFB JUMP JUMPDEST PUSH1 0x40 MLOAD PUSH2 0x301 SWAP2 SWAP1 PUSH2 0x19D5 JUMP JUMPDEST PUSH1 0x40 MLOAD DUP1 SWAP2 SUB SWAP1 RETURN JUMPDEST PUSH2 0x324 PUSH1 0x4 DUP1 CALLDATASIZE SUB DUP2 ADD SWAP1 PUSH2 0x31F SWAP2 SWAP1 PUSH2 0x1992 JUMP JUMPDEST PUSH2 0xE01 JUMP JUMPDEST PUSH1 0x40 MLOAD PUSH2 0x331 SWAP2 SWAP1 PUSH2 0x1CC0 JUMP JUMPDEST PUSH1 0x40 MLOAD DUP1 SWAP2 SUB SWAP1 RETURN JUMPDEST PUSH2 0x342 PUSH2 0xE12 JUMP JUMPDEST PUSH1 0x40 MLOAD PUSH2 0x34F SWAP2 SWAP1 PUSH2 0x19D5 JUMP JUMPDEST PUSH1 0x40 MLOAD DUP1 SWAP2 SUB SWAP1 RETURN JUMPDEST PUSH2 0x360 PUSH2 0xE1E JUMP JUMPDEST PUSH1 0x40 MLOAD PUSH2 0x36D SWAP2 SWAP1 PUSH2 0x1D4C JUMP JUMPDEST PUSH1 0x40 MLOAD DUP1 SWAP2 SUB SWAP1 RETURN JUMPDEST PUSH2 0x37E PUSH2 0xE30 JUMP JUMPDEST PUSH1 0x40 MLOAD PUSH2 0x38B SWAP2 SWAP1 PUSH2 0x1CC0 JUMP JUMPDEST PUSH1 0x40 MLOAD DUP1 SWAP2 SUB SWAP1 RETURN JUMPDEST PUSH2 0x39C PUSH2 0xE43 JUMP JUMPDEST PUSH1 0x40 MLOAD PUSH2 0x3A9 SWAP2 SWAP1 PUSH2 0x19D5 JUMP JUMPDEST PUSH1 0x40 MLOAD DUP1 SWAP2 SUB SWAP1 RETURN JUMPDEST PUSH2 0x3CC PUSH1 0x4 DUP1 CALLDATASIZE SUB DUP2 ADD SWAP1 PUSH2 0x3C7 SWAP2 SWAP1 PUSH2 0x1D88 JUMP JUMPDEST PUSH2 0xE49 JUMP JUMPDEST STOP JUMPDEST PUSH2 0x3D6 PUSH2 0xFD5 JUMP JUMPDEST PUSH1 0x40 MLOAD PUSH2 0x3E3 SWAP2 SWAP1 PUSH2 0x1E6A JUMP JUMPDEST PUSH1 0x40 MLOAD DUP1 SWAP2 SUB SWAP1 RETURN JUMPDEST PUSH2 0x3F4 PUSH2 0x102B JUMP JUMPDEST PUSH1 0x40 MLOAD PUSH2 0x401 SWAP2 SWAP1 PUSH2 0x1F41 JUMP JUMPDEST PUSH1 0x40 MLOAD DUP1 SWAP2 SUB SWAP1 RETURN JUMPDEST PUSH2 0x424 PUSH1 0x4 DUP1 CALLDATASIZE SUB DUP2 ADD SWAP1 PUSH2 0x41F SWAP2 SWAP1 PUSH2 0x1A18 JUMP JUMPDEST PUSH2 0x10B6 JUMP JUMPDEST PUSH1 0x40 MLOAD PUSH2 0x431 SWAP2 SWAP1 PUSH2 0x17F8 JUMP JUMPDEST PUSH1 0x40 MLOAD DUP1 SWAP2 SUB SWAP1 RETURN JUMPDEST PUSH2 0x454 PUSH1 0x4 DUP1 CALLDATASIZE SUB DUP2 ADD SWAP1 PUSH2 0x44F SWAP2 SWAP1 PUSH2 0x1F61 JUMP JUMPDEST PUSH2 0x10F1 JUMP JUMPDEST STOP JUMPDEST PUSH2 0x470 PUSH1 0x4 DUP1 CALLDATASIZE SUB DUP2 ADD SWAP1 PUSH2 0x46B SWAP2 SWAP1 PUSH2 0x1992 JUMP JUMPDEST PUSH2 0x16BF JUMP JUMPDEST PUSH1 0x40 MLOAD PUSH2 0x47D SWAP2 SWAP1 PUSH2 0x19D5 JUMP JUMPDEST PUSH1 0x40 MLOAD DUP1 SWAP2 SUB SWAP1 RETURN JUMPDEST PUSH2 0x48E PUSH2 0x16D4 JUMP JUMPDEST PUSH1 0x40 MLOAD PUSH2 0x49B SWAP2 SWAP1 PUSH2 0x1FFA JUMP JUMPDEST PUSH1 0x40 MLOAD DUP1 SWAP2 SUB SWAP1 RETURN JUMPDEST PUSH0 PUSH32 0x0 SWAP1 POP SWAP1 JUMP JUMPDEST PUSH1 0x6 PUSH1 0x20 MSTORE DUP1 PUSH0 MSTORE PUSH1 0x40 PUSH0 KECCAK256 PUSH0 SWAP2 POP SWAP1 POP DUP1 PUSH0 ADD SLOAD SWAP1 DUP1 PUSH1 0x1 ADD PUSH0 SWAP1 SLOAD SWAP1 PUSH2 0x100 EXP SWAP1 DIV PUSH1 0xFF AND SWAP1 DUP1 PUSH1 0x1 ADD PUSH1 0x1 SWAP1 SLOAD SWAP1 PUSH2 0x100 EXP SWAP1 DIV PUSH1 0xFF AND SWAP1 DUP1 PUSH1 0x2 ADD SLOAD SWAP1 DUP1 PUSH1 0x3 ADD DUP1 SLOAD PUSH2 0x51B SWAP1 PUSH2 0x2040 JUMP JUMPDEST DUP1 PUSH1 0x1F ADD PUSH1 0x20 DUP1 SWAP2 DIV MUL PUSH1 0x20 ADD PUSH1 0x40 MLOAD SWAP1 DUP2 ADD PUSH1 0x40 MSTORE DUP1 SWAP3 SWAP2 SWAP1 DUP2 DUP2 MSTORE PUSH1 0x20 ADD DUP3 DUP1 SLOAD PUSH2 0x547 SWAP1 PUSH2 0x2040 JUMP JUMPDEST DUP1 ISZERO PUSH2 0x592 JUMPI DUP1 PUSH1 0x1F LT PUSH2 0x569 JUMPI PUSH2 0x100 DUP1 DUP4 SLOAD DIV MUL DUP4 MSTORE SWAP2 PUSH1 0x20 ADD SWAP2 PUSH2 0x592 JUMP JUMPDEST DUP3 ADD SWAP2 SWAP1 PUSH0 MSTORE PUSH1 0x20 PUSH0 KECCAK256 SWAP1 JUMPDEST DUP2 SLOAD DUP2 MSTORE SWAP1 PUSH1 0x1 ADD SWAP1 PUSH1 0x20 ADD DUP1 DUP4 GT PUSH2 0x575 JUMPI DUP3 SWAP1 SUB PUSH1 0x1F AND DUP3 ADD SWAP2 JUMPDEST POP POP POP POP POP SWAP1 POP DUP6 JUMP JUMPDEST PUSH0 PUSH1 0x5 PUSH0 DUP4 DUP2 MSTORE PUSH1 0x20 ADD SWAP1 DUP2 MSTORE PUSH1 0x20 ADD PUSH0 KECCAK256 SLOAD SWAP1 POP SWAP2 SWAP1 POP JUMP JUMPDEST PUSH1 0x3 DUP2 DUP2 SLOAD DUP2 LT PUSH2 0x5C5 JUMPI PUSH0 DUP1 REVERT JUMPDEST SWAP1 PUSH0 MSTORE PUSH1 0x20 PUSH0 KECCAK256 ADD PUSH0 SWAP2 POP SWAP1 POP SLOAD DUP2 JUMP JUMPDEST PUSH32 0x0 PUSH20 0xFFFFFFFFFFFFFFFFFFFFFFFFFFFFFFFFFFFFFFFF AND CALLER PUSH20 0xFFFFFFFFFFFFFFFFFFFFFFFFFFFFFFFFFFFFFFFF AND EQ PUSH2 0x65B JUMPI PUSH1 0x40 MLOAD PUSH32 0x1CCC6F2700000000000000000000000000000000000000000000000000000000 DUP2 MSTORE PUSH1 0x4 ADD PUSH1 0x40 MLOAD DUP1 SWAP2 SUB SWAP1 REVERT JUMPDEST PUSH1 0x2 PUSH1 0x3 DUP2 GT ISZERO PUSH2 0x66F JUMPI PUSH2 0x66E PUSH2 0x1CD9 JUMP JUMPDEST JUMPDEST PUSH1 0x2 PUSH0 SWAP1 SLOAD SWAP1 PUSH2 0x100 EXP SWAP1 DIV PUSH1 0xFF AND PUSH1 0x3 DUP2 GT ISZERO PUSH2 0x690 JUMPI PUSH2 0x68F PUSH2 0x1CD9 JUMP JUMPDEST JUMPDEST EQ PUSH2 0x6C7 JUMPI PUSH1 0x40 MLOAD PUSH32 0xFAE776D700000000000000000000000000000000000000000000000000000000 DUP2 MSTORE PUSH1 0x4 ADD PUSH1 0x40 MLOAD DUP1 SWAP2 SUB SWAP1 REVERT JUMPDEST PUSH1 0x2 PUSH1 0x1 SWAP1 SLOAD SWAP1 PUSH2 0x100 EXP SWAP1 DIV PUSH1 0xFF AND ISZERO PUSH2 0x70E JUMPI PUSH1 0x40 MLOAD PUSH32 0x475A253500000000000000000000000000000000000000000000000000000000 DUP2 MSTORE PUSH1 0x4 ADD PUSH1 0x40 MLOAD DUP1 SWAP2 SUB SWAP1 REVERT JUMPDEST PUSH0 PUSH0 JUMPDEST PUSH1 0x9 DUP1 SLOAD SWAP1 POP DUP2 LT ISZERO PUSH2 0x7FA JUMPI PUSH0 PUSH1 0x6 PUSH0 PUSH1 0x9 DUP5 DUP2 SLOAD DUP2 LT PUSH2 0x736 JUMPI PUSH2 0x735 PUSH2 0x2070 JUMP JUMPDEST JUMPDEST SWAP1 PUSH0 MSTORE PUSH1 0x20 PUSH0 KECCAK256 ADD PUSH0 SWAP1 SLOAD SWAP1 PUSH2 0x100 EXP SWAP1 DIV PUSH20 0xFFFFFFFFFFFFFFFFFFFFFFFFFFFFFFFFFFFFFFFF AND PUSH20 0xFFFFFFFFFFFFFFFFFFFFFFFFFFFFFFFFFFFFFFFF AND PUSH20 0xFFFFFFFFFFFFFFFFFFFFFFFFFFFFFFFFFFFFFFFF AND DUP2 MSTORE PUSH1 0x20 ADD SWAP1 DUP2 MSTORE PUSH1 0x20 ADD PUSH0 KECCAK256 SWAP1 POP DUP1 PUSH1 0x1 ADD PUSH1 0x1 SWAP1 SLOAD SWAP1 PUSH2 0x100 EXP SWAP1 DIV PUSH1 0xFF AND PUSH2 0x7B5 JUMPI POP PUSH2 0x7EF JUMP JUMPDEST PUSH1 0x1 PUSH1 0x5 PUSH0 DUP4 PUSH1 0x2 ADD SLOAD DUP2 MSTORE PUSH1 0x20 ADD SWAP1 DUP2 MSTORE PUSH1 0x20 ADD PUSH0 KECCAK256 PUSH0 DUP3 DUP3 SLOAD PUSH2 0x7DA SWAP2 SWAP1 PUSH2 0x20CA JUMP JUMPDEST SWAP3 POP POP DUP2 SWAP1 SSTORE POP DUP3 PUSH2 0x7EB SWAP1 PUSH2 0x20FD JUMP JUMPDEST SWAP3 POP POP JUMPDEST DUP1 PUSH1 0x1 ADD SWAP1 POP PUSH2 0x711 JUMP JUMPDEST POP PUSH1 0x1 PUSH1 0x2 PUSH1 0x1 PUSH2 0x100 EXP DUP2 SLOAD DUP2 PUSH1 0xFF MUL NOT AND SWAP1 DUP4 ISZERO ISZERO MUL OR SWAP1 SSTORE POP PUSH1 0x3 PUSH1 0x2 PUSH0 PUSH2 0x100 EXP DUP2 SLOAD DUP2 PUSH1 0xFF MUL NOT AND SWAP1 DUP4 PUSH1 0x3 DUP2 GT ISZERO PUSH2 0x83B JUMPI PUSH2 0x83A PUSH2 0x1CD9 JUMP JUMPDEST JUMPDEST MUL OR SWAP1 SSTORE POP PUSH32 0xA6DCC92F45DF25789D5639B7A0C97BA1EDF3BB1C0B5DD3376FD96A0DB87C4642 PUSH1 0x3 PUSH1 0x40 MLOAD PUSH2 0x870 SWAP2 SWAP1 PUSH2 0x1D4C JUMP JUMPDEST PUSH1 0x40 MLOAD DUP1 SWAP2 SUB SWAP1 LOG1 PUSH32 0xB968440ACCD1CE5FA60B00DE8BB8D8487EB2FDA3C3701FB30FEA3F69AA910A48 DUP2 DUP3 PUSH1 0xA SLOAD PUSH2 0x8A8 SWAP2 SWAP1 PUSH2 0x2144 JUMP JUMPDEST PUSH1 0x40 MLOAD PUSH2 0x8B6 SWAP3 SWAP2 SWAP1 PUSH2 0x2177 JUMP JUMPDEST PUSH1 0x40 MLOAD DUP1 SWAP2 SUB SWAP1 LOG1 POP JUMP JUMPDEST PUSH0 DUP1 SLOAD PUSH2 0x8CD SWAP1 PUSH2 0x2040 JUMP JUMPDEST DUP1 PUSH1 0x1F ADD PUSH1 0x20 DUP1 SWAP2 DIV MUL PUSH1 0x20 ADD PUSH1 0x40 MLOAD SWAP1 DUP2 ADD PUSH1 0x40 MSTORE DUP1 SWAP3 SWAP2 SWAP1 DUP2 DUP2 MSTORE PUSH1 0x20 ADD DUP3 DUP1 SLOAD PUSH2 0x8F9 SWAP1 PUSH2 0x2040 JUMP JUMPDEST DUP1 ISZERO PUSH2 0x944 JUMPI DUP1 PUSH1 0x1F LT PUSH2 0x91B JUMPI PUSH2 0x100 DUP1 DUP4 SLOAD DIV MUL DUP4 MSTORE SWAP2 PUSH1 0x20 ADD SWAP2 PUSH2 0x944 JUMP JUMPDEST DUP3 ADD SWAP2 SWAP1 PUSH0 MSTORE PUSH1 0x20 PUSH0 KECCAK256 SWAP1 JUMPDEST DUP2 SLOAD DUP2 MSTORE SWAP1 PUSH1 0x1 ADD SWAP1 PUSH1 0x20 ADD DUP1 DUP4 GT PUSH2 0x927 JUMPI DUP3 SWAP1 SUB PUSH1 0x1F AND DUP3 ADD SWAP2 JUMPDEST POP POP POP POP POP DUP2 JUMP JUMPDEST PUSH1 0x60 PUSH1 0x4 DUP1 SLOAD DUP1 PUSH1 0x20 MUL PUSH1 0x20 ADD PUSH1 0x40 MLOAD SWAP1 DUP2 ADD PUSH1 0x40 MSTORE DUP1 SWAP3 SWAP2 SWAP1 DUP2 DUP2 MSTORE PUSH1 0x20 ADD PUSH0 SWAP1 JUMPDEST DUP3 DUP3 LT ISZERO PUSH2 0xA17 JUMPI DUP4 DUP3 SWAP1 PUSH0 MSTORE PUSH1 0x20 PUSH0 KECCAK256 ADD DUP1 SLOAD PUSH2 0x98C SWAP1 PUSH2 0x2040 JUMP JUMPDEST DUP1 PUSH1 0x1F ADD PUSH1 0x20 DUP1 SWAP2 DIV MUL PUSH1 0x20 ADD PUSH1 0x40 MLOAD SWAP1 DUP2 ADD PUSH1 0x40 MSTORE DUP1 SWAP3 SWAP2 SWAP1 DUP2 DUP2 MSTORE PUSH1 0x20 ADD DUP3 DUP1 SLOAD PUSH2 0x9B8 SWAP1 PUSH2 0x2040 JUMP JUMPDEST DUP1 ISZERO PUSH2 0xA03 JUMPI DUP1 PUSH1 0x1F LT PUSH2 0x9DA JUMPI PUSH2 0x100 DUP1 DUP4 SLOAD DIV MUL DUP4 MSTORE SWAP2 PUSH1 0x20 ADD SWAP2 PUSH2 0xA03 JUMP JUMPDEST DUP3 ADD SWAP2 SWAP1 PUSH0 MSTORE PUSH1 0x20 PUSH0 KECCAK256 SWAP1 JUMPDEST DUP2 SLOAD DUP2 MSTORE SWAP1 PUSH1 0x1 ADD SWAP1 PUSH1 0x20 ADD DUP1 DUP4 GT PUSH2 0x9E6 JUMPI DUP3 SWAP1 SUB PUSH1 0x1F AND DUP3 ADD SWAP2 JUMPDEST POP POP POP POP POP DUP2 MSTORE PUSH1 0x20 ADD SWAP1 PUSH1 0x1 ADD SWAP1 PUSH2 0x96F JUMP JUMPDEST POP POP POP POP SWAP1 POP SWAP1 JUMP JUMPDEST PUSH1 0x2 PUSH1 0x3 DUP2 GT ISZERO PUSH2 0xA34 JUMPI PUSH2 0xA33 PUSH2 0x1CD9 JUMP JUMPDEST JUMPDEST PUSH1 0x2 PUSH0 SWAP1 SLOAD SWAP1 PUSH2 0x100 EXP SWAP1 DIV PUSH1 0xFF AND PUSH1 0x3 DUP2 GT ISZERO PUSH2 0xA55 JUMPI PUSH2 0xA54 PUSH2 0x1CD9 JUMP JUMPDEST JUMPDEST EQ PUSH2 0xA8C JUMPI PUSH1 0x40 MLOAD PUSH32 0xD896054600000000000000000000000000000000000000000000000000000000 DUP2 MSTORE PUSH1 0x4 ADD PUSH1 0x40 MLOAD DUP1 SWAP2 SUB SWAP1 REVERT JUMPDEST PUSH0 PUSH1 0x6 PUSH0 CALLER PUSH20 0xFFFFFFFFFFFFFFFFFFFFFFFFFFFFFFFFFFFFFFFF AND PUSH20 0xFFFFFFFFFFFFFFFFFFFFFFFFFFFFFFFFFFFFFFFF AND DUP2 MSTORE PUSH1 0x20 ADD SWAP1 DUP2 MSTORE PUSH1 0x20 ADD PUSH0 KECCAK256 SWAP1 POP DUP1 PUSH1 0x1 ADD PUSH0 SWAP1 SLOAD SWAP1 PUSH2 0x100 EXP SWAP1 DIV PUSH1 0xFF AND PUSH2 0xB13 JUMPI PUSH1 0x40 MLOAD PUSH32 0x358F80A200000000000000000000000000000000000000000000000000000000 DUP2 MSTORE PUSH1 0x4 ADD PUSH1 0x40 MLOAD DUP1 SWAP2 SUB SWAP1 REVERT JUMPDEST DUP1 PUSH1 0x1 ADD PUSH1 0x1 SWAP1 SLOAD SWAP1 PUSH2 0x100 EXP SWAP1 DIV PUSH1 0xFF AND ISZERO PUSH2 0xB5C JUMPI PUSH1 0x40 MLOAD PUSH32 0xA89AC15100000000000000000000000000000000000000000000000000000000 DUP2 MSTORE PUSH1 0x4 ADD PUSH1 0x40 MLOAD DUP1 SWAP2 SUB SWAP1 REVERT JUMPDEST PUSH0 JUMPDEST PUSH1 0x3 DUP1 SLOAD SWAP1 POP DUP2 LT ISZERO PUSH2 0xCCC JUMPI PUSH2 0xBD8 PUSH1 0x3 DUP3 DUP2 SLOAD DUP2 LT PUSH2 0xB82 JUMPI PUSH2 0xB81 PUSH2 0x2070 JUMP JUMPDEST JUMPDEST SWAP1 PUSH0 MSTORE PUSH1 0x20 PUSH0 KECCAK256 ADD SLOAD DUP6 DUP6 DUP1 DUP1 PUSH1 0x1F ADD PUSH1 0x20 DUP1 SWAP2 DIV MUL PUSH1 0x20 ADD PUSH1 0x40 MLOAD SWAP1 DUP2 ADD PUSH1 0x40 MSTORE DUP1 SWAP4 SWAP3 SWAP2 SWAP1 DUP2 DUP2 MSTORE PUSH1 0x20 ADD DUP4 DUP4 DUP1 DUP3 DUP5 CALLDATACOPY PUSH0 DUP2 DUP5 ADD MSTORE PUSH1 0x1F NOT PUSH1 0x1F DUP3 ADD AND SWAP1 POP DUP1 DUP4 ADD SWAP3 POP POP POP POP POP POP POP DUP5 PUSH0 ADD SLOAD PUSH2 0x16F8 JUMP JUMPDEST ISZERO PUSH2 0xCC1 JUMPI PUSH1 0x1 DUP3 PUSH1 0x1 ADD PUSH1 0x1 PUSH2 0x100 EXP DUP2 SLOAD DUP2 PUSH1 0xFF MUL NOT AND SWAP1 DUP4 ISZERO ISZERO MUL OR SWAP1 SSTORE POP PUSH1 0x3 DUP2 DUP2 SLOAD DUP2 LT PUSH2 0xC0E JUMPI PUSH2 0xC0D PUSH2 0x2070 JUMP JUMPDEST JUMPDEST SWAP1 PUSH0 MSTORE PUSH1 0x20 PUSH0 KECCAK256 ADD SLOAD DUP3 PUSH1 0x2 ADD DUP2 SWAP1 SSTORE POP DUP4 DUP4 DUP4 PUSH1 0x3 ADD SWAP2 DUP3 PUSH2 0xC32 SWAP3 SWAP2 SWAP1 PUSH2 0x236C JUMP JUMPDEST POP PUSH1 0xB PUSH0 DUP2 SLOAD DUP1 SWAP3 SWAP2 SWAP1 PUSH2 0xC45 SWAP1 PUSH2 0x20FD JUMP JUMPDEST SWAP2 SWAP1 POP SSTORE POP CALLER PUSH20 0xFFFFFFFFFFFFFFFFFFFFFFFFFFFFFFFFFFFFFFFF AND PUSH32 0xB0BADFE092A7C4F1C6BBE483DE673CE846CFC95A2D65F8AA4E98141BB6619FD3 PUSH1 0x4 DUP4 DUP2 SLOAD DUP2 LT PUSH2 0xC96 JUMPI PUSH2 0xC95 PUSH2 0x2070 JUMP JUMPDEST JUMPDEST SWAP1 PUSH0 MSTORE PUSH1 0x20 PUSH0 KECCAK256 ADD DUP7 DUP7 PUSH1 0x1 PUSH1 0x40 MLOAD PUSH2 0xCB2 SWAP5 SWAP4 SWAP3 SWAP2 SWAP1 PUSH2 0x24F4 JUMP JUMPDEST PUSH1 0x40 MLOAD DUP1 SWAP2 SUB SWAP1 LOG2 POP POP PUSH2 0xD21 JUMP JUMPDEST DUP1 PUSH1 0x1 ADD SWAP1 POP PUSH2 0xB5E JUMP JUMPDEST POP CALLER PUSH20 0xFFFFFFFFFFFFFFFFFFFFFFFFFFFFFFFFFFFFFFFF AND PUSH32 0xB0BADFE092A7C4F1C6BBE483DE673CE846CFC95A2D65F8AA4E98141BB6619FD3 DUP5 DUP5 PUSH0 PUSH1 0x40 MLOAD PUSH2 0xD17 SWAP4 SWAP3 SWAP2 SWAP1 PUSH2 0x255C JUMP JUMPDEST PUSH1 0x40 MLOAD DUP1 SWAP2 SUB SWAP1 LOG2 POP JUMPDEST POP POP JUMP JUMPDEST PUSH1 0x7 PUSH1 0x20 MSTORE DUP1 PUSH0 MSTORE PUSH1 0x40 PUSH0 KECCAK256 PUSH0 SWAP2 POP SLOAD SWAP1 PUSH2 0x100 EXP SWAP1 DIV PUSH4 0xFFFFFFFF AND DUP2 JUMP JUMPDEST PUSH1 0x1 DUP1 SLOAD PUSH2 0xD52 SWAP1 PUSH2 0x2040 JUMP JUMPDEST DUP1 PUSH1 0x1F ADD PUSH1 0x20 DUP1 SWAP2 DIV MUL PUSH1 0x20 ADD PUSH1 0x40 MLOAD SWAP1 DUP2 ADD PUSH1 0x40 MSTORE DUP1 SWAP3 SWAP2 SWAP1 DUP2 DUP2 MSTORE PUSH1 0x20 ADD DUP3 DUP1 SLOAD PUSH2 0xD7E SWAP1 PUSH2 0x2040 JUMP JUMPDEST DUP1 ISZERO PUSH2 0xDC9 JUMPI DUP1 PUSH1 0x1F LT PUSH2 0xDA0 JUMPI PUSH2 0x100 DUP1 DUP4 SLOAD DIV MUL DUP4 MSTORE SWAP2 PUSH1 0x20 ADD SWAP2 PUSH2 0xDC9 JUMP JUMPDEST DUP3 ADD SWAP2 SWAP1 PUSH0 MSTORE PUSH1 0x20 PUSH0 KECCAK256 SWAP1 JUMPDEST DUP2 SLOAD DUP2 MSTORE SWAP1 PUSH1 0x1 ADD SWAP1 PUSH1 0x20 ADD DUP1 DUP4 GT PUSH2 0xDAC JUMPI DUP3 SWAP1 SUB PUSH1 0x1F AND DUP3 ADD SWAP2 JUMPDEST POP POP POP POP POP DUP2 JUMP JUMPDEST PUSH1 0x8 PUSH1 0x20 MSTORE DUP2 PUSH0 MSTORE PUSH1 0x40 PUSH0 KECCAK256 PUSH1 0x20 MSTORE DUP1 PUSH0 MSTORE PUSH1 0x40 PUSH0 KECCAK256 PUSH0 SWAP2 POP SWAP2 POP SWAP1 SLOAD SWAP1 PUSH2 0x100 EXP SWAP1 DIV PUSH1 0xFF AND DUP2 JUMP JUMPDEST PUSH1 0xA SLOAD DUP2 JUMP JUMPDEST PUSH0 PUSH2 0xE0B DUP3 PUSH2 0x170E JUMP JUMPDEST SWAP1 POP SWAP2 SWAP1 POP JUMP JUMPDEST PUSH0 PUSH1 0x9 DUP1 SLOAD SWAP1 POP SWAP1 POP SWAP1 JUMP JUMPDEST PUSH1 0x2 PUSH0 SWAP1 SLOAD SWAP1 PUSH2 0x100 EXP SWAP1 DIV PUSH1 0xFF AND DUP2 JUMP JUMPDEST PUSH1 0x2 PUSH1 0x1 SWAP1 SLOAD SWAP1 PUSH2 0x100 EXP SWAP1 DIV PUSH1 0xFF AND DUP2 JUMP JUMPDEST PUSH1 0xB SLOAD DUP2 JUMP JUMPDEST PUSH32 0x0 PUSH20 0xFFFFFFFFFFFFFFFFFFFFFFFFFFFFFFFFFFFFFFFF AND CALLER PUSH20 0xFFFFFFFFFFFFFFFFFFFFFFFFFFFFFFFFFFFFFFFF AND EQ PUSH2 0xECE JUMPI PUSH1 0x40 MLOAD PUSH32 0x1CCC6F2700000000000000000000000000000000000000000000000000000000 DUP2 MSTORE PUSH1 0x4 ADD PUSH1 0x40 MLOAD DUP1 SWAP2 SUB SWAP1 REVERT JUMPDEST PUSH1 0x3 DUP1 DUP2 GT ISZERO PUSH2 0xEE1 JUMPI PUSH2 0xEE0 PUSH2 0x1CD9 JUMP JUMPDEST JUMPDEST DUP2 PUSH1 0x3 DUP2 GT ISZERO PUSH2 0xEF4 JUMPI PUSH2 0xEF3 PUSH2 0x1CD9 JUMP JUMPDEST JUMPDEST SUB PUSH2 0xF2B JUMPI PUSH1 0x40 MLOAD PUSH32 0xFAE776D700000000000000000000000000000000000000000000000000000000 DUP2 MSTORE PUSH1 0x4 ADD PUSH1 0x40 MLOAD DUP1 SWAP2 SUB SWAP1 REVERT JUMPDEST PUSH1 0x2 PUSH1 0x1 SWAP1 SLOAD SWAP1 PUSH2 0x100 EXP SWAP1 DIV PUSH1 0xFF AND ISZERO PUSH2 0xF72 JUMPI PUSH1 0x40 MLOAD PUSH32 0x475A253500000000000000000000000000000000000000000000000000000000 DUP2 MSTORE PUSH1 0x4 ADD PUSH1 0x40 MLOAD DUP1 SWAP2 SUB SWAP1 REVERT JUMPDEST DUP1 PUSH1 0x2 PUSH0 PUSH2 0x100 EXP DUP2 SLOAD DUP2 PUSH1 0xFF MUL NOT AND SWAP1 DUP4 PUSH1 0x3 DUP2 GT ISZERO PUSH2 0xF96 JUMPI PUSH2 0xF95 PUSH2 0x1CD9 JUMP JUMPDEST JUMPDEST MUL OR SWAP1 SSTORE POP PUSH32 0xA6DCC92F45DF25789D5639B7A0C97BA1EDF3BB1C0B5DD3376FD96A0DB87C4642 DUP2 PUSH1 0x40 MLOAD PUSH2 0xFCA SWAP2 SWAP1 PUSH2 0x1D4C JUMP JUMPDEST PUSH1 0x40 MLOAD DUP1 SWAP2 SUB SWAP1 LOG1 POP JUMP JUMPDEST PUSH1 0x60 PUSH1 0x3 DUP1 SLOAD DUP1 PUSH1 0x20 MUL PUSH1 0x20 ADD PUSH1 0x40 MLOAD SWAP1 DUP2 ADD PUSH1 0x40 MSTORE DUP1 SWAP3 SWAP2 SWAP1 DUP2 DUP2 MSTORE PUSH1 0x20 ADD DUP3 DUP1 SLOAD DUP1 ISZERO PUSH2 0x1021 JUMPI PUSH1 0x20 MUL DUP3 ADD SWAP2 SWAP1 PUSH0 MSTORE PUSH1 0x20 PUSH0 KECCAK256 SWAP1 JUMPDEST DUP2 SLOAD DUP2 MSTORE PUSH1 0x20 ADD SWAP1 PUSH1 0x1 ADD SWAP1 DUP1 DUP4 GT PUSH2 0x100D JUMPI JUMPDEST POP POP POP POP POP SWAP1 POP SWAP1 JUMP JUMPDEST PUSH1 0x60 PUSH1 0x9 DUP1 SLOAD DUP1 PUSH1 0x20 MUL PUSH1 0x20 ADD PUSH1 0x40 MLOAD SWAP1 DUP2 ADD PUSH1 0x40 MSTORE DUP1 SWAP3 SWAP2 SWAP1 DUP2 DUP2 MSTORE PUSH1 0x20 ADD DUP3 DUP1 SLOAD DUP1 ISZERO PUSH2 0x10AC JUMPI PUSH1 0x20 MUL DUP3 ADD SWAP2 SWAP1 PUSH0 MSTORE PUSH1 0x20 PUSH0 KECCAK256 SWAP1 JUMPDEST DUP2 PUSH0 SWAP1 SLOAD SWAP1 PUSH2 0x100 EXP SWAP1 DIV PUSH20 0xFFFFFFFFFFFFFFFFFFFFFFFFFFFFFFFFFFFFFFFF AND PUSH20 0xFFFFFFFFFFFFFFFFFFFFFFFFFFFFFFFFFFFFFFFF AND DUP2 MSTORE PUSH1 0x20 ADD SWAP1 PUSH1 0x1 ADD SWAP1 DUP1 DUP4 GT PUSH2 0x1063 JUMPI JUMPDEST POP POP POP POP POP SWAP1 POP SWAP1 JUMP JUMPDEST PUSH1 0x9 DUP2 DUP2 SLOAD DUP2 LT PUSH2 0x10C5 JUMPI PUSH0 DUP1 REVERT JUMPDEST SWAP1 PUSH0 MSTORE PUSH1 0x20 PUSH0 KECCAK256 ADD PUSH0 SWAP2 POP SLOAD SWAP1 PUSH2 0x100 EXP SWAP1 DIV PUSH20 0xFFFFFFFFFFFFFFFFFFFFFFFFFFFFFFFFFFFFFFFF AND DUP2 JUMP JUMPDEST PUSH1 0x1 PUSH1 0x3 DUP2 GT ISZERO PUSH2 0x1105 JUMPI PUSH2 0x1104 PUSH2 0x1CD9 JUMP JUMPDEST JUMPDEST PUSH1 0x2 PUSH0 SWAP1 SLOAD SWAP1 PUSH2 0x100 EXP SWAP1 DIV PUSH1 0xFF AND PUSH1 0x3 DUP2 GT ISZERO PUSH2 0x1126 JUMPI PUSH2 0x1125 PUSH2 0x1CD9 JUMP JUMPDEST JUMPDEST EQ PUSH2 0x115D JUMPI PUSH1 0x40 MLOAD PUSH32 0x3D0E4AF700000000000000000000000000000000000000000000000000000000 DUP2 MSTORE PUSH1 0x4 ADD PUSH1 0x40 MLOAD DUP1 SWAP2 SUB SWAP1 REVERT JUMPDEST PUSH32 0x0 PUSH20 0xFFFFFFFFFFFFFFFFFFFFFFFFFFFFFFFFFFFFFFFF AND PUSH4 0xAE5922D4 CALLER PUSH1 0x1 PUSH1 0x40 MLOAD DUP4 PUSH4 0xFFFFFFFF AND PUSH1 0xE0 SHL DUP2 MSTORE PUSH1 0x4 ADD PUSH2 0x11B9 SWAP3 SWAP2 SWAP1 PUSH2 0x259F JUMP JUMPDEST PUSH1 0x20 PUSH1 0x40 MLOAD DUP1 DUP4 SUB DUP2 DUP7 GAS STATICCALL ISZERO DUP1 ISZERO PUSH2 0x11D4 JUMPI RETURNDATASIZE PUSH0 PUSH0 RETURNDATACOPY RETURNDATASIZE PUSH0 REVERT JUMPDEST POP POP POP POP PUSH1 0x40 MLOAD RETURNDATASIZE PUSH1 0x1F NOT PUSH1 0x1F DUP3 ADD AND DUP3 ADD DUP1 PUSH1 0x40 MSTORE POP DUP2 ADD SWAP1 PUSH2 0x11F8 SWAP2 SWAP1 PUSH2 0x25F7 JUMP JUMPDEST ISZERO PUSH2 0x122F JUMPI PUSH1 0x40 MLOAD PUSH32 0x7D75FB6800000000000000000000000000000000000000000000000000000000 DUP2 MSTORE PUSH1 0x4 ADD PUSH1 0x40 MLOAD DUP1 SWAP2 SUB SWAP1 REVERT JUMPDEST PUSH32 0x0 PUSH20 0xFFFFFFFFFFFFFFFFFFFFFFFFFFFFFFFFFFFFFFFF AND PUSH4 0x56712F21 ADDRESS CALLER PUSH1 0x1 PUSH1 0x40 MLOAD DUP5 PUSH4 0xFFFFFFFF AND PUSH1 0xE0 SHL DUP2 MSTORE PUSH1 0x4 ADD PUSH2 0x128D SWAP4 SWAP3 SWAP2 SWAP1 PUSH2 0x2622 JUMP JUMPDEST PUSH1 0x20 PUSH1 0x40 MLOAD DUP1 DUP4 SUB DUP2 DUP7 GAS STATICCALL ISZERO DUP1 ISZERO PUSH2 0x12A8 JUMPI RETURNDATASIZE PUSH0 PUSH0 RETURNDATACOPY RETURNDATASIZE PUSH0 REVERT JUMPDEST POP POP POP POP PUSH1 0x40 MLOAD RETURNDATASIZE PUSH1 0x1F NOT PUSH1 0x1F DUP3 ADD AND DUP3 ADD DUP1 PUSH1 0x40 MSTORE POP DUP2 ADD SWAP1 PUSH2 0x12CC SWAP2 SWAP1 PUSH2 0x25F7 JUMP JUMPDEST PUSH2 0x13D2 JUMPI PUSH32 0x0 PUSH20 0xFFFFFFFFFFFFFFFFFFFFFFFFFFFFFFFFFFFFFFFF AND PUSH4 0x65E4AD9E ADDRESS CALLER PUSH1 0x40 MLOAD DUP4 PUSH4 0xFFFFFFFF AND PUSH1 0xE0 SHL DUP2 MSTORE PUSH1 0x4 ADD PUSH2 0x132B SWAP3 SWAP2 SWAP1 PUSH2 0x265E JUMP JUMPDEST PUSH1 0x20 PUSH1 0x40 MLOAD DUP1 DUP4 SUB DUP2 DUP7 GAS STATICCALL ISZERO DUP1 ISZERO PUSH2 0x1346 JUMPI RETURNDATASIZE PUSH0 PUSH0 RETURNDATACOPY RETURNDATASIZE PUSH0 REVERT JUMPDEST POP POP POP POP PUSH1 0x40 MLOAD RETURNDATASIZE PUSH1 0x1F NOT PUSH1 0x1F DUP3 ADD AND DUP3 ADD DUP1 PUSH1 0x40 MSTORE POP DUP2 ADD SWAP1 PUSH2 0x136A SWAP2 SWAP1 PUSH2 0x25F7 JUMP JUMPDEST PUSH2 0x13A0 JUMPI PUSH1 0x40 MLOAD PUSH32 0x5A7DE52100000000000000000000000000000000000000000000000000000000 DUP2 MSTORE PUSH1 0x4 ADD PUSH1 0x40 MLOAD DUP1 SWAP2 SUB SWAP1 REVERT JUMPDEST PUSH1 0x40 MLOAD PUSH32 0x5AD080BF00000000000000000000000000000000000000000000000000000000 DUP2 MSTORE PUSH1 0x4 ADD PUSH1 0x40 MLOAD DUP1 SWAP2 SUB SWAP1 REVERT JUMPDEST PUSH2 0x1418 PUSH1 0x8 PUSH0 CALLER PUSH20 0xFFFFFFFFFFFFFFFFFFFFFFFFFFFFFFFFFFFFFFFF AND PUSH20 0xFFFFFFFFFFFFFFFFFFFFFFFFFFFFFFFFFFFFFFFF AND DUP2 MSTORE PUSH1 0x20 ADD SWAP1 DUP2 MSTORE PUSH1 0x20 ADD PUSH0 KECCAK256 DUP3 PUSH2 0x1760 JUMP JUMPDEST PUSH2 0x144E JUMPI PUSH1 0x40 MLOAD PUSH32 0x850828C400000000000000000000000000000000000000000000000000000000 DUP2 MSTORE PUSH1 0x4 ADD PUSH1 0x40 MLOAD DUP1 SWAP2 SUB SWAP1 REVERT JUMPDEST PUSH1 0x1 PUSH1 0x8 PUSH0 CALLER PUSH20 0xFFFFFFFFFFFFFFFFFFFFFFFFFFFFFFFFFFFFFFFF AND PUSH20 0xFFFFFFFFFFFFFFFFFFFFFFFFFFFFFFFFFFFFFFFF AND DUP2 MSTORE PUSH1 0x20 ADD SWAP1 DUP2 MSTORE PUSH1 0x20 ADD PUSH0 KECCAK256 PUSH0 DUP4 DUP2 MSTORE PUSH1 0x20 ADD SWAP1 DUP2 MSTORE PUSH1 0x20 ADD PUSH0 KECCAK256 PUSH0 PUSH2 0x100 EXP DUP2 SLOAD DUP2 PUSH1 0xFF MUL NOT AND SWAP1 DUP4 ISZERO ISZERO MUL OR SWAP1 SSTORE POP PUSH0 PUSH1 0x6 PUSH0 CALLER PUSH20 0xFFFFFFFFFFFFFFFFFFFFFFFFFFFFFFFFFFFFFFFF AND PUSH20 0xFFFFFFFFFFFFFFFFFFFFFFFFFFFFFFFFFFFFFFFF AND DUP2 MSTORE PUSH1 0x20 ADD SWAP1 DUP2 MSTORE PUSH1 0x20 ADD PUSH0 KECCAK256 SWAP1 POP DUP1 PUSH1 0x1 ADD PUSH0 SWAP1 SLOAD SWAP1 PUSH2 0x100 EXP SWAP1 DIV PUSH1 0xFF AND PUSH2 0x159B JUMPI PUSH1 0x1 DUP2 PUSH1 0x1 ADD PUSH0 PUSH2 0x100 EXP DUP2 SLOAD DUP2 PUSH1 0xFF MUL NOT AND SWAP1 DUP4 ISZERO ISZERO MUL OR SWAP1 SSTORE POP PUSH1 0xA PUSH0 DUP2 SLOAD DUP1 SWAP3 SWAP2 SWAP1 PUSH2 0x1535 SWAP1 PUSH2 0x20FD JUMP JUMPDEST SWAP2 SWAP1 POP SSTORE POP PUSH1 0x9 CALLER SWAP1 DUP1 PUSH1 0x1 DUP2 SLOAD ADD DUP1 DUP3 SSTORE DUP1 SWAP2 POP POP PUSH1 0x1 SWAP1 SUB SWAP1 PUSH0 MSTORE PUSH1 0x20 PUSH0 KECCAK256 ADD PUSH0 SWAP1 SWAP2 SWAP1 SWAP2 SWAP1 SWAP2 PUSH2 0x100 EXP DUP2 SLOAD DUP2 PUSH20 0xFFFFFFFFFFFFFFFFFFFFFFFFFFFFFFFFFFFFFFFF MUL NOT AND SWAP1 DUP4 PUSH20 0xFFFFFFFFFFFFFFFFFFFFFFFFFFFFFFFFFFFFFFFF AND MUL OR SWAP1 SSTORE POP JUMPDEST DUP3 DUP2 PUSH0 ADD DUP2 SWAP1 SSTORE POP PUSH1 0x7 PUSH0 CALLER PUSH20 0xFFFFFFFFFFFFFFFFFFFFFFFFFFFFFFFFFFFFFFFF AND PUSH20 0xFFFFFFFFFFFFFFFFFFFFFFFFFFFFFFFFFFFFFFFF AND DUP2 MSTORE PUSH1 0x20 ADD SWAP1 DUP2 MSTORE PUSH1 0x20 ADD PUSH0 KECCAK256 PUSH0 DUP2 DUP2 SWAP1 SLOAD SWAP1 PUSH2 0x100 EXP SWAP1 DIV PUSH4 0xFFFFFFFF AND DUP1 SWAP3 SWAP2 SWAP1 PUSH2 0x15FF SWAP1 PUSH2 0x2685 JUMP JUMPDEST SWAP2 SWAP1 PUSH2 0x100 EXP DUP2 SLOAD DUP2 PUSH4 0xFFFFFFFF MUL NOT AND SWAP1 DUP4 PUSH4 0xFFFFFFFF AND MUL OR SWAP1 SSTORE POP POP CALLER PUSH20 0xFFFFFFFFFFFFFFFFFFFFFFFFFFFFFFFFFFFFFFFF AND PUSH32 0xC36EE38AB4BB6EE36048925089C6C2C83D2D608C0013A08E450968F3EEBC229F DUP5 PUSH1 0x7 PUSH0 CALLER PUSH20 0xFFFFFFFFFFFFFFFFFFFFFFFFFFFFFFFFFFFFFFFF AND PUSH20 0xFFFFFFFFFFFFFFFFFFFFFFFFFFFFFFFFFFFFFFFF AND DUP2 MSTORE PUSH1 0x20 ADD SWAP1 DUP2 MSTORE PUSH1 0x20 ADD PUSH0 KECCAK256 PUSH0 SWAP1 SLOAD SWAP1 PUSH2 0x100 EXP SWAP1 DIV PUSH4 0xFFFFFFFF AND PUSH1 0x40 MLOAD PUSH2 0x16B2 SWAP3 SWAP2 SWAP1 PUSH2 0x26B0 JUMP JUMPDEST PUSH1 0x40 MLOAD DUP1 SWAP2 SUB SWAP1 LOG2 POP POP POP JUMP JUMPDEST PUSH1 0x5 PUSH1 0x20 MSTORE DUP1 PUSH0 MSTORE PUSH1 0x40 PUSH0 KECCAK256 PUSH0 SWAP2 POP SWAP1 POP SLOAD DUP2 JUMP JUMPDEST PUSH32 0x0 DUP2 JUMP JUMPDEST PUSH0 DUP2 PUSH2 0x1704 DUP6 DUP6 PUSH2 0x1787 JUMP JUMPDEST EQ SWAP1 POP SWAP4 SWAP3 POP POP POP JUMP JUMPDEST PUSH0 PUSH0 JUMPDEST PUSH1 0x3 DUP1 SLOAD SWAP1 POP DUP2 LT ISZERO PUSH2 0x1756 JUMPI DUP3 PUSH1 0x3 DUP3 DUP2 SLOAD DUP2 LT PUSH2 0x1733 JUMPI PUSH2 0x1732 PUSH2 0x2070 JUMP JUMPDEST JUMPDEST SWAP1 PUSH0 MSTORE PUSH1 0x20 PUSH0 KECCAK256 ADD SLOAD SUB PUSH2 0x174B JUMPI PUSH1 0x1 SWAP2 POP POP PUSH2 0x175B JUMP JUMPDEST DUP1 PUSH1 0x1 ADD SWAP1 POP PUSH2 0x1711 JUMP JUMPDEST POP PUSH0 SWAP1 POP JUMPDEST SWAP2 SWAP1 POP JUMP JUMPDEST PUSH0 DUP3 PUSH0 DUP4 DUP2 MSTORE PUSH1 0x20 ADD SWAP1 DUP2 MSTORE PUSH1 0x20 ADD PUSH0 KECCAK256 PUSH0 SWAP1 SLOAD SWAP1 PUSH2 0x100 EXP SWAP1 DIV PUSH1 0xFF AND ISZERO SWAP1 POP SWAP3 SWAP2 POP POP JUMP JUMPDEST PUSH0 DUP3 DUP3 PUSH1 0x40 MLOAD PUSH1 0x20 ADD PUSH2 0x179B SWAP3 SWAP2 SWAP1 PUSH2 0x2731 JUMP JUMPDEST PUSH1 0x40 MLOAD PUSH1 0x20 DUP2 DUP4 SUB SUB DUP2 MSTORE SWAP1 PUSH1 0x40 MSTORE DUP1 MLOAD SWAP1 PUSH1 0x20 ADD KECCAK256 SWAP1 POP SWAP3 SWAP2 POP POP JUMP JUMPDEST PUSH0 PUSH20 0xFFFFFFFFFFFFFFFFFFFFFFFFFFFFFFFFFFFFFFFF DUP3 AND SWAP1 POP SWAP2 SWAP1 POP JUMP JUMPDEST PUSH0 PUSH2 0x17E2 DUP3 PUSH2 0x17B9 JUMP JUMPDEST SWAP1 POP SWAP2 SWAP1 POP JUMP JUMPDEST PUSH2 0x17F2 DUP2 PUSH2 0x17D8 JUMP JUMPDEST DUP3 MSTORE POP POP JUMP JUMPDEST PUSH0 PUSH1 0x20 DUP3 ADD SWAP1 POP PUSH2 0x180B PUSH0 DUP4 ADD DUP5 PUSH2 0x17E9 JUMP JUMPDEST SWAP3 SWAP2 POP POP JUMP JUMPDEST PUSH0 PUSH0 REVERT JUMPDEST PUSH0 PUSH0 REVERT JUMPDEST PUSH2 0x1822 DUP2 PUSH2 0x17D8 JUMP JUMPDEST DUP2 EQ PUSH2 0x182C JUMPI PUSH0 PUSH0 REVERT JUMPDEST POP JUMP JUMPDEST PUSH0 DUP2 CALLDATALOAD SWAP1 POP PUSH2 0x183D DUP2 PUSH2 0x1819 JUMP JUMPDEST SWAP3 SWAP2 POP POP JUMP JUMPDEST PUSH0 PUSH1 0x20 DUP3 DUP5 SUB SLT ISZERO PUSH2 0x1858 JUMPI PUSH2 0x1857 PUSH2 0x1811 JUMP JUMPDEST JUMPDEST PUSH0 PUSH2 0x1865 DUP5 DUP3 DUP6 ADD PUSH2 0x182F JUMP JUMPDEST SWAP2 POP POP SWAP3 SWAP2 POP POP JUMP JUMPDEST PUSH0 DUP2 SWAP1 POP SWAP2 SWAP1 POP JUMP JUMPDEST PUSH2 0x1880 DUP2 PUSH2 0x186E JUMP JUMPDEST DUP3 MSTORE POP POP JUMP JUMPDEST PUSH0 DUP2 ISZERO ISZERO SWAP1 POP SWAP2 SWAP1 POP JUMP JUMPDEST PUSH2 0x189A DUP2 PUSH2 0x1886 JUMP JUMPDEST DUP3 MSTORE POP POP JUMP JUMPDEST PUSH0 DUP2 MLOAD SWAP1 POP SWAP2 SWAP1 POP JUMP JUMPDEST PUSH0 DUP3 DUP3 MSTORE PUSH1 0x20 DUP3 ADD SWAP1 POP SWAP3 SWAP2 POP POP JUMP JUMPDEST DUP3 DUP2 DUP4 MCOPY PUSH0 DUP4 DUP4 ADD MSTORE POP POP POP JUMP JUMPDEST PUSH0 PUSH1 0x1F NOT PUSH1 0x1F DUP4 ADD AND SWAP1 POP SWAP2 SWAP1 POP JUMP JUMPDEST PUSH0 PUSH2 0x18E2 DUP3 PUSH2 0x18A0 JUMP JUMPDEST PUSH2 0x18EC DUP2 DUP6 PUSH2 0x18AA JUMP JUMPDEST SWAP4 POP PUSH2 0x18FC DUP2 DUP6 PUSH1 0x20 DUP7 ADD PUSH2 0x18BA JUMP JUMPDEST PUSH2 0x1905 DUP2 PUSH2 0x18C8 JUMP JUMPDEST DUP5 ADD SWAP2 POP POP SWAP3 SWAP2 POP POP JUMP JUMPDEST PUSH0 PUSH1 0xA0 DUP3 ADD SWAP1 POP PUSH2 0x1923 PUSH0 DUP4 ADD DUP9 PUSH2 0x1877 JUMP JUMPDEST PUSH2 0x1930 PUSH1 0x20 DUP4 ADD DUP8 PUSH2 0x1891 JUMP JUMPDEST PUSH2 0x193D PUSH1 0x40 DUP4 ADD DUP7 PUSH2 0x1891 JUMP JUMPDEST PUSH2 0x194A PUSH1 0x60 DUP4 ADD DUP6 PUSH2 0x1877 JUMP JUMPDEST DUP2 DUP2 SUB PUSH1 0x80 DUP4 ADD MSTORE PUSH2 0x195C DUP2 DUP5 PUSH2 0x18D8 JUMP JUMPDEST SWAP1 POP SWAP7 SWAP6 POP POP POP POP POP POP JUMP JUMPDEST PUSH2 0x1971 DUP2 PUSH2 0x186E JUMP JUMPDEST DUP2 EQ PUSH2 0x197B JUMPI PUSH0 PUSH0 REVERT JUMPDEST POP JUMP JUMPDEST PUSH0 DUP2 CALLDATALOAD SWAP1 POP PUSH2 0x198C DUP2 PUSH2 0x1968 JUMP JUMPDEST SWAP3 SWAP2 POP POP JUMP JUMPDEST PUSH0 PUSH1 0x20 DUP3 DUP5 SUB SLT ISZERO PUSH2 0x19A7 JUMPI PUSH2 0x19A6 PUSH2 0x1811 JUMP JUMPDEST JUMPDEST PUSH0 PUSH2 0x19B4 DUP5 DUP3 DUP6 ADD PUSH2 0x197E JUMP JUMPDEST SWAP2 POP POP SWAP3 SWAP2 POP POP JUMP JUMPDEST PUSH0 DUP2 SWAP1 POP SWAP2 SWAP1 POP JUMP JUMPDEST PUSH2 0x19CF DUP2 PUSH2 0x19BD JUMP JUMPDEST DUP3 MSTORE POP POP JUMP JUMPDEST PUSH0 PUSH1 0x20 DUP3 ADD SWAP1 POP PUSH2 0x19E8 PUSH0 DUP4 ADD DUP5 PUSH2 0x19C6 JUMP JUMPDEST SWAP3 SWAP2 POP POP JUMP JUMPDEST PUSH2 0x19F7 DUP2 PUSH2 0x19BD JUMP JUMPDEST DUP2 EQ PUSH2 0x1A01 JUMPI PUSH0 PUSH0 REVERT JUMPDEST POP JUMP JUMPDEST PUSH0 DUP2 CALLDATALOAD SWAP1 POP PUSH2 0x1A12 DUP2 PUSH2 0x19EE JUMP JUMPDEST SWAP3 SWAP2 POP POP JUMP JUMPDEST PUSH0 PUSH1 0x20 DUP3 DUP5 SUB SLT ISZERO PUSH2 0x1A2D JUMPI PUSH2 0x1A2C PUSH2 0x1811 JUMP JUMPDEST JUMPDEST PUSH0 PUSH2 0x1A3A DUP5 DUP3 DUP6 ADD PUSH2 0x1A04 JUMP JUMPDEST SWAP2 POP POP SWAP3 SWAP2 POP POP JUMP JUMPDEST PUSH0 PUSH1 0x20 DUP3 ADD SWAP1 POP PUSH2 0x1A56 PUSH0 DUP4 ADD DUP5 PUSH2 0x1877 JUMP JUMPDEST SWAP3 SWAP2 POP POP JUMP JUMPDEST PUSH0 PUSH1 0x20 DUP3 ADD SWAP1 POP DUP2 DUP2 SUB PUSH0 DUP4 ADD MSTORE PUSH2 0x1A74 DUP2 DUP5 PUSH2 0x18D8 JUMP JUMPDEST SWAP1 POP SWAP3 SWAP2 POP POP JUMP JUMPDEST PUSH0 DUP2 MLOAD SWAP1 POP SWAP2 SWAP1 POP JUMP JUMPDEST PUSH0 DUP3 DUP3 MSTORE PUSH1 0x20 DUP3 ADD SWAP1 POP SWAP3 SWAP2 POP POP JUMP JUMPDEST PUSH0 DUP2 SWAP1 POP PUSH1 0x20 DUP3 ADD SWAP1 POP SWAP2 SWAP1 POP JUMP JUMPDEST PUSH0 DUP3 DUP3 MSTORE PUSH1 0x20 DUP3 ADD SWAP1 POP SWAP3 SWAP2 POP POP JUMP JUMPDEST PUSH0 PUSH2 0x1ABF DUP3 PUSH2 0x18A0 JUMP JUMPDEST PUSH2 0x1AC9 DUP2 DUP6 PUSH2 0x1AA5 JUMP JUMPDEST SWAP4 POP PUSH2 0x1AD9 DUP2 DUP6 PUSH1 0x20 DUP7 ADD PUSH2 0x18BA JUMP JUMPDEST PUSH2 0x1AE2 DUP2 PUSH2 0x18C8 JUMP JUMPDEST DUP5 ADD SWAP2 POP POP SWAP3 SWAP2 POP POP JUMP JUMPDEST PUSH0 PUSH2 0x1AF8 DUP4 DUP4 PUSH2 0x1AB5 JUMP JUMPDEST SWAP1 POP SWAP3 SWAP2 POP POP JUMP JUMPDEST PUSH0 PUSH1 0x20 DUP3 ADD SWAP1 POP SWAP2 SWAP1 POP JUMP JUMPDEST PUSH0 PUSH2 0x1B16 DUP3 PUSH2 0x1A7C JUMP JUMPDEST PUSH2 0x1B20 DUP2 DUP6 PUSH2 0x1A86 JUMP JUMPDEST SWAP4 POP DUP4 PUSH1 0x20 DUP3 MUL DUP6 ADD PUSH2 0x1B32 DUP6 PUSH2 0x1A96 JUMP JUMPDEST DUP1 PUSH0 JUMPDEST DUP6 DUP2 LT ISZERO PUSH2 0x1B6D JUMPI DUP5 DUP5 SUB DUP10 MSTORE DUP2 MLOAD PUSH2 0x1B4E DUP6 DUP3 PUSH2 0x1AED JUMP JUMPDEST SWAP5 POP PUSH2 0x1B59 DUP4 PUSH2 0x1B00 JUMP JUMPDEST SWAP3 POP PUSH1 0x20 DUP11 ADD SWAP10 POP POP PUSH1 0x1 DUP2 ADD SWAP1 POP PUSH2 0x1B35 JUMP JUMPDEST POP DUP3 SWAP8 POP DUP8 SWAP6 POP POP POP POP POP POP SWAP3 SWAP2 POP POP JUMP JUMPDEST PUSH0 PUSH1 0x20 DUP3 ADD SWAP1 POP DUP2 DUP2 SUB PUSH0 DUP4 ADD MSTORE PUSH2 0x1B97 DUP2 DUP5 PUSH2 0x1B0C JUMP JUMPDEST SWAP1 POP SWAP3 SWAP2 POP POP JUMP JUMPDEST PUSH0 PUSH0 REVERT JUMPDEST PUSH0 PUSH0 REVERT JUMPDEST PUSH0 PUSH0 REVERT JUMPDEST PUSH0 PUSH0 DUP4 PUSH1 0x1F DUP5 ADD SLT PUSH2 0x1BC0 JUMPI PUSH2 0x1BBF PUSH2 0x1B9F JUMP JUMPDEST JUMPDEST DUP3 CALLDATALOAD SWAP1 POP PUSH8 0xFFFFFFFFFFFFFFFF DUP2 GT ISZERO PUSH2 0x1BDD JUMPI PUSH2 0x1BDC PUSH2 0x1BA3 JUMP JUMPDEST JUMPDEST PUSH1 0x20 DUP4 ADD SWAP2 POP DUP4 PUSH1 0x1 DUP3 MUL DUP4 ADD GT ISZERO PUSH2 0x1BF9 JUMPI PUSH2 0x1BF8 PUSH2 0x1BA7 JUMP JUMPDEST JUMPDEST SWAP3 POP SWAP3 SWAP1 POP JUMP JUMPDEST PUSH0 PUSH0 PUSH1 0x20 DUP4 DUP6 SUB SLT ISZERO PUSH2 0x1C16 JUMPI PUSH2 0x1C15 PUSH2 0x1811 JUMP JUMPDEST JUMPDEST PUSH0 DUP4 ADD CALLDATALOAD PUSH8 0xFFFFFFFFFFFFFFFF DUP2 GT ISZERO PUSH2 0x1C33 JUMPI PUSH2 0x1C32 PUSH2 0x1815 JUMP JUMPDEST JUMPDEST PUSH2 0x1C3F DUP6 DUP3 DUP7 ADD PUSH2 0x1BAB JUMP JUMPDEST SWAP3 POP SWAP3 POP POP SWAP3 POP SWAP3 SWAP1 POP JUMP JUMPDEST PUSH0 PUSH4 0xFFFFFFFF DUP3 AND SWAP1 POP SWAP2 SWAP1 POP JUMP JUMPDEST PUSH2 0x1C63 DUP2 PUSH2 0x1C4B JUMP JUMPDEST DUP3 MSTORE POP POP JUMP JUMPDEST PUSH0 PUSH1 0x20 DUP3 ADD SWAP1 POP PUSH2 0x1C7C PUSH0 DUP4 ADD DUP5 PUSH2 0x1C5A JUMP JUMPDEST SWAP3 SWAP2 POP POP JUMP JUMPDEST PUSH0 PUSH0 PUSH1 0x40 DUP4 DUP6 SUB SLT ISZERO PUSH2 0x1C98 JUMPI PUSH2 0x1C97 PUSH2 0x1811 JUMP JUMPDEST JUMPDEST PUSH0 PUSH2 0x1CA5 DUP6 DUP3 DUP7 ADD PUSH2 0x182F JUMP JUMPDEST SWAP3 POP POP PUSH1 0x20 PUSH2 0x1CB6 DUP6 DUP3 DUP7 ADD PUSH2 0x197E JUMP JUMPDEST SWAP2 POP POP SWAP3 POP SWAP3 SWAP1 POP JUMP JUMPDEST PUSH0 PUSH1 0x20 DUP3 ADD SWAP1 POP PUSH2 0x1CD3 PUSH0 DUP4 ADD DUP5 PUSH2 0x1891 JUMP JUMPDEST SWAP3 SWAP2 POP POP JUMP JUMPDEST PUSH32 0x4E487B7100000000000000000000000000000000000000000000000000000000 PUSH0 MSTORE PUSH1 0x21 PUSH1 0x4 MSTORE PUSH1 0x24 PUSH0 REVERT JUMPDEST PUSH1 0x4 DUP2 LT PUSH2 0x1D17 JUMPI PUSH2 0x1D16 PUSH2 0x1CD9 JUMP JUMPDEST JUMPDEST POP JUMP JUMPDEST PUSH0 DUP2 SWAP1 POP PUSH2 0x1D27 DUP3 PUSH2 0x1D06 JUMP JUMPDEST SWAP2 SWAP1 POP JUMP JUMPDEST PUSH0 PUSH2 0x1D36 DUP3 PUSH2 0x1D1A JUMP JUMPDEST SWAP1 POP SWAP2 SWAP1 POP JUMP JUMPDEST PUSH2 0x1D46 DUP2 PUSH2 0x1D2C JUMP JUMPDEST DUP3 MSTORE POP POP JUMP JUMPDEST PUSH0 PUSH1 0x20 DUP3 ADD SWAP1 POP PUSH2 0x1D5F PUSH0 DUP4 ADD DUP5 PUSH2 0x1D3D JUMP JUMPDEST SWAP3 SWAP2 POP POP JUMP JUMPDEST PUSH1 0x4 DUP2 LT PUSH2 0x1D71 JUMPI PUSH0 PUSH0 REVERT JUMPDEST POP JUMP JUMPDEST PUSH0 DUP2 CALLDATALOAD SWAP1 POP PUSH2 0x1D82 DUP2 PUSH2 0x1D65 JUMP JUMPDEST SWAP3 SWAP2 POP POP JUMP JUMPDEST PUSH0 PUSH1 0x20 DUP3 DUP5 SUB SLT ISZERO PUSH2 0x1D9D JUMPI PUSH2 0x1D9C PUSH2 0x1811 JUMP JUMPDEST JUMPDEST PUSH0 PUSH2 0x1DAA DUP5 DUP3 DUP6 ADD PUSH2 0x1D74 JUMP JUMPDEST SWAP2 POP POP SWAP3 SWAP2 POP POP JUMP JUMPDEST PUSH0 DUP2 MLOAD SWAP1 POP SWAP2 SWAP1 POP JUMP JUMPDEST PUSH0 DUP3 DUP3 MSTORE PUSH1 0x20 DUP3 ADD SWAP1 POP SWAP3 SWAP2 POP POP JUMP JUMPDEST PUSH0 DUP2 SWAP1 POP PUSH1 0x20 DUP3 ADD SWAP1 POP SWAP2 SWAP1 POP JUMP JUMPDEST PUSH2 0x1DE5 DUP2 PUSH2 0x186E JUMP JUMPDEST DUP3 MSTORE POP POP JUMP JUMPDEST PUSH0 PUSH2 0x1DF6 DUP4 DUP4 PUSH2 0x1DDC JUMP JUMPDEST PUSH1 0x20 DUP4 ADD SWAP1 POP SWAP3 SWAP2 POP POP JUMP JUMPDEST PUSH0 PUSH1 0x20 DUP3 ADD SWAP1 POP SWAP2 SWAP1 POP JUMP JUMPDEST PUSH0 PUSH2 0x1E18 DUP3 PUSH2 0x1DB3 JUMP JUMPDEST PUSH2 0x1E22 DUP2 DUP6 PUSH2 0x1DBD JUMP JUMPDEST SWAP4 POP PUSH2 0x1E2D DUP4 PUSH2 0x1DCD JUMP JUMPDEST DUP1 PUSH0 JUMPDEST DUP4 DUP2 LT ISZERO PUSH2 0x1E5D JUMPI DUP2 MLOAD PUSH2 0x1E44 DUP9 DUP3 PUSH2 0x1DEB JUMP JUMPDEST SWAP8 POP PUSH2 0x1E4F DUP4 PUSH2 0x1E02 JUMP JUMPDEST SWAP3 POP POP PUSH1 0x1 DUP2 ADD SWAP1 POP PUSH2 0x1E30 JUMP JUMPDEST POP DUP6 SWAP4 POP POP POP POP SWAP3 SWAP2 POP POP JUMP JUMPDEST PUSH0 PUSH1 0x20 DUP3 ADD SWAP1 POP DUP2 DUP2 SUB PUSH0 DUP4 ADD MSTORE PUSH2 0x1E82 DUP2 DUP5 PUSH2 0x1E0E JUMP JUMPDEST SWAP1 POP SWAP3 SWAP2 POP POP JUMP JUMPDEST PUSH0 DUP2 MLOAD SWAP1 POP SWAP2 SWAP1 POP JUMP JUMPDEST PUSH0 DUP3 DUP3 MSTORE PUSH1 0x20 DUP3 ADD SWAP1 POP SWAP3 SWAP2 POP POP JUMP JUMPDEST PUSH0 DUP2 SWAP1 POP PUSH1 0x20 DUP3 ADD SWAP1 POP SWAP2 SWAP1 POP JUMP JUMPDEST PUSH2 0x1EBC DUP2 PUSH2 0x17D8 JUMP JUMPDEST DUP3 MSTORE POP POP JUMP JUMPDEST PUSH0 PUSH2 0x1ECD DUP4 DUP4 PUSH2 0x1EB3 JUMP JUMPDEST PUSH1 0x20 DUP4 ADD SWAP1 POP SWAP3 SWAP2 POP POP JUMP JUMPDEST PUSH0 PUSH1 0x20 DUP3 ADD SWAP1 POP SWAP2 SWAP1 POP JUMP JUMPDEST PUSH0 PUSH2 0x1EEF DUP3 PUSH2 0x1E8A JUMP JUMPDEST PUSH2 0x1EF9 DUP2 DUP6 PUSH2 0x1E94 JUMP JUMPDEST SWAP4 POP PUSH2 0x1F04 DUP4 PUSH2 0x1EA4 JUMP JUMPDEST DUP1 PUSH0 JUMPDEST DUP4 DUP2 LT ISZERO PUSH2 0x1F34 JUMPI DUP2 MLOAD PUSH2 0x1F1B DUP9 DUP3 PUSH2 0x1EC2 JUMP JUMPDEST SWAP8 POP PUSH2 0x1F26 DUP4 PUSH2 0x1ED9 JUMP JUMPDEST SWAP3 POP POP PUSH1 0x1 DUP2 ADD SWAP1 POP PUSH2 0x1F07 JUMP JUMPDEST POP DUP6 SWAP4 POP POP POP POP SWAP3 SWAP2 POP POP JUMP JUMPDEST PUSH0 PUSH1 0x20 DUP3 ADD SWAP1 POP DUP2 DUP2 SUB PUSH0 DUP4 ADD MSTORE PUSH2 0x1F59 DUP2 DUP5 PUSH2 0x1EE5 JUMP JUMPDEST SWAP1 POP SWAP3 SWAP2 POP POP JUMP JUMPDEST PUSH0 PUSH0 PUSH1 0x40 DUP4 DUP6 SUB SLT ISZERO PUSH2 0x1F77 JUMPI PUSH2 0x1F76 PUSH2 0x1811 JUMP JUMPDEST JUMPDEST PUSH0 PUSH2 0x1F84 DUP6 DUP3 DUP7 ADD PUSH2 0x197E JUMP JUMPDEST SWAP3 POP POP PUSH1 0x20 PUSH2 0x1F95 DUP6 DUP3 DUP7 ADD PUSH2 0x197E JUMP JUMPDEST SWAP2 POP POP SWAP3 POP SWAP3 SWAP1 POP JUMP JUMPDEST PUSH0 DUP2 SWAP1 POP SWAP2 SWAP1 POP JUMP JUMPDEST PUSH0 PUSH2 0x1FC2 PUSH2 0x1FBD PUSH2 0x1FB8 DUP5 PUSH2 0x17B9 JUMP JUMPDEST PUSH2 0x1F9F JUMP JUMPDEST PUSH2 0x17B9 JUMP JUMPDEST SWAP1 POP SWAP2 SWAP1 POP JUMP JUMPDEST PUSH0 PUSH2 0x1FD3 DUP3 PUSH2 0x1FA8 JUMP JUMPDEST SWAP1 POP SWAP2 SWAP1 POP JUMP JUMPDEST PUSH0 PUSH2 0x1FE4 DUP3 PUSH2 0x1FC9 JUMP JUMPDEST SWAP1 POP SWAP2 SWAP1 POP JUMP JUMPDEST PUSH2 0x1FF4 DUP2 PUSH2 0x1FDA JUMP JUMPDEST DUP3 MSTORE POP POP JUMP JUMPDEST PUSH0 PUSH1 0x20 DUP3 ADD SWAP1 POP PUSH2 0x200D PUSH0 DUP4 ADD DUP5 PUSH2 0x1FEB JUMP JUMPDEST SWAP3 SWAP2 POP POP JUMP JUMPDEST PUSH32 0x4E487B7100000000000000000000000000000000000000000000000000000000 PUSH0 MSTORE PUSH1 0x22 PUSH1 0x4 MSTORE PUSH1 0x24 PUSH0 REVERT JUMPDEST PUSH0 PUSH1 0x2 DUP3 DIV SWAP1 POP PUSH1 0x1 DUP3 AND DUP1 PUSH2 0x2057 JUMPI PUSH1 0x7F DUP3 AND SWAP2 POP JUMPDEST PUSH1 0x20 DUP3 LT DUP2 SUB PUSH2 0x206A JUMPI PUSH2 0x2069 PUSH2 0x2013 JUMP JUMPDEST JUMPDEST POP SWAP2 SWAP1 POP JUMP JUMPDEST PUSH32 0x4E487B7100000000000000000000000000000000000000000000000000000000 PUSH0 MSTORE PUSH1 0x32 PUSH1 0x4 MSTORE PUSH1 0x24 PUSH0 REVERT JUMPDEST PUSH32 0x4E487B7100000000000000000000000000000000000000000000000000000000 PUSH0 MSTORE PUSH1 0x11 PUSH1 0x4 MSTORE PUSH1 0x24 PUSH0 REVERT JUMPDEST PUSH0 PUSH2 0x20D4 DUP3 PUSH2 0x19BD JUMP JUMPDEST SWAP2 POP PUSH2 0x20DF DUP4 PUSH2 0x19BD JUMP JUMPDEST SWAP3 POP DUP3 DUP3 ADD SWAP1 POP DUP1 DUP3 GT ISZERO PUSH2 0x20F7 JUMPI PUSH2 0x20F6 PUSH2 0x209D JUMP JUMPDEST JUMPDEST SWAP3 SWAP2 POP POP JUMP JUMPDEST PUSH0 PUSH2 0x2107 DUP3 PUSH2 0x19BD JUMP JUMPDEST SWAP2 POP PUSH32 0xFFFFFFFFFFFFFFFFFFFFFFFFFFFFFFFFFFFFFFFFFFFFFFFFFFFFFFFFFFFFFFFF DUP3 SUB PUSH2 0x2139 JUMPI PUSH2 0x2138 PUSH2 0x209D JUMP JUMPDEST JUMPDEST PUSH1 0x1 DUP3 ADD SWAP1 POP SWAP2 SWAP1 POP JUMP JUMPDEST PUSH0 PUSH2 0x214E DUP3 PUSH2 0x19BD JUMP JUMPDEST SWAP2 POP PUSH2 0x2159 DUP4 PUSH2 0x19BD JUMP JUMPDEST SWAP3 POP DUP3 DUP3 SUB SWAP1 POP DUP2 DUP2 GT ISZERO PUSH2 0x2171 JUMPI PUSH2 0x2170 PUSH2 0x209D JUMP JUMPDEST JUMPDEST SWAP3 SWAP2 POP POP JUMP JUMPDEST PUSH0 PUSH1 0x40 DUP3 ADD SWAP1 POP PUSH2 0x218A PUSH0 DUP4 ADD DUP6 PUSH2 0x19C6 JUMP JUMPDEST PUSH2 0x2197 PUSH1 0x20 DUP4 ADD DUP5 PUSH2 0x19C6 JUMP JUMPDEST SWAP4 SWAP3 POP POP POP JUMP JUMPDEST PUSH0 DUP3 SWAP1 POP SWAP3 SWAP2 POP POP JUMP JUMPDEST PUSH32 0x4E487B7100000000000000000000000000000000000000000000000000000000 PUSH0 MSTORE PUSH1 0x41 PUSH1 0x4 MSTORE PUSH1 0x24 PUSH0 REVERT JUMPDEST PUSH0 DUP2 SWAP1 POP DUP2 PUSH0 MSTORE PUSH1 0x20 PUSH0 KECCAK256 SWAP1 POP SWAP2 SWAP1 POP JUMP JUMPDEST PUSH0 PUSH1 0x20 PUSH1 0x1F DUP4 ADD DIV SWAP1 POP SWAP2 SWAP1 POP JUMP JUMPDEST PUSH0 DUP3 DUP3 SHL SWAP1 POP SWAP3 SWAP2 POP POP JUMP JUMPDEST PUSH0 PUSH1 0x8 DUP4 MUL PUSH2 0x2231 PUSH32 0xFFFFFFFFFFFFFFFFFFFFFFFFFFFFFFFFFFFFFFFFFFFFFFFFFFFFFFFFFFFFFFFF DUP3 PUSH2 0x21F6 JUMP JUMPDEST PUSH2 0x223B DUP7 DUP4 PUSH2 0x21F6 JUMP JUMPDEST SWAP6 POP DUP1 NOT DUP5 AND SWAP4 POP DUP1 DUP7 AND DUP5 OR SWAP3 POP POP POP SWAP4 SWAP3 POP POP POP JUMP JUMPDEST PUSH0 PUSH2 0x226D PUSH2 0x2268 PUSH2 0x2263 DUP5 PUSH2 0x19BD JUMP JUMPDEST PUSH2 0x1F9F JUMP JUMPDEST PUSH2 0x19BD JUMP JUMPDEST SWAP1 POP SWAP2 SWAP1 POP JUMP JUMPDEST PUSH0 DUP2 SWAP1 POP SWAP2 SWAP1 POP JUMP JUMPDEST PUSH2 0x2286 DUP4 PUSH2 0x2253 JUMP JUMPDEST PUSH2 0x229A PUSH2 0x2292 DUP3 PUSH2 0x2274 JUMP JUMPDEST DUP5 DUP5 SLOAD PUSH2 0x2202 JUMP JUMPDEST DUP3 SSTORE POP POP POP POP JUMP JUMPDEST PUSH0 PUSH0 SWAP1 POP SWAP1 JUMP JUMPDEST PUSH2 0x22B1 PUSH2 0x22A2 JUMP JUMPDEST PUSH2 0x22BC DUP2 DUP5 DUP5 PUSH2 0x227D JUMP JUMPDEST POP POP POP JUMP JUMPDEST JUMPDEST DUP2 DUP2 LT ISZERO PUSH2 0x22DF JUMPI PUSH2 0x22D4 PUSH0 DUP3 PUSH2 0x22A9 JUMP JUMPDEST PUSH1 0x1 DUP2 ADD SWAP1 POP PUSH2 0x22C2 JUMP JUMPDEST POP POP JUMP JUMPDEST PUSH1 0x1F DUP3 GT ISZERO PUSH2 0x2324 JUMPI PUSH2 0x22F5 DUP2 PUSH2 0x21D5 JUMP JUMPDEST PUSH2 0x22FE DUP5 PUSH2 0x21E7 JUMP JUMPDEST DUP2 ADD PUSH1 0x20 DUP6 LT ISZERO PUSH2 0x230D JUMPI DUP2 SWAP1 POP JUMPDEST PUSH2 0x2321 PUSH2 0x2319 DUP6 PUSH2 0x21E7 JUMP JUMPDEST DUP4 ADD DUP3 PUSH2 0x22C1 JUMP JUMPDEST POP POP JUMPDEST POP POP POP JUMP JUMPDEST PUSH0 DUP3 DUP3 SHR SWAP1 POP SWAP3 SWAP2 POP POP JUMP JUMPDEST PUSH0 PUSH2 0x2344 PUSH0 NOT DUP5 PUSH1 0x8 MUL PUSH2 0x2329 JUMP JUMPDEST NOT DUP1 DUP4 AND SWAP2 POP POP SWAP3 SWAP2 POP POP JUMP JUMPDEST PUSH0 PUSH2 0x235C DUP4 DUP4 PUSH2 0x2335 JUMP JUMPDEST SWAP2 POP DUP3 PUSH1 0x2 MUL DUP3 OR SWAP1 POP SWAP3 SWAP2 POP POP JUMP JUMPDEST PUSH2 0x2376 DUP4 DUP4 PUSH2 0x219E JUMP JUMPDEST PUSH8 0xFFFFFFFFFFFFFFFF DUP2 GT ISZERO PUSH2 0x238F JUMPI PUSH2 0x238E PUSH2 0x21A8 JUMP JUMPDEST JUMPDEST PUSH2 0x2399 DUP3 SLOAD PUSH2 0x2040 JUMP JUMPDEST PUSH2 0x23A4 DUP3 DUP3 DUP6 PUSH2 0x22E3 JUMP JUMPDEST PUSH0 PUSH1 0x1F DUP4 GT PUSH1 0x1 DUP2 EQ PUSH2 0x23D1 JUMPI PUSH0 DUP5 ISZERO PUSH2 0x23BF JUMPI DUP3 DUP8 ADD CALLDATALOAD SWAP1 POP JUMPDEST PUSH2 0x23C9 DUP6 DUP3 PUSH2 0x2351 JUMP JUMPDEST DUP7 SSTORE POP PUSH2 0x2430 JUMP JUMPDEST PUSH1 0x1F NOT DUP5 AND PUSH2 0x23DF DUP7 PUSH2 0x21D5 JUMP JUMPDEST PUSH0 JUMPDEST DUP3 DUP2 LT ISZERO PUSH2 0x2406 JUMPI DUP5 DUP10 ADD CALLDATALOAD DUP3 SSTORE PUSH1 0x1 DUP3 ADD SWAP2 POP PUSH1 0x20 DUP6 ADD SWAP5 POP PUSH1 0x20 DUP2 ADD SWAP1 POP PUSH2 0x23E1 JUMP JUMPDEST DUP7 DUP4 LT ISZERO PUSH2 0x2423 JUMPI DUP5 DUP10 ADD CALLDATALOAD PUSH2 0x241F PUSH1 0x1F DUP10 AND DUP3 PUSH2 0x2335 JUMP JUMPDEST DUP4 SSTORE POP JUMPDEST PUSH1 0x1 PUSH1 0x2 DUP9 MUL ADD DUP9 SSTORE POP POP POP JUMPDEST POP POP POP POP POP POP POP JUMP JUMPDEST PUSH0 DUP2 SLOAD PUSH2 0x2445 DUP2 PUSH2 0x2040 JUMP JUMPDEST PUSH2 0x244F DUP2 DUP7 PUSH2 0x18AA JUMP JUMPDEST SWAP5 POP PUSH1 0x1 DUP3 AND PUSH0 DUP2 EQ PUSH2 0x2469 JUMPI PUSH1 0x1 DUP2 EQ PUSH2 0x247F JUMPI PUSH2 0x24B1 JUMP JUMPDEST PUSH1 0xFF NOT DUP4 AND DUP7 MSTORE DUP2 ISZERO ISZERO PUSH1 0x20 MUL DUP7 ADD SWAP4 POP PUSH2 0x24B1 JUMP JUMPDEST PUSH2 0x2488 DUP6 PUSH2 0x21D5 JUMP JUMPDEST PUSH0 JUMPDEST DUP4 DUP2 LT ISZERO PUSH2 0x24A9 JUMPI DUP2 SLOAD DUP2 DUP10 ADD MSTORE PUSH1 0x1 DUP3 ADD SWAP2 POP PUSH1 0x20 DUP2 ADD SWAP1 POP PUSH2 0x248A JUMP JUMPDEST DUP1 DUP9 ADD SWAP6 POP POP POP JUMPDEST POP POP POP SWAP3 SWAP2 POP POP JUMP JUMPDEST DUP3 DUP2 DUP4 CALLDATACOPY PUSH0 DUP4 DUP4 ADD MSTORE POP POP POP JUMP JUMPDEST PUSH0 PUSH2 0x24D3 DUP4 DUP6 PUSH2 0x18AA JUMP JUMPDEST SWAP4 POP PUSH2 0x24E0 DUP4 DUP6 DUP5 PUSH2 0x24BA JUMP JUMPDEST PUSH2 0x24E9 DUP4 PUSH2 0x18C8 JUMP JUMPDEST DUP5 ADD SWAP1 POP SWAP4 SWAP3 POP POP POP JUMP JUMPDEST PUSH0 PUSH1 0x60 DUP3 ADD SWAP1 POP DUP2 DUP2 SUB PUSH0 DUP4 ADD MSTORE PUSH2 0x250C DUP2 DUP8 PUSH2 0x2439 JUMP JUMPDEST SWAP1 POP DUP2 DUP2 SUB PUSH1 0x20 DUP4 ADD MSTORE PUSH2 0x2521 DUP2 DUP6 DUP8 PUSH2 0x24C8 JUMP JUMPDEST SWAP1 POP PUSH2 0x2530 PUSH1 0x40 DUP4 ADD DUP5 PUSH2 0x1891 JUMP JUMPDEST SWAP6 SWAP5 POP POP POP POP POP JUMP JUMPDEST POP JUMP JUMPDEST PUSH0 PUSH2 0x2547 PUSH0 DUP4 PUSH2 0x18AA JUMP JUMPDEST SWAP2 POP PUSH2 0x2552 DUP3 PUSH2 0x2539 JUMP JUMPDEST PUSH0 DUP3 ADD SWAP1 POP SWAP2 SWAP1 POP JUMP JUMPDEST PUSH0 PUSH1 0x60 DUP3 ADD SWAP1 POP DUP2 DUP2 SUB PUSH0 DUP4 ADD MSTORE PUSH2 0x2573 DUP2 PUSH2 0x253C JUMP JUMPDEST SWAP1 POP DUP2 DUP2 SUB PUSH1 0x20 DUP4 ADD MSTORE PUSH2 0x2588 DUP2 DUP6 DUP8 PUSH2 0x24C8 JUMP JUMPDEST SWAP1 POP PUSH2 0x2597 PUSH1 0x40 DUP4 ADD DUP5 PUSH2 0x1891 JUMP JUMPDEST SWAP5 SWAP4 POP POP POP POP JUMP JUMPDEST PUSH0 PUSH1 0x40 DUP3 ADD SWAP1 POP PUSH2 0x25B2 PUSH0 DUP4 ADD DUP6 PUSH2 0x17E9 JUMP JUMPDEST DUP2 DUP2 SUB PUSH1 0x20 DUP4 ADD MSTORE PUSH2 0x25C4 DUP2 DUP5 PUSH2 0x2439 JUMP JUMPDEST SWAP1 POP SWAP4 SWAP3 POP POP POP JUMP JUMPDEST PUSH2 0x25D6 DUP2 PUSH2 0x1886 JUMP JUMPDEST DUP2 EQ PUSH2 0x25E0 JUMPI PUSH0 PUSH0 REVERT JUMPDEST POP JUMP JUMPDEST PUSH0 DUP2 MLOAD SWAP1 POP PUSH2 0x25F1 DUP2 PUSH2 0x25CD JUMP JUMPDEST SWAP3 SWAP2 POP POP JUMP JUMPDEST PUSH0 PUSH1 0x20 DUP3 DUP5 SUB SLT ISZERO PUSH2 0x260C JUMPI PUSH2 0x260B PUSH2 0x1811 JUMP JUMPDEST JUMPDEST PUSH0 PUSH2 0x2619 DUP5 DUP3 DUP6 ADD PUSH2 0x25E3 JUMP JUMPDEST SWAP2 POP POP SWAP3 SWAP2 POP POP JUMP JUMPDEST PUSH0 PUSH1 0x60 DUP3 ADD SWAP1 POP PUSH2 0x2635 PUSH0 DUP4 ADD DUP7 PUSH2 0x17E9 JUMP JUMPDEST PUSH2 0x2642 PUSH1 0x20 DUP4 ADD DUP6 PUSH2 0x17E9 JUMP JUMPDEST DUP2 DUP2 SUB PUSH1 0x40 DUP4 ADD MSTORE PUSH2 0x2654 DUP2 DUP5 PUSH2 0x2439 JUMP JUMPDEST SWAP1 POP SWAP5 SWAP4 POP POP POP POP JUMP JUMPDEST PUSH0 PUSH1 0x40 DUP3 ADD SWAP1 POP PUSH2 0x2671 PUSH0 DUP4 ADD DUP6 PUSH2 0x17E9 JUMP JUMPDEST PUSH2 0x267E PUSH1 0x20 DUP4 ADD DUP5 PUSH2 0x17E9 JUMP JUMPDEST SWAP4 SWAP3 POP POP POP JUMP JUMPDEST PUSH0 PUSH2 0x268F DUP3 PUSH2 0x1C4B JUMP JUMPDEST SWAP2 POP PUSH4 0xFFFFFFFF DUP3 SUB PUSH2 0x26A5 JUMPI PUSH2 0x26A4 PUSH2 0x209D JUMP JUMPDEST JUMPDEST PUSH1 0x1 DUP3 ADD SWAP1 POP SWAP2 SWAP1 POP JUMP JUMPDEST PUSH0 PUSH1 0x40 DUP3 ADD SWAP1 POP PUSH2 0x26C3 PUSH0 DUP4 ADD DUP6 PUSH2 0x1877 JUMP JUMPDEST PUSH2 0x26D0 PUSH1 0x20 DUP4 ADD DUP5 PUSH2 0x1C5A JUMP JUMPDEST SWAP4 SWAP3 POP POP POP JUMP JUMPDEST PUSH0 DUP2 SWAP1 POP SWAP2 SWAP1 POP JUMP JUMPDEST PUSH2 0x26F1 PUSH2 0x26EC DUP3 PUSH2 0x186E JUMP JUMPDEST PUSH2 0x26D7 JUMP JUMPDEST DUP3 MSTORE POP POP JUMP JUMPDEST PUSH0 DUP2 SWAP1 POP SWAP3 SWAP2 POP POP JUMP JUMPDEST PUSH0 PUSH2 0x270B DUP3 PUSH2 0x18A0 JUMP JUMPDEST PUSH2 0x2715 DUP2 DUP6 PUSH2 0x26F7 JUMP JUMPDEST SWAP4 POP PUSH2 0x2725 DUP2 DUP6 PUSH1 0x20 DUP7 ADD PUSH2 0x18BA JUMP JUMPDEST DUP1 DUP5 ADD SWAP2 POP POP SWAP3 SWAP2 POP POP JUMP JUMPDEST PUSH0 PUSH2 0x273C DUP3 DUP6 PUSH2 0x26E0 JUMP JUMPDEST PUSH1 0x20 DUP3 ADD SWAP2 POP PUSH2 0x274C DUP3 DUP5 PUSH2 0x2701 JUMP JUMPDEST SWAP2 POP DUP2 SWAP1 POP SWAP4 SWAP3 POP POP POP JUMP INVALID LOG2 PUSH5 0x6970667358 0x22 SLT KECCAK256 0xB7 0x2F ADDMOD KECCAK256 SWAP10 DUP4 SSTORE 0xAC PUSH7 0x9F47D6538FCA5F 0x4C 0xC8 0xAB 0xCE BLOBHASH 0x24 PUSH7 0x62CFFA1694DEB0 0x27 DUP5 PUSH5 0x736F6C6343 STOP ADDMOD 0x1E STOP CALLER LOG2 PUSH5 0x6970667358 0x22 SLT KECCAK256 EXTSTATICCALL DUP15 PUSH25 0x3356DFB2992FCAFF8265E7ECBD7407912620B5A0F19C79C0BC 0x2A RETURN DUP6 OR PUSH5 0x736F6C6343 STOP ADDMOD 0x1E STOP CALLER PUSH1 0xA0 PUSH1 0x40 MSTORE CALLVALUE DUP1 ISZERO PUSH2 0xF JUMPI PUSH0 PUSH0 REVERT JUMPDEST POP PUSH1 0x40 MLOAD PUSH2 0x1CF3 CODESIZE SUB DUP1 PUSH2 0x1CF3 DUP4 CODECOPY DUP2 DUP2 ADD PUSH1 0x40 MSTORE DUP2 ADD SWAP1 PUSH2 0x31 SWAP2 SWAP1 PUSH2 0xDA JUMP JUMPDEST DUP1 PUSH20 0xFFFFFFFFFFFFFFFFFFFFFFFFFFFFFFFFFFFFFFFF AND PUSH1 0x80 DUP2 PUSH20 0xFFFFFFFFFFFFFFFFFFFFFFFFFFFFFFFFFFFFFFFF AND DUP2 MSTORE POP POP POP PUSH2 0x105 JUMP JUMPDEST PUSH0 PUSH0 REVERT JUMPDEST PUSH0 PUSH20 0xFFFFFFFFFFFFFFFFFFFFFFFFFFFFFFFFFFFFFFFF DUP3 AND SWAP1 POP SWAP2 SWAP1 POP JUMP JUMPDEST PUSH0 PUSH2 0x98 DUP3 PUSH2 0x6F JUMP JUMPDEST SWAP1 POP SWAP2 SWAP1 POP JUMP JUMPDEST PUSH0 PUSH2 0xA9 DUP3 PUSH2 0x8E JUMP JUMPDEST SWAP1 POP SWAP2 SWAP1 POP JUMP JUMPDEST PUSH2 0xB9 DUP2 PUSH2 0x9F JUMP JUMPDEST DUP2 EQ PUSH2 0xC3 JUMPI PUSH0 PUSH0 REVERT JUMPDEST POP JUMP JUMPDEST PUSH0 DUP2 MLOAD SWAP1 POP PUSH2 0xD4 DUP2 PUSH2 0xB0 JUMP JUMPDEST SWAP3 SWAP2 POP POP JUMP JUMPDEST PUSH0 PUSH1 0x20 DUP3 DUP5 SUB SLT ISZERO PUSH2 0xEF JUMPI PUSH2 0xEE PUSH2 0x6B JUMP JUMPDEST JUMPDEST PUSH0 PUSH2 0xFC DUP5 DUP3 DUP6 ADD PUSH2 0xC6 JUMP JUMPDEST SWAP2 POP POP SWAP3 SWAP2 POP POP JUMP JUMPDEST PUSH1 0x80 MLOAD PUSH2 0x1BCF PUSH2 0x124 PUSH0 CODECOPY PUSH0 DUP2 DUP2 PUSH2 0x5AA ADD MSTORE PUSH2 0x10D8 ADD MSTORE PUSH2 0x1BCF PUSH0 RETURN INVALID PUSH1 0x80 PUSH1 0x40 MSTORE PUSH1 0x4 CALLDATASIZE LT PUSH2 0xA6 JUMPI PUSH0 CALLDATALOAD PUSH1 0xE0 SHR DUP1 PUSH4 0x41A51D13 GT PUSH2 0x63 JUMPI DUP1 PUSH4 0x41A51D13 EQ PUSH2 0x1B9 JUMPI DUP1 PUSH4 0x709DF8D9 EQ PUSH2 0x1E9 JUMPI DUP1 PUSH4 0xA83A475C EQ PUSH2 0x225 JUMPI DUP1 PUSH4 0xBE7AF16B EQ PUSH2 0x263 JUMPI DUP1 PUSH4 0xDFCECEAE EQ PUSH2 0x29F JUMPI DUP1 PUSH4 0xF887EA40 EQ PUSH2 0x2DB JUMPI PUSH2 0xA6 JUMP JUMPDEST DUP1 PUSH4 0xC90CE42 EQ PUSH2 0xAA JUMPI DUP1 PUSH4 0x1A179692 EQ PUSH2 0xED JUMPI DUP1 PUSH4 0x224F3D1A EQ PUSH2 0x117 JUMPI DUP1 PUSH4 0x2FB1B25F EQ PUSH2 0x13F JUMPI DUP1 PUSH4 0x35F75E16 EQ PUSH2 0x167 JUMPI DUP1 PUSH4 0x379607F5 EQ PUSH2 0x191 JUMPI JUMPDEST PUSH0 PUSH0 REVERT JUMPDEST CALLVALUE DUP1 ISZERO PUSH2 0xB5 JUMPI PUSH0 PUSH0 REVERT JUMPDEST POP PUSH2 0xD0 PUSH1 0x4 DUP1 CALLDATASIZE SUB DUP2 ADD SWAP1 PUSH2 0xCB SWAP2 SWAP1 PUSH2 0x1135 JUMP JUMPDEST PUSH2 0x305 JUMP JUMPDEST PUSH1 0x40 MLOAD PUSH2 0xE4 SWAP9 SWAP8 SWAP7 SWAP6 SWAP5 SWAP4 SWAP3 SWAP2 SWAP1 PUSH2 0x1275 JUMP JUMPDEST PUSH1 0x40 MLOAD DUP1 SWAP2 SUB SWAP1 RETURN JUMPDEST CALLVALUE DUP1 ISZERO PUSH2 0xF8 JUMPI PUSH0 PUSH0 REVERT JUMPDEST POP PUSH2 0x101 PUSH2 0x4FA JUMP JUMPDEST PUSH1 0x40 MLOAD PUSH2 0x10E SWAP2 SWAP1 PUSH2 0x12FF JUMP JUMPDEST PUSH1 0x40 MLOAD DUP1 SWAP2 SUB SWAP1 RETURN JUMPDEST CALLVALUE DUP1 ISZERO PUSH2 0x122 JUMPI PUSH0 PUSH0 REVERT JUMPDEST POP PUSH2 0x13D PUSH1 0x4 DUP1 CALLDATASIZE SUB DUP2 ADD SWAP1 PUSH2 0x138 SWAP2 SWAP1 PUSH2 0x1342 JUMP JUMPDEST PUSH2 0x4FF JUMP JUMPDEST STOP JUMPDEST CALLVALUE DUP1 ISZERO PUSH2 0x14A JUMPI PUSH0 PUSH0 REVERT JUMPDEST POP PUSH2 0x165 PUSH1 0x4 DUP1 CALLDATASIZE SUB DUP2 ADD SWAP1 PUSH2 0x160 SWAP2 SWAP1 PUSH2 0x1135 JUMP JUMPDEST PUSH2 0x836 JUMP JUMPDEST STOP JUMPDEST CALLVALUE DUP1 ISZERO PUSH2 0x172 JUMPI PUSH0 PUSH0 REVERT JUMPDEST POP PUSH2 0x17B PUSH2 0xAD4 JUMP JUMPDEST PUSH1 0x40 MLOAD PUSH2 0x188 SWAP2 SWAP1 PUSH2 0x138F JUMP JUMPDEST PUSH1 0x40 MLOAD DUP1 SWAP2 SUB SWAP1 RETURN JUMPDEST CALLVALUE DUP1 ISZERO PUSH2 0x19C JUMPI PUSH0 PUSH0 REVERT JUMPDEST POP PUSH2 0x1B7 PUSH1 0x4 DUP1 CALLDATASIZE SUB DUP2 ADD SWAP1 PUSH2 0x1B2 SWAP2 SWAP1 PUSH2 0x1135 JUMP JUMPDEST PUSH2 0xADF JUMP JUMPDEST STOP JUMPDEST PUSH2 0x1D3 PUSH1 0x4 DUP1 CALLDATASIZE SUB DUP2 ADD SWAP1 PUSH2 0x1CE SWAP2 SWAP1 PUSH2 0x1409 JUMP JUMPDEST PUSH2 0xDF4 JUMP JUMPDEST PUSH1 0x40 MLOAD PUSH2 0x1E0 SWAP2 SWAP1 PUSH2 0x138F JUMP JUMPDEST PUSH1 0x40 MLOAD DUP1 SWAP2 SUB SWAP1 RETURN JUMPDEST CALLVALUE DUP1 ISZERO PUSH2 0x1F4 JUMPI PUSH0 PUSH0 REVERT JUMPDEST POP PUSH2 0x20F PUSH1 0x4 DUP1 CALLDATASIZE SUB DUP2 ADD SWAP1 PUSH2 0x20A SWAP2 SWAP1 PUSH2 0x14B1 JUMP JUMPDEST PUSH2 0xF8E JUMP JUMPDEST PUSH1 0x40 MLOAD PUSH2 0x21C SWAP2 SWAP1 PUSH2 0x14EF JUMP JUMPDEST PUSH1 0x40 MLOAD DUP1 SWAP2 SUB SWAP1 RETURN JUMPDEST CALLVALUE DUP1 ISZERO PUSH2 0x230 JUMPI PUSH0 PUSH0 REVERT JUMPDEST POP PUSH2 0x24B PUSH1 0x4 DUP1 CALLDATASIZE SUB DUP2 ADD SWAP1 PUSH2 0x246 SWAP2 SWAP1 PUSH2 0x1135 JUMP JUMPDEST PUSH2 0xFB8 JUMP JUMPDEST PUSH1 0x40 MLOAD PUSH2 0x25A SWAP4 SWAP3 SWAP2 SWAP1 PUSH2 0x1508 JUMP JUMPDEST PUSH1 0x40 MLOAD DUP1 SWAP2 SUB SWAP1 RETURN JUMPDEST CALLVALUE DUP1 ISZERO PUSH2 0x26E JUMPI PUSH0 PUSH0 REVERT JUMPDEST POP PUSH2 0x289 PUSH1 0x4 DUP1 CALLDATASIZE SUB DUP2 ADD SWAP1 PUSH2 0x284 SWAP2 SWAP1 PUSH2 0x14B1 JUMP JUMPDEST PUSH2 0x1022 JUMP JUMPDEST PUSH1 0x40 MLOAD PUSH2 0x296 SWAP2 SWAP1 PUSH2 0x14EF JUMP JUMPDEST PUSH1 0x40 MLOAD DUP1 SWAP2 SUB SWAP1 RETURN JUMPDEST CALLVALUE DUP1 ISZERO PUSH2 0x2AA JUMPI PUSH0 PUSH0 REVERT JUMPDEST POP PUSH2 0x2C5 PUSH1 0x4 DUP1 CALLDATASIZE SUB DUP2 ADD SWAP1 PUSH2 0x2C0 SWAP2 SWAP1 PUSH2 0x1135 JUMP JUMPDEST PUSH2 0x1084 JUMP JUMPDEST PUSH1 0x40 MLOAD PUSH2 0x2D2 SWAP2 SWAP1 PUSH2 0x15F4 JUMP JUMPDEST PUSH1 0x40 MLOAD DUP1 SWAP2 SUB SWAP1 RETURN JUMPDEST CALLVALUE DUP1 ISZERO PUSH2 0x2E6 JUMPI PUSH0 PUSH0 REVERT JUMPDEST POP PUSH2 0x2EF PUSH2 0x10D6 JUMP JUMPDEST PUSH1 0x40 MLOAD PUSH2 0x2FC SWAP2 SWAP1 PUSH2 0x166F JUMP JUMPDEST PUSH1 0x40 MLOAD DUP1 SWAP2 SUB SWAP1 RETURN JUMPDEST PUSH0 PUSH1 0x60 DUP1 PUSH0 PUSH0 PUSH0 PUSH0 PUSH0 PUSH0 PUSH0 DUP11 DUP2 SLOAD DUP2 LT PUSH2 0x322 JUMPI PUSH2 0x321 PUSH2 0x1688 JUMP JUMPDEST JUMPDEST SWAP1 PUSH0 MSTORE PUSH1 0x20 PUSH0 KECCAK256 SWAP1 PUSH1 0x4 MUL ADD SWAP1 POP DUP1 PUSH0 ADD PUSH0 SWAP1 SLOAD SWAP1 PUSH2 0x100 EXP SWAP1 DIV PUSH20 0xFFFFFFFFFFFFFFFFFFFFFFFFFFFFFFFFFFFFFFFF AND DUP2 PUSH1 0x1 ADD DUP3 PUSH1 0x2 ADD DUP4 PUSH1 0x3 ADD PUSH0 SWAP1 SLOAD SWAP1 PUSH2 0x100 EXP SWAP1 DIV PUSH16 0xFFFFFFFFFFFFFFFFFFFFFFFFFFFFFFFF AND DUP5 PUSH1 0x3 ADD PUSH1 0x10 SWAP1 SLOAD SWAP1 PUSH2 0x100 EXP SWAP1 DIV PUSH8 0xFFFFFFFFFFFFFFFF AND DUP6 PUSH1 0x3 ADD PUSH1 0x18 SWAP1 SLOAD SWAP1 PUSH2 0x100 EXP SWAP1 DIV PUSH1 0xFF AND DUP7 PUSH1 0x3 ADD PUSH1 0x19 SWAP1 SLOAD SWAP1 PUSH2 0x100 EXP SWAP1 DIV PUSH1 0xFF AND DUP8 PUSH1 0x3 ADD PUSH1 0x1A SWAP1 SLOAD SWAP1 PUSH2 0x100 EXP SWAP1 DIV PUSH1 0xFF AND DUP7 DUP1 SLOAD PUSH2 0x3D6 SWAP1 PUSH2 0x16E2 JUMP JUMPDEST DUP1 PUSH1 0x1F ADD PUSH1 0x20 DUP1 SWAP2 DIV MUL PUSH1 0x20 ADD PUSH1 0x40 MLOAD SWAP1 DUP2 ADD PUSH1 0x40 MSTORE DUP1 SWAP3 SWAP2 SWAP1 DUP2 DUP2 MSTORE PUSH1 0x20 ADD DUP3 DUP1 SLOAD PUSH2 0x402 SWAP1 PUSH2 0x16E2 JUMP JUMPDEST DUP1 ISZERO PUSH2 0x44D JUMPI DUP1 PUSH1 0x1F LT PUSH2 0x424 JUMPI PUSH2 0x100 DUP1 DUP4 SLOAD DIV MUL DUP4 MSTORE SWAP2 PUSH1 0x20 ADD SWAP2 PUSH2 0x44D JUMP JUMPDEST DUP3 ADD SWAP2 SWAP1 PUSH0 MSTORE PUSH1 0x20 PUSH0 KECCAK256 SWAP1 JUMPDEST DUP2 SLOAD DUP2 MSTORE SWAP1 PUSH1 0x1 ADD SWAP1 PUSH1 0x20 ADD DUP1 DUP4 GT PUSH2 0x430 JUMPI DUP3 SWAP1 SUB PUSH1 0x1F AND DUP3 ADD SWAP2 JUMPDEST POP POP POP POP POP SWAP7 POP DUP6 DUP1 SLOAD PUSH2 0x460 SWAP1 PUSH2 0x16E2 JUMP JUMPDEST DUP1 PUSH1 0x1F ADD PUSH1 0x20 DUP1 SWAP2 DIV MUL PUSH1 0x20 ADD PUSH1 0x40 MLOAD SWAP1 DUP2 ADD PUSH1 0x40 MSTORE DUP1 SWAP3 SWAP2 SWAP1 DUP2 DUP2 MSTORE PUSH1 0x20 ADD DUP3 DUP1 SLOAD PUSH2 0x48C SWAP1 PUSH2 0x16E2 JUMP JUMPDEST DUP1 ISZERO PUSH2 0x4D7 JUMPI DUP1 PUSH1 0x1F LT PUSH2 0x4AE JUMPI PUSH2 0x100 DUP1 DUP4 SLOAD DIV MUL DUP4 MSTORE SWAP2 PUSH1 0x20 ADD SWAP2 PUSH2 0x4D7 JUMP JUMPDEST DUP3 ADD SWAP2 SWAP1 PUSH0 MSTORE PUSH1 0x20 PUSH0 KECCAK256 SWAP1 JUMPDEST DUP2 SLOAD DUP2 MSTORE SWAP1 PUSH1 0x1 ADD SWAP1 PUSH1 0x20 ADD DUP1 DUP4 GT PUSH2 0x4BA JUMPI DUP3 SWAP1 SUB PUSH1 0x1F AND DUP3 ADD SWAP2 JUMPDEST POP POP POP POP POP SWAP6 POP SWAP9 POP SWAP9 POP SWAP9 POP SWAP9 POP SWAP9 POP SWAP9 POP SWAP9 POP SWAP9 POP POP SWAP2 SWAP4 SWAP6 SWAP8 POP SWAP2 SWAP4 SWAP6 SWAP8 JUMP JUMPDEST PUSH1 0x5 DUP2 JUMP JUMPDEST PUSH0 PUSH0 DUP4 DUP2 SLOAD DUP2 LT PUSH2 0x513 JUMPI PUSH2 0x512 PUSH2 0x1688 JUMP JUMPDEST JUMPDEST SWAP1 PUSH0 MSTORE PUSH1 0x20 PUSH0 KECCAK256 SWAP1 PUSH1 0x4 MUL ADD SWAP1 POP PUSH0 PUSH20 0xFFFFFFFFFFFFFFFFFFFFFFFFFFFFFFFFFFFFFFFF AND DUP2 PUSH0 ADD PUSH0 SWAP1 SLOAD SWAP1 PUSH2 0x100 EXP SWAP1 DIV PUSH20 0xFFFFFFFFFFFFFFFFFFFFFFFFFFFFFFFFFFFFFFFF AND PUSH20 0xFFFFFFFFFFFFFFFFFFFFFFFFFFFFFFFFFFFFFFFF AND SUB PUSH2 0x5A8 JUMPI PUSH1 0x40 MLOAD PUSH32 0xDA5D547300000000000000000000000000000000000000000000000000000000 DUP2 MSTORE PUSH1 0x4 ADD PUSH1 0x40 MLOAD DUP1 SWAP2 SUB SWAP1 REVERT JUMPDEST PUSH32 0x0 PUSH20 0xFFFFFFFFFFFFFFFFFFFFFFFFFFFFFFFFFFFFFFFF AND PUSH4 0x2330F247 CALLER PUSH1 0x40 MLOAD DUP3 PUSH4 0xFFFFFFFF AND PUSH1 0xE0 SHL DUP2 MSTORE PUSH1 0x4 ADD PUSH2 0x601 SWAP2 SWAP1 PUSH2 0x1712 JUMP JUMPDEST PUSH1 0x20 PUSH1 0x40 MLOAD DUP1 DUP4 SUB DUP2 DUP7 GAS STATICCALL ISZERO DUP1 ISZERO PUSH2 0x61C JUMPI RETURNDATASIZE PUSH0 PUSH0 RETURNDATACOPY RETURNDATASIZE PUSH0 REVERT JUMPDEST POP POP POP POP PUSH1 0x40 MLOAD RETURNDATASIZE PUSH1 0x1F NOT PUSH1 0x1F DUP3 ADD AND DUP3 ADD DUP1 PUSH1 0x40 MSTORE POP DUP2 ADD SWAP1 PUSH2 0x640 SWAP2 SWAP1 PUSH2 0x173F JUMP JUMPDEST PUSH2 0x676 JUMPI PUSH1 0x40 MLOAD PUSH32 0x1CCC6F2700000000000000000000000000000000000000000000000000000000 DUP2 MSTORE PUSH1 0x4 ADD PUSH1 0x40 MLOAD DUP1 SWAP2 SUB SWAP1 REVERT JUMPDEST PUSH1 0x5 PUSH8 0xFFFFFFFFFFFFFFFF AND DUP2 PUSH1 0x3 ADD PUSH1 0x10 SWAP1 SLOAD SWAP1 PUSH2 0x100 EXP SWAP1 DIV PUSH8 0xFFFFFFFFFFFFFFFF AND PUSH8 0xFFFFFFFFFFFFFFFF AND LT ISZERO PUSH2 0x6DD JUMPI PUSH1 0x40 MLOAD PUSH32 0xD79FA57000000000000000000000000000000000000000000000000000000000 DUP2 MSTORE PUSH1 0x4 ADD PUSH1 0x40 MLOAD DUP1 SWAP2 SUB SWAP1 REVERT JUMPDEST PUSH1 0x40 MLOAD DUP1 PUSH1 0x60 ADD PUSH1 0x40 MSTORE DUP1 PUSH1 0x1 ISZERO ISZERO DUP2 MSTORE PUSH1 0x20 ADD DUP4 ISZERO ISZERO DUP2 MSTORE PUSH1 0x20 ADD CALLER PUSH20 0xFFFFFFFFFFFFFFFFFFFFFFFFFFFFFFFFFFFFFFFF AND DUP2 MSTORE POP PUSH1 0x2 PUSH0 DUP6 DUP2 MSTORE PUSH1 0x20 ADD SWAP1 DUP2 MSTORE PUSH1 0x20 ADD PUSH0 KECCAK256 PUSH0 DUP3 ADD MLOAD DUP2 PUSH0 ADD PUSH0 PUSH2 0x100 EXP DUP2 SLOAD DUP2 PUSH1 0xFF MUL NOT AND SWAP1 DUP4 ISZERO ISZERO MUL OR SWAP1 SSTORE POP PUSH1 0x20 DUP3 ADD MLOAD DUP2 PUSH0 ADD PUSH1 0x1 PUSH2 0x100 EXP DUP2 SLOAD DUP2 PUSH1 0xFF MUL NOT AND SWAP1 DUP4 ISZERO ISZERO MUL OR SWAP1 SSTORE POP PUSH1 0x40 DUP3 ADD MLOAD DUP2 PUSH0 ADD PUSH1 0x2 PUSH2 0x100 EXP DUP2 SLOAD DUP2 PUSH20 0xFFFFFFFFFFFFFFFFFFFFFFFFFFFFFFFFFFFFFFFF MUL NOT AND SWAP1 DUP4 PUSH20 0xFFFFFFFFFFFFFFFFFFFFFFFFFFFFFFFFFFFFFFFF AND MUL OR SWAP1 SSTORE POP SWAP1 POP POP DUP2 DUP2 PUSH1 0x3 ADD PUSH1 0x18 PUSH2 0x100 EXP DUP2 SLOAD DUP2 PUSH1 0xFF MUL NOT AND SWAP1 DUP4 ISZERO ISZERO MUL OR SWAP1 SSTORE POP PUSH1 0x1 DUP2 PUSH1 0x3 ADD PUSH1 0x19 PUSH2 0x100 EXP DUP2 SLOAD DUP2 PUSH1 0xFF MUL NOT AND SWAP1 DUP4 ISZERO ISZERO MUL OR SWAP1 SSTORE POP CALLER PUSH20 0xFFFFFFFFFFFFFFFFFFFFFFFFFFFFFFFFFFFFFFFF AND DUP4 PUSH32 0xDF24A5307D7EC9D0633724BD1E25AE3961A90C907F6D4DD48967BDE0118A578 DUP5 PUSH1 0x40 MLOAD PUSH2 0x829 SWAP2 SWAP1 PUSH2 0x14EF JUMP JUMPDEST PUSH1 0x40 MLOAD DUP1 SWAP2 SUB SWAP1 LOG3 POP POP POP JUMP JUMPDEST PUSH0 PUSH0 DUP3 DUP2 SLOAD DUP2 LT PUSH2 0x84A JUMPI PUSH2 0x849 PUSH2 0x1688 JUMP JUMPDEST JUMPDEST SWAP1 PUSH0 MSTORE PUSH1 0x20 PUSH0 KECCAK256 SWAP1 PUSH1 0x4 MUL ADD SWAP1 POP PUSH0 PUSH20 0xFFFFFFFFFFFFFFFFFFFFFFFFFFFFFFFFFFFFFFFF AND DUP2 PUSH0 ADD PUSH0 SWAP1 SLOAD SWAP1 PUSH2 0x100 EXP SWAP1 DIV PUSH20 0xFFFFFFFFFFFFFFFFFFFFFFFFFFFFFFFFFFFFFFFF AND PUSH20 0xFFFFFFFFFFFFFFFFFFFFFFFFFFFFFFFFFFFFFFFF AND SUB PUSH2 0x8DF JUMPI PUSH1 0x40 MLOAD PUSH32 0xDA5D547300000000000000000000000000000000000000000000000000000000 DUP2 MSTORE PUSH1 0x4 ADD PUSH1 0x40 MLOAD DUP1 SWAP2 SUB SWAP1 REVERT JUMPDEST PUSH1 0x1 PUSH0 DUP4 DUP2 MSTORE PUSH1 0x20 ADD SWAP1 DUP2 MSTORE PUSH1 0x20 ADD PUSH0 KECCAK256 PUSH0 CALLER PUSH20 0xFFFFFFFFFFFFFFFFFFFFFFFFFFFFFFFFFFFFFFFF AND PUSH20 0xFFFFFFFFFFFFFFFFFFFFFFFFFFFFFFFFFFFFFFFF AND DUP2 MSTORE PUSH1 0x20 ADD SWAP1 DUP2 MSTORE PUSH1 0x20 ADD PUSH0 KECCAK256 PUSH0 SWAP1 SLOAD SWAP1 PUSH2 0x100 EXP SWAP1 DIV PUSH1 0xFF AND ISZERO PUSH2 0x96F JUMPI PUSH1 0x40 MLOAD PUSH32 0x7C9A1CF900000000000000000000000000000000000000000000000000000000 DUP2 MSTORE PUSH1 0x4 ADD PUSH1 0x40 MLOAD DUP1 SWAP2 SUB SWAP1 REVERT JUMPDEST DUP1 PUSH1 0x3 ADD PUSH1 0x19 SWAP1 SLOAD SWAP1 PUSH2 0x100 EXP SWAP1 DIV PUSH1 0xFF AND ISZERO PUSH2 0x9B8 JUMPI PUSH1 0x40 MLOAD PUSH32 0xC906A36E00000000000000000000000000000000000000000000000000000000 DUP2 MSTORE PUSH1 0x4 ADD PUSH1 0x40 MLOAD DUP1 SWAP2 SUB SWAP1 REVERT JUMPDEST PUSH1 0x1 DUP1 PUSH0 DUP5 DUP2 MSTORE PUSH1 0x20 ADD SWAP1 DUP2 MSTORE PUSH1 0x20 ADD PUSH0 KECCAK256 PUSH0 CALLER PUSH20 0xFFFFFFFFFFFFFFFFFFFFFFFFFFFFFFFFFFFFFFFF AND PUSH20 0xFFFFFFFFFFFFFFFFFFFFFFFFFFFFFFFFFFFFFFFF AND DUP2 MSTORE PUSH1 0x20 ADD SWAP1 DUP2 MSTORE PUSH1 0x20 ADD PUSH0 KECCAK256 PUSH0 PUSH2 0x100 EXP DUP2 SLOAD DUP2 PUSH1 0xFF MUL NOT AND SWAP1 DUP4 ISZERO ISZERO MUL OR SWAP1 SSTORE POP PUSH1 0x1 DUP2 PUSH1 0x3 ADD PUSH1 0x10 DUP3 DUP3 DUP3 SWAP1 SLOAD SWAP1 PUSH2 0x100 EXP SWAP1 DIV PUSH8 0xFFFFFFFFFFFFFFFF AND PUSH2 0xA43 SWAP2 SWAP1 PUSH2 0x1797 JUMP JUMPDEST SWAP3 POP PUSH2 0x100 EXP DUP2 SLOAD DUP2 PUSH8 0xFFFFFFFFFFFFFFFF MUL NOT AND SWAP1 DUP4 PUSH8 0xFFFFFFFFFFFFFFFF AND MUL OR SWAP1 SSTORE POP CALLER PUSH20 0xFFFFFFFFFFFFFFFFFFFFFFFFFFFFFFFFFFFFFFFF AND DUP3 PUSH32 0x2CA60A2F068001BD115EBE115640860FB468EA80F162E5460874BA7C022C9E15 DUP4 PUSH1 0x3 ADD PUSH1 0x10 SWAP1 SLOAD SWAP1 PUSH2 0x100 EXP SWAP1 DIV PUSH8 0xFFFFFFFFFFFFFFFF AND PUSH1 0x40 MLOAD PUSH2 0xAC8 SWAP2 SWAP1 PUSH2 0x12FF JUMP JUMPDEST PUSH1 0x40 MLOAD DUP1 SWAP2 SUB SWAP1 LOG3 POP POP JUMP JUMPDEST PUSH0 PUSH0 DUP1 SLOAD SWAP1 POP SWAP1 POP SWAP1 JUMP JUMPDEST PUSH0 PUSH0 DUP3 DUP2 SLOAD DUP2 LT PUSH2 0xAF3 JUMPI PUSH2 0xAF2 PUSH2 0x1688 JUMP JUMPDEST JUMPDEST SWAP1 PUSH0 MSTORE PUSH1 0x20 PUSH0 KECCAK256 SWAP1 PUSH1 0x4 MUL ADD SWAP1 POP DUP1 PUSH0 ADD PUSH0 SWAP1 SLOAD SWAP1 PUSH2 0x100 EXP SWAP1 DIV PUSH20 0xFFFFFFFFFFFFFFFFFFFFFFFFFFFFFFFFFFFFFFFF AND PUSH20 0xFFFFFFFFFFFFFFFFFFFFFFFFFFFFFFFFFFFFFFFF AND CALLER PUSH20 0xFFFFFFFFFFFFFFFFFFFFFFFFFFFFFFFFFFFFFFFF AND EQ PUSH2 0xB88 JUMPI PUSH1 0x40 MLOAD PUSH32 0x93687C0B00000000000000000000000000000000000000000000000000000000 DUP2 MSTORE PUSH1 0x4 ADD PUSH1 0x40 MLOAD DUP1 SWAP2 SUB SWAP1 REVERT JUMPDEST DUP1 PUSH1 0x3 ADD PUSH1 0x19 SWAP1 SLOAD SWAP1 PUSH2 0x100 EXP SWAP1 DIV PUSH1 0xFF AND PUSH2 0xBD0 JUMPI PUSH1 0x40 MLOAD PUSH32 0xC906A36E00000000000000000000000000000000000000000000000000000000 DUP2 MSTORE PUSH1 0x4 ADD PUSH1 0x40 MLOAD DUP1 SWAP2 SUB SWAP1 REVERT JUMPDEST DUP1 PUSH1 0x3 ADD PUSH1 0x18 SWAP1 SLOAD SWAP1 PUSH2 0x100 EXP SWAP1 DIV PUSH1 0xFF AND PUSH2 0xC18 JUMPI PUSH1 0x40 MLOAD PUSH32 0xC906A36E00000000000000000000000000000000000000000000000000000000 DUP2 MSTORE PUSH1 0x4 ADD PUSH1 0x40 MLOAD DUP1 SWAP2 SUB SWAP1 REVERT JUMPDEST DUP1 PUSH1 0x3 ADD PUSH1 0x1A SWAP1 SLOAD SWAP1 PUSH2 0x100 EXP SWAP1 DIV PUSH1 0xFF AND ISZERO PUSH2 0xC61 JUMPI PUSH1 0x40 MLOAD PUSH32 0x646CF55800000000000000000000000000000000000000000000000000000000 DUP2 MSTORE PUSH1 0x4 ADD PUSH1 0x40 MLOAD DUP1 SWAP2 SUB SWAP1 REVERT JUMPDEST PUSH1 0x1 DUP2 PUSH1 0x3 ADD PUSH1 0x1A PUSH2 0x100 EXP DUP2 SLOAD DUP2 PUSH1 0xFF MUL NOT AND SWAP1 DUP4 ISZERO ISZERO MUL OR SWAP1 SSTORE POP PUSH0 DUP2 PUSH1 0x3 ADD PUSH0 SWAP1 SLOAD SWAP1 PUSH2 0x100 EXP SWAP1 DIV PUSH16 0xFFFFFFFFFFFFFFFFFFFFFFFFFFFFFFFF AND SWAP1 POP PUSH0 DUP3 PUSH0 ADD PUSH0 SWAP1 SLOAD SWAP1 PUSH2 0x100 EXP SWAP1 DIV PUSH20 0xFFFFFFFFFFFFFFFFFFFFFFFFFFFFFFFFFFFFFFFF AND PUSH20 0xFFFFFFFFFFFFFFFFFFFFFFFFFFFFFFFFFFFFFFFF AND DUP3 PUSH16 0xFFFFFFFFFFFFFFFFFFFFFFFFFFFFFFFF AND PUSH1 0x40 MLOAD PUSH2 0xCFA SWAP1 PUSH2 0x17FF JUMP JUMPDEST PUSH0 PUSH1 0x40 MLOAD DUP1 DUP4 SUB DUP2 DUP6 DUP8 GAS CALL SWAP3 POP POP POP RETURNDATASIZE DUP1 PUSH0 DUP2 EQ PUSH2 0xD34 JUMPI PUSH1 0x40 MLOAD SWAP2 POP PUSH1 0x1F NOT PUSH1 0x3F RETURNDATASIZE ADD AND DUP3 ADD PUSH1 0x40 MSTORE RETURNDATASIZE DUP3 MSTORE RETURNDATASIZE PUSH0 PUSH1 0x20 DUP5 ADD RETURNDATACOPY PUSH2 0xD39 JUMP JUMPDEST PUSH1 0x60 SWAP2 POP JUMPDEST POP POP SWAP1 POP DUP1 PUSH2 0xD7D JUMPI PUSH1 0x40 MLOAD PUSH32 0x8C379A000000000000000000000000000000000000000000000000000000000 DUP2 MSTORE PUSH1 0x4 ADD PUSH2 0xD74 SWAP1 PUSH2 0x185D JUMP JUMPDEST PUSH1 0x40 MLOAD DUP1 SWAP2 SUB SWAP1 REVERT JUMPDEST DUP3 PUSH0 ADD PUSH0 SWAP1 SLOAD SWAP1 PUSH2 0x100 EXP SWAP1 DIV PUSH20 0xFFFFFFFFFFFFFFFFFFFFFFFFFFFFFFFFFFFFFFFF AND PUSH20 0xFFFFFFFFFFFFFFFFFFFFFFFFFFFFFFFFFFFFFFFF AND DUP5 PUSH32 0x3852D5EE76F8C7D023121D4B3993EED708ED188B4FEF90D13A41B4674D83AFB8 DUP5 PUSH1 0x40 MLOAD PUSH2 0xDE6 SWAP2 SWAP1 PUSH2 0x187B JUMP JUMPDEST PUSH1 0x40 MLOAD DUP1 SWAP2 SUB SWAP1 LOG3 POP POP POP POP JUMP JUMPDEST PUSH0 PUSH0 DUP6 DUP6 SWAP1 POP EQ DUP1 PUSH2 0xE08 JUMPI POP PUSH0 DUP4 DUP4 SWAP1 POP EQ JUMPDEST DUP1 PUSH2 0xE12 JUMPI POP PUSH0 CALLVALUE EQ JUMPDEST ISZERO PUSH2 0xE49 JUMPI PUSH1 0x40 MLOAD PUSH32 0xDA5D547300000000000000000000000000000000000000000000000000000000 DUP2 MSTORE PUSH1 0x4 ADD PUSH1 0x40 MLOAD DUP1 SWAP2 SUB SWAP1 REVERT JUMPDEST PUSH0 DUP1 SLOAD SWAP1 POP SWAP1 POP PUSH0 PUSH0 PUSH1 0x1 DUP2 PUSH1 0x1 DUP2 SLOAD ADD DUP1 DUP3 SSTORE DUP1 SWAP2 POP POP SUB SWAP1 PUSH0 MSTORE PUSH1 0x20 PUSH0 KECCAK256 SWAP1 PUSH1 0x4 MUL ADD SWAP1 POP CALLER DUP2 PUSH0 ADD PUSH0 PUSH2 0x100 EXP DUP2 SLOAD DUP2 PUSH20 0xFFFFFFFFFFFFFFFFFFFFFFFFFFFFFFFFFFFFFFFF MUL NOT AND SWAP1 DUP4 PUSH20 0xFFFFFFFFFFFFFFFFFFFFFFFFFFFFFFFFFFFFFFFF AND MUL OR SWAP1 SSTORE POP DUP6 DUP6 DUP3 PUSH1 0x1 ADD SWAP2 DUP3 PUSH2 0xEC4 SWAP3 SWAP2 SWAP1 PUSH2 0x1A62 JUMP JUMPDEST POP DUP4 DUP4 DUP3 PUSH1 0x2 ADD SWAP2 DUP3 PUSH2 0xED8 SWAP3 SWAP2 SWAP1 PUSH2 0x1A62 JUMP JUMPDEST POP CALLVALUE DUP2 PUSH1 0x3 ADD PUSH0 PUSH2 0x100 EXP DUP2 SLOAD DUP2 PUSH16 0xFFFFFFFFFFFFFFFFFFFFFFFFFFFFFFFF MUL NOT AND SWAP1 DUP4 PUSH16 0xFFFFFFFFFFFFFFFFFFFFFFFFFFFFFFFF AND MUL OR SWAP1 SSTORE POP CALLER PUSH20 0xFFFFFFFFFFFFFFFFFFFFFFFFFFFFFFFFFFFFFFFF AND DUP3 PUSH32 0xC74B3803DF7BE5418E64A332BBF85DDEDB2ACBE729EAC5097345E28C5E25C091 DUP9 DUP9 DUP6 PUSH1 0x3 ADD PUSH0 SWAP1 SLOAD SWAP1 PUSH2 0x100 EXP SWAP1 DIV PUSH16 0xFFFFFFFFFFFFFFFFFFFFFFFFFFFFFFFF AND PUSH1 0x40 MLOAD PUSH2 0xF7D SWAP4 SWAP3 SWAP2 SWAP1 PUSH2 0x1B69 JUMP JUMPDEST PUSH1 0x40 MLOAD DUP1 SWAP2 SUB SWAP1 LOG3 POP SWAP5 SWAP4 POP POP POP POP JUMP JUMPDEST PUSH1 0x1 PUSH1 0x20 MSTORE DUP2 PUSH0 MSTORE PUSH1 0x40 PUSH0 KECCAK256 PUSH1 0x20 MSTORE DUP1 PUSH0 MSTORE PUSH1 0x40 PUSH0 KECCAK256 PUSH0 SWAP2 POP SWAP2 POP SWAP1 SLOAD SWAP1 PUSH2 0x100 EXP SWAP1 DIV PUSH1 0xFF AND DUP2 JUMP JUMPDEST PUSH0 PUSH0 PUSH0 PUSH0 PUSH1 0x2 PUSH0 DUP7 DUP2 MSTORE PUSH1 0x20 ADD SWAP1 DUP2 MSTORE PUSH1 0x20 ADD PUSH0 KECCAK256 SWAP1 POP DUP1 PUSH0 ADD PUSH0 SWAP1 SLOAD SWAP1 PUSH2 0x100 EXP SWAP1 DIV PUSH1 0xFF AND DUP2 PUSH0 ADD PUSH1 0x1 SWAP1 SLOAD SWAP1 PUSH2 0x100 EXP SWAP1 DIV PUSH1 0xFF AND DUP3 PUSH0 ADD PUSH1 0x2 SWAP1 SLOAD SWAP1 PUSH2 0x100 EXP SWAP1 DIV PUSH20 0xFFFFFFFFFFFFFFFFFFFFFFFFFFFFFFFFFFFFFFFF AND SWAP4 POP SWAP4 POP SWAP4 POP POP SWAP2 SWAP4 SWAP1 SWAP3 POP JUMP JUMPDEST PUSH0 PUSH1 0x1 PUSH0 DUP5 DUP2 MSTORE PUSH1 0x20 ADD SWAP1 DUP2 MSTORE PUSH1 0x20 ADD PUSH0 KECCAK256 PUSH0 DUP4 PUSH20 0xFFFFFFFFFFFFFFFFFFFFFFFFFFFFFFFFFFFFFFFF AND PUSH20 0xFFFFFFFFFFFFFFFFFFFFFFFFFFFFFFFFFFFFFFFF AND DUP2 MSTORE PUSH1 0x20 ADD SWAP1 DUP2 MSTORE PUSH1 0x20 ADD PUSH0 KECCAK256 PUSH0 SWAP1 SLOAD SWAP1 PUSH2 0x100 EXP SWAP1 DIV PUSH1 0xFF AND SWAP1 POP SWAP3 SWAP2 POP POP JUMP JUMPDEST PUSH1 0x60 PUSH0 PUSH8 0xFFFFFFFFFFFFFFFF DUP2 GT ISZERO PUSH2 0x10A0 JUMPI PUSH2 0x109F PUSH2 0x189E JUMP JUMPDEST JUMPDEST PUSH1 0x40 MLOAD SWAP1 DUP1 DUP3 MSTORE DUP1 PUSH1 0x20 MUL PUSH1 0x20 ADD DUP3 ADD PUSH1 0x40 MSTORE DUP1 ISZERO PUSH2 0x10CE JUMPI DUP2 PUSH1 0x20 ADD PUSH1 0x20 DUP3 MUL DUP1 CALLDATASIZE DUP4 CALLDATACOPY DUP1 DUP3 ADD SWAP2 POP POP SWAP1 POP JUMPDEST POP SWAP1 POP SWAP2 SWAP1 POP JUMP JUMPDEST PUSH32 0x0 DUP2 JUMP JUMPDEST PUSH0 PUSH0 REVERT JUMPDEST PUSH0 PUSH0 REVERT JUMPDEST PUSH0 DUP2 SWAP1 POP SWAP2 SWAP1 POP JUMP JUMPDEST PUSH2 0x1114 DUP2 PUSH2 0x1102 JUMP JUMPDEST DUP2 EQ PUSH2 0x111E JUMPI PUSH0 PUSH0 REVERT JUMPDEST POP JUMP JUMPDEST PUSH0 DUP2 CALLDATALOAD SWAP1 POP PUSH2 0x112F DUP2 PUSH2 0x110B JUMP JUMPDEST SWAP3 SWAP2 POP POP JUMP JUMPDEST PUSH0 PUSH1 0x20 DUP3 DUP5 SUB SLT ISZERO PUSH2 0x114A JUMPI PUSH2 0x1149 PUSH2 0x10FA JUMP JUMPDEST JUMPDEST PUSH0 PUSH2 0x1157 DUP5 DUP3 DUP6 ADD PUSH2 0x1121 JUMP JUMPDEST SWAP2 POP POP SWAP3 SWAP2 POP POP JUMP JUMPDEST PUSH0 PUSH20 0xFFFFFFFFFFFFFFFFFFFFFFFFFFFFFFFFFFFFFFFF DUP3 AND SWAP1 POP SWAP2 SWAP1 POP JUMP JUMPDEST PUSH0 PUSH2 0x1189 DUP3 PUSH2 0x1160 JUMP JUMPDEST SWAP1 POP SWAP2 SWAP1 POP JUMP JUMPDEST PUSH2 0x1199 DUP2 PUSH2 0x117F JUMP JUMPDEST DUP3 MSTORE POP POP JUMP JUMPDEST PUSH0 DUP2 MLOAD SWAP1 POP SWAP2 SWAP1 POP JUMP JUMPDEST PUSH0 DUP3 DUP3 MSTORE PUSH1 0x20 DUP3 ADD SWAP1 POP SWAP3 SWAP2 POP POP JUMP JUMPDEST DUP3 DUP2 DUP4 MCOPY PUSH0 DUP4 DUP4 ADD MSTORE POP POP POP JUMP JUMPDEST PUSH0 PUSH1 0x1F NOT PUSH1 0x1F DUP4 ADD AND SWAP1 POP SWAP2 SWAP1 POP JUMP JUMPDEST PUSH0 PUSH2 0x11E1 DUP3 PUSH2 0x119F JUMP JUMPDEST PUSH2 0x11EB DUP2 DUP6 PUSH2 0x11A9 JUMP JUMPDEST SWAP4 POP PUSH2 0x11FB DUP2 DUP6 PUSH1 0x20 DUP7 ADD PUSH2 0x11B9 JUMP JUMPDEST PUSH2 0x1204 DUP2 PUSH2 0x11C7 JUMP JUMPDEST DUP5 ADD SWAP2 POP POP SWAP3 SWAP2 POP POP JUMP JUMPDEST PUSH0 PUSH16 0xFFFFFFFFFFFFFFFFFFFFFFFFFFFFFFFF DUP3 AND SWAP1 POP SWAP2 SWAP1 POP JUMP JUMPDEST PUSH2 0x1233 DUP2 PUSH2 0x120F JUMP JUMPDEST DUP3 MSTORE POP POP JUMP JUMPDEST PUSH0 PUSH8 0xFFFFFFFFFFFFFFFF DUP3 AND SWAP1 POP SWAP2 SWAP1 POP JUMP JUMPDEST PUSH2 0x1255 DUP2 PUSH2 0x1239 JUMP JUMPDEST DUP3 MSTORE POP POP JUMP JUMPDEST PUSH0 DUP2 ISZERO ISZERO SWAP1 POP SWAP2 SWAP1 POP JUMP JUMPDEST PUSH2 0x126F DUP2 PUSH2 0x125B JUMP JUMPDEST DUP3 MSTORE POP POP JUMP JUMPDEST PUSH0 PUSH2 0x100 DUP3 ADD SWAP1 POP PUSH2 0x1289 PUSH0 DUP4 ADD DUP12 PUSH2 0x1190 JUMP JUMPDEST DUP2 DUP2 SUB PUSH1 0x20 DUP4 ADD MSTORE PUSH2 0x129B DUP2 DUP11 PUSH2 0x11D7 JUMP JUMPDEST SWAP1 POP DUP2 DUP2 SUB PUSH1 0x40 DUP4 ADD MSTORE PUSH2 0x12AF DUP2 DUP10 PUSH2 0x11D7 JUMP JUMPDEST SWAP1 POP PUSH2 0x12BE PUSH1 0x60 DUP4 ADD DUP9 PUSH2 0x122A JUMP JUMPDEST PUSH2 0x12CB PUSH1 0x80 DUP4 ADD DUP8 PUSH2 0x124C JUMP JUMPDEST PUSH2 0x12D8 PUSH1 0xA0 DUP4 ADD DUP7 PUSH2 0x1266 JUMP JUMPDEST PUSH2 0x12E5 PUSH1 0xC0 DUP4 ADD DUP6 PUSH2 0x1266 JUMP JUMPDEST PUSH2 0x12F2 PUSH1 0xE0 DUP4 ADD DUP5 PUSH2 0x1266 JUMP JUMPDEST SWAP10 SWAP9 POP POP POP POP POP POP POP POP POP JUMP JUMPDEST PUSH0 PUSH1 0x20 DUP3 ADD SWAP1 POP PUSH2 0x1312 PUSH0 DUP4 ADD DUP5 PUSH2 0x124C JUMP JUMPDEST SWAP3 SWAP2 POP POP JUMP JUMPDEST PUSH2 0x1321 DUP2 PUSH2 0x125B JUMP JUMPDEST DUP2 EQ PUSH2 0x132B JUMPI PUSH0 PUSH0 REVERT JUMPDEST POP JUMP JUMPDEST PUSH0 DUP2 CALLDATALOAD SWAP1 POP PUSH2 0x133C DUP2 PUSH2 0x1318 JUMP JUMPDEST SWAP3 SWAP2 POP POP JUMP JUMPDEST PUSH0 PUSH0 PUSH1 0x40 DUP4 DUP6 SUB SLT ISZERO PUSH2 0x1358 JUMPI PUSH2 0x1357 PUSH2 0x10FA JUMP JUMPDEST JUMPDEST PUSH0 PUSH2 0x1365 DUP6 DUP3 DUP7 ADD PUSH2 0x1121 JUMP JUMPDEST SWAP3 POP POP PUSH1 0x20 PUSH2 0x1376 DUP6 DUP3 DUP7 ADD PUSH2 0x132E JUMP JUMPDEST SWAP2 POP POP SWAP3 POP SWAP3 SWAP1 POP JUMP JUMPDEST PUSH2 0x1389 DUP2 PUSH2 0x1102 JUMP JUMPDEST DUP3 MSTORE POP POP JUMP JUMPDEST PUSH0 PUSH1 0x20 DUP3 ADD SWAP1 POP PUSH2 0x13A2 PUSH0 DUP4 ADD DUP5 PUSH2 0x1380 JUMP JUMPDEST SWAP3 SWAP2 POP POP JUMP JUMPDEST PUSH0 PUSH0 REVERT JUMPDEST PUSH0 PUSH0 REVERT JUMPDEST PUSH0 PUSH0 REVERT JUMPDEST PUSH0 PUSH0 DUP4 PUSH1 0x1F DUP5 ADD SLT PUSH2 0x13C9 JUMPI PUSH2 0x13C8 PUSH2 0x13A8 JUMP JUMPDEST JUMPDEST DUP3 CALLDATALOAD SWAP1 POP PUSH8 0xFFFFFFFFFFFFFFFF DUP2 GT ISZERO PUSH2 0x13E6 JUMPI PUSH2 0x13E5 PUSH2 0x13AC JUMP JUMPDEST JUMPDEST PUSH1 0x20 DUP4 ADD SWAP2 POP DUP4 PUSH1 0x1 DUP3 MUL DUP4 ADD GT ISZERO PUSH2 0x1402 JUMPI PUSH2 0x1401 PUSH2 0x13B0 JUMP JUMPDEST JUMPDEST SWAP3 POP SWAP3 SWAP1 POP JUMP JUMPDEST PUSH0 PUSH0 PUSH0 PUSH0 PUSH1 0x40 DUP6 DUP8 SUB SLT ISZERO PUSH2 0x1421 JUMPI PUSH2 0x1420 PUSH2 0x10FA JUMP JUMPDEST JUMPDEST PUSH0 DUP6 ADD CALLDATALOAD PUSH8 0xFFFFFFFFFFFFFFFF DUP2 GT ISZERO PUSH2 0x143E JUMPI PUSH2 0x143D PUSH2 0x10FE JUMP JUMPDEST JUMPDEST PUSH2 0x144A DUP8 DUP3 DUP9 ADD PUSH2 0x13B4 JUMP JUMPDEST SWAP5 POP SWAP5 POP POP PUSH1 0x20 DUP6 ADD CALLDATALOAD PUSH8 0xFFFFFFFFFFFFFFFF DUP2 GT ISZERO PUSH2 0x146D JUMPI PUSH2 0x146C PUSH2 0x10FE JUMP JUMPDEST JUMPDEST PUSH2 0x1479 DUP8 DUP3 DUP9 ADD PUSH2 0x13B4 JUMP JUMPDEST SWAP3 POP SWAP3 POP POP SWAP3 SWAP6 SWAP2 SWAP5 POP SWAP3 POP JUMP JUMPDEST PUSH2 0x1490 DUP2 PUSH2 0x117F JUMP JUMPDEST DUP2 EQ PUSH2 0x149A JUMPI PUSH0 PUSH0 REVERT JUMPDEST POP JUMP JUMPDEST PUSH0 DUP2 CALLDATALOAD SWAP1 POP PUSH2 0x14AB DUP2 PUSH2 0x1487 JUMP JUMPDEST SWAP3 SWAP2 POP POP JUMP JUMPDEST PUSH0 PUSH0 PUSH1 0x40 DUP4 DUP6 SUB SLT ISZERO PUSH2 0x14C7 JUMPI PUSH2 0x14C6 PUSH2 0x10FA JUMP JUMPDEST JUMPDEST PUSH0 PUSH2 0x14D4 DUP6 DUP3 DUP7 ADD PUSH2 0x1121 JUMP JUMPDEST SWAP3 POP POP PUSH1 0x20 PUSH2 0x14E5 DUP6 DUP3 DUP7 ADD PUSH2 0x149D JUMP JUMPDEST SWAP2 POP POP SWAP3 POP SWAP3 SWAP1 POP JUMP JUMPDEST PUSH0 PUSH1 0x20 DUP3 ADD SWAP1 POP PUSH2 0x1502 PUSH0 DUP4 ADD DUP5 PUSH2 0x1266 JUMP JUMPDEST SWAP3 SWAP2 POP POP JUMP JUMPDEST PUSH0 PUSH1 0x60 DUP3 ADD SWAP1 POP PUSH2 0x151B PUSH0 DUP4 ADD DUP7 PUSH2 0x1266 JUMP JUMPDEST PUSH2 0x1528 PUSH1 0x20 DUP4 ADD DUP6 PUSH2 0x1266 JUMP JUMPDEST PUSH2 0x1535 PUSH1 0x40 DUP4 ADD DUP5 PUSH2 0x1190 JUMP JUMPDEST SWAP5 SWAP4 POP POP POP POP JUMP JUMPDEST PUSH0 DUP2 MLOAD SWAP1 POP SWAP2 SWAP1 POP JUMP JUMPDEST PUSH0 DUP3 DUP3 MSTORE PUSH1 0x20 DUP3 ADD SWAP1 POP SWAP3 SWAP2 POP POP JUMP JUMPDEST PUSH0 DUP2 SWAP1 POP PUSH1 0x20 DUP3 ADD SWAP1 POP SWAP2 SWAP1 POP JUMP JUMPDEST PUSH2 0x156F DUP2 PUSH2 0x117F JUMP JUMPDEST DUP3 MSTORE POP POP JUMP JUMPDEST PUSH0 PUSH2 0x1580 DUP4 DUP4 PUSH2 0x1566 JUMP JUMPDEST PUSH1 0x20 DUP4 ADD SWAP1 POP SWAP3 SWAP2 POP POP JUMP JUMPDEST PUSH0 PUSH1 0x20 DUP3 ADD SWAP1 POP SWAP2 SWAP1 POP JUMP JUMPDEST PUSH0 PUSH2 0x15A2 DUP3 PUSH2 0x153D JUMP JUMPDEST PUSH2 0x15AC DUP2 DUP6 PUSH2 0x1547 JUMP JUMPDEST SWAP4 POP PUSH2 0x15B7 DUP4 PUSH2 0x1557 JUMP JUMPDEST DUP1 PUSH0 JUMPDEST DUP4 DUP2 LT ISZERO PUSH2 0x15E7 JUMPI DUP2 MLOAD PUSH2 0x15CE DUP9 DUP3 PUSH2 0x1575 JUMP JUMPDEST SWAP8 POP PUSH2 0x15D9 DUP4 PUSH2 0x158C JUMP JUMPDEST SWAP3 POP POP PUSH1 0x1 DUP2 ADD SWAP1 POP PUSH2 0x15BA JUMP JUMPDEST POP DUP6 SWAP4 POP POP POP POP SWAP3 SWAP2 POP POP JUMP JUMPDEST PUSH0 PUSH1 0x20 DUP3 ADD SWAP1 POP DUP2 DUP2 SUB PUSH0 DUP4 ADD MSTORE PUSH2 0x160C DUP2 DUP5 PUSH2 0x1598 JUMP JUMPDEST SWAP1 POP SWAP3 SWAP2 POP POP JUMP JUMPDEST PUSH0 DUP2 SWAP1 POP SWAP2 SWAP1 POP JUMP JUMPDEST PUSH0 PUSH2 0x1637 PUSH2 0x1632 PUSH2 0x162D DUP5 PUSH2 0x1160 JUMP JUMPDEST PUSH2 0x1614 JUMP JUMPDEST PUSH2 0x1160 JUMP JUMPDEST SWAP1 POP SWAP2 SWAP1 POP JUMP JUMPDEST PUSH0 PUSH2 0x1648 DUP3 PUSH2 0x161D JUMP JUMPDEST SWAP1 POP SWAP2 SWAP1 POP JUMP JUMPDEST PUSH0 PUSH2 0x1659 DUP3 PUSH2 0x163E JUMP JUMPDEST SWAP1 POP SWAP2 SWAP1 POP JUMP JUMPDEST PUSH2 0x1669 DUP2 PUSH2 0x164F JUMP JUMPDEST DUP3 MSTORE POP POP JUMP JUMPDEST PUSH0 PUSH1 0x20 DUP3 ADD SWAP1 POP PUSH2 0x1682 PUSH0 DUP4 ADD DUP5 PUSH2 0x1660 JUMP JUMPDEST SWAP3 SWAP2 POP POP JUMP JUMPDEST PUSH32 0x4E487B7100000000000000000000000000000000000000000000000000000000 PUSH0 MSTORE PUSH1 0x32 PUSH1 0x4 MSTORE PUSH1 0x24 PUSH0 REVERT JUMPDEST PUSH32 0x4E487B7100000000000000000000000000000000000000000000000000000000 PUSH0 MSTORE PUSH1 0x22 PUSH1 0x4 MSTORE PUSH1 0x24 PUSH0 REVERT JUMPDEST PUSH0 PUSH1 0x2 DUP3 DIV SWAP1 POP PUSH1 0x1 DUP3 AND DUP1 PUSH2 0x16F9 JUMPI PUSH1 0x7F DUP3 AND SWAP2 POP JUMPDEST PUSH1 0x20 DUP3 LT DUP2 SUB PUSH2 0x170C JUMPI PUSH2 0x170B PUSH2 0x16B5 JUMP JUMPDEST JUMPDEST POP SWAP2 SWAP1 POP JUMP JUMPDEST PUSH0 PUSH1 0x20 DUP3 ADD SWAP1 POP PUSH2 0x1725 PUSH0 DUP4 ADD DUP5 PUSH2 0x1190 JUMP JUMPDEST SWAP3 SWAP2 POP POP JUMP JUMPDEST PUSH0 DUP2 MLOAD SWAP1 POP PUSH2 0x1739 DUP2 PUSH2 0x1318 JUMP JUMPDEST SWAP3 SWAP2 POP POP JUMP JUMPDEST PUSH0 PUSH1 0x20 DUP3 DUP5 SUB SLT ISZERO PUSH2 0x1754 JUMPI PUSH2 0x1753 PUSH2 0x10FA JUMP JUMPDEST JUMPDEST PUSH0 PUSH2 0x1761 DUP5 DUP3 DUP6 ADD PUSH2 0x172B JUMP JUMPDEST SWAP2 POP POP SWAP3 SWAP2 POP POP JUMP JUMPDEST PUSH32 0x4E487B7100000000000000000000000000000000000000000000000000000000 PUSH0 MSTORE PUSH1 0x11 PUSH1 0x4 MSTORE PUSH1 0x24 PUSH0 REVERT JUMPDEST PUSH0 PUSH2 0x17A1 DUP3 PUSH2 0x1239 JUMP JUMPDEST SWAP2 POP PUSH2 0x17AC DUP4 PUSH2 0x1239 JUMP JUMPDEST SWAP3 POP DUP3 DUP3 ADD SWAP1 POP PUSH8 0xFFFFFFFFFFFFFFFF DUP2 GT ISZERO PUSH2 0x17CC JUMPI PUSH2 0x17CB PUSH2 0x176A JUMP JUMPDEST JUMPDEST SWAP3 SWAP2 POP POP JUMP JUMPDEST PUSH0 DUP2 SWAP1 POP SWAP3 SWAP2 POP POP JUMP JUMPDEST POP JUMP JUMPDEST PUSH0 PUSH2 0x17EA PUSH0 DUP4 PUSH2 0x17D2 JUMP JUMPDEST SWAP2 POP PUSH2 0x17F5 DUP3 PUSH2 0x17DC JUMP JUMPDEST PUSH0 DUP3 ADD SWAP1 POP SWAP2 SWAP1 POP JUMP JUMPDEST PUSH0 PUSH2 0x1809 DUP3 PUSH2 0x17DF JUMP JUMPDEST SWAP2 POP DUP2 SWAP1 POP SWAP2 SWAP1 POP JUMP JUMPDEST PUSH32 0x726566756E64206661696C656400000000000000000000000000000000000000 PUSH0 DUP3 ADD MSTORE POP JUMP JUMPDEST PUSH0 PUSH2 0x1847 PUSH1 0xD DUP4 PUSH2 0x11A9 JUMP JUMPDEST SWAP2 POP PUSH2 0x1852 DUP3 PUSH2 0x1813 JUMP JUMPDEST PUSH1 0x20 DUP3 ADD SWAP1 POP SWAP2 SWAP1 POP JUMP JUMPDEST PUSH0 PUSH1 0x20 DUP3 ADD SWAP1 POP DUP2 DUP2 SUB PUSH0 DUP4 ADD MSTORE PUSH2 0x1874 DUP2 PUSH2 0x183B JUMP JUMPDEST SWAP1 POP SWAP2 SWAP1 POP JUMP JUMPDEST PUSH0 PUSH1 0x20 DUP3 ADD SWAP1 POP PUSH2 0x188E PUSH0 DUP4 ADD DUP5 PUSH2 0x122A JUMP JUMPDEST SWAP3 SWAP2 POP POP JUMP JUMPDEST PUSH0 DUP3 SWAP1 POP SWAP3 SWAP2 POP POP JUMP JUMPDEST PUSH32 0x4E487B7100000000000000000000000000000000000000000000000000000000 PUSH0 MSTORE PUSH1 0x41 PUSH1 0x4 MSTORE PUSH1 0x24 PUSH0 REVERT JUMPDEST PUSH0 DUP2 SWAP1 POP DUP2 PUSH0 MSTORE PUSH1 0x20 PUSH0 KECCAK256 SWAP1 POP SWAP2 SWAP1 POP JUMP JUMPDEST PUSH0 PUSH1 0x20 PUSH1 0x1F DUP4 ADD DIV SWAP1 POP SWAP2 SWAP1 POP JUMP JUMPDEST PUSH0 DUP3 DUP3 SHL SWAP1 POP SWAP3 SWAP2 POP POP JUMP JUMPDEST PUSH0 PUSH1 0x8 DUP4 MUL PUSH2 0x1927 PUSH32 0xFFFFFFFFFFFFFFFFFFFFFFFFFFFFFFFFFFFFFFFFFFFFFFFFFFFFFFFFFFFFFFFF DUP3 PUSH2 0x18EC JUMP JUMPDEST PUSH2 0x1931 DUP7 DUP4 PUSH2 0x18EC JUMP JUMPDEST SWAP6 POP DUP1 NOT DUP5 AND SWAP4 POP DUP1 DUP7 AND DUP5 OR SWAP3 POP POP POP SWAP4 SWAP3 POP POP POP JUMP JUMPDEST PUSH0 PUSH2 0x1963 PUSH2 0x195E PUSH2 0x1959 DUP5 PUSH2 0x1102 JUMP JUMPDEST PUSH2 0x1614 JUMP JUMPDEST PUSH2 0x1102 JUMP JUMPDEST SWAP1 POP SWAP2 SWAP1 POP JUMP JUMPDEST PUSH0 DUP2 SWAP1 POP SWAP2 SWAP1 POP JUMP JUMPDEST PUSH2 0x197C DUP4 PUSH2 0x1949 JUMP JUMPDEST PUSH2 0x1990 PUSH2 0x1988 DUP3 PUSH2 0x196A JUMP JUMPDEST DUP5 DUP5 SLOAD PUSH2 0x18F8 JUMP JUMPDEST DUP3 SSTORE POP POP POP POP JUMP JUMPDEST PUSH0 PUSH0 SWAP1 POP SWAP1 JUMP JUMPDEST PUSH2 0x19A7 PUSH2 0x1998 JUMP JUMPDEST PUSH2 0x19B2 DUP2 DUP5 DUP5 PUSH2 0x1973 JUMP JUMPDEST POP POP POP JUMP JUMPDEST JUMPDEST DUP2 DUP2 LT ISZERO PUSH2 0x19D5 JUMPI PUSH2 0x19CA PUSH0 DUP3 PUSH2 0x199F JUMP JUMPDEST PUSH1 0x1 DUP2 ADD SWAP1 POP PUSH2 0x19B8 JUMP JUMPDEST POP POP JUMP JUMPDEST PUSH1 0x1F DUP3 GT ISZERO PUSH2 0x1A1A JUMPI PUSH2 0x19EB DUP2 PUSH2 0x18CB JUMP JUMPDEST PUSH2 0x19F4 DUP5 PUSH2 0x18DD JUMP JUMPDEST DUP2 ADD PUSH1 0x20 DUP6 LT ISZERO PUSH2 0x1A03 JUMPI DUP2 SWAP1 POP JUMPDEST PUSH2 0x1A17 PUSH2 0x1A0F DUP6 PUSH2 0x18DD JUMP JUMPDEST DUP4 ADD DUP3 PUSH2 0x19B7 JUMP JUMPDEST POP POP JUMPDEST POP POP POP JUMP JUMPDEST PUSH0 DUP3 DUP3 SHR SWAP1 POP SWAP3 SWAP2 POP POP JUMP JUMPDEST PUSH0 PUSH2 0x1A3A PUSH0 NOT DUP5 PUSH1 0x8 MUL PUSH2 0x1A1F JUMP JUMPDEST NOT DUP1 DUP4 AND SWAP2 POP POP SWAP3 SWAP2 POP POP JUMP JUMPDEST PUSH0 PUSH2 0x1A52 DUP4 DUP4 PUSH2 0x1A2B JUMP JUMPDEST SWAP2 POP DUP3 PUSH1 0x2 MUL DUP3 OR SWAP1 POP SWAP3 SWAP2 POP POP JUMP JUMPDEST PUSH2 0x1A6C DUP4 DUP4 PUSH2 0x1894 JUMP JUMPDEST PUSH8 0xFFFFFFFFFFFFFFFF DUP2 GT ISZERO PUSH2 0x1A85 JUMPI PUSH2 0x1A84 PUSH2 0x189E JUMP JUMPDEST JUMPDEST PUSH2 0x1A8F DUP3 SLOAD PUSH2 0x16E2 JUMP JUMPDEST PUSH2 0x1A9A DUP3 DUP3 DUP6 PUSH2 0x19D9 JUMP JUMPDEST PUSH0 PUSH1 0x1F DUP4 GT PUSH1 0x1 DUP2 EQ PUSH2 0x1AC7 JUMPI PUSH0 DUP5 ISZERO PUSH2 0x1AB5 JUMPI DUP3 DUP8 ADD CALLDATALOAD SWAP1 POP JUMPDEST PUSH2 0x1ABF DUP6 DUP3 PUSH2 0x1A47 JUMP JUMPDEST DUP7 SSTORE POP PUSH2 0x1B26 JUMP JUMPDEST PUSH1 0x1F NOT DUP5 AND PUSH2 0x1AD5 DUP7 PUSH2 0x18CB JUMP JUMPDEST PUSH0 JUMPDEST DUP3 DUP2 LT ISZERO PUSH2 0x1AFC JUMPI DUP5 DUP10 ADD CALLDATALOAD DUP3 SSTORE PUSH1 0x1 DUP3 ADD SWAP2 POP PUSH1 0x20 DUP6 ADD SWAP5 POP PUSH1 0x20 DUP2 ADD SWAP1 POP PUSH2 0x1AD7 JUMP JUMPDEST DUP7 DUP4 LT ISZERO PUSH2 0x1B19 JUMPI DUP5 DUP10 ADD CALLDATALOAD PUSH2 0x1B15 PUSH1 0x1F DUP10 AND DUP3 PUSH2 0x1A2B JUMP JUMPDEST DUP4 SSTORE POP JUMPDEST PUSH1 0x1 PUSH1 0x2 DUP9 MUL ADD DUP9 SSTORE POP POP POP JUMPDEST POP POP POP POP POP POP POP JUMP JUMPDEST DUP3 DUP2 DUP4 CALLDATACOPY PUSH0 DUP4 DUP4 ADD MSTORE POP POP POP JUMP JUMPDEST PUSH0 PUSH2 0x1B48 DUP4 DUP6 PUSH2 0x11A9 JUMP JUMPDEST SWAP4 POP PUSH2 0x1B55 DUP4 DUP6 DUP5 PUSH2 0x1B2F JUMP JUMPDEST PUSH2 0x1B5E DUP4 PUSH2 0x11C7 JUMP JUMPDEST DUP5 ADD SWAP1 POP SWAP4 SWAP3 POP POP POP JUMP JUMPDEST PUSH0 PUSH1 0x40 DUP3 ADD SWAP1 POP DUP2 DUP2 SUB PUSH0 DUP4 ADD MSTORE PUSH2 0x1B82 DUP2 DUP6 DUP8 PUSH2 0x1B3D JUMP JUMPDEST SWAP1 POP PUSH2 0x1B91 PUSH1 0x20 DUP4 ADD DUP5 PUSH2 0x122A JUMP JUMPDEST SWAP5 SWAP4 POP POP POP POP JUMP INVALID LOG2 PUSH5 0x6970667358 0x22 SLT KECCAK256 0xA6 CALLCODE 0x2C ADD 0xC4 0x4C EXP DELEGATECALL CREATE PUSH30 0x49368FE1A6DD57EB9617D31B0592720D9C11A2D07FC64736F6C63430008 0x1E STOP CALLER "
		},
		"gasEstimates": {
			"creation": {
				"codeDepositCost": "196000",
				"executionCost": "infinite",
				"totalCost": "infinite"
			},
			"external": {
				"EXTRA_GOV()": "351",
				"EXTRA_GOV2()": "373",
				"addresses()": "infinite",
				"factory()": "infinite",
				"pollHub()": "infinite",
				"router()": "infinite"
			}
		},
		"methodIdentifiers": {
			"EXTRA_GOV()": "8747eaf1",
			"EXTRA_GOV2()": "c30d4bed",
			"addresses()": "da0321cd",
			"factory()": "c45a0155",
			"pollHub()": "e138cc9a",
			"router()": "f887ea40"
		}
	},
	"abi": [
		{
			"inputs": [],
			"stateMutability": "nonpayable",
			"type": "constructor"
		},
		{
			"anonymous": false,
			"inputs": [
				{
					"indexed": false,
					"internalType": "address",
					"name": "router",
					"type": "address"
				},
				{
					"indexed": false,
					"internalType": "address",
					"name": "factory",
					"type": "address"
				},
				{
					"indexed": false,
					"internalType": "address",
					"name": "pollHub",
					"type": "address"
				},
				{
					"indexed": false,
					"internalType": "address",
					"name": "government",
					"type": "address"
				}
			],
			"name": "SystemReady",
			"type": "event"
		},
		{
			"inputs": [],
			"name": "EXTRA_GOV",
			"outputs": [
				{
					"internalType": "address",
					"name": "",
					"type": "address"
				}
			],
			"stateMutability": "view",
			"type": "function"
		},
		{
			"inputs": [],
			"name": "EXTRA_GOV2",
			"outputs": [
				{
					"internalType": "address",
					"name": "",
					"type": "address"
				}
			],
			"stateMutability": "view",
			"type": "function"
		},
		{
			"inputs": [],
			"name": "addresses",
			"outputs": [
				{
					"internalType": "address",
					"name": "routerAddr",
					"type": "address"
				},
				{
					"internalType": "address",
					"name": "factoryAddr",
					"type": "address"
				},
				{
					"internalType": "address",
					"name": "pollHubAddr",
					"type": "address"
				}
			],
			"stateMutability": "view",
			"type": "function"
		},
		{
			"inputs": [],
			"name": "factory",
			"outputs": [
				{
					"internalType": "contract GovFactory",
					"name": "",
					"type": "address"
				}
			],
			"stateMutability": "view",
			"type": "function"
		},
		{
			"inputs": [],
			"name": "pollHub",
			"outputs": [
				{
					"internalType": "contract PollHub",
					"name": "",
					"type": "address"
				}
			],
			"stateMutability": "view",
			"type": "function"
		},
		{
			"inputs": [],
			"name": "router",
			"outputs": [
				{
					"internalType": "contract SPIDWalletRouter",
					"name": "",
					"type": "address"
				}
			],
			"stateMutability": "view",
			"type": "function"
		}
	]
}